{
  "_format": "hh-sol-artifact-1",
  "contractName": "BondDepositoryProxy",
  "sourceName": "contracts/BondDepositoryProxy.sol",
  "abi": [
    {
      "anonymous": false,
      "inputs": [
        {
          "indexed": true,
          "internalType": "bytes32",
          "name": "role",
          "type": "bytes32"
        },
        {
          "indexed": true,
          "internalType": "bytes32",
          "name": "previousAdminRole",
          "type": "bytes32"
        },
        {
          "indexed": true,
          "internalType": "bytes32",
          "name": "newAdminRole",
          "type": "bytes32"
        }
      ],
      "name": "RoleAdminChanged",
      "type": "event"
    },
    {
      "anonymous": false,
      "inputs": [
        {
          "indexed": true,
          "internalType": "bytes32",
          "name": "role",
          "type": "bytes32"
        },
        {
          "indexed": true,
          "internalType": "address",
          "name": "account",
          "type": "address"
        },
        {
          "indexed": true,
          "internalType": "address",
          "name": "sender",
          "type": "address"
        }
      ],
      "name": "RoleGranted",
      "type": "event"
    },
    {
      "anonymous": false,
      "inputs": [
        {
          "indexed": true,
          "internalType": "bytes32",
          "name": "role",
          "type": "bytes32"
        },
        {
          "indexed": true,
          "internalType": "address",
          "name": "account",
          "type": "address"
        },
        {
          "indexed": true,
          "internalType": "address",
          "name": "sender",
          "type": "address"
        }
      ],
      "name": "RoleRevoked",
      "type": "event"
    },
    {
      "anonymous": false,
      "inputs": [
        {
          "indexed": true,
          "internalType": "address",
          "name": "impl",
          "type": "address"
        },
        {
          "indexed": false,
          "internalType": "bool",
          "name": "alive",
          "type": "bool"
        }
      ],
      "name": "SetAliveImplementation",
      "type": "event"
    },
    {
      "anonymous": false,
      "inputs": [
        {
          "indexed": true,
          "internalType": "bytes4",
          "name": "selector",
          "type": "bytes4"
        },
        {
          "indexed": true,
          "internalType": "address",
          "name": "impl",
          "type": "address"
        }
      ],
      "name": "SetSelectorImplementation",
      "type": "event"
    },
    {
      "anonymous": false,
      "inputs": [
        {
          "indexed": true,
          "internalType": "address",
          "name": "implementation",
          "type": "address"
        }
      ],
      "name": "Upgraded",
      "type": "event"
    },
    {
      "stateMutability": "payable",
      "type": "fallback"
    },
    {
      "inputs": [],
      "name": "ADMIN_ROLE",
      "outputs": [
        {
          "internalType": "bytes32",
          "name": "",
          "type": "bytes32"
        }
      ],
      "stateMutability": "view",
      "type": "function"
    },
    {
      "inputs": [],
      "name": "BURNER_ROLE",
      "outputs": [
        {
          "internalType": "bytes32",
          "name": "",
          "type": "bytes32"
        }
      ],
      "stateMutability": "view",
      "type": "function"
    },
    {
      "inputs": [],
      "name": "DEFAULT_ADMIN_ROLE",
      "outputs": [
        {
          "internalType": "bytes32",
          "name": "",
          "type": "bytes32"
        }
      ],
      "stateMutability": "view",
      "type": "function"
    },
    {
      "inputs": [],
      "name": "MINTER_ROLE",
      "outputs": [
        {
          "internalType": "bytes32",
          "name": "",
          "type": "bytes32"
        }
      ],
      "stateMutability": "view",
      "type": "function"
    },
    {
      "inputs": [],
      "name": "POLICY_ROLE",
      "outputs": [
        {
          "internalType": "bytes32",
          "name": "",
          "type": "bytes32"
        }
      ],
      "stateMutability": "view",
      "type": "function"
    },
    {
      "inputs": [],
      "name": "PROJECT_ADMIN_ROLE",
      "outputs": [
        {
          "internalType": "bytes32",
          "name": "",
          "type": "bytes32"
        }
      ],
      "stateMutability": "view",
      "type": "function"
    },
    {
      "inputs": [
        {
          "internalType": "address",
          "name": "account",
          "type": "address"
        }
      ],
      "name": "addAdmin",
      "outputs": [],
      "stateMutability": "nonpayable",
      "type": "function"
    },
    {
      "inputs": [
        {
          "internalType": "address",
          "name": "_account",
          "type": "address"
        }
      ],
      "name": "addPolicy",
      "outputs": [],
      "stateMutability": "nonpayable",
      "type": "function"
    },
    {
      "inputs": [
        {
          "internalType": "address",
          "name": "_owner",
          "type": "address"
        }
      ],
      "name": "addProxyAdmin",
      "outputs": [],
      "stateMutability": "nonpayable",
      "type": "function"
    },
    {
      "inputs": [
        {
          "internalType": "address",
          "name": "",
          "type": "address"
        }
      ],
      "name": "aliveImplementation",
      "outputs": [
        {
          "internalType": "bool",
          "name": "",
          "type": "bool"
        }
      ],
      "stateMutability": "view",
      "type": "function"
    },
    {
      "inputs": [],
      "name": "calculator",
      "outputs": [
        {
          "internalType": "address",
          "name": "",
          "type": "address"
        }
      ],
      "stateMutability": "view",
      "type": "function"
    },
    {
      "inputs": [],
      "name": "dTOS",
      "outputs": [
        {
          "internalType": "address",
          "name": "",
          "type": "address"
        }
      ],
      "stateMutability": "view",
      "type": "function"
    },
    {
      "inputs": [
        {
          "internalType": "address",
          "name": "",
          "type": "address"
        },
        {
          "internalType": "uint256",
          "name": "",
          "type": "uint256"
        }
      ],
      "name": "deposits",
      "outputs": [
        {
          "internalType": "uint256",
          "name": "marketId",
          "type": "uint256"
        },
        {
          "internalType": "uint256",
          "name": "stakeId",
          "type": "uint256"
        }
      ],
      "stateMutability": "view",
      "type": "function"
    },
    {
      "inputs": [
        {
          "internalType": "bytes32",
          "name": "role",
          "type": "bytes32"
        }
      ],
      "name": "getRoleAdmin",
      "outputs": [
        {
          "internalType": "bytes32",
          "name": "",
          "type": "bytes32"
        }
      ],
      "stateMutability": "view",
      "type": "function"
    },
    {
      "inputs": [
        {
          "internalType": "bytes4",
          "name": "_selector",
          "type": "bytes4"
        }
      ],
      "name": "getSelectorImplementation2",
      "outputs": [
        {
          "internalType": "address",
          "name": "impl",
          "type": "address"
        }
      ],
      "stateMutability": "view",
      "type": "function"
    },
    {
      "inputs": [
        {
          "internalType": "bytes32",
          "name": "role",
          "type": "bytes32"
        },
        {
          "internalType": "address",
          "name": "account",
          "type": "address"
        }
      ],
      "name": "grantRole",
      "outputs": [],
      "stateMutability": "nonpayable",
      "type": "function"
    },
    {
      "inputs": [
        {
          "internalType": "bytes32",
          "name": "role",
          "type": "bytes32"
        },
        {
          "internalType": "address",
          "name": "account",
          "type": "address"
        }
      ],
      "name": "hasRole",
      "outputs": [
        {
          "internalType": "bool",
          "name": "",
          "type": "bool"
        }
      ],
      "stateMutability": "view",
      "type": "function"
    },
    {
      "inputs": [],
      "name": "implementation",
      "outputs": [
        {
          "internalType": "address",
          "name": "",
          "type": "address"
        }
      ],
      "stateMutability": "view",
      "type": "function"
    },
    {
      "inputs": [
        {
          "internalType": "uint256",
          "name": "_index",
          "type": "uint256"
        }
      ],
      "name": "implementation2",
      "outputs": [
        {
          "internalType": "address",
          "name": "",
          "type": "address"
        }
      ],
      "stateMutability": "view",
      "type": "function"
    },
    {
      "inputs": [
        {
          "internalType": "address",
          "name": "_tos",
          "type": "address"
        },
        {
          "internalType": "address",
          "name": "_staking",
          "type": "address"
        },
        {
          "internalType": "address",
          "name": "_treasury",
          "type": "address"
        },
        {
          "internalType": "address",
          "name": "_calculator",
          "type": "address"
        },
        {
          "internalType": "address",
          "name": "_uniswapV3Factory",
          "type": "address"
        }
      ],
      "name": "initialize",
      "outputs": [],
      "stateMutability": "nonpayable",
      "type": "function"
    },
    {
      "inputs": [
        {
          "internalType": "address",
          "name": "account",
          "type": "address"
        }
      ],
      "name": "isAdmin",
      "outputs": [
        {
          "internalType": "bool",
          "name": "",
          "type": "bool"
        }
      ],
      "stateMutability": "view",
      "type": "function"
    },
    {
      "inputs": [
        {
          "internalType": "address",
          "name": "account",
          "type": "address"
        }
      ],
      "name": "isPolicy",
      "outputs": [
        {
          "internalType": "bool",
          "name": "",
          "type": "bool"
        }
      ],
      "stateMutability": "view",
      "type": "function"
    },
    {
      "inputs": [
        {
          "internalType": "address",
          "name": "account",
          "type": "address"
        }
      ],
      "name": "isProxyAdmin",
      "outputs": [
        {
          "internalType": "bool",
          "name": "",
          "type": "bool"
        }
      ],
      "stateMutability": "view",
      "type": "function"
    },
    {
      "inputs": [
        {
          "internalType": "uint256",
          "name": "",
          "type": "uint256"
        }
      ],
      "name": "marketList",
      "outputs": [
        {
          "internalType": "uint256",
          "name": "",
          "type": "uint256"
        }
      ],
      "stateMutability": "view",
      "type": "function"
    },
    {
      "inputs": [
        {
          "internalType": "uint256",
          "name": "",
          "type": "uint256"
        }
      ],
      "name": "markets",
      "outputs": [
        {
          "internalType": "bool",
          "name": "method",
          "type": "bool"
        },
        {
          "internalType": "address",
          "name": "quoteToken",
          "type": "address"
        },
        {
          "internalType": "uint256",
          "name": "capacity",
          "type": "uint256"
        },
        {
          "internalType": "uint256",
          "name": "endSaleTime",
          "type": "uint256"
        },
        {
          "internalType": "uint256",
          "name": "sold",
          "type": "uint256"
        },
        {
          "internalType": "uint256",
          "name": "maxPayout",
          "type": "uint256"
        }
      ],
      "stateMutability": "view",
      "type": "function"
    },
    {
      "inputs": [
        {
          "internalType": "uint256",
          "name": "",
          "type": "uint256"
        }
      ],
      "name": "metadata",
      "outputs": [
        {
          "internalType": "address",
          "name": "poolAddress",
          "type": "address"
        },
        {
          "internalType": "uint256",
          "name": "tokenPrice",
          "type": "uint256"
        },
        {
          "internalType": "uint256",
          "name": "tosPrice",
          "type": "uint256"
        },
        {
          "internalType": "uint256",
          "name": "totalSaleAmount",
          "type": "uint256"
        },
        {
          "internalType": "uint24",
          "name": "fee",
          "type": "uint24"
        },
        {
          "internalType": "bool",
          "name": "ethMarket",
          "type": "bool"
        }
      ],
      "stateMutability": "view",
      "type": "function"
    },
    {
      "inputs": [
        {
          "internalType": "uint256",
          "name": "",
          "type": "uint256"
        }
      ],
      "name": "metadataList",
      "outputs": [
        {
          "internalType": "uint256",
          "name": "",
          "type": "uint256"
        }
      ],
      "stateMutability": "view",
      "type": "function"
    },
    {
      "inputs": [],
      "name": "pauseProxy",
      "outputs": [
        {
          "internalType": "bool",
          "name": "",
          "type": "bool"
        }
      ],
      "stateMutability": "view",
      "type": "function"
    },
    {
      "inputs": [
        {
          "internalType": "uint256",
          "name": "",
          "type": "uint256"
        }
      ],
      "name": "proxyImplementation",
      "outputs": [
        {
          "internalType": "address",
          "name": "",
          "type": "address"
        }
      ],
      "stateMutability": "view",
      "type": "function"
    },
    {
      "inputs": [],
      "name": "removeAdmin",
      "outputs": [],
      "stateMutability": "nonpayable",
      "type": "function"
    },
    {
      "inputs": [],
      "name": "removePolicy",
      "outputs": [],
      "stateMutability": "nonpayable",
      "type": "function"
    },
    {
      "inputs": [],
      "name": "removeProxyAdmin",
      "outputs": [],
      "stateMutability": "nonpayable",
      "type": "function"
    },
    {
      "inputs": [
        {
          "internalType": "bytes32",
          "name": "role",
          "type": "bytes32"
        },
        {
          "internalType": "address",
          "name": "account",
          "type": "address"
        }
      ],
      "name": "renounceRole",
      "outputs": [],
      "stateMutability": "nonpayable",
      "type": "function"
    },
    {
      "inputs": [
        {
          "internalType": "bytes32",
          "name": "role",
          "type": "bytes32"
        },
        {
          "internalType": "address",
          "name": "account",
          "type": "address"
        }
      ],
      "name": "revokeRole",
      "outputs": [],
      "stateMutability": "nonpayable",
      "type": "function"
    },
    {
      "inputs": [
        {
          "internalType": "bytes4",
          "name": "",
          "type": "bytes4"
        }
      ],
      "name": "selectorImplementation",
      "outputs": [
        {
          "internalType": "address",
          "name": "",
          "type": "address"
        }
      ],
      "stateMutability": "view",
      "type": "function"
    },
    {
      "inputs": [
        {
          "internalType": "address",
          "name": "newImplementation",
          "type": "address"
        },
        {
          "internalType": "bool",
          "name": "_alive",
          "type": "bool"
        }
      ],
      "name": "setAliveImplementation2",
      "outputs": [],
      "stateMutability": "nonpayable",
      "type": "function"
    },
    {
      "inputs": [
        {
          "internalType": "address",
          "name": "newImplementation",
          "type": "address"
        },
        {
          "internalType": "uint256",
          "name": "_index",
          "type": "uint256"
        },
        {
          "internalType": "bool",
          "name": "_alive",
          "type": "bool"
        }
      ],
      "name": "setImplementation2",
      "outputs": [],
      "stateMutability": "nonpayable",
      "type": "function"
    },
    {
      "inputs": [
        {
          "internalType": "bool",
          "name": "_pause",
          "type": "bool"
        }
      ],
      "name": "setProxyPause",
      "outputs": [],
      "stateMutability": "nonpayable",
      "type": "function"
    },
    {
      "inputs": [
        {
          "internalType": "bytes4[]",
          "name": "_selectors",
          "type": "bytes4[]"
        },
        {
          "internalType": "address",
          "name": "_imp",
          "type": "address"
        }
      ],
      "name": "setSelectorImplementations2",
      "outputs": [],
      "stateMutability": "nonpayable",
      "type": "function"
    },
    {
      "inputs": [],
      "name": "staking",
      "outputs": [
        {
          "internalType": "contract IStaking",
          "name": "",
          "type": "address"
        }
      ],
      "stateMutability": "view",
      "type": "function"
    },
    {
      "inputs": [
        {
          "internalType": "bytes4",
          "name": "interfaceId",
          "type": "bytes4"
        }
      ],
      "name": "supportsInterface",
      "outputs": [
        {
          "internalType": "bool",
          "name": "",
          "type": "bool"
        }
      ],
      "stateMutability": "view",
      "type": "function"
    },
    {
      "inputs": [],
      "name": "tos",
      "outputs": [
        {
          "internalType": "contract IERC20",
          "name": "",
          "type": "address"
        }
      ],
      "stateMutability": "view",
      "type": "function"
    },
    {
      "inputs": [],
      "name": "totalDepositCount",
      "outputs": [
        {
          "internalType": "uint256",
          "name": "",
          "type": "uint256"
        }
      ],
      "stateMutability": "view",
      "type": "function"
    },
    {
      "inputs": [
        {
          "internalType": "address",
          "name": "newAdmin",
          "type": "address"
        }
      ],
      "name": "transferAdmin",
      "outputs": [],
      "stateMutability": "nonpayable",
      "type": "function"
    },
    {
      "inputs": [
        {
          "internalType": "address",
          "name": "newAdmin",
          "type": "address"
        }
      ],
      "name": "transferPolicyAdmin",
      "outputs": [],
      "stateMutability": "nonpayable",
      "type": "function"
    },
    {
      "inputs": [
        {
          "internalType": "address",
          "name": "newAdmin",
          "type": "address"
        }
      ],
      "name": "transferProxyAdmin",
      "outputs": [],
      "stateMutability": "nonpayable",
      "type": "function"
    },
    {
      "inputs": [],
      "name": "treasury",
      "outputs": [
        {
          "internalType": "address",
          "name": "",
          "type": "address"
        }
      ],
      "stateMutability": "view",
      "type": "function"
    },
    {
      "inputs": [],
      "name": "uniswapV3Factory",
      "outputs": [
        {
          "internalType": "address",
          "name": "",
          "type": "address"
        }
      ],
      "stateMutability": "view",
      "type": "function"
    },
    {
      "inputs": [
        {
          "internalType": "address",
          "name": "impl",
          "type": "address"
        }
      ],
      "name": "upgradeTo",
      "outputs": [],
      "stateMutability": "nonpayable",
      "type": "function"
    },
    {
      "inputs": [
        {
          "internalType": "uint256",
          "name": "",
          "type": "uint256"
        }
      ],
      "name": "userList",
      "outputs": [
        {
          "internalType": "address",
          "name": "",
          "type": "address"
        }
      ],
      "stateMutability": "view",
      "type": "function"
    },
    {
      "stateMutability": "payable",
      "type": "receive"
    }
  ],
  "bytecode": "0x60806040523480156200001157600080fd5b506200003e7f52eafc11f6f81f86878bffd31109a0d92f37506527754f00788853ff9f63b130806200007d565b6200006a7f52eafc11f6f81f86878bffd31109a0d92f37506527754f00788853ff9f63b13033620000c8565b62000077600033620000c8565b6200017c565b6000828152600e6020526040808220600101805490849055905190918391839186917fbd79b86ffe0ab8e8776151514217cd7cacd52c909f66475c3af44e129f0b00ff9190a4505050565b620000d48282620000d8565b5050565b6000828152600e602090815260408083206001600160a01b038516845290915290205460ff16620000d4576000828152600e602090815260408083206001600160a01b03851684529091529020805460ff19166001179055620001383390565b6001600160a01b0316816001600160a01b0316837f2f8788117e7eff1d82e926ec794901d17c78024a50270940304540a733656f0d60405160405180910390a45050565b612075806200018c6000396000f3fe60806040526004361061023d5760003560e01c806301ffc9a7146102905780631459457a146102c557806322985246146102e5578063232b956c14610315578063248a9ca31461033557806324d7806c14610355578063282c51f3146103755780632f2ff15d146103a957806336568abe146103c95780633659cfe6146103e957806341c04d5e146104095780634a5df50f1461042b5780634cf088d91461044b57806350d2a27614610483578063550d01a3146104b95780635b549182146104e95780635c4fbd5d146105095780635c60da1b146105295780635cc797d81461053e57806361d027b31461055e57806363a8fd891461057e57806365cb3a831461059857806370480275146105ad57806375829def146105cd57806375b238fc146105ed5780637cb00d25146106215780637cd5f663146106415780638356ca4f1461066157806389f395de146106815780638b8f4a65146106a15780638d4fdb40146106c157806391d14854146106e157806396f1557c146107015780639a202d47146107215780639f4216e814610736578063a217fddf14610756578063b1283e771461076b578063b2abb487146107fb578063b84ef0811461081b578063b911135f1461083b578063be72f2d314610871578063ce3e39c014610886578063d5391393146108a6578063d547741f146108da578063d6343867146108fa578063d6d6817714610910578063e3684e3914610945578063f1c8c922146109e9578063f47f2f1d14610a09578063fad1c85c14610a2957610286565b366102865760405162461bcd60e51b815260206004820152601460248201527331b0b73737ba103932b1b2b4bb329022ba3432b960611b60448201526064015b60405180910390fd5b61028e610a49565b005b34801561029c57600080fd5b506102b06102ab366004611d00565b610af2565b60405190151581526020015b60405180910390f35b3480156102d157600080fd5b5061028e6102e0366004611b3d565b610b29565b3480156102f157600080fd5b5061030760008051602061202083398151915281565b6040519081526020016102bc565b34801561032157600080fd5b50610307610330366004611cc6565b610c76565b34801561034157600080fd5b50610307610350366004611cc6565b610c97565b34801561036157600080fd5b506102b0610370366004611b23565b610cac565b34801561038157600080fd5b506103077f9667e80708b6eeeb0053fa0cca44e028ff548e2a9f029edfeac87c118b08b7c881565b3480156103b557600080fd5b5061028e6103c4366004611cde565b610cc6565b3480156103d557600080fd5b5061028e6103e4366004611cde565b610ce3565b3480156103f557600080fd5b5061028e610404366004611b23565b610d61565b34801561041557600080fd5b50610307600080516020611fe083398151915281565b34801561043757600080fd5b5061028e610446366004611c37565b610e67565b34801561045757600080fd5b5060085461046b906001600160a01b031681565b6040516001600160a01b0390911681526020016102bc565b34801561048f57600080fd5b5061046b61049e366004611d00565b6012602052600090815260409020546001600160a01b031681565b3480156104c557600080fd5b506102b06104d4366004611b23565b60116020526000908152604090205460ff1681565b3480156104f557600080fd5b50600b5461046b906001600160a01b031681565b34801561051557600080fd5b50610307610524366004611cc6565b6110ef565b34801561053557600080fd5b5061046b6110ff565b34801561054a57600080fd5b5061028e610559366004611ba1565b611110565b34801561056a57600080fd5b5060095461046b906001600160a01b031681565b34801561058a57600080fd5b50600f546102b09060ff1681565b3480156105a457600080fd5b5061028e61113f565b3480156105b957600080fd5b5061028e6105c8366004611b23565b61117e565b3480156105d957600080fd5b5061028e6105e8366004611b23565b6111be565b3480156105f957600080fd5b506103077fdf8b4c520ffe197c5343c6f5aec59570151ef9a492f2c624fd45ddde6135ec4281565b34801561062d57600080fd5b5061028e61063c366004611cac565b611271565b34801561064d57600080fd5b5061028e61065c366004611bfc565b6112b8565b34801561066d57600080fd5b5061028e61067c366004611b23565b6112e8565b34801561068d57600080fd5b5060065461046b906001600160a01b031681565b3480156106ad57600080fd5b5061046b6106bc366004611cc6565b611372565b3480156106cd57600080fd5b5061046b6106dc366004611d00565b61137d565b3480156106ed57600080fd5b506102b06106fc366004611cde565b611455565b34801561070d57600080fd5b5061028e61071c366004611b23565b611480565b34801561072d57600080fd5b5061028e6114b0565b34801561074257600080fd5b5061046b610751366004611cc6565b6114fc565b34801561076257600080fd5b50610307600081565b34801561077757600080fd5b506107c4610786366004611cc6565b6000602081905290815260409020805460018201546002830154600384015460049094015460ff8416946101009094046001600160a01b0316939086565b6040805196151587526001600160a01b039095166020870152938501929092526060840152608083015260a082015260c0016102bc565b34801561080757600080fd5b5060075461046b906001600160a01b031681565b34801561082757600080fd5b5061028e610836366004611b23565b611526565b34801561084757600080fd5b5061046b610856366004611cc6565b6010602052600090815260409020546001600160a01b031681565b34801561087d57600080fd5b5061028e611563565b34801561089257600080fd5b50600a5461046b906001600160a01b031681565b3480156108b257600080fd5b506103077ff0887ba65ee2024ea881d91b74c2450ef19e1557f03bed3ea9f16b037cbe2dc981565b3480156108e657600080fd5b5061028e6108f5366004611cde565b611593565b34801561090657600080fd5b50610307600c5481565b34801561091c57600080fd5b5061093061092b366004611bd3565b6115b0565b604080519283526020830191909152016102bc565b34801561095157600080fd5b506109ab610960366004611cc6565b6001602081905260009182526040909120805491810154600282015460038301546004909301546001600160a01b03909416939192909162ffffff8116906301000000900460ff1686565b604080516001600160a01b039097168752602087019590955293850192909252606084015262ffffff166080830152151560a082015260c0016102bc565b3480156109f557600080fd5b5061028e610a04366004611b23565b6115ec565b348015610a1557600080fd5b506102b0610a24366004611b23565b611690565b348015610a3557600080fd5b506102b0610a44366004611b23565b61169c565b6000610a606000356001600160e01b03191661137d565b90506001600160a01b03811615801590610a7d5750600f5460ff16155b610ac95760405162461bcd60e51b815260206004820152601d60248201527f50726f78793a20696d706c204f522070726f78792069732066616c7365000000604482015260640161027d565b3660008037600080366000845af43d6000803e808015610ae8573d6000f35b3d6000fd5b505050565b60006001600160e01b03198216637965db0b60e01b1480610b2357506301ffc9a760e01b6001600160e01b03198316145b92915050565b610b3233611690565b610b4e5760405162461bcd60e51b815260040161027d90611e3e565b846001600160a01b038116610b755760405162461bcd60e51b815260040161027d90611eb6565b846001600160a01b038116610b9c5760405162461bcd60e51b815260040161027d90611eb6565b846001600160a01b038116610bc35760405162461bcd60e51b815260040161027d90611eb6565b846001600160a01b038116610bea5760405162461bcd60e51b815260040161027d90611eb6565b846001600160a01b038116610c115760405162461bcd60e51b815260040161027d90611eb6565b5050600680546001600160a01b03199081166001600160a01b039a8b1617909155600880548216988a1698909817909755505060098054861694871694909417909355600a8054851692861692909217909155600b8054909316931692909217905550565b60038181548110610c8657600080fd5b600091825260209091200154905081565b6000908152600e602052604090206001015490565b6000610b23600080516020611fe083398151915283611455565b610ccf82610c97565b610cd981336116b6565b610aed838361171a565b6001600160a01b0381163314610d535760405162461bcd60e51b815260206004820152602f60248201527f416363657373436f6e74726f6c3a2063616e206f6e6c792072656e6f756e636560448201526e103937b632b9903337b91039b2b63360891b606482015260840161027d565b610d5d82826117a0565b5050565b610d6a33611690565b610d865760405162461bcd60e51b815260040161027d90611e3e565b6001600160a01b038116610dcc5760405162461bcd60e51b815260206004820152600d60248201526c696e707574206973207a65726f60981b604482015260640161027d565b806001600160a01b0316610de06000611807565b6001600160a01b03161415610e235760405162461bcd60e51b815260206004820152600960248201526839b0b6b29030b2323960b91b604482015260640161027d565b610e308160006001611822565b6040516001600160a01b038216907fbc7cd75a20ee27fd9adebab32041f755214dbc6bffa90cc0225b39da2e5c2d3b90600090a250565b610e7033611690565b610e8c5760405162461bcd60e51b815260040161027d90611e3e565b81610ed95760405162461bcd60e51b815260206004820181905260248201527f50726f78793a205f73656c6563746f727327732073697a65206973207a65726f604482015260640161027d565b6001600160a01b03811660009081526011602052604090205460ff16610f3c5760405162461bcd60e51b815260206004820152601860248201527750726f78793a205f696d70206973206e6f7420616c69766560401b604482015260640161027d565b60005b828110156110e957816001600160a01b031660126000868685818110610f7557634e487b7160e01b600052603260045260246000fd5b9050602002016020810190610f8a9190611d00565b6001600160e01b03191681526020810191909152604001600020546001600160a01b03161415610ffc5760405162461bcd60e51b815260206004820152601d60248201527f4c69717569646974795661756c7450726f78793a2073616d6520696d70000000604482015260640161027d565b816012600086868581811061102157634e487b7160e01b600052603260045260246000fd5b90506020020160208101906110369190611d00565b6001600160e01b0319168152602081019190915260400160002080546001600160a01b0319166001600160a01b03928316179055821684848381811061108c57634e487b7160e01b600052603260045260246000fd5b90506020020160208101906110a19190611d00565b6001600160e01b0319167f14ebc1c32aa68f4d766e89f3e546cee249f7df25183fc10ab1568d91c2ce9b7b60405160405180910390a3806110e181611fae565b915050610f3f565b50505050565b60048181548110610c8657600080fd5b600061110b6000611807565b905090565b61111933611690565b6111355760405162461bcd60e51b815260040161027d90611e3e565b610d5d82826118ab565b6111483361169c565b6111645760405162461bcd60e51b815260040161027d90611eeb565b61117c60008051602061202083398151915233610ce3565b565b61118733611690565b6111a35760405162461bcd60e51b815260040161027d90611e3e565b6111bb600080516020611fe083398151915282610cc6565b50565b6111c733610cac565b806111d657506111d633611690565b6111f25760405162461bcd60e51b815260040161027d90611dca565b6001600160a01b0381166112185760405162461bcd60e51b815260040161027d90611e0c565b336001600160a01b03821614156112415760405162461bcd60e51b815260040161027d90611e86565b611259600080516020611fe083398151915282610cc6565b6111bb600080516020611fe083398151915233610ce3565b61127a33610cac565b80611289575061128933611690565b6112a55760405162461bcd60e51b815260040161027d90611dca565b600f805460ff1916911515919091179055565b6112c133611690565b6112dd5760405162461bcd60e51b815260040161027d90611e3e565b610aed838383611822565b6112f133611690565b61130d5760405162461bcd60e51b815260040161027d90611e3e565b6001600160a01b0381166113335760405162461bcd60e51b815260040161027d90611e0c565b336001600160a01b038216141561135c5760405162461bcd60e51b815260040161027d90611e86565b611367600082610cc6565b6111bb600033610ce3565b6000610b2382611807565b6001600160e01b031981166000908152601260205260408120546001600160a01b03166113cb575050600080526010602052600080516020612000833981519152546001600160a01b031690565b6001600160e01b031982166000908152601260209081526040808320546001600160a01b03168352601190915290205460ff161561142957506001600160e01b0319166000908152601260205260409020546001600160a01b031690565b5050600080526010602052600080516020612000833981519152546001600160a01b031690565b919050565b6000918252600e602090815260408084206001600160a01b0393909316845291905290205460ff1690565b61148933611690565b6114a55760405162461bcd60e51b815260040161027d90611e3e565b6111bb60008261190a565b6114b933610cac565b806114c857506114c833611690565b6114e45760405162461bcd60e51b815260040161027d90611dca565b61117c600080516020611fe083398151915233610ce3565b6005818154811061150c57600080fd5b6000918252602090912001546001600160a01b0316905081565b61152f33611690565b61154b5760405162461bcd60e51b815260040161027d90611e3e565b6111bb60008051602061202083398151915282610cc6565b61156c33611690565b6115885760405162461bcd60e51b815260040161027d90611e3e565b61117c600033610ce3565b61159c82610c97565b6115a681336116b6565b610aed83836117a0565b600260205281600052604060002081815481106115cc57600080fd5b600091825260209091206002909102018054600190910154909250905082565b6115f53361169c565b6116115760405162461bcd60e51b815260040161027d90611eeb565b6001600160a01b0381166116375760405162461bcd60e51b815260040161027d90611e0c565b336001600160a01b03821614156116605760405162461bcd60e51b815260040161027d90611e86565b61167860008051602061202083398151915282610cc6565b6111bb60008051602061202083398151915233610ce3565b6000610b238183611455565b6000610b2360008051602061202083398151915283611455565b6116c08282611455565b610d5d576116d8816001600160a01b03166014611914565b6116e3836020611914565b6040516020016116f4929190611d28565b60408051601f198184030181529082905262461bcd60e51b825261027d91600401611d97565b6117248282611455565b610d5d576000828152600e602090815260408083206001600160a01b03851684529091529020805460ff1916600117905561175c3390565b6001600160a01b0316816001600160a01b0316837f2f8788117e7eff1d82e926ec794901d17c78024a50270940304540a733656f0d60405160405180910390a45050565b6117aa8282611455565b15610d5d576000828152600e602090815260408083206001600160a01b0385168085529252808320805460ff1916905551339285917ff6391f5c32d9c69d2a47ea670b442974b53935d1edc7fd64eb21e047a839171b9190a45050565b6000908152601060205260409020546001600160a01b031690565b6001600160a01b0383163b6118775760405162461bcd60e51b815260206004820152601b60248201527a50726f78793a206e6f7420636f6e7472616374206164647265737360281b604482015260640161027d565b80156118a557600082815260106020526040902080546001600160a01b0319166001600160a01b0385161790555b610aed83825b6001600160a01b038216600081815260116020908152604091829020805460ff191685151590811790915591519182527f72558d9bfba4210f9ef095c782589484151f6d90f7a81bb3cb9b33efc695d324910160405180910390a25050565b610d5d828261171a565b60606000611923836002611f4c565b61192e906002611f34565b6001600160401b0381111561195357634e487b7160e01b600052604160045260246000fd5b6040519080825280601f01601f19166020018201604052801561197d576020820181803683370190505b509050600360fc1b816000815181106119a657634e487b7160e01b600052603260045260246000fd5b60200101906001600160f81b031916908160001a905350600f60fb1b816001815181106119e357634e487b7160e01b600052603260045260246000fd5b60200101906001600160f81b031916908160001a9053506000611a07846002611f4c565b611a12906001611f34565b90505b6001811115611aa6576f181899199a1a9b1b9c1cb0b131b232b360811b85600f1660108110611a5457634e487b7160e01b600052603260045260246000fd5b1a60f81b828281518110611a7857634e487b7160e01b600052603260045260246000fd5b60200101906001600160f81b031916908160001a90535060049490941c93611a9f81611f97565b9050611a15565b508315611af55760405162461bcd60e51b815260206004820181905260248201527f537472696e67733a20686578206c656e67746820696e73756666696369656e74604482015260640161027d565b9392505050565b80356001600160a01b038116811461145057600080fd5b8035801515811461145057600080fd5b600060208284031215611b34578081fd5b611af582611afc565b600080600080600060a08688031215611b54578081fd5b611b5d86611afc565b9450611b6b60208701611afc565b9350611b7960408701611afc565b9250611b8760608701611afc565b9150611b9560808701611afc565b90509295509295909350565b60008060408385031215611bb3578182fd5b611bbc83611afc565b9150611bca60208401611b13565b90509250929050565b60008060408385031215611be5578182fd5b611bee83611afc565b946020939093013593505050565b600080600060608486031215611c10578283fd5b611c1984611afc565b925060208401359150611c2e60408501611b13565b90509250925092565b600080600060408486031215611c4b578283fd5b83356001600160401b0380821115611c61578485fd5b818601915086601f830112611c74578485fd5b813581811115611c82578586fd5b8760208260051b8501011115611c96578586fd5b602092830195509350611c2e9186019050611afc565b600060208284031215611cbd578081fd5b611af582611b13565b600060208284031215611cd7578081fd5b5035919050565b60008060408385031215611cf0578182fd5b82359150611bca60208401611afc565b600060208284031215611d11578081fd5b81356001600160e01b031981168114611af5578182fd5b76020b1b1b2b9b9a1b7b73a3937b61d1030b1b1b7bab73a1604d1b815260008351611d5a816017850160208801611f6b565b7001034b99036b4b9b9b4b733903937b6329607d1b6017918401918201528351611d8b816028840160208801611f6b565b01602801949350505050565b6020815260008251806020840152611db6816040850160208701611f6b565b601f01601f19169190910160400192915050565b60208082526022908201527f41636365737369626c653a2043616c6c6572206973206e6f7420616e2061646d60408201526134b760f11b606082015260800190565b60208082526018908201527741636365737369626c653a207a65726f206164647265737360401b604082015260600190565b60208082526028908201527f41636365737369626c653a2043616c6c6572206973206e6f7420616e2070726f6040820152673c3c9030b236b4b760c11b606082015260800190565b60208082526016908201527520b1b1b2b9b9b4b136329d1039b0b6b29030b236b4b760511b604082015260600190565b6020808252601b908201527a426f6e644465706f7369746f72793a7a65726f206164647265737360281b604082015260600190565b60208082526029908201527f41636365737369626c653a2043616c6c6572206973206e6f7420616e20706f6c60408201526834b1bc9030b236b4b760b91b606082015260800190565b60008219821115611f4757611f47611fc9565b500190565b6000816000190483118215151615611f6657611f66611fc9565b500290565b60005b83811015611f86578181015183820152602001611f6e565b838111156110e95750506000910152565b600081611fa657611fa6611fc9565b506000190190565b6000600019821415611fc257611fc2611fc9565b5060010190565b634e487b7160e01b600052601160045260246000fdfe52eafc11f6f81f86878bffd31109a0d92f37506527754f00788853ff9f63b1306e0956cda88cad152e89927e53611735b61a5c762d1428573c6931b0a5efcb01fb5864e8ff833c3cb2d2d08505e82ff02a43554c74a35d4f5a64e85261278311a2646970667358221220d7290cb220505a38e211c4fa7ee357683089f7404b0009b162b666c941559aec64736f6c63430008040033",
  "linkReferences": {},
  "deployedLinkReferences": {}
}