{
  "_format": "hh-sol-artifact-1",
  "contractName": "TOSValueCalculator",
  "sourceName": "contracts/TOSValueCalculator.sol",
  "abi": [
    {
      "inputs": [],
      "name": "UniswapV3Factory",
      "outputs": [
        {
          "internalType": "contract IIUniswapV3Factory",
          "name": "",
          "type": "address"
        }
      ],
      "stateMutability": "view",
      "type": "function"
    },
    {
      "inputs": [
        {
          "internalType": "address",
          "name": "tokenA",
          "type": "address"
        },
        {
          "internalType": "address",
          "name": "tokenB",
          "type": "address"
        },
        {
          "internalType": "uint24",
          "name": "_fee",
          "type": "uint24"
        }
      ],
      "name": "computePoolAddress",
      "outputs": [
        {
          "internalType": "address",
          "name": "pool",
          "type": "address"
        },
        {
          "internalType": "address",
          "name": "token0",
          "type": "address"
        },
        {
          "internalType": "address",
          "name": "token1",
          "type": "address"
        }
      ],
      "stateMutability": "view",
      "type": "function"
    },
    {
      "inputs": [
        {
          "internalType": "address",
          "name": "_asset",
          "type": "address"
        },
        {
          "internalType": "uint256",
          "name": "_amount",
          "type": "uint256"
        }
      ],
      "name": "convertAssetBalanceToWethOrTos",
      "outputs": [
        {
          "internalType": "bool",
          "name": "existedWethPool",
          "type": "bool"
        },
        {
          "internalType": "bool",
          "name": "existedTosPool",
          "type": "bool"
        },
        {
          "internalType": "uint256",
          "name": "priceWethOrTosPerAsset",
          "type": "uint256"
        },
        {
          "internalType": "uint256",
          "name": "convertedAmmount",
          "type": "uint256"
        }
      ],
      "stateMutability": "view",
      "type": "function"
    },
    {
      "inputs": [],
      "name": "ethTosPool",
      "outputs": [
        {
          "internalType": "address",
          "name": "",
          "type": "address"
        }
      ],
      "stateMutability": "view",
      "type": "function"
    },
    {
      "inputs": [
        {
          "internalType": "address",
          "name": "tokenA",
          "type": "address"
        },
        {
          "internalType": "address",
          "name": "tokenB",
          "type": "address"
        },
        {
          "internalType": "uint24",
          "name": "_fee",
          "type": "uint24"
        }
      ],
      "name": "existPool",
      "outputs": [
        {
          "internalType": "bool",
          "name": "isWeth",
          "type": "bool"
        },
        {
          "internalType": "bool",
          "name": "isTos",
          "type": "bool"
        },
        {
          "internalType": "address",
          "name": "pool",
          "type": "address"
        },
        {
          "internalType": "address",
          "name": "token0",
          "type": "address"
        },
        {
          "internalType": "address",
          "name": "token1",
          "type": "address"
        }
      ],
      "stateMutability": "view",
      "type": "function"
    },
    {
      "inputs": [
        {
          "internalType": "address",
          "name": "npm",
          "type": "address"
        },
        {
          "internalType": "address",
          "name": "poolAddress",
          "type": "address"
        },
        {
          "internalType": "uint256",
          "name": "tokenId",
          "type": "uint256"
        }
      ],
      "name": "getAmounts",
      "outputs": [
        {
          "internalType": "uint256",
          "name": "amount0",
          "type": "uint256"
        },
        {
          "internalType": "uint256",
          "name": "amount1",
          "type": "uint256"
        }
      ],
      "stateMutability": "view",
      "type": "function"
    },
    {
      "inputs": [
        {
          "internalType": "address",
          "name": "_asset",
          "type": "address"
        }
      ],
      "name": "getAssetPricePerTOS",
      "outputs": [
        {
          "internalType": "uint256",
          "name": "price",
          "type": "uint256"
        }
      ],
      "stateMutability": "view",
      "type": "function"
    },
    {
      "inputs": [
        {
          "internalType": "address",
          "name": "token0",
          "type": "address"
        },
        {
          "internalType": "address",
          "name": "token1",
          "type": "address"
        }
      ],
      "name": "getDecimals",
      "outputs": [
        {
          "internalType": "uint256",
          "name": "token0Decimals",
          "type": "uint256"
        },
        {
          "internalType": "uint256",
          "name": "token1Decimals",
          "type": "uint256"
        }
      ],
      "stateMutability": "view",
      "type": "function"
    },
    {
      "inputs": [
        {
          "internalType": "address",
          "name": "_erc20address",
          "type": "address"
        },
        {
          "internalType": "address",
          "name": "_ethERC20Pool",
          "type": "address"
        },
        {
          "internalType": "uint24",
          "name": "fee",
          "type": "uint24"
        }
      ],
      "name": "getETHERC20PoolERC20Price",
      "outputs": [
        {
          "internalType": "uint256",
          "name": "price",
          "type": "uint256"
        }
      ],
      "stateMutability": "view",
      "type": "function"
    },
    {
      "inputs": [
        {
          "internalType": "address",
          "name": "_erc20address",
          "type": "address"
        },
        {
          "internalType": "address",
          "name": "_ethERC20Pool",
          "type": "address"
        },
        {
          "internalType": "uint24",
          "name": "fee",
          "type": "uint24"
        }
      ],
      "name": "getETHERC20PoolETHPrice",
      "outputs": [
        {
          "internalType": "uint256",
          "name": "price",
          "type": "uint256"
        }
      ],
      "stateMutability": "view",
      "type": "function"
    },
    {
      "inputs": [],
      "name": "getETHPricePerTOS",
      "outputs": [
        {
          "internalType": "uint256",
          "name": "price",
          "type": "uint256"
        }
      ],
      "stateMutability": "view",
      "type": "function"
    },
    {
      "inputs": [
        {
          "internalType": "address",
          "name": "_poolAddress",
          "type": "address"
        }
      ],
      "name": "getETHtoken",
      "outputs": [
        {
          "internalType": "uint256",
          "name": "",
          "type": "uint256"
        }
      ],
      "stateMutability": "view",
      "type": "function"
    },
    {
      "inputs": [
        {
          "internalType": "address",
          "name": "_erc20Address",
          "type": "address"
        },
        {
          "internalType": "uint24",
          "name": "_fee",
          "type": "uint24"
        }
      ],
      "name": "getETHtoken0",
      "outputs": [
        {
          "internalType": "uint256",
          "name": "",
          "type": "uint256"
        }
      ],
      "stateMutability": "view",
      "type": "function"
    },
    {
      "inputs": [
        {
          "internalType": "address",
          "name": "poolAddress",
          "type": "address"
        }
      ],
      "name": "getPriceToken0",
      "outputs": [
        {
          "internalType": "uint256",
          "name": "priceX96",
          "type": "uint256"
        }
      ],
      "stateMutability": "view",
      "type": "function"
    },
    {
      "inputs": [
        {
          "internalType": "address",
          "name": "poolAddress",
          "type": "address"
        }
      ],
      "name": "getPriceToken1",
      "outputs": [
        {
          "internalType": "uint256",
          "name": "priceX96",
          "type": "uint256"
        }
      ],
      "stateMutability": "view",
      "type": "function"
    },
    {
      "inputs": [
        {
          "internalType": "address",
          "name": "poolAddress",
          "type": "address"
        },
        {
          "internalType": "uint32",
          "name": "twapInterval",
          "type": "uint32"
        }
      ],
      "name": "getSqrtTwapX96",
      "outputs": [
        {
          "internalType": "uint160",
          "name": "sqrtPriceX96",
          "type": "uint160"
        }
      ],
      "stateMutability": "view",
      "type": "function"
    },
    {
      "inputs": [
        {
          "internalType": "address",
          "name": "_erc20address",
          "type": "address"
        },
        {
          "internalType": "address",
          "name": "_tosERC20Pool",
          "type": "address"
        },
        {
          "internalType": "uint24",
          "name": "fee",
          "type": "uint24"
        }
      ],
      "name": "getTOSERC20PoolERC20Price",
      "outputs": [
        {
          "internalType": "uint256",
          "name": "price",
          "type": "uint256"
        }
      ],
      "stateMutability": "view",
      "type": "function"
    },
    {
      "inputs": [
        {
          "internalType": "address",
          "name": "_erc20address",
          "type": "address"
        },
        {
          "internalType": "address",
          "name": "_tosERC20Pool",
          "type": "address"
        },
        {
          "internalType": "uint24",
          "name": "fee",
          "type": "uint24"
        }
      ],
      "name": "getTOSERC20PoolTOSPrice",
      "outputs": [
        {
          "internalType": "uint256",
          "name": "price",
          "type": "uint256"
        }
      ],
      "stateMutability": "view",
      "type": "function"
    },
    {
      "inputs": [
        {
          "internalType": "address",
          "name": "_asset",
          "type": "address"
        }
      ],
      "name": "getTOSPricePerAsset",
      "outputs": [
        {
          "internalType": "uint256",
          "name": "price",
          "type": "uint256"
        }
      ],
      "stateMutability": "view",
      "type": "function"
    },
    {
      "inputs": [],
      "name": "getTOSPricePerETH",
      "outputs": [
        {
          "internalType": "uint256",
          "name": "price",
          "type": "uint256"
        }
      ],
      "stateMutability": "view",
      "type": "function"
    },
    {
      "inputs": [],
      "name": "getTOSWETHPoolETHPrice",
      "outputs": [
        {
          "internalType": "uint256",
          "name": "price",
          "type": "uint256"
        }
      ],
      "stateMutability": "view",
      "type": "function"
    },
    {
      "inputs": [
        {
          "internalType": "address",
          "name": "_poolAddress",
          "type": "address"
        }
      ],
      "name": "getTOStoken",
      "outputs": [
        {
          "internalType": "uint256",
          "name": "",
          "type": "uint256"
        }
      ],
      "stateMutability": "view",
      "type": "function"
    },
    {
      "inputs": [
        {
          "internalType": "address",
          "name": "_erc20Addresss",
          "type": "address"
        },
        {
          "internalType": "uint24",
          "name": "_fee",
          "type": "uint24"
        }
      ],
      "name": "getTOStoken0",
      "outputs": [
        {
          "internalType": "uint256",
          "name": "",
          "type": "uint256"
        }
      ],
      "stateMutability": "view",
      "type": "function"
    },
    {
      "inputs": [
        {
          "internalType": "address",
          "name": "_poolAddress",
          "type": "address"
        },
        {
          "internalType": "uint256",
          "name": "_tokenId",
          "type": "uint256"
        }
      ],
      "name": "getTokenIdAmount",
      "outputs": [
        {
          "internalType": "uint256",
          "name": "amount0",
          "type": "uint256"
        },
        {
          "internalType": "uint256",
          "name": "amount1",
          "type": "uint256"
        }
      ],
      "stateMutability": "view",
      "type": "function"
    },
    {
      "inputs": [
        {
          "internalType": "address",
          "name": "_poolAddress",
          "type": "address"
        },
        {
          "internalType": "uint256",
          "name": "_tokenId",
          "type": "uint256"
        }
      ],
      "name": "getTokenIdETHValue",
      "outputs": [
        {
          "internalType": "uint256",
          "name": "ethValue",
          "type": "uint256"
        }
      ],
      "stateMutability": "view",
      "type": "function"
    },
    {
      "inputs": [],
      "name": "getWETHPoolTOSPrice",
      "outputs": [
        {
          "internalType": "uint256",
          "name": "price",
          "type": "uint256"
        }
      ],
      "stateMutability": "view",
      "type": "function"
    },
    {
      "inputs": [
        {
          "internalType": "address",
          "name": "_tos",
          "type": "address"
        },
        {
          "internalType": "address",
          "name": "_weth",
          "type": "address"
        },
        {
          "internalType": "address",
          "name": "_npm",
          "type": "address"
        },
        {
          "internalType": "address",
          "name": "_basicpool",
          "type": "address"
        },
        {
          "internalType": "address",
          "name": "_uniswapV3factory",
          "type": "address"
        }
      ],
      "name": "initialize",
      "outputs": [],
      "stateMutability": "nonpayable",
      "type": "function"
    },
    {
      "inputs": [],
      "name": "npm_",
      "outputs": [
        {
          "internalType": "address",
          "name": "",
          "type": "address"
        }
      ],
      "stateMutability": "view",
      "type": "function"
    },
    {
      "inputs": [
        {
          "internalType": "uint256",
          "name": "_tokenId",
          "type": "uint256"
        }
      ],
      "name": "tickCheck",
      "outputs": [
        {
          "internalType": "int24",
          "name": "tickLower",
          "type": "int24"
        },
        {
          "internalType": "int24",
          "name": "tickUpper",
          "type": "int24"
        },
        {
          "internalType": "uint128",
          "name": "liquidity",
          "type": "uint128"
        }
      ],
      "stateMutability": "view",
      "type": "function"
    },
    {
      "inputs": [],
      "name": "tos",
      "outputs": [
        {
          "internalType": "address",
          "name": "",
          "type": "address"
        }
      ],
      "stateMutability": "view",
      "type": "function"
    },
    {
      "inputs": [],
      "name": "weth",
      "outputs": [
        {
          "internalType": "address",
          "name": "",
          "type": "address"
        }
      ],
      "stateMutability": "view",
      "type": "function"
    }
  ],
  "bytecode": "0x608060405234801561001057600080fd5b506130dc806100206000396000f3fe608060405234801561001057600080fd5b50600436106101755760003560e01c80630411b9491461017a5780630446db5d146101aa57806305613bc2146101cb57806306224570146101d35780630e601833146101e65780631459457a146102315780631556e835146102a057806316a34914146102b35780632840aa9b146102c6578063371b9763146102d95780633fc8cef3146102e157806347628f60146102f4578063486a586a1461030757806355ecf5a81461031a57806358e01df81461035757806368afaca81461036a578063740fcd2014610372578063767509051461039a578063809ca5cf146103ad57806380f21ae4146103c057806387cf9690146103d357806389f395de146103e65780638e549a45146103f9578063a84782ab14610401578063bb6f48ba14610414578063c2241d7d14610449578063d20aecad14610488578063eaf695721461049b578063f9e62d3a146104ae578063fab70f9d146104c1578063ff2862ef146104d4575b600080fd5b60005461018d906001600160a01b031681565b6040516001600160a01b0390911681526020015b60405180910390f35b6101bd6101b8366004612868565b6104e7565b6040519081526020016101a1565b6101bd61074b565b6101bd6101e1366004612868565b6107cd565b6101f96101f4366004612948565b610859565b60408051951515865293151560208601526001600160a01b03928316938501939093528116606084015216608082015260a0016101a1565b61029e61023f3660046128d8565b600180546001600160a01b03199081166001600160a01b03978816179091556002805482169587169590951790945560038054851693861693909317909255600480548416918516919091179055600080549092169216919091179055565b005b60045461018d906001600160a01b031681565b6101bd6102c1366004612868565b610a34565b6101bd6102d43660046129d2565b610b6a565b6101bd610d4d565b60025461018d906001600160a01b031681565b61018d610302366004612a2a565b610d6a565b6101bd610315366004612868565b610f8d565b61032d610328366004612948565b611104565b604080516001600160a01b03948516815292841660208401529216918101919091526060016101a1565b60035461018d906001600160a01b031681565b6101bd6111e4565b6103856103803660046128a0565b61128a565b604080519283526020830191909152016101a1565b6101bd6103a83660046129ff565b61137a565b6101bd6103bb366004612948565b611600565b6101bd6103ce366004612868565b6116d0565b6101bd6103e1366004612948565b6117fc565b60015461018d906001600160a01b031681565b6101bd611895565b6101bd61040f366004612948565b61192f565b6104276104223660046129ff565b61197b565b60408051941515855292151560208501529183015260608201526080016101a1565b61045c610457366004612bc0565b611af5565b60408051600294850b81529290930b60208301526001600160801b0316918101919091526060016101a1565b610385610496366004612992565b611b8e565b6103856104a93660046129ff565b611d31565b6101bd6104bc366004612948565b611d58565b6101bd6104cf3660046129d2565b611da4565b6101bd6104e2366004612868565b611f79565b600080826001600160a01b0316633850c7bd6040518163ffffffff1660e01b815260040160e06040518083038186803b15801561052357600080fd5b505afa158015610537573d6000803e3d6000fd5b505050506040513d601f19601f8201168201806040525081019061055b9190612b29565b5050505050915050600061064a846001600160a01b0316630dfe16816040518163ffffffff1660e01b815260040160206040518083038186803b1580156105a157600080fd5b505afa1580156105b5573d6000803e3d6000fd5b505050506040513d601f19601f820116820180604052508101906105d99190612884565b856001600160a01b031663d21220a76040518163ffffffff1660e01b815260040160206040518083038186803b15801561061257600080fd5b505afa158015610626573d6000803e3d6000fd5b505050506040513d601f19601f820116820180604052508101906103809190612884565b5090506107438261065c83600a612e97565b866001600160a01b0316630dfe16816040518163ffffffff1660e01b815260040160206040518083038186803b15801561069557600080fd5b505afa1580156106a9573d6000803e3d6000fd5b505050506040513d601f19601f820116820180604052508101906106cd9190612884565b876001600160a01b031663d21220a76040518163ffffffff1660e01b815260040160206040518083038186803b15801561070657600080fd5b505afa15801561071a573d6000803e3d6000fd5b505050506040513d601f19601f8201168201806040525081019061073e9190612884565b612000565b949350505050565b6001546000908190610768906001600160a01b0316610bb8611da4565b905080600214801561077a5750806003145b1561078757600091505090565b806107a7576004546107a1906001600160a01b03166104e7565b91505090565b80600114156107c5576004546107a1906001600160a01b0316610f8d565b600091505090565b60015460009081908190819081906107f1906001600160a01b031687610bb8610859565b94509450945094505083801561081457506001546001600160a01b038381169116145b156108255761082283610f8d565b94505b83801561083f57506001546001600160a01b038281169116145b156108505761084d836104e7565b94505b50505050919050565b6000808080806001600160a01b038816158061087c57506001600160a01b038716155b1561089557506000935083925082915081905080610a29565b6108a0888888611104565b90505080935050826001600160a01b0316630dfe16816040518163ffffffff1660e01b815260040160206040518083038186803b1580156108e057600080fd5b505afa1580156108f4573d6000803e3d6000fd5b505050506040513d601f19601f820116820180604052508101906109189190612884565b9150826001600160a01b031663d21220a76040518163ffffffff1660e01b815260040160206040518083038186803b15801561095357600080fd5b505afa158015610967573d6000803e3d6000fd5b505050506040513d601f19601f8201168201806040525081019061098b9190612884565b90506001600160a01b03821615806109aa57506001600160a01b038116155b156109c357506000935083925082915081905080610a29565b6002546001600160a01b03838116911614806109ec57506002546001600160a01b038281169116145b156109f657600194505b6001546001600160a01b0383811691161480610a1f57506001546001600160a01b038281169116145b15610a2957600193505b939792965093509350565b600080826001600160a01b0316630dfe16816040518163ffffffff1660e01b815260040160206040518083038186803b158015610a7057600080fd5b505afa158015610a84573d6000803e3d6000fd5b505050506040513d601f19601f82011682018060405250810190610aa89190612884565b90506000836001600160a01b031663d21220a76040518163ffffffff1660e01b815260040160206040518083038186803b158015610ae557600080fd5b505afa158015610af9573d6000803e3d6000fd5b505050506040513d601f19601f82011682018060405250810190610b1d9190612884565b6001549091506001600160a01b0383811691161415610b40575060009392505050565b6001546001600160a01b0382811691161415610b60575060019392505050565b5060039392505050565b60008054600254604051630b4c774160e11b815283926001600160a01b0390811692631698ee8292610ba6929091169088908890600401612cca565b60206040518083038186803b158015610bbe57600080fd5b505afa158015610bd2573d6000803e3d6000fd5b505050506040513d601f19601f82011682018060405250810190610bf69190612884565b90506001600160a01b038116610c10576002915050610d47565b6000816001600160a01b0316630dfe16816040518163ffffffff1660e01b815260040160206040518083038186803b158015610c4b57600080fd5b505afa158015610c5f573d6000803e3d6000fd5b505050506040513d601f19601f82011682018060405250810190610c839190612884565b90506000826001600160a01b031663d21220a76040518163ffffffff1660e01b815260040160206040518083038186803b158015610cc057600080fd5b505afa158015610cd4573d6000803e3d6000fd5b505050506040513d601f19601f82011682018060405250810190610cf89190612884565b6002549091506001600160a01b0383811691161415610d1d5760009350505050610d47565b6002546001600160a01b0382811691161415610d3f5760019350505050610d47565b600393505050505b92915050565b6002546000908190610768906001600160a01b0316610bb8611da4565b600063ffffffff8216610df757826001600160a01b0316633850c7bd6040518163ffffffff1660e01b815260040160e06040518083038186803b158015610db057600080fd5b505afa158015610dc4573d6000803e3d6000fd5b505050506040513d601f19601f82011682018060405250810190610de89190612b29565b50949550610d47945050505050565b6040805160028082526060820183526000926020830190803683370190505090508281600081518110610e3a57634e487b7160e01b600052603260045260246000fd5b602002602001019063ffffffff16908163ffffffff1681525050600081600181518110610e7757634e487b7160e01b600052603260045260246000fd5b63ffffffff9092166020928302919091019091015260405163883bdbfd60e01b81526000906001600160a01b0386169063883bdbfd90610ebb908590600401612cf2565b60006040518083038186803b158015610ed357600080fd5b505afa158015610ee7573d6000803e3d6000fd5b505050506040513d6000823e601f3d908101601f19168201604052610f0f9190810190612a5f565b509050610f848460030b82600081518110610f3a57634e487b7160e01b600052603260045260246000fd5b602002602001015183600181518110610f6357634e487b7160e01b600052603260045260246000fd5b6020026020010151610f759190612f5e565b610f7f9190612e02565b612109565b95945050505050565b600080826001600160a01b0316633850c7bd6040518163ffffffff1660e01b815260040160e06040518083038186803b158015610fc957600080fd5b505afa158015610fdd573d6000803e3d6000fd5b505050506040513d601f19601f820116820180604052508101906110019190612b29565b50505050509150506000611047846001600160a01b0316630dfe16816040518163ffffffff1660e01b815260040160206040518083038186803b1580156105a157600080fd5b915061074390508261105a83600a612e97565b866001600160a01b031663d21220a76040518163ffffffff1660e01b815260040160206040518083038186803b15801561109357600080fd5b505afa1580156110a7573d6000803e3d6000fd5b505050506040513d601f19601f820116820180604052508101906110cb9190612884565b876001600160a01b0316630dfe16816040518163ffffffff1660e01b815260040160206040518083038186803b15801561070657600080fd5b600083837fe34f199b19b2b4f47f68442619d555527d244f78a3297ea89325f843f87b8b546001600160a01b038083169084161115611144578592508691505b6000546040516001600160a01b039091169061116890859085908990602001612cca565b60405160208183030381529060405280519060200120826040516020016111bf939291906001600160f81b0319815260609390931b6001600160601b03191660018401526015830191909152603582015260550190565b6040516020818303038152906040528051906020012060001c93505093509350939050565b60015460025460009182918291829182918291611210916001600160a01b039081169116610bb8610859565b945094509450945094508480156112245750835b801561123d57506002546001600160a01b038381169116145b1561124e5761124b83610f8d565b95505b8480156112585750835b801561127157506002546001600160a01b038281169116145b156112825761127f836104e7565b95505b505050505090565b600080836001600160a01b031663313ce5676040518163ffffffff1660e01b815260040160206040518083038186803b1580156112c657600080fd5b505afa1580156112da573d6000803e3d6000fd5b505050506040513d601f19601f820116820180604052508101906112fe9190612bd8565b836001600160a01b031663313ce5676040518163ffffffff1660e01b815260040160206040518083038186803b15801561133757600080fd5b505afa15801561134b573d6000803e3d6000fd5b505050506040513d601f19601f8201168201806040525081019061136f9190612bd8565b915091509250929050565b60035460405163133f757160e31b8152600481018390526000918291829182916001600160a01b03909116906399fbab88906024016101806040518083038186803b1580156113c857600080fd5b505afa1580156113dc573d6000803e3d6000fd5b505050506040513d601f19601f820116820180604052508101906114009190612bf0565b505050505050509450945094505050600061141a87610a34565b90506000806114298989611d31565b91509150826000141561151357670de0b6b3a7640000611447610d4d565b6114519084612f3f565b61145b9190612e40565b965061148d6040518060400160405280600e81526020016d65746856616c756531203a20257360901b81525088612517565b670de0b6b3a7640000806114a2878c88611d58565b6114aa610d4d565b6114b49085612f3f565b6114be9190612f3f565b6114c89190612e40565b6114d29190612e40565b6114dc9088612dea565b965061150e6040518060400160405280600e81526020016d65746856616c756532203a20257360901b81525088612517565b6115f4565b82600114156115f457670de0b6b3a764000061152d610d4d565b6115379083612f3f565b6115419190612e40565b96506115736040518060400160405280600e81526020016d65746856616c756533203a20257360901b81525088612517565b670de0b6b3a764000080611588888c88611d58565b611590610d4d565b61159a9086612f3f565b6115a49190612f3f565b6115ae9190612e40565b6115b89190612e40565b6115c29088612dea565b96506115f46040518060400160405280600e81526020016d65746856616c756534203a20257360901b81525088612517565b50505050505092915050565b60008061160d8584610b6a565b905060008160021480156116215750816003145b15611631576000925050506116c9565b600254600090819061164c906001600160a01b03168961128a565b915091508082116116605760009250611675565b80821115611675576116728183612fd5565b92505b836116a35761168583600a612e97565b61168e88610f8d565b6116989190612e40565b9450505050506116c9565b83600114156116c0576116b783600a612e97565b61168e886104e7565b60009450505050505b9392505050565b600080826001600160a01b0316630dfe16816040518163ffffffff1660e01b815260040160206040518083038186803b15801561170c57600080fd5b505afa158015611720573d6000803e3d6000fd5b505050506040513d601f19601f820116820180604052508101906117449190612884565b90506000836001600160a01b031663d21220a76040518163ffffffff1660e01b815260040160206040518083038186803b15801561178157600080fd5b505afa158015611795573d6000803e3d6000fd5b505050506040513d601f19601f820116820180604052508101906117b99190612884565b6002549091506001600160a01b03838116911614156117dc575060009392505050565b6002546001600160a01b0382811691161415610b60575060019392505050565b6000806118098584611da4565b9050600081600214801561181d5750816003145b1561182d576000925050506116c9565b6001546000908190611848906001600160a01b03168961128a565b9150915080821061185c5760009250611871565b808210156118715761186e8282612fd5565b92505b83611881576116b783600a612e97565b83600114156116c05761168583600a612e97565b600154600254600091829182918291829182916118c1916001600160a01b039081169116610bb8610859565b945094509450945094508480156118d55750835b80156118ee57506001546001600160a01b038381169116145b156118ff576118fc83610f8d565b95505b8480156119095750835b801561127157506001546001600160a01b03828116911614156112825761127f836104e7565b60008061193c8584610b6a565b905060008160021480156119505750816003145b15611960576000925050506116c9565b6002546000908190611848906001600160a01b03168961128a565b6000806000806000806000806119a98a600260009054906101000a90046001600160a01b0316610bb8610859565b9450945094505093508315611a375760019750896001600160a01b0316826001600160a01b031614156119e6576119df836104e7565b9550611a0c565b896001600160a01b0316816001600160a01b03161415611a0c57611a0983610f8d565b95505b8515611a3257670de0b6b3a7640000611a25878b612f3f565b611a2f9190612e40565b94505b611ae8565b600154600090819081908190611a5a908f906001600160a01b0316610bb8610859565b9450945094509450508315611ae35760019a508d6001600160a01b0316826001600160a01b03161415611a9757611a90836104e7565b9950611abd565b8d6001600160a01b0316816001600160a01b03161415611abd57611aba83610f8d565b99505b8915611ae357670de0b6b3a7640000611ad68b8f612f3f565b611ae09190612e40565b98505b505050505b5050505092959194509250565b60035460405163133f757160e31b815260048101839052600091829182916001600160a01b0316906399fbab88906024016101806040518083038186803b158015611b3f57600080fd5b505afa158015611b53573d6000803e3d6000fd5b505050506040513d601f19601f82011682018060405250810190611b779190612bf0565b50949e939d50919b50919950505050505050505050565b6000806000846001600160a01b0316633850c7bd6040518163ffffffff1660e01b815260040160e06040518083038186803b158015611bcc57600080fd5b505afa158015611be0573d6000803e3d6000fd5b505050506040513d601f19601f82011682018060405250810190611c049190612b29565b50505050505090506000806000886001600160a01b03166399fbab88886040518263ffffffff1660e01b8152600401611c3f91815260200190565b6101806040518083038186803b158015611c5857600080fd5b505afa158015611c6c573d6000803e3d6000fd5b505050506040513d601f19601f82011682018060405250810190611c909190612bf0565b5050505097509750975050505050506000611caa84612109565b90506000611cb784612109565b9050611cc586838386612560565b60408051808201909152600b81526a030b6b7bab73a181012b9960ad1b60208201529199509750611cf69089612517565b611d236040518060400160405280600b81526020016a030b6b7bab73a189012b9960ad1b81525088612517565b505050505050935093915050565b6003546000908190611d4d906001600160a01b03168585611b8e565b909590945092505050565b600080611d658584611da4565b90506000816002148015611d795750816003145b15611d89576000925050506116c9565b600154600090819061164c906001600160a01b03168961128a565b60008054600154604051630b4c774160e11b815283926001600160a01b0390811692631698ee8292611de0929091169088908890600401612cca565b60206040518083038186803b158015611df857600080fd5b505afa158015611e0c573d6000803e3d6000fd5b505050506040513d601f19601f82011682018060405250810190611e309190612884565b90506001600160a01b038116611e4a576002915050610d47565b6000816001600160a01b0316630dfe16816040518163ffffffff1660e01b815260040160206040518083038186803b158015611e8557600080fd5b505afa158015611e99573d6000803e3d6000fd5b505050506040513d601f19601f82011682018060405250810190611ebd9190612884565b90506000826001600160a01b031663d21220a76040518163ffffffff1660e01b815260040160206040518083038186803b158015611efa57600080fd5b505afa158015611f0e573d6000803e3d6000fd5b505050506040513d601f19601f82011682018060405250810190611f329190612884565b6001549091506001600160a01b0383811691161415611f575760009350505050610d47565b6001546001600160a01b0382811691161415610d3f5760019350505050610d47565b6001546000908190819081908190611f9d906001600160a01b031687610bb8610859565b945094509450945050838015611fc45750856001600160a01b0316826001600160a01b0316145b15611fd557611fd283610f8d565b94505b83801561083f5750856001600160a01b0316816001600160a01b031614156108505761084d836104e7565b60008061200c86612109565b90506001600160801b036001600160a01b0382161161209257600061203a6001600160a01b03831680612f3f565b9050836001600160a01b0316856001600160a01b0316106120725761206d600160c01b876001600160801b0316836125fc565b61208a565b61208a81876001600160801b0316600160c01b6125fc565b925050612100565b60006120ac6001600160a01b03831680600160401b6125fc565b9050836001600160a01b0316856001600160a01b0316106120e4576120df600160801b876001600160801b0316836125fc565b6120fc565b6120fc81876001600160801b0316600160801b6125fc565b9250505b50949350505050565b60008060008360020b12612120578260020b61212d565b8260020b61212d90613021565b905061213c620d89e719613000565b60020b8111156121765760405162461bcd60e51b81526020600482015260016024820152601560fa1b604482015260640160405180910390fd5b60006001821661218a57600160801b61219c565b6ffffcb933bd6fad37aa2d162d1a5940015b6001600160881b0316905060028216156121d15760806121cc826ffff97272373d413259a46990580e213a612f3f565b901c90505b60048216156121fb5760806121f6826ffff2e50f5f656932ef12357cf3c7fdcc612f3f565b901c90505b6008821615612225576080612220826fffe5caca7e10e4e61c3624eaa0941cd0612f3f565b901c90505b601082161561224f57608061224a826fffcb9843d60f6159c9db58835c926644612f3f565b901c90505b6020821615612279576080612274826fff973b41fa98c081472e6896dfb254c0612f3f565b901c90505b60408216156122a357608061229e826fff2ea16466c96a3843ec78b326b52861612f3f565b901c90505b60808216156122cd5760806122c8826ffe5dee046a99a2a811c461f1969c3053612f3f565b901c90505b6101008216156122f85760806122f3826ffcbe86c7900a88aedcffc83b479aa3a4612f3f565b901c90505b61020082161561232357608061231e826ff987a7253ac413176f2b074cf7815e54612f3f565b901c90505b61040082161561234e576080612349826ff3392b0822b70005940c7a398e4b70f3612f3f565b901c90505b610800821615612379576080612374826fe7159475a2c29b7443b29c7fa6e889d9612f3f565b901c90505b6110008216156123a457608061239f826fd097f3bdfd2022b8845ad8f792aa5825612f3f565b901c90505b6120008216156123cf5760806123ca826fa9f746462d870fdf8a65dc1f90e061e5612f3f565b901c90505b6140008216156123fa5760806123f5826f70d869a156d2a1b890bb3df62baf32f7612f3f565b901c90505b618000821615612425576080612420826f31be135f97d08fd981231505542fcfa6612f3f565b901c90505b6201000082161561245157608061244c826f09aa508b5b7a84e1c677de54f3e99bc9612f3f565b901c90505b6202000082161561247c576080612477826e5d6af8dedb81196699c329225ee604612f3f565b901c90505b620400008216156124a65760806124a1826d2216e584f5fa1ea926041bedfe98612f3f565b901c90505b620800008216156124ce5760806124c9826b048a170391f7dc42444e8fa2612f3f565b901c90505b60008460020b13156124e9576124e681600019612e40565b90505b6124f7600160201b82612fec565b15612503576001612506565b60005b6107439060ff16602083901c612dea565b61255c828260405160240161252d929190612d3c565b60408051601f198184030181529190526020810180516001600160e01b03166309710a9d60e41b1790526126c5565b5050565b600080836001600160a01b0316856001600160a01b03161115612581579293925b846001600160a01b0316866001600160a01b0316116125ac576125a58585856126e6565b91506125f3565b836001600160a01b0316866001600160a01b031610156125e5576125d18685856126e6565b91506125de858785612750565b90506125f3565b6125f0858585612750565b90505b94509492505050565b600080821161260a57600080fd5b6000806000198587098587029250828110838203039150508060001415612636575082900490506116c9565b80841161264257600080fd5b60008486880980840393811190920391905060008561266381600019612fd5565b61266e906001612dea565b16958690049560026003880281188089028203028089028203028089028203028089028203028089028203028089029091030260008290038290046001019490940294049390931791909102925050509392505050565b80516a636f6e736f6c652e6c6f67602083016000808483855afa5050505050565b6000826001600160a01b0316846001600160a01b03161115612706579192915b6001600160a01b038416612746600160601b600160e01b03606085901b1661272e8787612fad565b6001600160a01b0316866001600160a01b03166125fc565b6107439190612e40565b6000826001600160a01b0316846001600160a01b03161115612770579192915b6107436001600160801b0383166127878686612fad565b6001600160a01b0316600160601b6125fc565b80516127a58161307d565b919050565b600082601f8301126127ba578081fd5b815160206127cf6127ca83612dc7565b612d97565b80838252828201915082860187848660051b89010111156127ee578586fd5b855b858110156128155781516128038161307d565b845292840192908401906001016127f0565b5090979650505050505050565b8051600281900b81146127a557600080fd5b80516001600160801b03811681146127a557600080fd5b805161ffff811681146127a557600080fd5b80516127a581613095565b600060208284031215612879578081fd5b81356116c98161307d565b600060208284031215612895578081fd5b81516116c98161307d565b600080604083850312156128b2578081fd5b82356128bd8161307d565b915060208301356128cd8161307d565b809150509250929050565b600080600080600060a086880312156128ef578081fd5b85356128fa8161307d565b9450602086013561290a8161307d565b9350604086013561291a8161307d565b9250606086013561292a8161307d565b9150608086013561293a8161307d565b809150509295509295909350565b60008060006060848603121561295c578283fd5b83356129678161307d565b925060208401356129778161307d565b9150604084013561298781613095565b809150509250925092565b6000806000606084860312156129a6578283fd5b83356129b18161307d565b925060208401356129c18161307d565b929592945050506040919091013590565b600080604083850312156129e4578182fd5b82356129ef8161307d565b915060208301356128cd81613095565b60008060408385031215612a11578182fd5b8235612a1c8161307d565b946020939093013593505050565b60008060408385031215612a3c578182fd5b8235612a478161307d565b9150602083013563ffffffff811681146128cd578182fd5b60008060408385031215612a71578182fd5b82516001600160401b0380821115612a87578384fd5b818501915085601f830112612a9a578384fd5b81516020612aaa6127ca83612dc7565b8083825282820191508286018a848660051b8901011115612ac9578889fd5b8896505b84871015612af95780518060060b8114612ae557898afd5b835260019690960195918301918301612acd565b5091880151919650909350505080821115612b12578283fd5b50612b1f858286016127aa565b9150509250929050565b600080600080600080600060e0888a031215612b43578485fd5b8751612b4e8161307d565b9650612b5c60208901612822565b9550612b6a6040890161284b565b9450612b786060890161284b565b9350612b866080890161284b565b925060a088015160ff81168114612b9b578283fd5b60c08901519092508015158114612bb0578182fd5b8091505092959891949750929550565b600060208284031215612bd1578081fd5b5035919050565b600060208284031215612be9578081fd5b5051919050565b6000806000806000806000806000806000806101808d8f031215612c12578586fd5b8c516001600160601b0381168114612c28578687fd5b9b50612c3660208e0161279a565b9a50612c4460408e0161279a565b9950612c5260608e0161279a565b9850612c6060808e0161285d565b9750612c6e60a08e01612822565b9650612c7c60c08e01612822565b9550612c8a60e08e01612834565b94506101008d015193506101208d01519250612ca96101408e01612834565b9150612cb86101608e01612834565b90509295989b509295989b509295989b565b6001600160a01b03938416815291909216602082015262ffffff909116604082015260600190565b6020808252825182820181905260009190848201906040850190845b81811015612d3057835163ffffffff1683529284019291840191600101612d0e565b50909695505050505050565b6040815260008351806040840152815b81811015612d695760208187018101516060868401015201612d4c565b81811115612d7a5782606083860101525b50602083019390935250601f91909101601f191601606001919050565b604051601f8201601f191681016001600160401b0381118282101715612dbf57612dbf613067565b604052919050565b60006001600160401b03821115612de057612de0613067565b5060051b60200190565b60008219821115612dfd57612dfd61303b565b500190565b60008160060b8360060b80612e1957612e19613051565b667fffffffffffff19821460001982141615612e3757612e3761303b565b90059392505050565b600082612e4f57612e4f613051565b500490565b600181815b80851115612e8f578160001904821115612e7557612e7561303b565b80851615612e8257918102915b93841c9390800290612e59565b509250929050565b60006116c98383600082612ead57506001610d47565b81612eba57506000610d47565b8160018114612ed05760028114612eda57612ef6565b6001915050610d47565b60ff841115612eeb57612eeb61303b565b50506001821b610d47565b5060208310610133831016604e8410600b8410161715612f19575081810a610d47565b612f238383612e54565b8060001904821115612f3757612f3761303b565b029392505050565b6000816000190483118215151615612f5957612f5961303b565b500290565b60008160060b8360060b82811281667fffffffffffff1901831281151615612f8857612f8861303b565b81667fffffffffffff018313811615612fa357612fa361303b565b5090039392505050565b60006001600160a01b0383811690831681811015612fcd57612fcd61303b565b039392505050565b600082821015612fe757612fe761303b565b500390565b600082612ffb57612ffb613051565b500690565b60008160020b627fffff1981141561301a5761301a61303b565b9003919050565b6000600160ff1b8214156130375761303761303b565b0390565b634e487b7160e01b600052601160045260246000fd5b634e487b7160e01b600052601260045260246000fd5b634e487b7160e01b600052604160045260246000fd5b6001600160a01b038116811461309257600080fd5b50565b62ffffff8116811461309257600080fdfea26469706673582212207652418ebd7e1c363ac02f791894e9e3735b9bc4f2519a29dc05743488d6974764736f6c63430008040033",
  "linkReferences": {},
  "deployedLinkReferences": {}
}