{
  "_format": "hh-sol-artifact-1",
  "contractName": "TreasuryProxy",
  "sourceName": "contracts/TreasuryProxy.sol",
  "abi": [
    {
      "anonymous": false,
      "inputs": [
        {
          "indexed": true,
          "internalType": "bytes32",
          "name": "role",
          "type": "bytes32"
        },
        {
          "indexed": true,
          "internalType": "bytes32",
          "name": "previousAdminRole",
          "type": "bytes32"
        },
        {
          "indexed": true,
          "internalType": "bytes32",
          "name": "newAdminRole",
          "type": "bytes32"
        }
      ],
      "name": "RoleAdminChanged",
      "type": "event"
    },
    {
      "anonymous": false,
      "inputs": [
        {
          "indexed": true,
          "internalType": "bytes32",
          "name": "role",
          "type": "bytes32"
        },
        {
          "indexed": true,
          "internalType": "address",
          "name": "account",
          "type": "address"
        },
        {
          "indexed": true,
          "internalType": "address",
          "name": "sender",
          "type": "address"
        }
      ],
      "name": "RoleGranted",
      "type": "event"
    },
    {
      "anonymous": false,
      "inputs": [
        {
          "indexed": true,
          "internalType": "bytes32",
          "name": "role",
          "type": "bytes32"
        },
        {
          "indexed": true,
          "internalType": "address",
          "name": "account",
          "type": "address"
        },
        {
          "indexed": true,
          "internalType": "address",
          "name": "sender",
          "type": "address"
        }
      ],
      "name": "RoleRevoked",
      "type": "event"
    },
    {
      "anonymous": false,
      "inputs": [
        {
          "indexed": true,
          "internalType": "address",
          "name": "impl",
          "type": "address"
        },
        {
          "indexed": false,
          "internalType": "bool",
          "name": "alive",
          "type": "bool"
        }
      ],
      "name": "SetAliveImplementation",
      "type": "event"
    },
    {
      "anonymous": false,
      "inputs": [
        {
          "indexed": true,
          "internalType": "bytes4",
          "name": "selector",
          "type": "bytes4"
        },
        {
          "indexed": true,
          "internalType": "address",
          "name": "impl",
          "type": "address"
        }
      ],
      "name": "SetSelectorImplementation",
      "type": "event"
    },
    {
      "anonymous": false,
      "inputs": [
        {
          "indexed": true,
          "internalType": "address",
          "name": "implementation",
          "type": "address"
        }
      ],
      "name": "Upgraded",
      "type": "event"
    },
    {
      "stateMutability": "payable",
      "type": "fallback"
    },
    {
      "inputs": [],
      "name": "ADMIN_ROLE",
      "outputs": [
        {
          "internalType": "bytes32",
          "name": "",
          "type": "bytes32"
        }
      ],
      "stateMutability": "view",
      "type": "function"
    },
    {
      "inputs": [],
      "name": "BURNER_ROLE",
      "outputs": [
        {
          "internalType": "bytes32",
          "name": "",
          "type": "bytes32"
        }
      ],
      "stateMutability": "view",
      "type": "function"
    },
    {
      "inputs": [],
      "name": "DEFAULT_ADMIN_ROLE",
      "outputs": [
        {
          "internalType": "bytes32",
          "name": "",
          "type": "bytes32"
        }
      ],
      "stateMutability": "view",
      "type": "function"
    },
    {
      "inputs": [],
      "name": "ETHbacking",
      "outputs": [
        {
          "internalType": "uint256",
          "name": "",
          "type": "uint256"
        }
      ],
      "stateMutability": "view",
      "type": "function"
    },
    {
      "inputs": [],
      "name": "ETHliquidity",
      "outputs": [
        {
          "internalType": "uint256",
          "name": "",
          "type": "uint256"
        }
      ],
      "stateMutability": "view",
      "type": "function"
    },
    {
      "inputs": [],
      "name": "MINTER_ROLE",
      "outputs": [
        {
          "internalType": "bytes32",
          "name": "",
          "type": "bytes32"
        }
      ],
      "stateMutability": "view",
      "type": "function"
    },
    {
      "inputs": [],
      "name": "POLICY_ROLE",
      "outputs": [
        {
          "internalType": "bytes32",
          "name": "",
          "type": "bytes32"
        }
      ],
      "stateMutability": "view",
      "type": "function"
    },
    {
      "inputs": [],
      "name": "PROJECT_ADMIN_ROLE",
      "outputs": [
        {
          "internalType": "bytes32",
          "name": "",
          "type": "bytes32"
        }
      ],
      "stateMutability": "view",
      "type": "function"
    },
    {
      "inputs": [],
      "name": "TOS",
      "outputs": [
        {
          "internalType": "contract IERC20",
          "name": "",
          "type": "address"
        }
      ],
      "stateMutability": "view",
      "type": "function"
    },
    {
      "inputs": [
        {
          "internalType": "address",
          "name": "account",
          "type": "address"
        }
      ],
      "name": "addAdmin",
      "outputs": [],
      "stateMutability": "nonpayable",
      "type": "function"
    },
    {
      "inputs": [
        {
          "internalType": "address",
          "name": "_account",
          "type": "address"
        }
      ],
      "name": "addPolicy",
      "outputs": [],
      "stateMutability": "nonpayable",
      "type": "function"
    },
    {
      "inputs": [
        {
          "internalType": "address",
          "name": "_owner",
          "type": "address"
        }
      ],
      "name": "addProxyAdmin",
      "outputs": [],
      "stateMutability": "nonpayable",
      "type": "function"
    },
    {
      "inputs": [
        {
          "internalType": "address",
          "name": "",
          "type": "address"
        }
      ],
      "name": "aliveImplementation",
      "outputs": [
        {
          "internalType": "bool",
          "name": "",
          "type": "bool"
        }
      ],
      "stateMutability": "view",
      "type": "function"
    },
    {
      "inputs": [
        {
          "internalType": "uint256",
          "name": "",
          "type": "uint256"
        }
      ],
      "name": "backings",
      "outputs": [
        {
          "internalType": "address",
          "name": "erc20Address",
          "type": "address"
        },
        {
          "internalType": "address",
          "name": "tosPoolAddress",
          "type": "address"
        },
        {
          "internalType": "uint24",
          "name": "fee",
          "type": "uint24"
        }
      ],
      "stateMutability": "view",
      "type": "function"
    },
    {
      "inputs": [
        {
          "internalType": "address",
          "name": "",
          "type": "address"
        }
      ],
      "name": "backingsIndex",
      "outputs": [
        {
          "internalType": "uint256",
          "name": "",
          "type": "uint256"
        }
      ],
      "stateMutability": "view",
      "type": "function"
    },
    {
      "inputs": [],
      "name": "calculator",
      "outputs": [
        {
          "internalType": "address",
          "name": "",
          "type": "address"
        }
      ],
      "stateMutability": "view",
      "type": "function"
    },
    {
      "inputs": [
        {
          "internalType": "bytes32",
          "name": "role",
          "type": "bytes32"
        }
      ],
      "name": "getRoleAdmin",
      "outputs": [
        {
          "internalType": "bytes32",
          "name": "",
          "type": "bytes32"
        }
      ],
      "stateMutability": "view",
      "type": "function"
    },
    {
      "inputs": [
        {
          "internalType": "bytes4",
          "name": "_selector",
          "type": "bytes4"
        }
      ],
      "name": "getSelectorImplementation2",
      "outputs": [
        {
          "internalType": "address",
          "name": "impl",
          "type": "address"
        }
      ],
      "stateMutability": "view",
      "type": "function"
    },
    {
      "inputs": [
        {
          "internalType": "bytes32",
          "name": "role",
          "type": "bytes32"
        },
        {
          "internalType": "address",
          "name": "account",
          "type": "address"
        }
      ],
      "name": "grantRole",
      "outputs": [],
      "stateMutability": "nonpayable",
      "type": "function"
    },
    {
      "inputs": [
        {
          "internalType": "bytes32",
          "name": "role",
          "type": "bytes32"
        },
        {
          "internalType": "address",
          "name": "account",
          "type": "address"
        }
      ],
      "name": "hasRole",
      "outputs": [
        {
          "internalType": "bool",
          "name": "",
          "type": "bool"
        }
      ],
      "stateMutability": "view",
      "type": "function"
    },
    {
      "inputs": [],
      "name": "implementation",
      "outputs": [
        {
          "internalType": "address",
          "name": "",
          "type": "address"
        }
      ],
      "stateMutability": "view",
      "type": "function"
    },
    {
      "inputs": [
        {
          "internalType": "uint256",
          "name": "_index",
          "type": "uint256"
        }
      ],
      "name": "implementation2",
      "outputs": [
        {
          "internalType": "address",
          "name": "",
          "type": "address"
        }
      ],
      "stateMutability": "view",
      "type": "function"
    },
    {
      "inputs": [
        {
          "internalType": "address",
          "name": "_tos",
          "type": "address"
        },
        {
          "internalType": "address",
          "name": "_calculator",
          "type": "address"
        },
        {
          "internalType": "address",
          "name": "_wethAddress",
          "type": "address"
        },
        {
          "internalType": "address",
          "name": "_uniswapV3Factory",
          "type": "address"
        },
        {
          "internalType": "address",
          "name": "_stakingv2",
          "type": "address"
        },
        {
          "internalType": "address",
          "name": "_poolAddressTOSETH",
          "type": "address"
        },
        {
          "internalType": "uint256",
          "name": "_minimumTOSPricePerETH",
          "type": "uint256"
        }
      ],
      "name": "initialize",
      "outputs": [],
      "stateMutability": "nonpayable",
      "type": "function"
    },
    {
      "inputs": [
        {
          "internalType": "address",
          "name": "account",
          "type": "address"
        }
      ],
      "name": "isAdmin",
      "outputs": [
        {
          "internalType": "bool",
          "name": "",
          "type": "bool"
        }
      ],
      "stateMutability": "view",
      "type": "function"
    },
    {
      "inputs": [
        {
          "internalType": "address",
          "name": "account",
          "type": "address"
        }
      ],
      "name": "isPolicy",
      "outputs": [
        {
          "internalType": "bool",
          "name": "",
          "type": "bool"
        }
      ],
      "stateMutability": "view",
      "type": "function"
    },
    {
      "inputs": [
        {
          "internalType": "address",
          "name": "account",
          "type": "address"
        }
      ],
      "name": "isProxyAdmin",
      "outputs": [
        {
          "internalType": "bool",
          "name": "",
          "type": "bool"
        }
      ],
      "stateMutability": "view",
      "type": "function"
    },
    {
      "inputs": [
        {
          "internalType": "uint256",
          "name": "",
          "type": "uint256"
        }
      ],
      "name": "lpTokens",
      "outputs": [
        {
          "internalType": "uint256",
          "name": "",
          "type": "uint256"
        }
      ],
      "stateMutability": "view",
      "type": "function"
    },
    {
      "inputs": [],
      "name": "minimumTOSPricePerETH",
      "outputs": [
        {
          "internalType": "uint256",
          "name": "",
          "type": "uint256"
        }
      ],
      "stateMutability": "view",
      "type": "function"
    },
    {
      "inputs": [],
      "name": "mintRate",
      "outputs": [
        {
          "internalType": "uint256",
          "name": "",
          "type": "uint256"
        }
      ],
      "stateMutability": "view",
      "type": "function"
    },
    {
      "inputs": [],
      "name": "mintRateDenominator",
      "outputs": [
        {
          "internalType": "uint256",
          "name": "",
          "type": "uint256"
        }
      ],
      "stateMutability": "view",
      "type": "function"
    },
    {
      "inputs": [
        {
          "internalType": "uint256",
          "name": "",
          "type": "uint256"
        }
      ],
      "name": "mintings",
      "outputs": [
        {
          "internalType": "address",
          "name": "mintAddress",
          "type": "address"
        },
        {
          "internalType": "uint256",
          "name": "mintPercents",
          "type": "uint256"
        }
      ],
      "stateMutability": "view",
      "type": "function"
    },
    {
      "inputs": [],
      "name": "pauseProxy",
      "outputs": [
        {
          "internalType": "bool",
          "name": "",
          "type": "bool"
        }
      ],
      "stateMutability": "view",
      "type": "function"
    },
    {
      "inputs": [
        {
          "internalType": "enum LibTreasury.STATUS",
          "name": "",
          "type": "uint8"
        },
        {
          "internalType": "address",
          "name": "",
          "type": "address"
        }
      ],
      "name": "permissions",
      "outputs": [
        {
          "internalType": "bool",
          "name": "",
          "type": "bool"
        }
      ],
      "stateMutability": "view",
      "type": "function"
    },
    {
      "inputs": [],
      "name": "poolAddressTOSETH",
      "outputs": [
        {
          "internalType": "address",
          "name": "",
          "type": "address"
        }
      ],
      "stateMutability": "view",
      "type": "function"
    },
    {
      "inputs": [
        {
          "internalType": "uint256",
          "name": "",
          "type": "uint256"
        }
      ],
      "name": "proxyImplementation",
      "outputs": [
        {
          "internalType": "address",
          "name": "",
          "type": "address"
        }
      ],
      "stateMutability": "view",
      "type": "function"
    },
    {
      "inputs": [
        {
          "internalType": "enum LibTreasury.STATUS",
          "name": "",
          "type": "uint8"
        },
        {
          "internalType": "uint256",
          "name": "",
          "type": "uint256"
        }
      ],
      "name": "registry",
      "outputs": [
        {
          "internalType": "address",
          "name": "",
          "type": "address"
        }
      ],
      "stateMutability": "view",
      "type": "function"
    },
    {
      "inputs": [],
      "name": "removeAdmin",
      "outputs": [],
      "stateMutability": "nonpayable",
      "type": "function"
    },
    {
      "inputs": [],
      "name": "removePolicy",
      "outputs": [],
      "stateMutability": "nonpayable",
      "type": "function"
    },
    {
      "inputs": [],
      "name": "removeProxyAdmin",
      "outputs": [],
      "stateMutability": "nonpayable",
      "type": "function"
    },
    {
      "inputs": [
        {
          "internalType": "bytes32",
          "name": "role",
          "type": "bytes32"
        },
        {
          "internalType": "address",
          "name": "account",
          "type": "address"
        }
      ],
      "name": "renounceRole",
      "outputs": [],
      "stateMutability": "nonpayable",
      "type": "function"
    },
    {
      "inputs": [
        {
          "internalType": "bytes32",
          "name": "role",
          "type": "bytes32"
        },
        {
          "internalType": "address",
          "name": "account",
          "type": "address"
        }
      ],
      "name": "revokeRole",
      "outputs": [],
      "stateMutability": "nonpayable",
      "type": "function"
    },
    {
      "inputs": [
        {
          "internalType": "bytes4",
          "name": "",
          "type": "bytes4"
        }
      ],
      "name": "selectorImplementation",
      "outputs": [
        {
          "internalType": "address",
          "name": "",
          "type": "address"
        }
      ],
      "stateMutability": "view",
      "type": "function"
    },
    {
      "inputs": [
        {
          "internalType": "address",
          "name": "newImplementation",
          "type": "address"
        },
        {
          "internalType": "bool",
          "name": "_alive",
          "type": "bool"
        }
      ],
      "name": "setAliveImplementation2",
      "outputs": [],
      "stateMutability": "nonpayable",
      "type": "function"
    },
    {
      "inputs": [
        {
          "internalType": "address",
          "name": "newImplementation",
          "type": "address"
        },
        {
          "internalType": "uint256",
          "name": "_index",
          "type": "uint256"
        },
        {
          "internalType": "bool",
          "name": "_alive",
          "type": "bool"
        }
      ],
      "name": "setImplementation2",
      "outputs": [],
      "stateMutability": "nonpayable",
      "type": "function"
    },
    {
      "inputs": [
        {
          "internalType": "bool",
          "name": "_pause",
          "type": "bool"
        }
      ],
      "name": "setProxyPause",
      "outputs": [],
      "stateMutability": "nonpayable",
      "type": "function"
    },
    {
      "inputs": [
        {
          "internalType": "bytes4[]",
          "name": "_selectors",
          "type": "bytes4[]"
        },
        {
          "internalType": "address",
          "name": "_imp",
          "type": "address"
        }
      ],
      "name": "setSelectorImplementations2",
      "outputs": [],
      "stateMutability": "nonpayable",
      "type": "function"
    },
    {
      "inputs": [],
      "name": "stakingv2",
      "outputs": [
        {
          "internalType": "address",
          "name": "",
          "type": "address"
        }
      ],
      "stateMutability": "view",
      "type": "function"
    },
    {
      "inputs": [
        {
          "internalType": "bytes4",
          "name": "interfaceId",
          "type": "bytes4"
        }
      ],
      "name": "supportsInterface",
      "outputs": [
        {
          "internalType": "bool",
          "name": "",
          "type": "bool"
        }
      ],
      "stateMutability": "view",
      "type": "function"
    },
    {
      "inputs": [],
      "name": "tosBacking",
      "outputs": [
        {
          "internalType": "uint256",
          "name": "",
          "type": "uint256"
        }
      ],
      "stateMutability": "view",
      "type": "function"
    },
    {
      "inputs": [],
      "name": "totalPercents",
      "outputs": [
        {
          "internalType": "uint256",
          "name": "",
          "type": "uint256"
        }
      ],
      "stateMutability": "view",
      "type": "function"
    },
    {
      "inputs": [
        {
          "internalType": "address",
          "name": "newAdmin",
          "type": "address"
        }
      ],
      "name": "transferAdmin",
      "outputs": [],
      "stateMutability": "nonpayable",
      "type": "function"
    },
    {
      "inputs": [
        {
          "internalType": "address",
          "name": "newAdmin",
          "type": "address"
        }
      ],
      "name": "transferPolicyAdmin",
      "outputs": [],
      "stateMutability": "nonpayable",
      "type": "function"
    },
    {
      "inputs": [
        {
          "internalType": "address",
          "name": "newAdmin",
          "type": "address"
        }
      ],
      "name": "transferProxyAdmin",
      "outputs": [],
      "stateMutability": "nonpayable",
      "type": "function"
    },
    {
      "inputs": [],
      "name": "uniswapV3Factory",
      "outputs": [
        {
          "internalType": "address",
          "name": "",
          "type": "address"
        }
      ],
      "stateMutability": "view",
      "type": "function"
    },
    {
      "inputs": [
        {
          "internalType": "address",
          "name": "impl",
          "type": "address"
        }
      ],
      "name": "upgradeTo",
      "outputs": [],
      "stateMutability": "nonpayable",
      "type": "function"
    },
    {
      "inputs": [],
      "name": "wethAddress",
      "outputs": [
        {
          "internalType": "address",
          "name": "",
          "type": "address"
        }
      ],
      "stateMutability": "view",
      "type": "function"
    },
    {
      "stateMutability": "payable",
      "type": "receive"
    }
  ],
  "bytecode": "0x60c0604052601660808190527f54726561737572793a206e6f742061636365707465640000000000000000000060a09081526200004091600091906200028e565b506040805180820190915260168082527f54726561737572793a206e6f7420617070726f76656400000000000000000000602090920191825262000087916001916200028e565b506040805180820190915260178082527f54726561737572793a20696e76616c696420746f6b656e0000000000000000006020909201918252620000ce916002916200028e565b5060408051808201909152601f8082527f54726561737572793a20696e73756666696369656e7420726573657276657300602090920191825262000115916003916200028e565b503480156200012357600080fd5b50620001507f52eafc11f6f81f86878bffd31109a0d92f37506527754f00788853ff9f63b130806200018f565b6200017c7f52eafc11f6f81f86878bffd31109a0d92f37506527754f00788853ff9f63b13033620001da565b62000189600033620001da565b62000371565b600082815260176020526040808220600101805490849055905190918391839186917fbd79b86ffe0ab8e8776151514217cd7cacd52c909f66475c3af44e129f0b00ff9190a4505050565b620001e68282620001ea565b5050565b60008281526017602090815260408083206001600160a01b038516845290915290205460ff16620001e65760008281526017602090815260408083206001600160a01b03851684529091529020805460ff191660011790556200024a3390565b6001600160a01b0316816001600160a01b0316837f2f8788117e7eff1d82e926ec794901d17c78024a50270940304540a733656f0d60405160405180910390a45050565b8280546200029c9062000334565b90600052602060002090601f016020900481019282620002c057600085556200030b565b82601f10620002db57805160ff19168380011785556200030b565b828001600101855582156200030b579182015b828111156200030b578251825591602001919060010190620002ee565b50620003199291506200031d565b5090565b5b808211156200031957600081556001016200031e565b600181811c908216806200034957607f821691505b602082108114156200036b57634e487b7160e01b600052602260045260246000fd5b50919050565b6121ca80620003816000396000f3fe60806040526004361061027f5760003560e01c806301ffc9a7146102905780631460e390146102c55780631bb5e2dc146102e55780632298524614610313578063248a9ca31461033557806324d7806c14610355578063282c51f3146103755780632f2ff15d146103a9578063330dd345146103c957806336568abe146104045780633659cfe6146104245780633f9ea9ee1461044457806341c04d5e1461045a5780634a5df50f1461047c5780634f0e0ef31461049c57806350d2a276146104d4578063550d01a31461050a5780635b5491821461053a5780635c60da1b1461055a5780635cc797d81461056f57806363a8fd891461058f57806365cb3a83146105a957806370480275146105be57806375829def146105de57806375b238fc146105fe57806376f2766c146106325780637cb00d25146106715780637cd5f663146106915780638356ca4f146106b15780638b8f4a65146106d15780638d4fdb40146106f15780638d71bc5b1461071157806391d148541461073157806396f1557c14610751578063986873a0146107715780639a202d4714610791578063a217fddf146107a6578063a44b8287146107bb578063b2749bca146107db578063b84ef081146107f1578063b911135f14610811578063be72f2d314610847578063ca0dcf161461085c578063ce3e39c014610872578063d1d823fa14610892578063d5391393146108a8578063d547741f146108dc578063da9c8864146108fc578063e9e33e1614610947578063f1c8c9221461095d578063f3e291fb1461097d578063f47f2f1d14610993578063f8646408146109b3578063f908ed37146109d3578063fad1c85c146109e9578063ff86f06114610a0957610286565b3661028657005b61028e610a36565b005b34801561029c57600080fd5b506102b06102ab366004611e09565b610ae4565b60405190151581526020015b60405180910390f35b3480156102d157600080fd5b5061028e6102e0366004611c55565b610b1b565b3480156102f157600080fd5b50610305610300366004611dcf565b610d3d565b6040519081526020016102bc565b34801561031f57600080fd5b5061030560008051602061215583398151915281565b34801561034157600080fd5b50610305610350366004611dcf565b610d5e565b34801561036157600080fd5b506102b0610370366004611c3b565b610d73565b34801561038157600080fd5b506103057f9667e80708b6eeeb0053fa0cca44e028ff548e2a9f029edfeac87c118b08b7c881565b3480156103b557600080fd5b5061028e6103c4366004611de7565b610d8d565b3480156103d557600080fd5b506102b06103e4366004611e31565b600760209081526000928352604080842090915290825290205460ff1681565b34801561041057600080fd5b5061028e61041f366004611de7565b610daa565b34801561043057600080fd5b5061028e61043f366004611c3b565b610e28565b34801561045057600080fd5b5061030560115481565b34801561046657600080fd5b5061030560008051602061213583398151915281565b34801561048857600080fd5b5061028e610497366004611d40565b610f2e565b3480156104a857600080fd5b506008546104bc906001600160a01b031681565b6040516001600160a01b0390911681526020016102bc565b3480156104e057600080fd5b506104bc6104ef366004611e09565b601b602052600090815260409020546001600160a01b031681565b34801561051657600080fd5b506102b0610525366004611c3b565b601a6020526000908152604090205460ff1681565b34801561054657600080fd5b506009546104bc906001600160a01b031681565b34801561056657600080fd5b506104bc6111b6565b34801561057b57600080fd5b5061028e61058a366004611cd3565b6111c7565b34801561059b57600080fd5b506018546102b09060ff1681565b3480156105b557600080fd5b5061028e6111f6565b3480156105ca57600080fd5b5061028e6105d9366004611c3b565b611235565b3480156105ea57600080fd5b5061028e6105f9366004611c3b565b611275565b34801561060a57600080fd5b506103057fdf8b4c520ffe197c5343c6f5aec59570151ef9a492f2c624fd45ddde6135ec4281565b34801561063e57600080fd5b5061065261064d366004611dcf565b611328565b604080516001600160a01b0390931683526020830191909152016102bc565b34801561067d57600080fd5b5061028e61068c366004611db5565b611360565b34801561069d57600080fd5b5061028e6106ac366004611d05565b6113a7565b3480156106bd57600080fd5b5061028e6106cc366004611c3b565b6113d7565b3480156106dd57600080fd5b506104bc6106ec366004611dcf565b611461565b3480156106fd57600080fd5b506104bc61070c366004611e09565b61146c565b34801561071d57600080fd5b50600b546104bc906001600160a01b031681565b34801561073d57600080fd5b506102b061074c366004611de7565b611544565b34801561075d57600080fd5b5061028e61076c366004611c3b565b61156f565b34801561077d57600080fd5b50600a546104bc906001600160a01b031681565b34801561079d57600080fd5b5061028e61159f565b3480156107b257600080fd5b50610305600081565b3480156107c757600080fd5b506104bc6107d6366004611e5a565b6115eb565b3480156107e757600080fd5b5061030560125481565b3480156107fd57600080fd5b5061028e61080c366004611c3b565b611623565b34801561081d57600080fd5b506104bc61082c366004611dcf565b6019602052600090815260409020546001600160a01b031681565b34801561085357600080fd5b5061028e611660565b34801561086857600080fd5b50610305600f5481565b34801561087e57600080fd5b506005546104bc906001600160a01b031681565b34801561089e57600080fd5b50610305600e5481565b3480156108b457600080fd5b506103057ff0887ba65ee2024ea881d91b74c2450ef19e1557f03bed3ea9f16b037cbe2dc981565b3480156108e857600080fd5b5061028e6108f7366004611de7565b611690565b34801561090857600080fd5b5061091c610917366004611dcf565b6116ad565b604080516001600160a01b03948516815293909216602084015262ffffff16908201526060016102bc565b34801561095357600080fd5b50610305600c5481565b34801561096957600080fd5b5061028e610978366004611c3b565b6116f5565b34801561098957600080fd5b50610305600d5481565b34801561099f57600080fd5b506102b06109ae366004611c3b565b611799565b3480156109bf57600080fd5b506004546104bc906001600160a01b031681565b3480156109df57600080fd5b5061030560105481565b3480156109f557600080fd5b506102b0610a04366004611c3b565b6117a5565b348015610a1557600080fd5b50610305610a24366004611c3b565b60146020526000908152604090205481565b6000610a4d6000356001600160e01b03191661146c565b90506001600160a01b03811615801590610a6a575060185460ff16155b610abb5760405162461bcd60e51b815260206004820152601d60248201527f50726f78793a20696d706c204f522070726f78792069732066616c736500000060448201526064015b60405180910390fd5b3660008037600080366000845af43d6000803e808015610ada573d6000f35b3d6000fd5b505050565b60006001600160e01b03198216637965db0b60e01b1480610b1557506301ffc9a760e01b6001600160e01b03198316145b92915050565b866001600160a01b038116610b425760405162461bcd60e51b8152600401610ab290611f25565b866001600160a01b038116610b695760405162461bcd60e51b8152600401610ab290611f25565b866001600160a01b038116610b905760405162461bcd60e51b8152600401610ab290611f25565b866001600160a01b038116610bb75760405162461bcd60e51b8152600401610ab290611f25565b866001600160a01b038116610bde5760405162461bcd60e51b8152600401610ab290611f25565b866001600160a01b038116610c055760405162461bcd60e51b8152600401610ab290611f25565b8680610c495760405162461bcd60e51b8152602060048201526013602482015272151c99585cdd5c9e4e881e995c9bc81d5a5b9d606a1b6044820152606401610ab2565b610c5233611799565b610c6e5760405162461bcd60e51b8152600401610ab290611fc8565b6004546001600160a01b031615610cbd5760405162461bcd60e51b8152602060048201526013602482015272185b1c9958591e481a5b9a5d1a585b1a5e9959606a1b6044820152606401610ab2565b5050600480546001600160a01b03199081166001600160a01b039e8f16179091556005805482169c8e169c909c17909b555050600880548a16988b16989098179097555050600980548716948816949094179093556001601055600a8054861692871692909217909155600b805490941694169390931790915550601155565b60168181548110610d4d57600080fd5b600091825260209091200154905081565b60009081526017602052604090206001015490565b6000610b1560008051602061213583398151915283611544565b610d9682610d5e565b610da081336117bf565b610adf8383611823565b6001600160a01b0381163314610e1a5760405162461bcd60e51b815260206004820152602f60248201527f416363657373436f6e74726f6c3a2063616e206f6e6c792072656e6f756e636560448201526e103937b632b9903337b91039b2b63360891b6064820152608401610ab2565b610e2482826118a9565b5050565b610e3133611799565b610e4d5760405162461bcd60e51b8152600401610ab290611fc8565b6001600160a01b038116610e935760405162461bcd60e51b815260206004820152600d60248201526c696e707574206973207a65726f60981b6044820152606401610ab2565b806001600160a01b0316610ea76000611910565b6001600160a01b03161415610eea5760405162461bcd60e51b815260206004820152600960248201526839b0b6b29030b2323960b91b6044820152606401610ab2565b610ef7816000600161192b565b6040516001600160a01b038216907fbc7cd75a20ee27fd9adebab32041f755214dbc6bffa90cc0225b39da2e5c2d3b90600090a250565b610f3733611799565b610f535760405162461bcd60e51b8152600401610ab290611fc8565b81610fa05760405162461bcd60e51b815260206004820181905260248201527f50726f78793a205f73656c6563746f727327732073697a65206973207a65726f6044820152606401610ab2565b6001600160a01b0381166000908152601a602052604090205460ff166110035760405162461bcd60e51b815260206004820152601860248201527750726f78793a205f696d70206973206e6f7420616c69766560401b6044820152606401610ab2565b60005b828110156111b057816001600160a01b0316601b600086868581811061103c57634e487b7160e01b600052603260045260246000fd5b90506020020160208101906110519190611e09565b6001600160e01b03191681526020810191909152604001600020546001600160a01b031614156110c35760405162461bcd60e51b815260206004820152601d60248201527f4c69717569646974795661756c7450726f78793a2073616d6520696d700000006044820152606401610ab2565b81601b60008686858181106110e857634e487b7160e01b600052603260045260246000fd5b90506020020160208101906110fd9190611e09565b6001600160e01b0319168152602081019190915260400160002080546001600160a01b0319166001600160a01b03928316179055821684848381811061115357634e487b7160e01b600052603260045260246000fd5b90506020020160208101906111689190611e09565b6001600160e01b0319167f14ebc1c32aa68f4d766e89f3e546cee249f7df25183fc10ab1568d91c2ce9b7b60405160405180910390a3806111a881612103565b915050611006565b50505050565b60006111c26000611910565b905090565b6111d033611799565b6111ec5760405162461bcd60e51b8152600401610ab290611fc8565b610e2482826119b4565b6111ff336117a5565b61121b5760405162461bcd60e51b8152600401610ab290612040565b61123360008051602061215583398151915233610daa565b565b61123e33611799565b61125a5760405162461bcd60e51b8152600401610ab290611fc8565b61127260008051602061213583398151915282610d8d565b50565b61127e33610d73565b8061128d575061128d33611799565b6112a95760405162461bcd60e51b8152600401610ab290611f54565b6001600160a01b0381166112cf5760405162461bcd60e51b8152600401610ab290611f96565b336001600160a01b03821614156112f85760405162461bcd60e51b8152600401610ab290612010565b61131060008051602061213583398151915282610d8d565b61127260008051602061213583398151915233610daa565b6015818154811061133857600080fd5b6000918252602090912060029091020180546001909101546001600160a01b03909116915082565b61136933610d73565b80611378575061137833611799565b6113945760405162461bcd60e51b8152600401610ab290611f54565b6018805460ff1916911515919091179055565b6113b033611799565b6113cc5760405162461bcd60e51b8152600401610ab290611fc8565b610adf83838361192b565b6113e033611799565b6113fc5760405162461bcd60e51b8152600401610ab290611fc8565b6001600160a01b0381166114225760405162461bcd60e51b8152600401610ab290611f96565b336001600160a01b038216141561144b5760405162461bcd60e51b8152600401610ab290612010565b611456600082610d8d565b611272600033610daa565b6000610b1582611910565b6001600160e01b031981166000908152601b60205260408120546001600160a01b03166114ba575050600080526019602052600080516020612175833981519152546001600160a01b031690565b6001600160e01b031982166000908152601b60209081526040808320546001600160a01b03168352601a90915290205460ff161561151857506001600160e01b0319166000908152601b60205260409020546001600160a01b031690565b5050600080526019602052600080516020612175833981519152546001600160a01b031690565b919050565b60009182526017602090815260408084206001600160a01b0393909316845291905290205460ff1690565b61157833611799565b6115945760405162461bcd60e51b8152600401610ab290611fc8565b611272600082611a13565b6115a833610d73565b806115b757506115b733611799565b6115d35760405162461bcd60e51b8152600401610ab290611f54565b61123360008051602061213583398151915233610daa565b6006602052816000526040600020818154811061160757600080fd5b6000918252602090912001546001600160a01b03169150829050565b61162c33611799565b6116485760405162461bcd60e51b8152600401610ab290611fc8565b61127260008051602061215583398151915282610d8d565b61166933611799565b6116855760405162461bcd60e51b8152600401610ab290611fc8565b611233600033610daa565b61169982610d5e565b6116a381336117bf565b610adf83836118a9565b601381815481106116bd57600080fd5b6000918252602090912060029091020180546001909101546001600160a01b03918216925090811690600160a01b900462ffffff1683565b6116fe336117a5565b61171a5760405162461bcd60e51b8152600401610ab290612040565b6001600160a01b0381166117405760405162461bcd60e51b8152600401610ab290611f96565b336001600160a01b03821614156117695760405162461bcd60e51b8152600401610ab290612010565b61178160008051602061215583398151915282610d8d565b61127260008051602061215583398151915233610daa565b6000610b158183611544565b6000610b1560008051602061215583398151915283611544565b6117c98282611544565b610e24576117e1816001600160a01b03166014611a1d565b6117ec836020611a1d565b6040516020016117fd929190611e83565b60408051601f198184030181529082905262461bcd60e51b8252610ab291600401611ef2565b61182d8282611544565b610e245760008281526017602090815260408083206001600160a01b03851684529091529020805460ff191660011790556118653390565b6001600160a01b0316816001600160a01b0316837f2f8788117e7eff1d82e926ec794901d17c78024a50270940304540a733656f0d60405160405180910390a45050565b6118b38282611544565b15610e245760008281526017602090815260408083206001600160a01b0385168085529252808320805460ff1916905551339285917ff6391f5c32d9c69d2a47ea670b442974b53935d1edc7fd64eb21e047a839171b9190a45050565b6000908152601960205260409020546001600160a01b031690565b6001600160a01b0383163b6119805760405162461bcd60e51b815260206004820152601b60248201527a50726f78793a206e6f7420636f6e7472616374206164647265737360281b6044820152606401610ab2565b80156119ae57600082815260196020526040902080546001600160a01b0319166001600160a01b0385161790555b610adf83825b6001600160a01b0382166000818152601a6020908152604091829020805460ff191685151590811790915591519182527f72558d9bfba4210f9ef095c782589484151f6d90f7a81bb3cb9b33efc695d324910160405180910390a25050565b610e248282611823565b60606000611a2c8360026120a1565b611a37906002612089565b6001600160401b03811115611a5c57634e487b7160e01b600052604160045260246000fd5b6040519080825280601f01601f191660200182016040528015611a86576020820181803683370190505b509050600360fc1b81600081518110611aaf57634e487b7160e01b600052603260045260246000fd5b60200101906001600160f81b031916908160001a905350600f60fb1b81600181518110611aec57634e487b7160e01b600052603260045260246000fd5b60200101906001600160f81b031916908160001a9053506000611b108460026120a1565b611b1b906001612089565b90505b6001811115611baf576f181899199a1a9b1b9c1cb0b131b232b360811b85600f1660108110611b5d57634e487b7160e01b600052603260045260246000fd5b1a60f81b828281518110611b8157634e487b7160e01b600052603260045260246000fd5b60200101906001600160f81b031916908160001a90535060049490941c93611ba8816120ec565b9050611b1e565b508315611bfe5760405162461bcd60e51b815260206004820181905260248201527f537472696e67733a20686578206c656e67746820696e73756666696369656e746044820152606401610ab2565b9392505050565b80356001600160a01b038116811461153f57600080fd5b8035801515811461153f57600080fd5b8035600b811061153f57600080fd5b600060208284031215611c4c578081fd5b611bfe82611c05565b600080600080600080600060e0888a031215611c6f578283fd5b611c7888611c05565b9650611c8660208901611c05565b9550611c9460408901611c05565b9450611ca260608901611c05565b9350611cb060808901611c05565b9250611cbe60a08901611c05565b915060c0880135905092959891949750929550565b60008060408385031215611ce5578182fd5b611cee83611c05565b9150611cfc60208401611c1c565b90509250929050565b600080600060608486031215611d19578283fd5b611d2284611c05565b925060208401359150611d3760408501611c1c565b90509250925092565b600080600060408486031215611d54578283fd5b83356001600160401b0380821115611d6a578485fd5b818601915086601f830112611d7d578485fd5b813581811115611d8b578586fd5b8760208260051b8501011115611d9f578586fd5b602092830195509350611d379186019050611c05565b600060208284031215611dc6578081fd5b611bfe82611c1c565b600060208284031215611de0578081fd5b5035919050565b60008060408385031215611df9578182fd5b82359150611cfc60208401611c05565b600060208284031215611e1a578081fd5b81356001600160e01b031981168114611bfe578182fd5b60008060408385031215611e43578182fd5b611e4c83611c2c565b9150611cfc60208401611c05565b60008060408385031215611e6c578182fd5b611e7583611c2c565b946020939093013593505050565b76020b1b1b2b9b9a1b7b73a3937b61d1030b1b1b7bab73a1604d1b815260008351611eb58160178501602088016120c0565b7001034b99036b4b9b9b4b733903937b6329607d1b6017918401918201528351611ee68160288401602088016120c0565b01602801949350505050565b6020815260008251806020840152611f118160408501602087016120c0565b601f01601f19169190910160400192915050565b60208082526015908201527454726561737572793a7a65726f206164647265737360581b604082015260600190565b60208082526022908201527f41636365737369626c653a2043616c6c6572206973206e6f7420616e2061646d60408201526134b760f11b606082015260800190565b60208082526018908201527741636365737369626c653a207a65726f206164647265737360401b604082015260600190565b60208082526028908201527f41636365737369626c653a2043616c6c6572206973206e6f7420616e2070726f6040820152673c3c9030b236b4b760c11b606082015260800190565b60208082526016908201527520b1b1b2b9b9b4b136329d1039b0b6b29030b236b4b760511b604082015260600190565b60208082526029908201527f41636365737369626c653a2043616c6c6572206973206e6f7420616e20706f6c60408201526834b1bc9030b236b4b760b91b606082015260800190565b6000821982111561209c5761209c61211e565b500190565b60008160001904831182151516156120bb576120bb61211e565b500290565b60005b838110156120db5781810151838201526020016120c3565b838111156111b05750506000910152565b6000816120fb576120fb61211e565b506000190190565b60006000198214156121175761211761211e565b5060010190565b634e487b7160e01b600052601160045260246000fdfe52eafc11f6f81f86878bffd31109a0d92f37506527754f00788853ff9f63b130fb5864e8ff833c3cb2d2d08505e82ff02a43554c74a35d4f5a64e85261278311d2ac945fcc0096878c763e37d6929b78378c1a2defabde8ba7ee5ed1d6e7a5b2a26469706673582212203138d3b100cbb274e54872c91a00093384dd8058bc6504f72a77a2019c07240264736f6c63430008040033",
  "linkReferences": {},
  "deployedLinkReferences": {}
}