{
  "address": "0xa12431D37095CA8e3C04Eb1a4e7cE235718F10bF",
  "abi": [
    {
      "inputs": [],
      "stateMutability": "nonpayable",
      "type": "constructor"
    },
    {
      "anonymous": false,
      "inputs": [
        {
          "indexed": true,
          "internalType": "address",
          "name": "previousManager",
          "type": "address"
        },
        {
          "indexed": true,
          "internalType": "address",
          "name": "newManager",
          "type": "address"
        }
      ],
      "name": "ManagershipTransferred",
      "type": "event"
    },
    {
      "anonymous": false,
      "inputs": [
        {
          "indexed": true,
          "internalType": "address",
          "name": "previousOwner",
          "type": "address"
        },
        {
          "indexed": true,
          "internalType": "address",
          "name": "newOwner",
          "type": "address"
        }
      ],
      "name": "OwnershipTransferred",
      "type": "event"
    },
    {
      "anonymous": false,
      "inputs": [
        {
          "indexed": true,
          "internalType": "address",
          "name": "impl",
          "type": "address"
        },
        {
          "indexed": false,
          "internalType": "bool",
          "name": "alive",
          "type": "bool"
        }
      ],
      "name": "SetAliveImplementation",
      "type": "event"
    },
    {
      "anonymous": false,
      "inputs": [
        {
          "indexed": true,
          "internalType": "bytes4",
          "name": "selector",
          "type": "bytes4"
        },
        {
          "indexed": true,
          "internalType": "address",
          "name": "impl",
          "type": "address"
        }
      ],
      "name": "SetSelectorImplementation",
      "type": "event"
    },
    {
      "anonymous": false,
      "inputs": [
        {
          "indexed": true,
          "internalType": "address",
          "name": "implementation",
          "type": "address"
        }
      ],
      "name": "Upgraded",
      "type": "event"
    },
    {
      "stateMutability": "payable",
      "type": "fallback"
    },
    {
      "inputs": [],
      "name": "_manager",
      "outputs": [
        {
          "internalType": "address",
          "name": "",
          "type": "address"
        }
      ],
      "stateMutability": "view",
      "type": "function"
    },
    {
      "inputs": [],
      "name": "_owner",
      "outputs": [
        {
          "internalType": "address",
          "name": "",
          "type": "address"
        }
      ],
      "stateMutability": "view",
      "type": "function"
    },
    {
      "inputs": [
        {
          "internalType": "address",
          "name": "",
          "type": "address"
        }
      ],
      "name": "aliveImplementation",
      "outputs": [
        {
          "internalType": "bool",
          "name": "",
          "type": "bool"
        }
      ],
      "stateMutability": "view",
      "type": "function"
    },
    {
      "inputs": [
        {
          "internalType": "bytes4",
          "name": "_selector",
          "type": "bytes4"
        }
      ],
      "name": "getSelectorImplementation2",
      "outputs": [
        {
          "internalType": "address",
          "name": "impl",
          "type": "address"
        }
      ],
      "stateMutability": "view",
      "type": "function"
    },
    {
      "inputs": [],
      "name": "implementation",
      "outputs": [
        {
          "internalType": "address",
          "name": "",
          "type": "address"
        }
      ],
      "stateMutability": "view",
      "type": "function"
    },
    {
      "inputs": [
        {
          "internalType": "uint256",
          "name": "_index",
          "type": "uint256"
        }
      ],
      "name": "implementation2",
      "outputs": [
        {
          "internalType": "address",
          "name": "",
          "type": "address"
        }
      ],
      "stateMutability": "view",
      "type": "function"
    },
    {
      "inputs": [],
      "name": "l1Register",
      "outputs": [
        {
          "internalType": "address",
          "name": "",
          "type": "address"
        }
      ],
      "stateMutability": "view",
      "type": "function"
    },
    {
      "inputs": [],
      "name": "l2CrossDomainMessenger",
      "outputs": [
        {
          "internalType": "address",
          "name": "",
          "type": "address"
        }
      ],
      "stateMutability": "view",
      "type": "function"
    },
    {
      "inputs": [],
      "name": "lockIdNftForRegister",
      "outputs": [
        {
          "internalType": "address",
          "name": "",
          "type": "address"
        }
      ],
      "stateMutability": "view",
      "type": "function"
    },
    {
      "inputs": [],
      "name": "pauseProxy",
      "outputs": [
        {
          "internalType": "bool",
          "name": "",
          "type": "bool"
        }
      ],
      "stateMutability": "view",
      "type": "function"
    },
    {
      "inputs": [
        {
          "internalType": "uint256",
          "name": "",
          "type": "uint256"
        }
      ],
      "name": "proxyImplementation",
      "outputs": [
        {
          "internalType": "address",
          "name": "",
          "type": "address"
        }
      ],
      "stateMutability": "view",
      "type": "function"
    },
    {
      "inputs": [],
      "name": "renounceManagership",
      "outputs": [],
      "stateMutability": "nonpayable",
      "type": "function"
    },
    {
      "inputs": [],
      "name": "renounceOwnership",
      "outputs": [],
      "stateMutability": "nonpayable",
      "type": "function"
    },
    {
      "inputs": [
        {
          "internalType": "bytes4",
          "name": "",
          "type": "bytes4"
        }
      ],
      "name": "selectorImplementation",
      "outputs": [
        {
          "internalType": "address",
          "name": "",
          "type": "address"
        }
      ],
      "stateMutability": "view",
      "type": "function"
    },
    {
      "inputs": [
        {
          "internalType": "address",
          "name": "newImplementation",
          "type": "address"
        },
        {
          "internalType": "bool",
          "name": "_alive",
          "type": "bool"
        }
      ],
      "name": "setAliveImplementation2",
      "outputs": [],
      "stateMutability": "nonpayable",
      "type": "function"
    },
    {
      "inputs": [
        {
          "internalType": "address",
          "name": "newImplementation",
          "type": "address"
        },
        {
          "internalType": "uint256",
          "name": "_index",
          "type": "uint256"
        },
        {
          "internalType": "bool",
          "name": "_alive",
          "type": "bool"
        }
      ],
      "name": "setImplementation2",
      "outputs": [],
      "stateMutability": "nonpayable",
      "type": "function"
    },
    {
      "inputs": [
        {
          "internalType": "bool",
          "name": "_pause",
          "type": "bool"
        }
      ],
      "name": "setProxyPause",
      "outputs": [],
      "stateMutability": "nonpayable",
      "type": "function"
    },
    {
      "inputs": [
        {
          "internalType": "bytes4[]",
          "name": "_selectors",
          "type": "bytes4[]"
        },
        {
          "internalType": "address",
          "name": "_imp",
          "type": "address"
        }
      ],
      "name": "setSelectorImplementations2",
      "outputs": [],
      "stateMutability": "nonpayable",
      "type": "function"
    },
    {
      "inputs": [
        {
          "internalType": "address",
          "name": "newManager",
          "type": "address"
        }
      ],
      "name": "transferManagership",
      "outputs": [],
      "stateMutability": "nonpayable",
      "type": "function"
    },
    {
      "inputs": [
        {
          "internalType": "address",
          "name": "newOwner",
          "type": "address"
        }
      ],
      "name": "transferOwnership",
      "outputs": [],
      "stateMutability": "nonpayable",
      "type": "function"
    },
    {
      "inputs": [
        {
          "internalType": "address",
          "name": "impl",
          "type": "address"
        }
      ],
      "name": "upgradeTo",
      "outputs": [],
      "stateMutability": "nonpayable",
      "type": "function"
    },
    {
      "inputs": [
        {
          "internalType": "address",
          "name": "_implementation",
          "type": "address"
        },
        {
          "internalType": "bytes",
          "name": "_data",
          "type": "bytes"
        }
      ],
      "name": "upgradeToAndCall",
      "outputs": [
        {
          "internalType": "bytes",
          "name": "",
          "type": "bytes"
        }
      ],
      "stateMutability": "payable",
      "type": "function"
    },
    {
      "stateMutability": "payable",
      "type": "receive"
    }
  ],
  "transactionHash": "0x759b2fb2752faf230c09affc04e642cda3a1c5e4f6d04770ca9d69e547a77824",
  "args": [],
  "numDeployments": 1,
  "solcInputHash": "922d4f58da819b2db212e67a166d96d6",
  "bytecode": "0x608060405234801561001057600080fd5b50600080546001600160a01b0319163390811782556040519091907f8be0079c531659141344cd1fd0a4f28419497f9722a3daafe3b4186f6b6457e0908290a3600480546001600160a01b031916331790556113c5806100716000396000f3fe6080604052600436106101795760003560e01c80637cb00d25116100cb578063b911135f1161007f578063f0329f6b11610059578063f0329f6b146104c9578063f2fde38b146104e9578063fbef005a14610509576101cb565b8063b911135f14610453578063ccc3990914610489578063d75bf0ce146104a9576101cb565b80638b8f4a65116100b05780638b8f4a65146103dd5780638d4fdb4014610413578063b2bdfa7b14610433576101cb565b80637cb00d251461039d5780637cd5f663146103bd576101cb565b80635c60da1b1161012d5780636b765aa6116101075780636b765aa6146103535780636c146d9b14610373578063715018a614610388576101cb565b80635c60da1b146102cc5780635cc797d81461031257806363a8fd8914610332576101cb565b80634f1ef2861161015e5780634f1ef2861461021557806350d2a2761461023e578063550d01a31461028c576101cb565b80633659cfe6146101d55780634a5df50f146101f5576101cb565b366101cb5760405162461bcd60e51b815260206004820152601460248201527f63616e6e6f74207265636569766520457468657200000000000000000000000060448201526064015b60405180910390fd5b6101d3610529565b005b3480156101e157600080fd5b506101d36101f0366004611120565b6105d9565b34801561020157600080fd5b506101d3610210366004611142565b61072a565b6102286102233660046111c6565b6109c2565b6040516102359190611249565b60405180910390f35b34801561024a57600080fd5b50610274610259366004611297565b6003602052600090815260409020546001600160a01b031681565b6040516001600160a01b039091168152602001610235565b34801561029857600080fd5b506102bc6102a7366004611120565b60026020526000908152604090205460ff1681565b6040519015158152602001610235565b3480156102d857600080fd5b506000805260016020527fa6eef7e35abe7026729641147f7915573c7e97b47efa546f5f6e3230263bcb49546001600160a01b0316610274565b34801561031e57600080fd5b506101d361032d3660046112d1565b610af6565b34801561033e57600080fd5b506000546102bc90600160a01b900460ff1681565b34801561035f57600080fd5b50600554610274906001600160a01b031681565b34801561037f57600080fd5b506101d3610b4a565b34801561039457600080fd5b506101d3610bdc565b3480156103a957600080fd5b506101d36103b8366004611304565b610c6c565b3480156103c957600080fd5b506101d36103d836600461131f565b610ce1565b3480156103e957600080fd5b506102746103f8366004611352565b6000908152600160205260409020546001600160a01b031690565b34801561041f57600080fd5b5061027461042e366004611297565b610d32565b34801561043f57600080fd5b50600054610274906001600160a01b031681565b34801561045f57600080fd5b5061027461046e366004611352565b6001602052600090815260409020546001600160a01b031681565b34801561049557600080fd5b506101d36104a4366004611120565b610e2e565b3480156104b557600080fd5b50600754610274906001600160a01b031681565b3480156104d557600080fd5b50600454610274906001600160a01b031681565b3480156104f557600080fd5b506101d3610504366004611120565b610f28565b34801561051557600080fd5b50600654610274906001600160a01b031681565b60006105406000356001600160e01b031916610d32565b90506001600160a01b038116158015906105645750600054600160a01b900460ff16155b6105b05760405162461bcd60e51b815260206004820152601d60248201527f50726f78793a20696d706c204f522070726f78792069732066616c736500000060448201526064016101c2565b3660008037600080366000845af43d6000803e8080156105cf573d6000f35b3d6000fd5b505050565b6000546001600160a01b0316331461061f5760405162461bcd60e51b81526020600482015260096024820152683737ba1037bbb732b960b91b60448201526064016101c2565b6001600160a01b0381166106755760405162461bcd60e51b815260206004820152600d60248201527f696e707574206973207a65726f0000000000000000000000000000000000000060448201526064016101c2565b6000805260016020527fa6eef7e35abe7026729641147f7915573c7e97b47efa546f5f6e3230263bcb49546001600160a01b038281169116036106e65760405162461bcd60e51b815260206004820152600960248201526839b0b6b29030b2323960b91b60448201526064016101c2565b6106f3816000600161101f565b6040516001600160a01b038216907fbc7cd75a20ee27fd9adebab32041f755214dbc6bffa90cc0225b39da2e5c2d3b90600090a250565b6000546001600160a01b031633146107705760405162461bcd60e51b81526020600482015260096024820152683737ba1037bbb732b960b91b60448201526064016101c2565b816107bd5760405162461bcd60e51b815260206004820181905260248201527f50726f78793a205f73656c6563746f727327732073697a65206973207a65726f60448201526064016101c2565b6001600160a01b03811660009081526002602052604090205460ff166108255760405162461bcd60e51b815260206004820152601860248201527f50726f78793a205f696d70206973206e6f7420616c697665000000000000000060448201526064016101c2565b60005b828110156109bc57816001600160a01b0316600360008686858181106108505761085061136b565b90506020020160208101906108659190611297565b6001600160e01b03191681526020810191909152604001600020546001600160a01b0316036108d65760405162461bcd60e51b815260206004820152601d60248201527f4c69717569646974795661756c7450726f78793a2073616d6520696d7000000060448201526064016101c2565b81600360008686858181106108ed576108ed61136b565b90506020020160208101906109029190611297565b6001600160e01b0319168152602081019190915260400160002080546001600160a01b0319166001600160a01b03928316179055821684848381811061094a5761094a61136b565b905060200201602081019061095f9190611297565b7bffffffffffffffffffffffffffffffffffffffffffffffffffffffff19167f14ebc1c32aa68f4d766e89f3e546cee249f7df25183fc10ab1568d91c2ce9b7b60405160405180910390a3806109b481611381565b915050610828565b50505050565b6000546060906001600160a01b03163314610a0b5760405162461bcd60e51b81526020600482015260096024820152683737ba1037bbb732b960b91b60448201526064016101c2565b610a18846000600161101f565b600080856001600160a01b03168585604051610a359291906113a8565b600060405180830381855af49150503d8060008114610a70576040519150601f19603f3d011682016040523d82523d6000602084013e610a75565b606091505b509150915081610aed5760405162461bcd60e51b815260206004820152603960248201527f50726f78793a2064656c656761746563616c6c20746f206e657720696d706c6560448201527f6d656e746174696f6e20636f6e7472616374206661696c65640000000000000060648201526084016101c2565b95945050505050565b6000546001600160a01b03163314610b3c5760405162461bcd60e51b81526020600482015260096024820152683737ba1037bbb732b960b91b60448201526064016101c2565b610b4682826110aa565b5050565b6004546001600160a01b03163314610b925760405162461bcd60e51b815260206004820152600b60248201526a3737ba1036b0b730b3b2b960a91b60448201526064016101c2565b6004546040516000916001600160a01b0316907f697e4e68d3879b0dd3414a88905117bac8f0a54b0cd8e7779f909bf1a1cf5683908390a3600480546001600160a01b0319169055565b6000546001600160a01b03163314610c225760405162461bcd60e51b81526020600482015260096024820152683737ba1037bbb732b960b91b60448201526064016101c2565b600080546040516001600160a01b03909116907f8be0079c531659141344cd1fd0a4f28419497f9722a3daafe3b4186f6b6457e0908390a3600080546001600160a01b0319169055565b6000546001600160a01b03163314610cb25760405162461bcd60e51b81526020600482015260096024820152683737ba1037bbb732b960b91b60448201526064016101c2565b60008054911515600160a01b0274ff000000000000000000000000000000000000000019909216919091179055565b6000546001600160a01b03163314610d275760405162461bcd60e51b81526020600482015260096024820152683737ba1037bbb732b960b91b60448201526064016101c2565b6105d483838361101f565b6001600160e01b031981166000908152600360205260408120546001600160a01b0316610d925750506000805260016020527fa6eef7e35abe7026729641147f7915573c7e97b47efa546f5f6e3230263bcb49546001600160a01b031690565b6001600160e01b031982166000908152600360209081526040808320546001600160a01b03168352600290915290205460ff1615610df057506001600160e01b0319166000908152600360205260409020546001600160a01b031690565b50506000805260016020527fa6eef7e35abe7026729641147f7915573c7e97b47efa546f5f6e3230263bcb49546001600160a01b031690565b919050565b6004546001600160a01b03163314610e765760405162461bcd60e51b815260206004820152600b60248201526a3737ba1036b0b730b3b2b960a91b60448201526064016101c2565b6001600160a01b038116610ecc5760405162461bcd60e51b815260206004820152601f60248201527f6e6577206d616e6167657220697320746865207a65726f20616464726573730060448201526064016101c2565b6004546040516001600160a01b038084169216907f697e4e68d3879b0dd3414a88905117bac8f0a54b0cd8e7779f909bf1a1cf568390600090a3600480546001600160a01b0319166001600160a01b0392909216919091179055565b6000546001600160a01b03163314610f6e5760405162461bcd60e51b81526020600482015260096024820152683737ba1037bbb732b960b91b60448201526064016101c2565b6001600160a01b038116610fc45760405162461bcd60e51b815260206004820152601d60248201527f6e6577206f776e657220697320746865207a65726f206164647265737300000060448201526064016101c2565b600080546040516001600160a01b03808516939216917f8be0079c531659141344cd1fd0a4f28419497f9722a3daafe3b4186f6b6457e091a3600080546001600160a01b0319166001600160a01b0392909216919091179055565b6001600160a01b0383163b6110765760405162461bcd60e51b815260206004820152601b60248201527f50726f78793a206e6f7420636f6e74726163742061646472657373000000000060448201526064016101c2565b80156110a457600082815260016020526040902080546001600160a01b0319166001600160a01b0385161790555b6105d483825b6001600160a01b038216600081815260026020908152604091829020805460ff191685151590811790915591519182527f72558d9bfba4210f9ef095c782589484151f6d90f7a81bb3cb9b33efc695d324910160405180910390a25050565b80356001600160a01b0381168114610e2957600080fd5b60006020828403121561113257600080fd5b61113b82611109565b9392505050565b60008060006040848603121561115757600080fd5b833567ffffffffffffffff8082111561116f57600080fd5b818601915086601f83011261118357600080fd5b81358181111561119257600080fd5b8760208260051b85010111156111a757600080fd5b6020928301955093506111bd9186019050611109565b90509250925092565b6000806000604084860312156111db57600080fd5b6111e484611109565b9250602084013567ffffffffffffffff8082111561120157600080fd5b818601915086601f83011261121557600080fd5b81358181111561122457600080fd5b87602082850101111561123657600080fd5b6020830194508093505050509250925092565b600060208083528351808285015260005b818110156112765785810183015185820160400152820161125a565b506000604082860101526040601f19601f8301168501019250505092915050565b6000602082840312156112a957600080fd5b81356001600160e01b03198116811461113b57600080fd5b80358015158114610e2957600080fd5b600080604083850312156112e457600080fd5b6112ed83611109565b91506112fb602084016112c1565b90509250929050565b60006020828403121561131657600080fd5b61113b826112c1565b60008060006060848603121561133457600080fd5b61133d84611109565b9250602084013591506111bd604085016112c1565b60006020828403121561136457600080fd5b5035919050565b634e487b7160e01b600052603260045260246000fd5b6000600182016113a157634e487b7160e01b600052601160045260246000fd5b5060010190565b818382376000910190815291905056fea164736f6c6343000812000a",
  "devdoc": {
    "kind": "dev",
    "methods": {
      "getSelectorImplementation2(bytes4)": {
        "details": "view implementation address of selector of function",
        "params": {
          "_selector": "selector of function"
        },
        "returns": {
          "impl": "address of the implementation"
        }
      },
      "implementation()": {
        "details": "returns the implementation"
      },
      "implementation2(uint256)": {
        "details": "view implementation address of the proxy[index]",
        "params": {
          "_index": "index of proxy"
        },
        "returns": {
          "_0": "address of the implementation"
        }
      },
      "setAliveImplementation2(address,bool)": {
        "details": "set alive status of implementation",
        "params": {
          "_alive": "alive status",
          "newImplementation": "Address of the new implementation."
        }
      },
      "setImplementation2(address,uint256,bool)": {
        "details": "set the implementation address and status of the proxy[index]",
        "params": {
          "_alive": "_alive",
          "_index": "index",
          "newImplementation": "Address of the new implementation."
        }
      },
      "setProxyPause(bool)": {
        "params": {
          "_pause": "true:pause or false:resume"
        }
      },
      "setSelectorImplementations2(bytes4[],address)": {
        "details": "set selectors of Implementation",
        "params": {
          "_imp": "implementation address",
          "_selectors": "being added selectors"
        }
      },
      "upgradeTo(address)": {
        "params": {
          "impl": "New implementation contract address"
        }
      },
      "upgradeToAndCall(address,bytes)": {
        "params": {
          "_data": "Calldata to delegatecall the new implementation with.",
          "_implementation": "Address of the implementation contract."
        }
      }
    },
    "version": 1
  },
  "userdoc": {
    "kind": "user",
    "methods": {
      "setProxyPause(bool)": {
        "notice": "Set pause state"
      },
      "upgradeTo(address)": {
        "notice": "Set implementation contract"
      },
      "upgradeToAndCall(address,bytes)": {
        "notice": "Set the implementation and call a function in a single transaction. Useful to ensure         atomic execution of initialization-based upgrades."
      }
    },
    "version": 1
  },
  "storageLayout": {
    "storage": [
      {
        "astId": 1673,
        "contract": "contracts/L2/L1StosInL2Proxy.sol:L1StosInL2Proxy",
        "label": "_owner",
        "offset": 0,
        "slot": "0",
        "type": "t_address"
      },
      {
        "astId": 1675,
        "contract": "contracts/L2/L1StosInL2Proxy.sol:L1StosInL2Proxy",
        "label": "pauseProxy",
        "offset": 20,
        "slot": "0",
        "type": "t_bool"
      },
      {
        "astId": 1679,
        "contract": "contracts/L2/L1StosInL2Proxy.sol:L1StosInL2Proxy",
        "label": "proxyImplementation",
        "offset": 0,
        "slot": "1",
        "type": "t_mapping(t_uint256,t_address)"
      },
      {
        "astId": 1683,
        "contract": "contracts/L2/L1StosInL2Proxy.sol:L1StosInL2Proxy",
        "label": "aliveImplementation",
        "offset": 0,
        "slot": "2",
        "type": "t_mapping(t_address,t_bool)"
      },
      {
        "astId": 1687,
        "contract": "contracts/L2/L1StosInL2Proxy.sol:L1StosInL2Proxy",
        "label": "selectorImplementation",
        "offset": 0,
        "slot": "3",
        "type": "t_mapping(t_bytes4,t_address)"
      },
      {
        "astId": 750,
        "contract": "contracts/L2/L1StosInL2Proxy.sol:L1StosInL2Proxy",
        "label": "_manager",
        "offset": 0,
        "slot": "4",
        "type": "t_address"
      },
      {
        "astId": 752,
        "contract": "contracts/L2/L1StosInL2Proxy.sol:L1StosInL2Proxy",
        "label": "lockIdNftForRegister",
        "offset": 0,
        "slot": "5",
        "type": "t_address"
      },
      {
        "astId": 754,
        "contract": "contracts/L2/L1StosInL2Proxy.sol:L1StosInL2Proxy",
        "label": "l2CrossDomainMessenger",
        "offset": 0,
        "slot": "6",
        "type": "t_address"
      },
      {
        "astId": 756,
        "contract": "contracts/L2/L1StosInL2Proxy.sol:L1StosInL2Proxy",
        "label": "l1Register",
        "offset": 0,
        "slot": "7",
        "type": "t_address"
      }
    ],
    "types": {
      "t_address": {
        "encoding": "inplace",
        "label": "address",
        "numberOfBytes": "20"
      },
      "t_bool": {
        "encoding": "inplace",
        "label": "bool",
        "numberOfBytes": "1"
      },
      "t_bytes4": {
        "encoding": "inplace",
        "label": "bytes4",
        "numberOfBytes": "4"
      },
      "t_mapping(t_address,t_bool)": {
        "encoding": "mapping",
        "key": "t_address",
        "label": "mapping(address => bool)",
        "numberOfBytes": "32",
        "value": "t_bool"
      },
      "t_mapping(t_bytes4,t_address)": {
        "encoding": "mapping",
        "key": "t_bytes4",
        "label": "mapping(bytes4 => address)",
        "numberOfBytes": "32",
        "value": "t_address"
      },
      "t_mapping(t_uint256,t_address)": {
        "encoding": "mapping",
        "key": "t_uint256",
        "label": "mapping(uint256 => address)",
        "numberOfBytes": "32",
        "value": "t_address"
      },
      "t_uint256": {
        "encoding": "inplace",
        "label": "uint256",
        "numberOfBytes": "32"
      }
    }
  }
}