{
  "address": "0xB8Bc738947DB3Fc42f24Be7bC6eaf2Ad85a38602",
  "abi": [
    {
      "anonymous": false,
      "inputs": [
        {
          "indexed": true,
          "internalType": "uint256",
          "name": "tokenId",
          "type": "uint256"
        },
        {
          "indexed": false,
          "internalType": "uint128",
          "name": "liquidity",
          "type": "uint128"
        },
        {
          "indexed": false,
          "internalType": "uint256",
          "name": "amount0",
          "type": "uint256"
        },
        {
          "indexed": false,
          "internalType": "uint256",
          "name": "amount1",
          "type": "uint256"
        }
      ],
      "name": "IncreasedLiquidityInVault",
      "type": "event"
    },
    {
      "anonymous": false,
      "inputs": [
        {
          "indexed": false,
          "internalType": "address",
          "name": "l2Token",
          "type": "address"
        },
        {
          "indexed": false,
          "internalType": "address",
          "name": "pool",
          "type": "address"
        },
        {
          "indexed": false,
          "internalType": "uint256",
          "name": "tokenId",
          "type": "uint256"
        },
        {
          "indexed": false,
          "internalType": "uint128",
          "name": "liquidity",
          "type": "uint128"
        },
        {
          "indexed": false,
          "internalType": "uint256",
          "name": "amount0",
          "type": "uint256"
        },
        {
          "indexed": false,
          "internalType": "uint256",
          "name": "amount1",
          "type": "uint256"
        }
      ],
      "name": "InitialMintedInVault",
      "type": "event"
    },
    {
      "anonymous": false,
      "inputs": [
        {
          "indexed": false,
          "internalType": "address",
          "name": "l2Token",
          "type": "address"
        },
        {
          "indexed": false,
          "internalType": "uint256",
          "name": "totalAllocatedAmount",
          "type": "uint256"
        },
        {
          "indexed": false,
          "internalType": "uint256",
          "name": "initialTosPrice",
          "type": "uint256"
        },
        {
          "indexed": false,
          "internalType": "uint256",
          "name": "initialTokenPrice",
          "type": "uint256"
        },
        {
          "indexed": false,
          "internalType": "uint32",
          "name": "startTime",
          "type": "uint32"
        },
        {
          "indexed": false,
          "internalType": "uint160",
          "name": "initSqrtPriceX96",
          "type": "uint160"
        },
        {
          "indexed": false,
          "internalType": "uint24",
          "name": "fee",
          "type": "uint24"
        }
      ],
      "name": "InitializedInitialLiquidityVault",
      "type": "event"
    },
    {
      "anonymous": false,
      "inputs": [
        {
          "indexed": true,
          "internalType": "bytes32",
          "name": "role",
          "type": "bytes32"
        },
        {
          "indexed": true,
          "internalType": "bytes32",
          "name": "previousAdminRole",
          "type": "bytes32"
        },
        {
          "indexed": true,
          "internalType": "bytes32",
          "name": "newAdminRole",
          "type": "bytes32"
        }
      ],
      "name": "RoleAdminChanged",
      "type": "event"
    },
    {
      "anonymous": false,
      "inputs": [
        {
          "indexed": true,
          "internalType": "bytes32",
          "name": "role",
          "type": "bytes32"
        },
        {
          "indexed": true,
          "internalType": "address",
          "name": "account",
          "type": "address"
        },
        {
          "indexed": true,
          "internalType": "address",
          "name": "sender",
          "type": "address"
        }
      ],
      "name": "RoleGranted",
      "type": "event"
    },
    {
      "anonymous": false,
      "inputs": [
        {
          "indexed": true,
          "internalType": "bytes32",
          "name": "role",
          "type": "bytes32"
        },
        {
          "indexed": true,
          "internalType": "address",
          "name": "account",
          "type": "address"
        },
        {
          "indexed": true,
          "internalType": "address",
          "name": "sender",
          "type": "address"
        }
      ],
      "name": "RoleRevoked",
      "type": "event"
    },
    {
      "anonymous": false,
      "inputs": [
        {
          "indexed": false,
          "internalType": "address",
          "name": "l2Token",
          "type": "address"
        },
        {
          "indexed": false,
          "internalType": "address",
          "name": "pool",
          "type": "address"
        }
      ],
      "name": "SetCreatedPool",
      "type": "event"
    },
    {
      "anonymous": false,
      "inputs": [
        {
          "indexed": false,
          "internalType": "address",
          "name": "l2Token",
          "type": "address"
        },
        {
          "indexed": false,
          "internalType": "address",
          "name": "pool",
          "type": "address"
        },
        {
          "indexed": false,
          "internalType": "uint160",
          "name": "inSqrtPriceX96",
          "type": "uint160"
        }
      ],
      "name": "SetPoolInitialized",
      "type": "event"
    },
    {
      "anonymous": false,
      "inputs": [
        {
          "indexed": false,
          "internalType": "address",
          "name": "l2Token",
          "type": "address"
        },
        {
          "indexed": false,
          "internalType": "uint32",
          "name": "startTime",
          "type": "uint32"
        }
      ],
      "name": "SetStartTime",
      "type": "event"
    },
    {
      "anonymous": false,
      "inputs": [
        {
          "indexed": false,
          "internalType": "address",
          "name": "_factory",
          "type": "address"
        },
        {
          "indexed": false,
          "internalType": "address",
          "name": "_npm",
          "type": "address"
        },
        {
          "indexed": false,
          "internalType": "address",
          "name": "_ton",
          "type": "address"
        },
        {
          "indexed": false,
          "internalType": "address",
          "name": "_tos",
          "type": "address"
        }
      ],
      "name": "SetUniswapInfo",
      "type": "event"
    },
    {
      "anonymous": false,
      "inputs": [
        {
          "indexed": false,
          "internalType": "address",
          "name": "l2Token",
          "type": "address"
        },
        {
          "indexed": false,
          "internalType": "address",
          "name": "newAdmin",
          "type": "address"
        }
      ],
      "name": "SetVaultAdmin",
      "type": "event"
    },
    {
      "inputs": [],
      "name": "ADMIN_ROLE",
      "outputs": [
        {
          "internalType": "bytes32",
          "name": "",
          "type": "bytes32"
        }
      ],
      "stateMutability": "view",
      "type": "function"
    },
    {
      "inputs": [],
      "name": "DEFAULT_ADMIN_ROLE",
      "outputs": [
        {
          "internalType": "bytes32",
          "name": "",
          "type": "bytes32"
        }
      ],
      "stateMutability": "view",
      "type": "function"
    },
    {
      "inputs": [],
      "name": "POLICY_ROLE",
      "outputs": [
        {
          "internalType": "bytes32",
          "name": "",
          "type": "bytes32"
        }
      ],
      "stateMutability": "view",
      "type": "function"
    },
    {
      "inputs": [],
      "name": "TWAP_PERIOD",
      "outputs": [
        {
          "internalType": "uint32",
          "name": "",
          "type": "uint32"
        }
      ],
      "stateMutability": "view",
      "type": "function"
    },
    {
      "inputs": [
        {
          "internalType": "int24",
          "name": "_tick",
          "type": "int24"
        },
        {
          "internalType": "int24",
          "name": "_tickSpacings",
          "type": "int24"
        }
      ],
      "name": "acceptMaxTick",
      "outputs": [
        {
          "internalType": "int24",
          "name": "",
          "type": "int24"
        }
      ],
      "stateMutability": "view",
      "type": "function"
    },
    {
      "inputs": [
        {
          "internalType": "int24",
          "name": "_tick",
          "type": "int24"
        },
        {
          "internalType": "int24",
          "name": "_tickSpacings",
          "type": "int24"
        }
      ],
      "name": "acceptMinTick",
      "outputs": [
        {
          "internalType": "int24",
          "name": "",
          "type": "int24"
        }
      ],
      "stateMutability": "view",
      "type": "function"
    },
    {
      "inputs": [],
      "name": "acceptSlippagePrice",
      "outputs": [
        {
          "internalType": "int24",
          "name": "",
          "type": "int24"
        }
      ],
      "stateMutability": "view",
      "type": "function"
    },
    {
      "inputs": [],
      "name": "acceptTickChangeInterval",
      "outputs": [
        {
          "internalType": "int24",
          "name": "",
          "type": "int24"
        }
      ],
      "stateMutability": "view",
      "type": "function"
    },
    {
      "inputs": [
        {
          "internalType": "address",
          "name": "account",
          "type": "address"
        }
      ],
      "name": "addAdmin",
      "outputs": [],
      "stateMutability": "nonpayable",
      "type": "function"
    },
    {
      "inputs": [
        {
          "internalType": "address",
          "name": "",
          "type": "address"
        }
      ],
      "name": "aliveImplementation",
      "outputs": [
        {
          "internalType": "bool",
          "name": "",
          "type": "bool"
        }
      ],
      "stateMutability": "view",
      "type": "function"
    },
    {
      "inputs": [
        {
          "internalType": "int24",
          "name": "tickSpacings",
          "type": "int24"
        }
      ],
      "name": "getMaxTick",
      "outputs": [
        {
          "internalType": "int24",
          "name": "",
          "type": "int24"
        }
      ],
      "stateMutability": "pure",
      "type": "function"
    },
    {
      "inputs": [
        {
          "internalType": "int24",
          "name": "tickSpacings",
          "type": "int24"
        }
      ],
      "name": "getMiniTick",
      "outputs": [
        {
          "internalType": "int24",
          "name": "",
          "type": "int24"
        }
      ],
      "stateMutability": "pure",
      "type": "function"
    },
    {
      "inputs": [
        {
          "internalType": "int24",
          "name": "tick",
          "type": "int24"
        },
        {
          "internalType": "uint128",
          "name": "amountIn",
          "type": "uint128"
        },
        {
          "internalType": "address",
          "name": "baseToken",
          "type": "address"
        },
        {
          "internalType": "address",
          "name": "quoteToken",
          "type": "address"
        }
      ],
      "name": "getQuoteAtTick",
      "outputs": [
        {
          "internalType": "uint256",
          "name": "amountOut",
          "type": "uint256"
        }
      ],
      "stateMutability": "pure",
      "type": "function"
    },
    {
      "inputs": [
        {
          "internalType": "bytes32",
          "name": "role",
          "type": "bytes32"
        }
      ],
      "name": "getRoleAdmin",
      "outputs": [
        {
          "internalType": "bytes32",
          "name": "",
          "type": "bytes32"
        }
      ],
      "stateMutability": "view",
      "type": "function"
    },
    {
      "inputs": [
        {
          "internalType": "uint24",
          "name": "_fee",
          "type": "uint24"
        }
      ],
      "name": "getTickSpacing",
      "outputs": [
        {
          "internalType": "int24",
          "name": "tickSpacings",
          "type": "int24"
        }
      ],
      "stateMutability": "pure",
      "type": "function"
    },
    {
      "inputs": [
        {
          "internalType": "bytes32",
          "name": "role",
          "type": "bytes32"
        },
        {
          "internalType": "address",
          "name": "account",
          "type": "address"
        }
      ],
      "name": "grantRole",
      "outputs": [],
      "stateMutability": "nonpayable",
      "type": "function"
    },
    {
      "inputs": [
        {
          "internalType": "bytes32",
          "name": "role",
          "type": "bytes32"
        },
        {
          "internalType": "address",
          "name": "account",
          "type": "address"
        }
      ],
      "name": "hasRole",
      "outputs": [
        {
          "internalType": "bool",
          "name": "",
          "type": "bool"
        }
      ],
      "stateMutability": "view",
      "type": "function"
    },
    {
      "inputs": [
        {
          "internalType": "address",
          "name": "l2Token",
          "type": "address"
        },
        {
          "components": [
            {
              "internalType": "uint256",
              "name": "totalAllocatedAmount",
              "type": "uint256"
            },
            {
              "internalType": "uint256",
              "name": "tosPrice",
              "type": "uint256"
            },
            {
              "internalType": "uint256",
              "name": "tokenPrice",
              "type": "uint256"
            },
            {
              "internalType": "uint256",
              "name": "initSqrtPrice",
              "type": "uint256"
            },
            {
              "internalType": "uint32",
              "name": "startTime",
              "type": "uint32"
            },
            {
              "internalType": "uint16",
              "name": "fee",
              "type": "uint16"
            }
          ],
          "internalType": "struct LibProject.InitalParameterInitialLiquidityVault",
          "name": "params",
          "type": "tuple"
        }
      ],
      "name": "initialize",
      "outputs": [],
      "stateMutability": "nonpayable",
      "type": "function"
    },
    {
      "inputs": [
        {
          "internalType": "address",
          "name": "account",
          "type": "address"
        }
      ],
      "name": "isAdmin",
      "outputs": [
        {
          "internalType": "bool",
          "name": "",
          "type": "bool"
        }
      ],
      "stateMutability": "view",
      "type": "function"
    },
    {
      "inputs": [
        {
          "internalType": "address",
          "name": "l2Token",
          "type": "address"
        },
        {
          "internalType": "address",
          "name": "account",
          "type": "address"
        }
      ],
      "name": "isVaultAdmin",
      "outputs": [
        {
          "internalType": "bool",
          "name": "",
          "type": "bool"
        }
      ],
      "stateMutability": "view",
      "type": "function"
    },
    {
      "inputs": [],
      "name": "l2ProjectManager",
      "outputs": [
        {
          "internalType": "address",
          "name": "",
          "type": "address"
        }
      ],
      "stateMutability": "view",
      "type": "function"
    },
    {
      "inputs": [
        {
          "internalType": "address",
          "name": "l2Token",
          "type": "address"
        },
        {
          "internalType": "uint256",
          "name": "tosAmount",
          "type": "uint256"
        }
      ],
      "name": "mint",
      "outputs": [],
      "stateMutability": "nonpayable",
      "type": "function"
    },
    {
      "inputs": [],
      "name": "nonfungiblePositionManager",
      "outputs": [
        {
          "internalType": "address",
          "name": "",
          "type": "address"
        }
      ],
      "stateMutability": "view",
      "type": "function"
    },
    {
      "inputs": [],
      "name": "pauseProxy",
      "outputs": [
        {
          "internalType": "bool",
          "name": "",
          "type": "bool"
        }
      ],
      "stateMutability": "view",
      "type": "function"
    },
    {
      "inputs": [
        {
          "internalType": "address",
          "name": "",
          "type": "address"
        }
      ],
      "name": "poolInfo",
      "outputs": [
        {
          "internalType": "address",
          "name": "pool",
          "type": "address"
        },
        {
          "internalType": "uint256",
          "name": "totalAllocatedAmount",
          "type": "uint256"
        },
        {
          "internalType": "uint256",
          "name": "initialTosPrice",
          "type": "uint256"
        },
        {
          "internalType": "uint256",
          "name": "initialTokenPrice",
          "type": "uint256"
        },
        {
          "internalType": "uint256",
          "name": "lpToken",
          "type": "uint256"
        },
        {
          "internalType": "uint32",
          "name": "startTime",
          "type": "uint32"
        },
        {
          "internalType": "uint160",
          "name": "initSqrtPriceX96",
          "type": "uint160"
        },
        {
          "internalType": "uint24",
          "name": "fee",
          "type": "uint24"
        },
        {
          "internalType": "bool",
          "name": "boolReadyToCreatePool",
          "type": "bool"
        }
      ],
      "stateMutability": "view",
      "type": "function"
    },
    {
      "inputs": [
        {
          "internalType": "uint256",
          "name": "",
          "type": "uint256"
        }
      ],
      "name": "proxyImplementation",
      "outputs": [
        {
          "internalType": "address",
          "name": "",
          "type": "address"
        }
      ],
      "stateMutability": "view",
      "type": "function"
    },
    {
      "inputs": [
        {
          "internalType": "address",
          "name": "account",
          "type": "address"
        }
      ],
      "name": "removeAdmin",
      "outputs": [],
      "stateMutability": "nonpayable",
      "type": "function"
    },
    {
      "inputs": [
        {
          "internalType": "bytes32",
          "name": "role",
          "type": "bytes32"
        },
        {
          "internalType": "address",
          "name": "account",
          "type": "address"
        }
      ],
      "name": "renounceRole",
      "outputs": [],
      "stateMutability": "nonpayable",
      "type": "function"
    },
    {
      "inputs": [
        {
          "internalType": "bytes32",
          "name": "role",
          "type": "bytes32"
        },
        {
          "internalType": "address",
          "name": "account",
          "type": "address"
        }
      ],
      "name": "revokeRole",
      "outputs": [],
      "stateMutability": "nonpayable",
      "type": "function"
    },
    {
      "inputs": [
        {
          "internalType": "bytes4",
          "name": "",
          "type": "bytes4"
        }
      ],
      "name": "selectorImplementation",
      "outputs": [
        {
          "internalType": "address",
          "name": "",
          "type": "address"
        }
      ],
      "stateMutability": "view",
      "type": "function"
    },
    {
      "inputs": [
        {
          "internalType": "int24",
          "name": "_value",
          "type": "int24"
        }
      ],
      "name": "setAcceptSlippagePrice",
      "outputs": [],
      "stateMutability": "nonpayable",
      "type": "function"
    },
    {
      "inputs": [
        {
          "internalType": "int24",
          "name": "_interval",
          "type": "int24"
        }
      ],
      "name": "setAcceptTickChangeInterval",
      "outputs": [],
      "stateMutability": "nonpayable",
      "type": "function"
    },
    {
      "inputs": [
        {
          "internalType": "address",
          "name": "l2Token",
          "type": "address"
        }
      ],
      "name": "setCreatePool",
      "outputs": [],
      "stateMutability": "nonpayable",
      "type": "function"
    },
    {
      "inputs": [
        {
          "internalType": "address",
          "name": "_l2ProjectManager",
          "type": "address"
        }
      ],
      "name": "setL2ProjectManager",
      "outputs": [],
      "stateMutability": "nonpayable",
      "type": "function"
    },
    {
      "inputs": [
        {
          "internalType": "address",
          "name": "l2Token",
          "type": "address"
        },
        {
          "internalType": "uint32",
          "name": "_startTime",
          "type": "uint32"
        }
      ],
      "name": "setStartTime",
      "outputs": [],
      "stateMutability": "nonpayable",
      "type": "function"
    },
    {
      "inputs": [
        {
          "internalType": "uint32",
          "name": "value",
          "type": "uint32"
        }
      ],
      "name": "setTWAP_PERIOD",
      "outputs": [],
      "stateMutability": "nonpayable",
      "type": "function"
    },
    {
      "inputs": [
        {
          "internalType": "address",
          "name": "_poolfactory",
          "type": "address"
        },
        {
          "internalType": "address",
          "name": "_npm",
          "type": "address"
        },
        {
          "internalType": "address",
          "name": "_ton",
          "type": "address"
        },
        {
          "internalType": "address",
          "name": "_tos",
          "type": "address"
        }
      ],
      "name": "setUniswapInfo",
      "outputs": [],
      "stateMutability": "nonpayable",
      "type": "function"
    },
    {
      "inputs": [
        {
          "internalType": "address",
          "name": "l2Token",
          "type": "address"
        },
        {
          "internalType": "address",
          "name": "_newAdmin",
          "type": "address"
        }
      ],
      "name": "setVaultAdmin",
      "outputs": [],
      "stateMutability": "nonpayable",
      "type": "function"
    },
    {
      "inputs": [
        {
          "internalType": "bytes4",
          "name": "interfaceId",
          "type": "bytes4"
        }
      ],
      "name": "supportsInterface",
      "outputs": [
        {
          "internalType": "bool",
          "name": "",
          "type": "bool"
        }
      ],
      "stateMutability": "view",
      "type": "function"
    },
    {
      "inputs": [],
      "name": "tickSpacings",
      "outputs": [
        {
          "internalType": "int24",
          "name": "",
          "type": "int24"
        }
      ],
      "stateMutability": "view",
      "type": "function"
    },
    {
      "inputs": [],
      "name": "ton",
      "outputs": [
        {
          "internalType": "address",
          "name": "",
          "type": "address"
        }
      ],
      "stateMutability": "view",
      "type": "function"
    },
    {
      "inputs": [],
      "name": "tos",
      "outputs": [
        {
          "internalType": "address",
          "name": "",
          "type": "address"
        }
      ],
      "stateMutability": "view",
      "type": "function"
    },
    {
      "inputs": [
        {
          "internalType": "address",
          "name": "newAdmin",
          "type": "address"
        }
      ],
      "name": "transferAdmin",
      "outputs": [],
      "stateMutability": "nonpayable",
      "type": "function"
    },
    {
      "inputs": [
        {
          "internalType": "address",
          "name": "l2Token",
          "type": "address"
        },
        {
          "internalType": "address",
          "name": "_newAdmin",
          "type": "address"
        }
      ],
      "name": "transferVaultAdmin",
      "outputs": [],
      "stateMutability": "nonpayable",
      "type": "function"
    },
    {
      "inputs": [],
      "name": "uniswapV3Factory",
      "outputs": [
        {
          "internalType": "address",
          "name": "",
          "type": "address"
        }
      ],
      "stateMutability": "view",
      "type": "function"
    },
    {
      "inputs": [
        {
          "internalType": "address",
          "name": "",
          "type": "address"
        }
      ],
      "name": "vaultAdminOfToken",
      "outputs": [
        {
          "internalType": "address",
          "name": "",
          "type": "address"
        }
      ],
      "stateMutability": "view",
      "type": "function"
    },
    {
      "inputs": [
        {
          "internalType": "address",
          "name": "l2Token",
          "type": "address"
        }
      ],
      "name": "viewVaultInfo",
      "outputs": [
        {
          "components": [
            {
              "internalType": "address",
              "name": "pool",
              "type": "address"
            },
            {
              "internalType": "uint256",
              "name": "totalAllocatedAmount",
              "type": "uint256"
            },
            {
              "internalType": "uint256",
              "name": "initialTosPrice",
              "type": "uint256"
            },
            {
              "internalType": "uint256",
              "name": "initialTokenPrice",
              "type": "uint256"
            },
            {
              "internalType": "uint256",
              "name": "lpToken",
              "type": "uint256"
            },
            {
              "internalType": "uint32",
              "name": "startTime",
              "type": "uint32"
            },
            {
              "internalType": "uint160",
              "name": "initSqrtPriceX96",
              "type": "uint160"
            },
            {
              "internalType": "uint24",
              "name": "fee",
              "type": "uint24"
            },
            {
              "internalType": "bool",
              "name": "boolReadyToCreatePool",
              "type": "bool"
            }
          ],
          "internalType": "struct LibInitialLiquidityVault.PoolInfo",
          "name": "",
          "type": "tuple"
        }
      ],
      "stateMutability": "view",
      "type": "function"
    }
  ],
  "transactionHash": "0x038c0fff5c44b8d4f5663bcdc7f4ee455fc8d6a2004444b0cc0e636f05ef8cba",
  "args": [],
  "numDeployments": 1,
  "solcInputHash": "a3d458828a1932a50e4175124b65d2fd",
  "bytecode": "0x60806040526005805460ff1916600117905534801561001d57600080fd5b50614e788061002d6000396000f3fe608060405234801561001057600080fd5b50600436106103155760003560e01c806370480275116101a7578063a22f84f0116100ee578063b9c56c8c11610097578063d547741f11610071578063d547741f1461082c578063dc861da61461083f578063ea8668151461094557600080fd5b8063b9c56c8c146107f3578063bef6dc8b14610806578063cc48b9471461081957600080fd5b8063b224f99f116100c8578063b224f99f146107a4578063b44a2722146107b7578063b911135f146107ca57600080fd5b8063a22f84f01461076b578063a41823431461077e578063aec137581461079157600080fd5b806389f395de116101505780639a7b5f111161012a5780639a7b5f111461067e5780639cbbbe8614610756578063a217fddf1461076357600080fd5b806389f395de1461061f57806391d1485414610632578063971c57cc1461066b57600080fd5b80637ca25184116101815780637ca25184146105b75780637fc46ba8146105e3578063826bd4bf1461060c57600080fd5b8063704802751461056a57806375829def1461057d57806375b238fc1461059057600080fd5b806336568abe1161026b57806350d2a27611610214578063550d01a3116101ee578063550d01a3146105275780635b5491821461054a57806363a8fd891461055d57600080fd5b806350d2a276146104bb57806351e8152a146104fc57806352351e851461050f57600080fd5b806343c57a271161024557806343c57a2714610481578063442bede61461049457806345a41148146104a757600080fd5b806336568abe1461044857806337c1cfa51461045b57806340c10f191461046e57600080fd5b8063248a9ca3116102cd5780632f2ff15d116102a75780632f2ff15d1461040e57806335b9ac661461042157806335d20f8a1461043457600080fd5b8063248a9ca3146103c557806324d7806c146103e85780632c00778a146103fb57600080fd5b80631785f53c116102fe5780631785f53c146103685780631e8948c31461037d578063229852461461039057600080fd5b806301ffc9a71461031a5780630f36edbf14610342575b600080fd5b61032d610328366004614306565b610958565b60405190151581526020015b60405180910390f35b61035561035036600461433f565b61098f565b60405160029190910b8152602001610339565b61037b61037636600461438d565b6109eb565b005b61037b61038b3660046143aa565b610a6b565b6103b77ffb5864e8ff833c3cb2d2d08505e82ff02a43554c74a35d4f5a64e8526127831181565b604051908152602001610339565b6103b76103d33660046143d8565b60009081526004602052604090206001015490565b61032d6103f636600461438d565b610c44565b61037b6104093660046143f1565b610c84565b61037b61041c36600461440e565b610d7a565b61037b61042f3660046143aa565b610da4565b600a5461035590600160d81b900460020b81565b61037b61045636600461440e565b610f59565b61037b61046936600461438d565b610fe5565b61037b61047c366004614433565b611628565b6103b761048f366004614474565b611dac565b61037b6104a236600461453b565b611dc3565b600a5461035590600160c01b900460020b81565b6104e46104c9366004614306565b6003602052600090815260409020546001600160a01b031681565b6040516001600160a01b039091168152602001610339565b61032d61050a3660046143aa565b61221e565b6005546104e49061010090046001600160a01b031681565b61032d61053536600461438d565b60026020526000908152604090205460ff1681565b6009546104e4906001600160a01b031681565b60005461032d9060ff1681565b61037b61057836600461438d565b61225b565b61037b61058b36600461438d565b6122d3565b6103b77fdf8b4c520ffe197c5343c6f5aec59570151ef9a492f2c624fd45ddde6135ec4281565b600a546105ce90600160a01b900463ffffffff1681565b60405163ffffffff9091168152602001610339565b6104e46105f136600461438d565b6006602052600090815260409020546001600160a01b031681565b61035561061a3660046143f1565b612423565b6008546104e4906001600160a01b031681565b61032d61064036600461440e565b60009182526004602090815260408084206001600160a01b0393909316845291905290205460ff1690565b61037b6106793660046145eb565b61243e565b6106f661068c36600461438d565b600c602052600090815260409020805460018201546002830154600384015460048501546005909501546001600160a01b039485169593949293919263ffffffff821691640100000000810490911690600160c01b810462ffffff1690600160d81b900460ff1689565b604080516001600160a01b039a8b16815260208101999099528801969096526060870194909452608086019290925263ffffffff1660a085015290931660c083015262ffffff90921660e082015290151561010082015261012001610339565b600b546103559060020b81565b6103b7600081565b6103556107793660046143f1565b612603565b61037b61078c36600461438d565b61261e565b61035561079f36600461433f565b612729565b61037b6107b2366004614620565b61277d565b600a546104e4906001600160a01b031681565b6104e46107d83660046143d8565b6001602052600090815260409020546001600160a01b031681565b61037b6108013660046143f1565b61287a565b61037b61081436600461463b565b612970565b6007546104e4906001600160a01b031681565b61037b61083a36600461440e565b612bdf565b61093861084d36600461438d565b6040805161012081018252600080825260208201819052918101829052606081018290526080810182905260a0810182905260c0810182905260e08101829052610100810191909152506001600160a01b039081166000908152600c6020908152604091829020825161012081018452815485168152600182015492810192909252600281015492820192909252600382015460608201526004820154608082015260059091015463ffffffff811660a0830152640100000000810490921660c0820152600160c01b820462ffffff1660e0820152600160d81b90910460ff16151561010082015290565b604051610339919061466c565b6103556109533660046146ff565b612c04565b60006001600160e01b03198216637965db0b60e01b148061098957506301ffc9a760e01b6001600160e01b03198316145b92915050565b60008061099b83612423565b600a549091506000906109b890600160c01b900460020b8561473a565b6109c29086614761565b90508060020b8260020b12156109db5791506109899050565b509050610989565b505092915050565b6109f433610c44565b610a3e5760405162461bcd60e51b81526020600482015260226024820152600080516020614e4c83398151915260448201526134b760f11b60648201526084015b60405180910390fd5b610a687fdf8b4c520ffe197c5343c6f5aec59570151ef9a492f2c624fd45ddde6135ec4282610f59565b50565b816001600160a01b038116610aa75760405162461bcd60e51b81526020600482015260026024820152612d1960f11b6044820152606401610a35565b816001600160a01b038116610ae35760405162461bcd60e51b81526020600482015260026024820152612d1960f11b6044820152606401610a35565b6001600160a01b0380851660009081526006602052604090205485911615801590610b2757506001600160a01b038181166000908152600660205260409020541633145b610b815760405162461bcd60e51b815260206004820152602560248201527f63616c6c6572206973206e6f742061207661756c7441646d696e204f66206c326044820152642a37b5b2b760d91b6064820152608401610a35565b6001600160a01b03858116600090815260066020526040902054818616911603610bd65760405162461bcd60e51b8152600401610a359060208082526004908201526373616d6560e01b604082015260600190565b6001600160a01b0385811660008181526006602090815260409182902080546001600160a01b031916948916948517905581519283528201929092527fb00bb4c229aff6156cc8e2c767c571665e1927c09fe083ec055956a5a4026193910160405180910390a15050505050565b6001600160a01b03811660009081527f2fb794d17134dfdec181ddbac1babb5ab1eb140204ef4d982f294e7fc8b69022602052604081205460ff16610989565b610c8d33610c44565b610cd25760405162461bcd60e51b81526020600482015260226024820152600080516020614e4c83398151915260448201526134b760f11b6064820152608401610a35565b60008160020b13610d0e5760405162461bcd60e51b8152600401610a35906020808252600490820152637a65726f60e01b604082015260600190565b600a54600282810b600160d81b909204900b03610d565760405162461bcd60e51b8152600401610a359060208082526004908201526373616d6560e01b604082015260600190565b600a805462ffffff909216600160d81b0262ffffff60d81b19909216919091179055565b600082815260046020526040902060010154610d9581612c5e565b610d9f8383612c68565b505050565b816001600160a01b038116610de05760405162461bcd60e51b81526020600482015260026024820152612d1960f11b6044820152606401610a35565b816001600160a01b038116610e1c5760405162461bcd60e51b81526020600482015260026024820152612d1960f11b6044820152606401610a35565b60055461010090046001600160a01b031615801590610e4a575060055461010090046001600160a01b031633145b610e965760405162461bcd60e51b815260206004820152601e60248201527f63616c6c6572206973206e6f74206c3250726f6a6563744d616e6167657200006044820152606401610a35565b6001600160a01b03848116600090815260066020526040902054818516911603610eeb5760405162461bcd60e51b8152600401610a359060208082526004908201526373616d6560e01b604082015260600190565b6001600160a01b0384811660008181526006602090815260409182902080546001600160a01b031916948816948517905581519283528201929092527fb00bb4c229aff6156cc8e2c767c571665e1927c09fe083ec055956a5a402619391015b60405180910390a150505050565b6001600160a01b0381163314610fd75760405162461bcd60e51b815260206004820152602f60248201527f416363657373436f6e74726f6c3a2063616e206f6e6c792072656e6f756e636560448201527f20726f6c657320666f722073656c6600000000000000000000000000000000006064820152608401610a35565b610fe18282612d0a565b5050565b6001600160a01b0381166000908152600c60205260409020600501548190600160d81b900460ff16156110655760405162461bcd60e51b815260206004820152602260248201527f5661756c743a20616c726561647920726561647920746f20437265617465506f6044820152611bdb60f21b6064820152608401610a35565b60055460ff166110a05760405162461bcd60e51b8152600401610a35906020808252600490820152636c6f636b60e01b604082015260600190565b6005805460ff191681556001600160a01b0383166000908152600c602052604090209081015463ffffffff16158015906110e65750600581015463ffffffff4281169116105b6111325760405162461bcd60e51b815260206004820152601960248201527f537461727454696d6520686173206e6f74207061737365642e000000000000006044820152606401610a35565b80546001600160a01b03161561118a5760405162461bcd60e51b815260206004820152600f60248201527f616c7265616479206372656174656400000000000000000000000000000000006044820152606401610a35565b600581015464010000000090046001600160a01b03166111ec5760405162461bcd60e51b815260206004820152601560248201527f7a65726f20696e697453717274507269636558393600000000000000000000006044820152606401610a35565b6009546008546005830154604051630b4c774160e11b81526001600160a01b0392831660048201528683166024820152600160c01b90910462ffffff1660448201526000929190911690631698ee8290606401602060405180830381865afa15801561125c573d6000803e3d6000fd5b505050506040513d601f19601f820116820180604052508101906112809190614786565b90506001600160a01b03811661138157600954600854600584015460405163a167129560e01b81526001600160a01b0392831660048201528783166024820152600160c01b90910462ffffff166044820152600092919091169063a1671295906064016020604051808303816000875af1158015611302573d6000803e3d6000fd5b505050506040513d601f19601f820116820180604052508101906113269190614786565b90506001600160a01b03811661137e5760405162461bcd60e51b815260206004820152600f60248201527f637265617465506f6f6c206661696c00000000000000000000000000000000006044820152606401610a35565b90505b81546001600160a01b0382166001600160a01b0319909116811783556005830180547fffffffff00ffffffffffffffffffffffffffffffffffffffffffffffffffffff16600160d81b17905560408051633850c7bd60e01b8152905160009291633850c7bd9160048083019260e09291908290030181865afa15801561140b573d6000803e3d6000fd5b505050506040513d601f19601f8201168201806040525081019061142f91906147b3565b5050505050509050806001600160a01b031660000361150b57600583015460405163f637731d60e01b81526401000000009091046001600160a01b03908116600483015283169063f637731d90602401600060405180830381600087803b15801561149957600080fd5b505af11580156114ad573d6000803e3d6000fd5b505050506005830154604080516001600160a01b038881168252858116602083015264010000000090930490921682820152517fca9098798fa03760d7709c3305b3b049d2c71fa6e891a83a36fe90a15eeab7809181900360600190a15b604080516001600160a01b038088168252841660208201527ffb9092f7bd4a3c6c55439411fb56fe4d44878125340b674c6ab5b5dda38d0b1c910160405180910390a16000826001600160a01b0316633850c7bd6040518163ffffffff1660e01b815260040160e060405180830381865afa15801561158e573d6000803e3d6000fd5b505050506040513d601f19601f820116820180604052508101906115b291906147b3565b5050505050509050806001600160a01b03166000036116135760405162461bcd60e51b815260206004820152601260248201527f7a65726f205f73717274507269636558393600000000000000000000000000006044820152606401610a35565b50506005805460ff1916600117905550505050565b6001600160a01b0382166000908152600c60205260409020600501548290600160d81b900460ff1661169c5760405162461bcd60e51b815260206004820152601e60248201527f5661756c743a206e6f7420726561647920746f20437265617465506f6f6c00006044820152606401610a35565b81806000036116d25760405162461bcd60e51b81526020600482015260026024820152615a3160f01b6044820152606401610a35565b60055460ff1661170d5760405162461bcd60e51b8152600401610a35906020808252600490820152636c6f636b60e01b604082015260600190565b6005805460ff191690556008546040516370a0823160e01b81523060048201526000916001600160a01b0316906370a0823190602401602060405180830381865afa158015611760573d6000803e3d6000fd5b505050506040513d601f19601f820116820180604052508101906117849190614850565b6040516370a0823160e01b81523060048201529091506000906001600160a01b038716906370a0823190602401602060405180830381865afa1580156117ce573d6000803e3d6000fd5b505050506040513d601f19601f820116820180604052508101906117f29190614850565b9050670de0b6b3a7640000821180156118125750670de0b6b3a764000081115b61185e5760405162461bcd60e51b815260206004820152601760248201527f62616c616e636520697320696e73756666696369656e740000000000000000006044820152606401610a35565b818511156118ae5760405162461bcd60e51b815260206004820152601960248201527f746f42616c616e636520697320696e73756666696369656e74000000000000006044820152606401610a35565b600a54600160c01b900460020b6000036118d857600a805462ffffff60c01b1916600160c31b1790555b600a54600160d81b900460020b60000361190257600a805462ffffff60d81b1916600560d91b1790555b600a54600160a01b900463ffffffff1660000361194157600a805463ffffffff60a01b1916747800000000000000000000000000000000000000001790555b6001600160a01b038681166000908152600c602090815260408083208151610120810183528154861680825260018301549482019490945260028201548184015260038201546060820152600480830154608083015260059092015463ffffffff811660a0830152640100000000810490961660c0820152600160c01b860462ffffff1660e080830191909152600160d81b90960460ff1615156101008201528251633850c7bd60e01b815292519095859485949093633850c7bd9382820193929091908290030181865afa158015611a1e573d6000803e3d6000fd5b505050506040513d601f19601f82011682018060405250810190611a4291906147b3565b505050935050925092506000836001600160a01b031611611aa55760405162461bcd60e51b815260206004820152601760248201527f706f6f6c206973206e6f7420696e697469616c697a65640000000000000000006044820152606401610a35565b60018161ffff161115611b67578351600a54600091611ad091600160a01b900463ffffffff16612d8d565b90508260020b611ae7826103508860e00151612c04565b60020b13158015611b0d5750611b048161079f8760e00151612c04565b60020b8360020b125b611b655760405162461bcd60e51b8152602060048201526024808201527f49742773206e6f7420616c6c6f776564206368616e676564207469636b2072616044820152633733b29760e11b6064820152608401610a35565b505b600080600086600001516001600160a01b0316630dfe16816040518163ffffffff1660e01b8152600401602060405180830381865afa158015611bae573d6000803e3d6000fd5b505050506040513d601f19601f82011682018060405250810190611bd29190614786565b6008549091508d906001600160a01b03808416911614611c6b57600854611c069087908f906001600160a01b031684611dac565b93508c925088841115611c5b5760405162461bcd60e51b815260206004820152601c60248201527f746f6b656e42616c616e636520697320696e73756666696369656e74000000006044820152606401610a35565b611c66818486612f4c565b611ce5565b6008548d9450611c8890879086906001600160a01b031684611dac565b925088831115611cda5760405162461bcd60e51b815260206004820152601c60248201527f746f6b656e42616c616e636520697320696e73756666696369656e74000000006044820152606401610a35565b611ce5818585612f4c565b600a54600090606490611d0290600160d81b900460020b82614869565b611d0c908761487c565b611d1691906148a9565b600a54909150600090606490611d3690600160d81b900460020b82614869565b611d40908761487c565b611d4a91906148a9565b6001600160a01b0384166000908152600c602052604081206004015491925003611d8057611d7b838787858561342e565b611d8d565b611d8d8387878585613812565b50506005805460ff191660011790555050505050505050505050505050565b6000611dba858585856139a7565b95945050505050565b600554829061010090046001600160a01b0316331480611e2057506001600160a01b038181166000908152600660205260409020541615801590611e2057506001600160a01b038181166000908152600660205260409020541633145b611e925760405162461bcd60e51b815260206004820152602c60248201527f63616c6c6572206973206e6f742061207661756c7441646d696e206f7220507260448201527f6f6a6563744d616e6167657200000000000000000000000000000000000000006064820152608401610a35565b6009546001600160a01b031615801590611eb65750600a546001600160a01b031615155b8015611ecc57506008546001600160a01b031615155b611f185760405162461bcd60e51b815260206004820152601860248201527f5661756c743a206265666f726520736574556e697377617000000000000000006044820152606401610a35565b6001600160a01b0383166000908152600c602052604090206001015415611f815760405162461bcd60e51b815260206004820152601360248201527f616c726561647920696e697469616c697a6564000000000000000000000000006044820152606401610a35565b815115801590611f945750602082015115155b8015611fa35750604082015115155b8015611fb25750606082015115155b8015611fc5575060a082015161ffff1615155b61205d5760405162461bcd60e51b815260206004820152605460248201527f7a65726f20746f74616c416c6c6f6361746564416d6f756e74206f7220746f7360448201527f5072696365206f7220746f6b656e5072696365206f7220696e6974537172745060648201527f72696365583936206f7220737461727454696d65000000000000000000000000608482015260a401610a35565b4263ffffffff16826080015163ffffffff16116120bc5760405162461bcd60e51b815260206004820152601460248201527f537461727454696d6520686173207061737365640000000000000000000000006044820152606401610a35565b60055482516120e0916001600160a01b038681169261010090920416903090613ab5565b6001600160a01b038084166000908152600c602090815260409182902085516001820181905591860151600282018190558684015160038301819055606088015160058401805460808b015160a08c0151600160c01b61ffff8216027fffffffffff000000ffffffffffffffffffffffffffffffffffffffff000000009b8616640100000000029b909b167fffffffffff0000000000000000000000000000000000000000000000000000009093169290921763ffffffff82161799909917909155955193967f060a95341b2743fc4109ee31674ef362aca6cdea36c46a5ed759920b83e244b096610f4b968c969095949391906001600160a01b03978816815260208101969096526040860194909452606085019290925263ffffffff16608084015290921660a082015261ffff9190911660c082015260e00190565b60006001600160a01b0382161580159061225457506001600160a01b038381166000908152600660205260409020548116908316145b9392505050565b61226433610c44565b6122a95760405162461bcd60e51b81526020600482015260226024820152600080516020614e4c83398151915260448201526134b760f11b6064820152608401610a35565b610a687fdf8b4c520ffe197c5343c6f5aec59570151ef9a492f2c624fd45ddde6135ec4282610d7a565b6122dc33610c44565b6123215760405162461bcd60e51b81526020600482015260226024820152600080516020614e4c83398151915260448201526134b760f11b6064820152608401610a35565b6001600160a01b0381166123775760405162461bcd60e51b815260206004820152601860248201527f41636365737369626c653a207a65726f206164647265737300000000000000006044820152606401610a35565b6001600160a01b03811633036123cf5760405162461bcd60e51b815260206004820152601660248201527f41636365737369626c653a2073616d652061646d696e000000000000000000006044820152606401610a35565b6123f97fdf8b4c520ffe197c5343c6f5aec59570151ef9a492f2c624fd45ddde6135ec4282610d7a565b610a687fdf8b4c520ffe197c5343c6f5aec59570151ef9a492f2c624fd45ddde6135ec4233610f59565b60008161243481620d89e7196148bd565b610989919061473a565b6001600160a01b038083166000908152600660205260409020548391161580159061248257506001600160a01b038181166000908152600660205260409020541633145b6124dc5760405162461bcd60e51b815260206004820152602560248201527f63616c6c6572206973206e6f742061207661756c7441646d696e204f66206c326044820152642a37b5b2b760d91b6064820152608401610a35565b6001600160a01b0383166000908152600c60205260409020600581015463ffffffff16421061254d5760405162461bcd60e51b815260206004820152601460248201527f537461727454696d6520686173207061737365640000000000000000000000006044820152606401610a35565b600581015463ffffffff8085169116036125a95760405162461bcd60e51b815260206004820152600e60248201527f73616d6520537461727454696d650000000000000000000000000000000000006044820152606401610a35565b60058101805463ffffffff191663ffffffff8516908117909155604080516001600160a01b038716815260208101929092527f1266d1525c8a4b88d83deeed8ccc3a233c359b7bd54f50c0b4ba71c4a330f5b59101610f4b565b60008180612614620d89e7196148f7565b61243491906148bd565b806001600160a01b03811661265a5760405162461bcd60e51b81526020600482015260026024820152612d1960f11b6044820152606401610a35565b61266333610c44565b6126a85760405162461bcd60e51b81526020600482015260226024820152600080516020614e4c83398151915260448201526134b760f11b6064820152608401610a35565b6005546001600160a01b0380841661010090920416036126f35760405162461bcd60e51b8152600401610a359060208082526004908201526373616d6560e01b604082015260600190565b50600580546001600160a01b039092166101000274ffffffffffffffffffffffffffffffffffffffff0019909216919091179055565b60008061273583612603565b600a5490915060009061275290600160c01b900460020b8561473a565b61275c9086614919565b90508060020b8260020b121561277457509050610989565b91506109899050565b61278633610c44565b6127cb5760405162461bcd60e51b81526020600482015260226024820152600080516020614e4c83398151915260448201526134b760f11b6064820152608401610a35565b60008163ffffffff161161280a5760405162461bcd60e51b8152600401610a35906020808252600490820152637a65726f60e01b604082015260600190565b600a5463ffffffff808316600160a01b90920416036128545760405162461bcd60e51b8152600401610a359060208082526004908201526373616d6560e01b604082015260600190565b600a805463ffffffff909216600160a01b0263ffffffff60a01b19909216919091179055565b61288333610c44565b6128c85760405162461bcd60e51b81526020600482015260226024820152600080516020614e4c83398151915260448201526134b760f11b6064820152608401610a35565b60008160020b136129045760405162461bcd60e51b8152600401610a35906020808252600490820152637a65726f60e01b604082015260600190565b600a54600282810b600160c01b909204900b0361294c5760405162461bcd60e51b8152600401610a359060208082526004908201526373616d6560e01b604082015260600190565b600a805462ffffff909216600160c01b0262ffffff60c01b19909216919091179055565b61297933610c44565b6129be5760405162461bcd60e51b81526020600482015260226024820152600080516020614e4c83398151915260448201526134b760f11b6064820152608401610a35565b836001600160a01b0381166129fa5760405162461bcd60e51b81526020600482015260026024820152612d1960f11b6044820152606401610a35565b836001600160a01b038116612a365760405162461bcd60e51b81526020600482015260026024820152612d1960f11b6044820152606401610a35565b836001600160a01b038116612a725760405162461bcd60e51b81526020600482015260026024820152612d1960f11b6044820152606401610a35565b836001600160a01b038116612aae5760405162461bcd60e51b81526020600482015260026024820152612d1960f11b6044820152606401610a35565b6009546001600160a01b038981169116141580612ad95750600a546001600160a01b03888116911614155b80612af257506007546001600160a01b03878116911614155b80612b0b57506008546001600160a01b03868116911614155b612b405760405162461bcd60e51b8152600401610a359060208082526004908201526373616d6560e01b604082015260600190565b600980546001600160a01b038a81166001600160a01b03199283168117909355600a80548b83169084168117909155600780548b8416908516811790915560088054938b1693909416831790935560408051948552602085019190915283019190915260608201527f5f5458e04fbfd7e3d6d9563a2da2ea2a5b3a29c1303221569d209c8c673ceacc9060800160405180910390a15050505050505050565b600082815260046020526040902060010154612bfa81612c5e565b610d9f8383612d0a565b60008162ffffff16606403612c1b57506002919050565b8162ffffff166101f403612c315750600a919050565b8162ffffff16610bb803612c475750603c919050565b8162ffffff1661271003612c59575060c85b919050565b610a688133613bee565b60008281526004602090815260408083206001600160a01b038516845290915290205460ff16610fe15760008281526004602090815260408083206001600160a01b03851684529091529020805460ff19166001179055612cc63390565b6001600160a01b0316816001600160a01b0316837f2f8788117e7eff1d82e926ec794901d17c78024a50270940304540a733656f0d60405160405180910390a45050565b60008281526004602090815260408083206001600160a01b038516845290915290205460ff1615610fe15760008281526004602090815260408083206001600160a01b0385168085529252808320805460ff1916905551339285917ff6391f5c32d9c69d2a47ea670b442974b53935d1edc7fd64eb21e047a839171b9190a45050565b60008163ffffffff16600003612dca5760405162461bcd60e51b8152602060048201526002602482015261042560f41b6044820152606401610a35565b6040805160028082526060820183526000926020830190803683370190505090508281600081518110612dff57612dff61493e565b602002602001019063ffffffff16908163ffffffff1681525050600081600181518110612e2e57612e2e61493e565b63ffffffff9092166020928302919091019091015260405163883bdbfd60e01b81526000906001600160a01b0386169063883bdbfd90612e72908590600401614954565b600060405180830381865afa158015612e8f573d6000803e3d6000fd5b505050506040513d6000823e601f3d908101601f19168201604052612eb79190810190614a36565b509050600081600081518110612ecf57612ecf61493e565b602002602001015182600181518110612eea57612eea61493e565b6020026020010151612efc9190614b02565b9050612f0c600386900b82614b2f565b935060008160060b128015612f305750612f2a600386900b82614b64565b60060b15155b15612f435783612f3f81614b86565b9450505b50505092915050565b6008546040516370a0823160e01b815230600482015283916001600160a01b0316906370a0823190602401602060405180830381865afa158015612f94573d6000803e3d6000fd5b505050506040513d601f19601f82011682018060405250810190612fb89190614850565b10156130065760405162461bcd60e51b815260206004820152601460248201527f746f7320697320696e73756666696369656e742e0000000000000000000000006044820152606401610a35565b6040516370a0823160e01b815230600482015281906001600160a01b038516906370a0823190602401602060405180830381865afa15801561304c573d6000803e3d6000fd5b505050506040513d601f19601f820116820180604052508101906130709190614850565b10156130be5760405162461bcd60e51b815260206004820152601660248201527f746f6b656e20697320696e73756666696369656e742e000000000000000000006044820152606401610a35565b600854600a54604051636eb1769f60e11b81523060048201526001600160a01b03918216602482015291169063dd62ed3e90604401602060405180830381865afa158015613110573d6000803e3d6000fd5b505050506040513d601f19601f820116820180604052508101906131349190614850565b82111561327157600854600a54604080516318160ddd60e01b815290516001600160a01b039384169363095ea7b393169184916318160ddd916004808201926020929091908290030181865afa158015613192573d6000803e3d6000fd5b505050506040513d601f19601f820116820180604052508101906131b69190614850565b6040516001600160e01b031960e085901b1681526001600160a01b03909216600483015260248201526044016020604051808303816000875af1158015613201573d6000803e3d6000fd5b505050506040513d601f19601f820116820180604052508101906132259190614ba9565b6132715760405162461bcd60e51b815260206004820152601060248201527f544f5320617070726f7665206661696c000000000000000000000000000000006044820152606401610a35565b600a54604051636eb1769f60e11b81523060048201526001600160a01b0391821660248201529084169063dd62ed3e90604401602060405180830381865afa1580156132c1573d6000803e3d6000fd5b505050506040513d601f19601f820116820180604052508101906132e59190614850565b811115610d9f57826001600160a01b031663095ea7b3600a60009054906101000a90046001600160a01b0316856001600160a01b03166318160ddd6040518163ffffffff1660e01b8152600401602060405180830381865afa15801561334f573d6000803e3d6000fd5b505050506040513d601f19601f820116820180604052508101906133739190614850565b6040516001600160e01b031960e085901b1681526001600160a01b03909216600483015260248201526044016020604051808303816000875af11580156133be573d6000803e3d6000fd5b505050506040513d601f19601f820116820180604052508101906133e29190614ba9565b610d9f5760405162461bcd60e51b815260206004820152601260248201527f746f6b656e20617070726f7665206661696c00000000000000000000000000006044820152606401610a35565b6001600160a01b0385166000908152600c602052604090206004810154156134985760405162461bcd60e51b815260206004820152600e60248201527f616c7265616479206d696e7465640000000000000000000000000000000000006044820152606401610a35565b60058101546000906134b590600160c01b900462ffffff16612c04565b60058301546134cf90600160c01b900462ffffff16612c04565b6134dd90620d89e7196148bd565b6134e7919061473a565b905060006135078360050160189054906101000a900462ffffff16612c04565b600584015461352190600160c01b900462ffffff16612c04565b61352e620d89e7196148f7565b61353891906148bd565b613542919061473a565b600a546040805161016081018083528754630dfe168160e01b90915291519394506000938493849384936001600160a01b0392831693638831645693919283921690630dfe168190610164808501916020918187030181865afa1580156135ad573d6000803e3d6000fd5b505050506040513d601f19601f820116820180604052508101906135d19190614786565b6001600160a01b031681526020018a60000160009054906101000a90046001600160a01b03166001600160a01b031663d21220a76040518163ffffffff1660e01b8152600401602060405180830381865afa158015613634573d6000803e3d6000fd5b505050506040513d601f19601f820116820180604052508101906136589190614786565b6001600160a01b031681526020018a60050160189054906101000a900462ffffff1662ffffff1681526020018960020b81526020018860020b81526020018e81526020018d81526020018c81526020018b8152602001306001600160a01b03168152602001428152506040518263ffffffff1660e01b81526004016136dd9190614bc4565b6080604051808303816000875af11580156136fc573d6000803e3d6000fd5b505050506040513d601f19601f820116820180604052508101906137209190614c88565b9350935093509350600084116137785760405162461bcd60e51b815260206004820152600c60248201527f7a65726f20746f6b656e496400000000000000000000000000000000000000006044820152606401610a35565b6004870184905586546040517e80a7e05c1e726da26ef60dc270a12c37b0bc54fc6adbc18d22f991976cf332916137fc918f916001600160a01b03169088908890889088906001600160a01b03968716815294909516602085015260408401929092526001600160801b03166060830152608082015260a081019190915260c00190565b60405180910390a1505050505050505050505050565b6001600160a01b0385166000908152600c60205260409020600481015461387b5760405162461bcd60e51b815260206004820152601460248201527f4974206973206e6f74206d696e746564207965740000000000000000000000006044820152606401610a35565b600a546040805160c08101825260048481015482526020820189815282840189815260608401898152608085018981524260a08701908152965163219f5d1760e01b815295519486019490945291516024850152516044840152516064830152516084820152905160a4820152600091829182916001600160a01b03169063219f5d179060c4016060604051808303816000875af1158015613921573d6000803e3d6000fd5b505050506040513d601f19601f820116820180604052508101906139459190614cc6565b6004870154604080516001600160801b0386168152602081018590529081018390529396509194509250907e242840c59a1b38c7f01b50c3ba18ebd1a8f5b28cfc8b9fb894c4ea46696ba49060600160405180910390a2505050505050505050565b6000806139b386613c63565b90506001600160801b036001600160a01b03821611613a395760006139e16001600160a01b0383168061487c565b9050836001600160a01b0316856001600160a01b031610613a1957613a14600160c01b876001600160801b031683614083565b613a31565b613a3181876001600160801b0316600160c01b614083565b925050613aac565b6000613a586001600160a01b0383168068010000000000000000614083565b9050836001600160a01b0316856001600160a01b031610613a9057613a8b600160801b876001600160801b031683614083565b613aa8565b613aa881876001600160801b0316600160801b614083565b9250505b50949350505050565b604080516001600160a01b0385811660248301528481166044830152606480830185905283518084039091018152608490920183526020820180517bffffffffffffffffffffffffffffffffffffffffffffffffffffffff166323b872dd60e01b1790529151600092839290881691613b2e9190614d21565b6000604051808303816000865af19150503d8060008114613b6b576040519150601f19603f3d011682016040523d82523d6000602084013e613b70565b606091505b5091509150818015613b9a575080511580613b9a575080806020019051810190613b9a9190614ba9565b613be65760405162461bcd60e51b815260206004820152601460248201527f5452414e534645525f46524f4d5f4641494c45440000000000000000000000006044820152606401610a35565b505050505050565b60008281526004602090815260408083206001600160a01b038516845290915290205460ff16610fe157613c218161414b565b613c2c83602061415d565b604051602001613c3d929190614d3d565b60408051601f198184030181529082905262461bcd60e51b8252610a3591600401614dbe565b60008060008360020b12613c7a578260020b613c87565b8260020b613c8790614df1565b9050613c96620d89e7196148f7565b60020b811115613ccc5760405162461bcd60e51b81526020600482015260016024820152601560fa1b6044820152606401610a35565b600081600116600003613ce357600160801b613cf5565b6ffffcb933bd6fad37aa2d162d1a5940015b70ffffffffffffffffffffffffffffffffff1690506002821615613d34576080613d2f826ffff97272373d413259a46990580e213a61487c565b901c90505b6004821615613d5e576080613d59826ffff2e50f5f656932ef12357cf3c7fdcc61487c565b901c90505b6008821615613d88576080613d83826fffe5caca7e10e4e61c3624eaa0941cd061487c565b901c90505b6010821615613db2576080613dad826fffcb9843d60f6159c9db58835c92664461487c565b901c90505b6020821615613ddc576080613dd7826fff973b41fa98c081472e6896dfb254c061487c565b901c90505b6040821615613e06576080613e01826fff2ea16466c96a3843ec78b326b5286161487c565b901c90505b6080821615613e30576080613e2b826ffe5dee046a99a2a811c461f1969c305361487c565b901c90505b610100821615613e5b576080613e56826ffcbe86c7900a88aedcffc83b479aa3a461487c565b901c90505b610200821615613e86576080613e81826ff987a7253ac413176f2b074cf7815e5461487c565b901c90505b610400821615613eb1576080613eac826ff3392b0822b70005940c7a398e4b70f361487c565b901c90505b610800821615613edc576080613ed7826fe7159475a2c29b7443b29c7fa6e889d961487c565b901c90505b611000821615613f07576080613f02826fd097f3bdfd2022b8845ad8f792aa582561487c565b901c90505b612000821615613f32576080613f2d826fa9f746462d870fdf8a65dc1f90e061e561487c565b901c90505b614000821615613f5d576080613f58826f70d869a156d2a1b890bb3df62baf32f761487c565b901c90505b618000821615613f88576080613f83826f31be135f97d08fd981231505542fcfa661487c565b901c90505b62010000821615613fb4576080613faf826f09aa508b5b7a84e1c677de54f3e99bc961487c565b901c90505b62020000821615613fdf576080613fda826e5d6af8dedb81196699c329225ee60461487c565b901c90505b62040000821615614009576080614004826d2216e584f5fa1ea926041bedfe9861487c565b901c90505b6208000082161561403157608061402c826b048a170391f7dc42444e8fa261487c565b901c90505b60008460020b131561404c57614049816000196148a9565b90505b61405b64010000000082614e0d565b1561406757600161406a565b60005b61407b9060ff16602083901c614e21565b949350505050565b600080821161409157600080fd5b600080600019858709858702925082811083820303915050806000036140bc57508290049050612254565b8084116140c857600080fd5b6000848688098084039381119092039190506000856140e981600019614869565b6140f4906001614e21565b16958690049560026003880281188089028203028089028203028089028203028089028203028089028203028089029091030260008290038290046001019490940294049390931791909102925050509392505050565b60606109896001600160a01b03831660145b6060600061416c83600261487c565b614177906002614e21565b67ffffffffffffffff81111561418f5761418f6144d0565b6040519080825280601f01601f1916602001820160405280156141b9576020820181803683370190505b509050600360fc1b816000815181106141d4576141d461493e565b60200101906001600160f81b031916908160001a905350600f60fb1b816001815181106142035761420361493e565b60200101906001600160f81b031916908160001a905350600061422784600261487c565b614232906001614e21565b90505b60018111156142b7577f303132333435363738396162636465660000000000000000000000000000000085600f16601081106142735761427361493e565b1a60f81b8282815181106142895761428961493e565b60200101906001600160f81b031916908160001a90535060049490941c936142b081614e34565b9050614235565b5083156122545760405162461bcd60e51b815260206004820181905260248201527f537472696e67733a20686578206c656e67746820696e73756666696369656e746044820152606401610a35565b60006020828403121561431857600080fd5b81356001600160e01b03198116811461225457600080fd5b8060020b8114610a6857600080fd5b6000806040838503121561435257600080fd5b823561435d81614330565b9150602083013561436d81614330565b809150509250929050565b6001600160a01b0381168114610a6857600080fd5b60006020828403121561439f57600080fd5b813561225481614378565b600080604083850312156143bd57600080fd5b82356143c881614378565b9150602083013561436d81614378565b6000602082840312156143ea57600080fd5b5035919050565b60006020828403121561440357600080fd5b813561225481614330565b6000806040838503121561442157600080fd5b82359150602083013561436d81614378565b6000806040838503121561444657600080fd5b823561445181614378565b946020939093013593505050565b6001600160801b0381168114610a6857600080fd5b6000806000806080858703121561448a57600080fd5b843561449581614330565b935060208501356144a58161445f565b925060408501356144b581614378565b915060608501356144c581614378565b939692955090935050565b634e487b7160e01b600052604160045260246000fd5b604051601f8201601f1916810167ffffffffffffffff8111828210171561450f5761450f6144d0565b604052919050565b803563ffffffff81168114612c5957600080fd5b61ffff81168114610a6857600080fd5b60008082840360e081121561454f57600080fd5b833561455a81614378565b925060c0601f198201121561456e57600080fd5b5060405160c0810181811067ffffffffffffffff82111715614592576145926144d0565b8060405250602084013581526040840135602082015260608401356040820152608084013560608201526145c860a08501614517565b608082015260c08401356145db8161452b565b60a0820152919491935090915050565b600080604083850312156145fe57600080fd5b823561460981614378565b915061461760208401614517565b90509250929050565b60006020828403121561463257600080fd5b61225482614517565b6000806000806080858703121561465157600080fd5b843561465c81614378565b935060208501356144a581614378565b6000610120820190506001600160a01b0383511682526020830151602083015260408301516040830152606083015160608301526080830151608083015263ffffffff60a08401511660a083015260c08301516146d460c08401826001600160a01b03169052565b5060e08301516146eb60e084018262ffffff169052565b5061010083810151801515848301526109e3565b60006020828403121561471157600080fd5b813562ffffff8116811461225457600080fd5b634e487b7160e01b600052601160045260246000fd5b60008260020b8260020b028060020b915080821461475a5761475a614724565b5092915050565b600282810b9082900b03627fffff198112627fffff8213171561098957610989614724565b60006020828403121561479857600080fd5b815161225481614378565b80518015158114612c5957600080fd5b600080600080600080600060e0888a0312156147ce57600080fd5b87516147d981614378565b60208901519097506147ea81614330565b60408901519096506147fb8161452b565b606089015190955061480c8161452b565b608089015190945061481d8161452b565b60a089015190935060ff8116811461483457600080fd5b915061484260c089016147a3565b905092959891949750929550565b60006020828403121561486257600080fd5b5051919050565b8181038181111561098957610989614724565b808202811582820484141761098957610989614724565b634e487b7160e01b600052601260045260246000fd5b6000826148b8576148b8614893565b500490565b60008160020b8360020b806148d4576148d4614893565b627fffff198214600019821416156148ee576148ee614724565b90059392505050565b60008160020b627fffff19810361491057614910614724565b60000392915050565b600281810b9083900b01627fffff8113627fffff198212171561098957610989614724565b634e487b7160e01b600052603260045260246000fd5b6020808252825182820181905260009190848201906040850190845b8181101561499257835163ffffffff1683529284019291840191600101614970565b50909695505050505050565b600067ffffffffffffffff8211156149b8576149b86144d0565b5060051b60200190565b600082601f8301126149d357600080fd5b815160206149e86149e38361499e565b6144e6565b82815260059290921b84018101918181019086841115614a0757600080fd5b8286015b84811015614a2b578051614a1e81614378565b8352918301918301614a0b565b509695505050505050565b60008060408385031215614a4957600080fd5b825167ffffffffffffffff80821115614a6157600080fd5b818501915085601f830112614a7557600080fd5b81516020614a856149e38361499e565b82815260059290921b84018101918181019089841115614aa457600080fd5b948201945b83861015614ad25785518060060b8114614ac35760008081fd5b82529482019490820190614aa9565b91880151919650909350505080821115614aeb57600080fd5b50614af8858286016149c2565b9150509250929050565b600682810b9082900b03667fffffffffffff198112667fffffffffffff8213171561098957610989614724565b60008160060b8360060b80614b4657614b46614893565b667fffffffffffff198214600019821416156148ee576148ee614724565b60008260060b80614b7757614b77614893565b808360060b0791505092915050565b60008160020b627fffff198103614b9f57614b9f614724565b6000190192915050565b600060208284031215614bbb57600080fd5b612254826147a3565b81516001600160a01b0316815261016081016020830151614bf060208401826001600160a01b03169052565b506040830151614c07604084018262ffffff169052565b506060830151614c1c606084018260020b9052565b506080830151614c31608084018260020b9052565b5060a083015160a083015260c083015160c083015260e083015160e083015261010080840151818401525061012080840151614c77828501826001600160a01b03169052565b505061014092830151919092015290565b60008060008060808587031215614c9e57600080fd5b845193506020850151614cb08161445f565b6040860151606090960151949790965092505050565b600080600060608486031215614cdb57600080fd5b8351614ce68161445f565b602085015160409095015190969495509392505050565b60005b83811015614d18578181015183820152602001614d00565b50506000910152565b60008251614d33818460208701614cfd565b9190910192915050565b7f416363657373436f6e74726f6c3a206163636f756e7420000000000000000000815260008351614d75816017850160208801614cfd565b7f206973206d697373696e6720726f6c65200000000000000000000000000000006017918401918201528351614db2816028840160208801614cfd565b01602801949350505050565b6020815260008251806020840152614ddd816040850160208701614cfd565b601f01601f19169190910160400192915050565b6000600160ff1b8201614e0657614e06614724565b5060000390565b600082614e1c57614e1c614893565b500690565b8082018082111561098957610989614724565b600081614e4357614e43614724565b50600019019056fe41636365737369626c653a2043616c6c6572206973206e6f7420616e2061646da164736f6c6343000812000a",
  "devdoc": {
    "events": {
      "RoleAdminChanged(bytes32,bytes32,bytes32)": {
        "details": "Emitted when `newAdminRole` is set as ``role``'s admin role, replacing `previousAdminRole` `DEFAULT_ADMIN_ROLE` is the starting admin for all roles, despite {RoleAdminChanged} not being emitted signaling this. _Available since v3.1._"
      },
      "RoleGranted(bytes32,address,address)": {
        "details": "Emitted when `account` is granted `role`. `sender` is the account that originated the contract call, an admin role bearer except when using {AccessControl-_setupRole}."
      },
      "RoleRevoked(bytes32,address,address)": {
        "details": "Emitted when `account` is revoked `role`. `sender` is the account that originated the contract call:   - if using `revokeRole`, it is the admin role bearer   - if using `renounceRole`, it is the role bearer (i.e. `account`)"
      }
    },
    "kind": "dev",
    "methods": {
      "addAdmin(address)": {
        "details": "add admin",
        "params": {
          "account": "address to add"
        }
      },
      "getRoleAdmin(bytes32)": {
        "details": "Returns the admin role that controls `role`. See {grantRole} and {revokeRole}. To change a role's admin, use {_setRoleAdmin}."
      },
      "grantRole(bytes32,address)": {
        "details": "Grants `role` to `account`. If `account` had not been already granted `role`, emits a {RoleGranted} event. Requirements: - the caller must have ``role``'s admin role. May emit a {RoleGranted} event."
      },
      "hasRole(bytes32,address)": {
        "details": "Returns `true` if `account` has been granted `role`."
      },
      "isAdmin(address)": {
        "details": "whether admin",
        "params": {
          "account": "address to check"
        }
      },
      "removeAdmin(address)": {
        "details": "remove admin",
        "params": {
          "account": "address to remove"
        }
      },
      "renounceRole(bytes32,address)": {
        "details": "Revokes `role` from the calling account. Roles are often managed via {grantRole} and {revokeRole}: this function's purpose is to provide a mechanism for accounts to lose their privileges if they are compromised (such as when a trusted device is misplaced). If the calling account had been revoked `role`, emits a {RoleRevoked} event. Requirements: - the caller must be `account`. May emit a {RoleRevoked} event."
      },
      "revokeRole(bytes32,address)": {
        "details": "Revokes `role` from `account`. If `account` had been granted `role`, emits a {RoleRevoked} event. Requirements: - the caller must have ``role``'s admin role. May emit a {RoleRevoked} event."
      },
      "supportsInterface(bytes4)": {
        "details": "See {IERC165-supportsInterface}."
      },
      "transferAdmin(address)": {
        "details": "transfer admin",
        "params": {
          "newAdmin": "new admin address"
        }
      }
    },
    "version": 1
  },
  "userdoc": {
    "kind": "user",
    "methods": {},
    "version": 1
  },
  "storageLayout": {
    "storage": [
      {
        "astId": 8669,
        "contract": "contracts/L2/vaults/L2InitialLiquidityVault.sol:L2InitialLiquidityVault",
        "label": "pauseProxy",
        "offset": 0,
        "slot": "0",
        "type": "t_bool"
      },
      {
        "astId": 8673,
        "contract": "contracts/L2/vaults/L2InitialLiquidityVault.sol:L2InitialLiquidityVault",
        "label": "proxyImplementation",
        "offset": 0,
        "slot": "1",
        "type": "t_mapping(t_uint256,t_address)"
      },
      {
        "astId": 8677,
        "contract": "contracts/L2/vaults/L2InitialLiquidityVault.sol:L2InitialLiquidityVault",
        "label": "aliveImplementation",
        "offset": 0,
        "slot": "2",
        "type": "t_mapping(t_address,t_bool)"
      },
      {
        "astId": 8681,
        "contract": "contracts/L2/vaults/L2InitialLiquidityVault.sol:L2InitialLiquidityVault",
        "label": "selectorImplementation",
        "offset": 0,
        "slot": "3",
        "type": "t_mapping(t_bytes4,t_address)"
      },
      {
        "astId": 24,
        "contract": "contracts/L2/vaults/L2InitialLiquidityVault.sol:L2InitialLiquidityVault",
        "label": "_roles",
        "offset": 0,
        "slot": "4",
        "type": "t_mapping(t_bytes32,t_struct(RoleData)19_storage)"
      },
      {
        "astId": 5165,
        "contract": "contracts/L2/vaults/L2InitialLiquidityVault.sol:L2InitialLiquidityVault",
        "label": "free",
        "offset": 0,
        "slot": "5",
        "type": "t_bool"
      },
      {
        "astId": 5167,
        "contract": "contracts/L2/vaults/L2InitialLiquidityVault.sol:L2InitialLiquidityVault",
        "label": "l2ProjectManager",
        "offset": 1,
        "slot": "5",
        "type": "t_address"
      },
      {
        "astId": 5171,
        "contract": "contracts/L2/vaults/L2InitialLiquidityVault.sol:L2InitialLiquidityVault",
        "label": "vaultAdminOfToken",
        "offset": 0,
        "slot": "6",
        "type": "t_mapping(t_address,t_address)"
      },
      {
        "astId": 6782,
        "contract": "contracts/L2/vaults/L2InitialLiquidityVault.sol:L2InitialLiquidityVault",
        "label": "ton",
        "offset": 0,
        "slot": "7",
        "type": "t_address"
      },
      {
        "astId": 6784,
        "contract": "contracts/L2/vaults/L2InitialLiquidityVault.sol:L2InitialLiquidityVault",
        "label": "tos",
        "offset": 0,
        "slot": "8",
        "type": "t_address"
      },
      {
        "astId": 6786,
        "contract": "contracts/L2/vaults/L2InitialLiquidityVault.sol:L2InitialLiquidityVault",
        "label": "uniswapV3Factory",
        "offset": 0,
        "slot": "9",
        "type": "t_address"
      },
      {
        "astId": 6788,
        "contract": "contracts/L2/vaults/L2InitialLiquidityVault.sol:L2InitialLiquidityVault",
        "label": "nonfungiblePositionManager",
        "offset": 0,
        "slot": "10",
        "type": "t_address"
      },
      {
        "astId": 6790,
        "contract": "contracts/L2/vaults/L2InitialLiquidityVault.sol:L2InitialLiquidityVault",
        "label": "TWAP_PERIOD",
        "offset": 20,
        "slot": "10",
        "type": "t_uint32"
      },
      {
        "astId": 6792,
        "contract": "contracts/L2/vaults/L2InitialLiquidityVault.sol:L2InitialLiquidityVault",
        "label": "acceptTickChangeInterval",
        "offset": 24,
        "slot": "10",
        "type": "t_int24"
      },
      {
        "astId": 6794,
        "contract": "contracts/L2/vaults/L2InitialLiquidityVault.sol:L2InitialLiquidityVault",
        "label": "acceptSlippagePrice",
        "offset": 27,
        "slot": "10",
        "type": "t_int24"
      },
      {
        "astId": 6796,
        "contract": "contracts/L2/vaults/L2InitialLiquidityVault.sol:L2InitialLiquidityVault",
        "label": "tickSpacings",
        "offset": 0,
        "slot": "11",
        "type": "t_int24"
      },
      {
        "astId": 6801,
        "contract": "contracts/L2/vaults/L2InitialLiquidityVault.sol:L2InitialLiquidityVault",
        "label": "poolInfo",
        "offset": 0,
        "slot": "12",
        "type": "t_mapping(t_address,t_struct(PoolInfo)7970_storage)"
      }
    ],
    "types": {
      "t_address": {
        "encoding": "inplace",
        "label": "address",
        "numberOfBytes": "20"
      },
      "t_bool": {
        "encoding": "inplace",
        "label": "bool",
        "numberOfBytes": "1"
      },
      "t_bytes32": {
        "encoding": "inplace",
        "label": "bytes32",
        "numberOfBytes": "32"
      },
      "t_bytes4": {
        "encoding": "inplace",
        "label": "bytes4",
        "numberOfBytes": "4"
      },
      "t_int24": {
        "encoding": "inplace",
        "label": "int24",
        "numberOfBytes": "3"
      },
      "t_mapping(t_address,t_address)": {
        "encoding": "mapping",
        "key": "t_address",
        "label": "mapping(address => address)",
        "numberOfBytes": "32",
        "value": "t_address"
      },
      "t_mapping(t_address,t_bool)": {
        "encoding": "mapping",
        "key": "t_address",
        "label": "mapping(address => bool)",
        "numberOfBytes": "32",
        "value": "t_bool"
      },
      "t_mapping(t_address,t_struct(PoolInfo)7970_storage)": {
        "encoding": "mapping",
        "key": "t_address",
        "label": "mapping(address => struct LibInitialLiquidityVault.PoolInfo)",
        "numberOfBytes": "32",
        "value": "t_struct(PoolInfo)7970_storage"
      },
      "t_mapping(t_bytes32,t_struct(RoleData)19_storage)": {
        "encoding": "mapping",
        "key": "t_bytes32",
        "label": "mapping(bytes32 => struct AccessControl.RoleData)",
        "numberOfBytes": "32",
        "value": "t_struct(RoleData)19_storage"
      },
      "t_mapping(t_bytes4,t_address)": {
        "encoding": "mapping",
        "key": "t_bytes4",
        "label": "mapping(bytes4 => address)",
        "numberOfBytes": "32",
        "value": "t_address"
      },
      "t_mapping(t_uint256,t_address)": {
        "encoding": "mapping",
        "key": "t_uint256",
        "label": "mapping(uint256 => address)",
        "numberOfBytes": "32",
        "value": "t_address"
      },
      "t_struct(PoolInfo)7970_storage": {
        "encoding": "inplace",
        "label": "struct LibInitialLiquidityVault.PoolInfo",
        "members": [
          {
            "astId": 7953,
            "contract": "contracts/L2/vaults/L2InitialLiquidityVault.sol:L2InitialLiquidityVault",
            "label": "pool",
            "offset": 0,
            "slot": "0",
            "type": "t_address"
          },
          {
            "astId": 7955,
            "contract": "contracts/L2/vaults/L2InitialLiquidityVault.sol:L2InitialLiquidityVault",
            "label": "totalAllocatedAmount",
            "offset": 0,
            "slot": "1",
            "type": "t_uint256"
          },
          {
            "astId": 7957,
            "contract": "contracts/L2/vaults/L2InitialLiquidityVault.sol:L2InitialLiquidityVault",
            "label": "initialTosPrice",
            "offset": 0,
            "slot": "2",
            "type": "t_uint256"
          },
          {
            "astId": 7959,
            "contract": "contracts/L2/vaults/L2InitialLiquidityVault.sol:L2InitialLiquidityVault",
            "label": "initialTokenPrice",
            "offset": 0,
            "slot": "3",
            "type": "t_uint256"
          },
          {
            "astId": 7961,
            "contract": "contracts/L2/vaults/L2InitialLiquidityVault.sol:L2InitialLiquidityVault",
            "label": "lpToken",
            "offset": 0,
            "slot": "4",
            "type": "t_uint256"
          },
          {
            "astId": 7963,
            "contract": "contracts/L2/vaults/L2InitialLiquidityVault.sol:L2InitialLiquidityVault",
            "label": "startTime",
            "offset": 0,
            "slot": "5",
            "type": "t_uint32"
          },
          {
            "astId": 7965,
            "contract": "contracts/L2/vaults/L2InitialLiquidityVault.sol:L2InitialLiquidityVault",
            "label": "initSqrtPriceX96",
            "offset": 4,
            "slot": "5",
            "type": "t_uint160"
          },
          {
            "astId": 7967,
            "contract": "contracts/L2/vaults/L2InitialLiquidityVault.sol:L2InitialLiquidityVault",
            "label": "fee",
            "offset": 24,
            "slot": "5",
            "type": "t_uint24"
          },
          {
            "astId": 7969,
            "contract": "contracts/L2/vaults/L2InitialLiquidityVault.sol:L2InitialLiquidityVault",
            "label": "boolReadyToCreatePool",
            "offset": 27,
            "slot": "5",
            "type": "t_bool"
          }
        ],
        "numberOfBytes": "192"
      },
      "t_struct(RoleData)19_storage": {
        "encoding": "inplace",
        "label": "struct AccessControl.RoleData",
        "members": [
          {
            "astId": 16,
            "contract": "contracts/L2/vaults/L2InitialLiquidityVault.sol:L2InitialLiquidityVault",
            "label": "members",
            "offset": 0,
            "slot": "0",
            "type": "t_mapping(t_address,t_bool)"
          },
          {
            "astId": 18,
            "contract": "contracts/L2/vaults/L2InitialLiquidityVault.sol:L2InitialLiquidityVault",
            "label": "adminRole",
            "offset": 0,
            "slot": "1",
            "type": "t_bytes32"
          }
        ],
        "numberOfBytes": "64"
      },
      "t_uint160": {
        "encoding": "inplace",
        "label": "uint160",
        "numberOfBytes": "20"
      },
      "t_uint24": {
        "encoding": "inplace",
        "label": "uint24",
        "numberOfBytes": "3"
      },
      "t_uint256": {
        "encoding": "inplace",
        "label": "uint256",
        "numberOfBytes": "32"
      },
      "t_uint32": {
        "encoding": "inplace",
        "label": "uint32",
        "numberOfBytes": "4"
      }
    }
  }
}