{
  "address": "0xb161113b042e560dC01AAd5001aA95C32eE6A046",
  "abi": [
    {
      "anonymous": false,
      "inputs": [
        {
          "indexed": false,
          "internalType": "address",
          "name": "_recipient",
          "type": "address"
        }
      ],
      "name": "ChangedRecipient",
      "type": "event"
    },
    {
      "anonymous": false,
      "inputs": [
        {
          "indexed": false,
          "internalType": "address",
          "name": "l2Token",
          "type": "address"
        },
        {
          "indexed": false,
          "internalType": "address",
          "name": "pool",
          "type": "address"
        },
        {
          "indexed": false,
          "internalType": "address",
          "name": "to",
          "type": "address"
        },
        {
          "indexed": false,
          "internalType": "uint256",
          "name": "amount",
          "type": "uint256"
        }
      ],
      "name": "ClaimedInVault",
      "type": "event"
    },
    {
      "anonymous": false,
      "inputs": [
        {
          "indexed": false,
          "internalType": "address",
          "name": "l2Token",
          "type": "address"
        },
        {
          "components": [
            {
              "internalType": "address",
              "name": "token0",
              "type": "address"
            },
            {
              "internalType": "address",
              "name": "token1",
              "type": "address"
            },
            {
              "internalType": "uint24",
              "name": "fee",
              "type": "uint24"
            }
          ],
          "indexed": false,
          "internalType": "struct LibPool.PoolInfo",
          "name": "paramPoolInfo",
          "type": "tuple"
        },
        {
          "components": [
            {
              "internalType": "address",
              "name": "claimer",
              "type": "address"
            },
            {
              "internalType": "uint256",
              "name": "totalAllocatedAmount",
              "type": "uint256"
            },
            {
              "internalType": "uint256",
              "name": "totalClaimCount",
              "type": "uint256"
            },
            {
              "internalType": "uint256",
              "name": "firstClaimAmount",
              "type": "uint256"
            },
            {
              "internalType": "uint32",
              "name": "firstClaimTime",
              "type": "uint32"
            },
            {
              "internalType": "uint32",
              "name": "secondClaimTime",
              "type": "uint32"
            },
            {
              "internalType": "uint32",
              "name": "roundIntervalTime",
              "type": "uint32"
            }
          ],
          "indexed": false,
          "internalType": "struct LibProject.InitalParameterScheduleVault",
          "name": "parmas",
          "type": "tuple"
        }
      ],
      "name": "InitializedL2LpRewardVault",
      "type": "event"
    },
    {
      "anonymous": false,
      "inputs": [
        {
          "indexed": true,
          "internalType": "bytes32",
          "name": "role",
          "type": "bytes32"
        },
        {
          "indexed": true,
          "internalType": "bytes32",
          "name": "previousAdminRole",
          "type": "bytes32"
        },
        {
          "indexed": true,
          "internalType": "bytes32",
          "name": "newAdminRole",
          "type": "bytes32"
        }
      ],
      "name": "RoleAdminChanged",
      "type": "event"
    },
    {
      "anonymous": false,
      "inputs": [
        {
          "indexed": true,
          "internalType": "bytes32",
          "name": "role",
          "type": "bytes32"
        },
        {
          "indexed": true,
          "internalType": "address",
          "name": "account",
          "type": "address"
        },
        {
          "indexed": true,
          "internalType": "address",
          "name": "sender",
          "type": "address"
        }
      ],
      "name": "RoleGranted",
      "type": "event"
    },
    {
      "anonymous": false,
      "inputs": [
        {
          "indexed": true,
          "internalType": "bytes32",
          "name": "role",
          "type": "bytes32"
        },
        {
          "indexed": true,
          "internalType": "address",
          "name": "account",
          "type": "address"
        },
        {
          "indexed": true,
          "internalType": "address",
          "name": "sender",
          "type": "address"
        }
      ],
      "name": "RoleRevoked",
      "type": "event"
    },
    {
      "anonymous": false,
      "inputs": [
        {
          "indexed": false,
          "internalType": "address",
          "name": "l2Token",
          "type": "address"
        },
        {
          "indexed": false,
          "internalType": "address",
          "name": "newAdmin",
          "type": "address"
        }
      ],
      "name": "SetVaultAdmin",
      "type": "event"
    },
    {
      "inputs": [],
      "name": "ADMIN_ROLE",
      "outputs": [
        {
          "internalType": "bytes32",
          "name": "",
          "type": "bytes32"
        }
      ],
      "stateMutability": "view",
      "type": "function"
    },
    {
      "inputs": [],
      "name": "DEFAULT_ADMIN_ROLE",
      "outputs": [
        {
          "internalType": "bytes32",
          "name": "",
          "type": "bytes32"
        }
      ],
      "stateMutability": "view",
      "type": "function"
    },
    {
      "inputs": [],
      "name": "POLICY_ROLE",
      "outputs": [
        {
          "internalType": "bytes32",
          "name": "",
          "type": "bytes32"
        }
      ],
      "stateMutability": "view",
      "type": "function"
    },
    {
      "inputs": [
        {
          "internalType": "address",
          "name": "account",
          "type": "address"
        }
      ],
      "name": "addAdmin",
      "outputs": [],
      "stateMutability": "nonpayable",
      "type": "function"
    },
    {
      "inputs": [
        {
          "internalType": "address",
          "name": "",
          "type": "address"
        }
      ],
      "name": "aliveImplementation",
      "outputs": [
        {
          "internalType": "bool",
          "name": "",
          "type": "bool"
        }
      ],
      "stateMutability": "view",
      "type": "function"
    },
    {
      "inputs": [
        {
          "internalType": "address",
          "name": "l2Token",
          "type": "address"
        },
        {
          "internalType": "address",
          "name": "pool",
          "type": "address"
        }
      ],
      "name": "availableClaimAmount",
      "outputs": [
        {
          "internalType": "uint256",
          "name": "amount",
          "type": "uint256"
        }
      ],
      "stateMutability": "view",
      "type": "function"
    },
    {
      "inputs": [
        {
          "internalType": "address",
          "name": "_recipient",
          "type": "address"
        }
      ],
      "name": "changeRecipient",
      "outputs": [],
      "stateMutability": "nonpayable",
      "type": "function"
    },
    {
      "inputs": [
        {
          "internalType": "address",
          "name": "l2Token",
          "type": "address"
        },
        {
          "internalType": "address",
          "name": "pool",
          "type": "address"
        }
      ],
      "name": "claim",
      "outputs": [],
      "stateMutability": "nonpayable",
      "type": "function"
    },
    {
      "inputs": [
        {
          "internalType": "address",
          "name": "factory",
          "type": "address"
        },
        {
          "internalType": "address",
          "name": "token0",
          "type": "address"
        },
        {
          "internalType": "address",
          "name": "token1",
          "type": "address"
        },
        {
          "internalType": "uint24",
          "name": "_fee",
          "type": "uint24"
        }
      ],
      "name": "computeAddress",
      "outputs": [
        {
          "internalType": "address",
          "name": "pool",
          "type": "address"
        }
      ],
      "stateMutability": "view",
      "type": "function"
    },
    {
      "inputs": [
        {
          "internalType": "address",
          "name": "l2Token",
          "type": "address"
        },
        {
          "internalType": "address",
          "name": "pool",
          "type": "address"
        }
      ],
      "name": "getCurrentRound",
      "outputs": [
        {
          "internalType": "uint256",
          "name": "round",
          "type": "uint256"
        }
      ],
      "stateMutability": "view",
      "type": "function"
    },
    {
      "inputs": [
        {
          "internalType": "address",
          "name": "token0",
          "type": "address"
        },
        {
          "internalType": "address",
          "name": "token1",
          "type": "address"
        },
        {
          "internalType": "uint24",
          "name": "_fee",
          "type": "uint24"
        }
      ],
      "name": "getPoolAddress",
      "outputs": [
        {
          "internalType": "address",
          "name": "",
          "type": "address"
        }
      ],
      "stateMutability": "view",
      "type": "function"
    },
    {
      "inputs": [
        {
          "internalType": "bytes32",
          "name": "role",
          "type": "bytes32"
        }
      ],
      "name": "getRoleAdmin",
      "outputs": [
        {
          "internalType": "bytes32",
          "name": "",
          "type": "bytes32"
        }
      ],
      "stateMutability": "view",
      "type": "function"
    },
    {
      "inputs": [
        {
          "internalType": "bytes32",
          "name": "role",
          "type": "bytes32"
        },
        {
          "internalType": "address",
          "name": "account",
          "type": "address"
        }
      ],
      "name": "grantRole",
      "outputs": [],
      "stateMutability": "nonpayable",
      "type": "function"
    },
    {
      "inputs": [
        {
          "internalType": "bytes32",
          "name": "role",
          "type": "bytes32"
        },
        {
          "internalType": "address",
          "name": "account",
          "type": "address"
        }
      ],
      "name": "hasRole",
      "outputs": [
        {
          "internalType": "bool",
          "name": "",
          "type": "bool"
        }
      ],
      "stateMutability": "view",
      "type": "function"
    },
    {
      "inputs": [
        {
          "internalType": "address",
          "name": "l2Token",
          "type": "address"
        },
        {
          "components": [
            {
              "internalType": "address",
              "name": "token0",
              "type": "address"
            },
            {
              "internalType": "address",
              "name": "token1",
              "type": "address"
            },
            {
              "internalType": "uint24",
              "name": "fee",
              "type": "uint24"
            }
          ],
          "internalType": "struct LibPool.PoolInfo",
          "name": "paramPoolInfo",
          "type": "tuple"
        },
        {
          "components": [
            {
              "internalType": "address",
              "name": "claimer",
              "type": "address"
            },
            {
              "internalType": "uint256",
              "name": "totalAllocatedAmount",
              "type": "uint256"
            },
            {
              "internalType": "uint256",
              "name": "totalClaimCount",
              "type": "uint256"
            },
            {
              "internalType": "uint256",
              "name": "firstClaimAmount",
              "type": "uint256"
            },
            {
              "internalType": "uint32",
              "name": "firstClaimTime",
              "type": "uint32"
            },
            {
              "internalType": "uint32",
              "name": "secondClaimTime",
              "type": "uint32"
            },
            {
              "internalType": "uint32",
              "name": "roundIntervalTime",
              "type": "uint32"
            }
          ],
          "internalType": "struct LibProject.InitalParameterScheduleVault",
          "name": "params",
          "type": "tuple"
        }
      ],
      "name": "initialize",
      "outputs": [],
      "stateMutability": "nonpayable",
      "type": "function"
    },
    {
      "inputs": [
        {
          "internalType": "address",
          "name": "account",
          "type": "address"
        }
      ],
      "name": "isAdmin",
      "outputs": [
        {
          "internalType": "bool",
          "name": "",
          "type": "bool"
        }
      ],
      "stateMutability": "view",
      "type": "function"
    },
    {
      "inputs": [
        {
          "internalType": "address",
          "name": "l2Token",
          "type": "address"
        },
        {
          "internalType": "address",
          "name": "account",
          "type": "address"
        }
      ],
      "name": "isVaultAdmin",
      "outputs": [
        {
          "internalType": "bool",
          "name": "",
          "type": "bool"
        }
      ],
      "stateMutability": "view",
      "type": "function"
    },
    {
      "inputs": [],
      "name": "l2ProjectManager",
      "outputs": [
        {
          "internalType": "address",
          "name": "",
          "type": "address"
        }
      ],
      "stateMutability": "view",
      "type": "function"
    },
    {
      "inputs": [],
      "name": "pauseProxy",
      "outputs": [
        {
          "internalType": "bool",
          "name": "",
          "type": "bool"
        }
      ],
      "stateMutability": "view",
      "type": "function"
    },
    {
      "inputs": [
        {
          "internalType": "address",
          "name": "",
          "type": "address"
        }
      ],
      "name": "poolInfo",
      "outputs": [
        {
          "internalType": "address",
          "name": "token0",
          "type": "address"
        },
        {
          "internalType": "address",
          "name": "token1",
          "type": "address"
        },
        {
          "internalType": "uint24",
          "name": "fee",
          "type": "uint24"
        }
      ],
      "stateMutability": "view",
      "type": "function"
    },
    {
      "inputs": [],
      "name": "pool_init_code_hash",
      "outputs": [
        {
          "internalType": "bytes32",
          "name": "",
          "type": "bytes32"
        }
      ],
      "stateMutability": "view",
      "type": "function"
    },
    {
      "inputs": [
        {
          "internalType": "uint256",
          "name": "",
          "type": "uint256"
        }
      ],
      "name": "proxyImplementation",
      "outputs": [
        {
          "internalType": "address",
          "name": "",
          "type": "address"
        }
      ],
      "stateMutability": "view",
      "type": "function"
    },
    {
      "inputs": [],
      "name": "recipient",
      "outputs": [
        {
          "internalType": "address",
          "name": "",
          "type": "address"
        }
      ],
      "stateMutability": "view",
      "type": "function"
    },
    {
      "inputs": [
        {
          "internalType": "address",
          "name": "account",
          "type": "address"
        }
      ],
      "name": "removeAdmin",
      "outputs": [],
      "stateMutability": "nonpayable",
      "type": "function"
    },
    {
      "inputs": [
        {
          "internalType": "bytes32",
          "name": "role",
          "type": "bytes32"
        },
        {
          "internalType": "address",
          "name": "account",
          "type": "address"
        }
      ],
      "name": "renounceRole",
      "outputs": [],
      "stateMutability": "nonpayable",
      "type": "function"
    },
    {
      "inputs": [
        {
          "internalType": "bytes32",
          "name": "role",
          "type": "bytes32"
        },
        {
          "internalType": "address",
          "name": "account",
          "type": "address"
        }
      ],
      "name": "revokeRole",
      "outputs": [],
      "stateMutability": "nonpayable",
      "type": "function"
    },
    {
      "inputs": [
        {
          "internalType": "bytes4",
          "name": "",
          "type": "bytes4"
        }
      ],
      "name": "selectorImplementation",
      "outputs": [
        {
          "internalType": "address",
          "name": "",
          "type": "address"
        }
      ],
      "stateMutability": "view",
      "type": "function"
    },
    {
      "inputs": [
        {
          "internalType": "address",
          "name": "_l2ProjectManager",
          "type": "address"
        }
      ],
      "name": "setL2ProjectManager",
      "outputs": [],
      "stateMutability": "nonpayable",
      "type": "function"
    },
    {
      "inputs": [
        {
          "internalType": "bytes32",
          "name": "_hash",
          "type": "bytes32"
        }
      ],
      "name": "setPoolInitCodeHash",
      "outputs": [],
      "stateMutability": "nonpayable",
      "type": "function"
    },
    {
      "inputs": [
        {
          "internalType": "address",
          "name": "_factory",
          "type": "address"
        }
      ],
      "name": "setUniswapV3Factory",
      "outputs": [],
      "stateMutability": "nonpayable",
      "type": "function"
    },
    {
      "inputs": [
        {
          "internalType": "address",
          "name": "l2Token",
          "type": "address"
        },
        {
          "internalType": "address",
          "name": "_newAdmin",
          "type": "address"
        }
      ],
      "name": "setVaultAdmin",
      "outputs": [],
      "stateMutability": "nonpayable",
      "type": "function"
    },
    {
      "inputs": [
        {
          "internalType": "bytes4",
          "name": "interfaceId",
          "type": "bytes4"
        }
      ],
      "name": "supportsInterface",
      "outputs": [
        {
          "internalType": "bool",
          "name": "",
          "type": "bool"
        }
      ],
      "stateMutability": "view",
      "type": "function"
    },
    {
      "inputs": [
        {
          "internalType": "address",
          "name": "newAdmin",
          "type": "address"
        }
      ],
      "name": "transferAdmin",
      "outputs": [],
      "stateMutability": "nonpayable",
      "type": "function"
    },
    {
      "inputs": [
        {
          "internalType": "address",
          "name": "l2Token",
          "type": "address"
        },
        {
          "internalType": "address",
          "name": "_newAdmin",
          "type": "address"
        }
      ],
      "name": "transferVaultAdmin",
      "outputs": [],
      "stateMutability": "nonpayable",
      "type": "function"
    },
    {
      "inputs": [],
      "name": "uniswapV3Factory",
      "outputs": [
        {
          "internalType": "address",
          "name": "",
          "type": "address"
        }
      ],
      "stateMutability": "view",
      "type": "function"
    },
    {
      "inputs": [
        {
          "internalType": "address",
          "name": "",
          "type": "address"
        }
      ],
      "name": "vaultAdminOfToken",
      "outputs": [
        {
          "internalType": "address",
          "name": "",
          "type": "address"
        }
      ],
      "stateMutability": "view",
      "type": "function"
    },
    {
      "inputs": [
        {
          "internalType": "address",
          "name": "",
          "type": "address"
        },
        {
          "internalType": "address",
          "name": "",
          "type": "address"
        }
      ],
      "name": "vaultInfo",
      "outputs": [
        {
          "internalType": "address",
          "name": "claimer",
          "type": "address"
        },
        {
          "internalType": "uint256",
          "name": "totalAllocatedAmount",
          "type": "uint256"
        },
        {
          "internalType": "uint256",
          "name": "totalClaimCount",
          "type": "uint256"
        },
        {
          "internalType": "uint256",
          "name": "totalClaimedAmount",
          "type": "uint256"
        },
        {
          "internalType": "uint256",
          "name": "firstClaimAmount",
          "type": "uint256"
        },
        {
          "internalType": "uint32",
          "name": "firstClaimTime",
          "type": "uint32"
        },
        {
          "internalType": "uint32",
          "name": "secondClaimTime",
          "type": "uint32"
        },
        {
          "internalType": "uint32",
          "name": "roundInterval",
          "type": "uint32"
        },
        {
          "internalType": "uint32",
          "name": "latestClaimedRound",
          "type": "uint32"
        }
      ],
      "stateMutability": "view",
      "type": "function"
    },
    {
      "inputs": [
        {
          "internalType": "address",
          "name": "l2Token",
          "type": "address"
        },
        {
          "internalType": "address",
          "name": "pool",
          "type": "address"
        }
      ],
      "name": "viewVaultInfo",
      "outputs": [
        {
          "components": [
            {
              "internalType": "address",
              "name": "claimer",
              "type": "address"
            },
            {
              "internalType": "uint256",
              "name": "totalAllocatedAmount",
              "type": "uint256"
            },
            {
              "internalType": "uint256",
              "name": "totalClaimCount",
              "type": "uint256"
            },
            {
              "internalType": "uint256",
              "name": "totalClaimedAmount",
              "type": "uint256"
            },
            {
              "internalType": "uint256",
              "name": "firstClaimAmount",
              "type": "uint256"
            },
            {
              "internalType": "uint32",
              "name": "firstClaimTime",
              "type": "uint32"
            },
            {
              "internalType": "uint32",
              "name": "secondClaimTime",
              "type": "uint32"
            },
            {
              "internalType": "uint32",
              "name": "roundInterval",
              "type": "uint32"
            },
            {
              "internalType": "uint32",
              "name": "latestClaimedRound",
              "type": "uint32"
            }
          ],
          "internalType": "struct LibScheduleVault.VaultInfo",
          "name": "",
          "type": "tuple"
        }
      ],
      "stateMutability": "view",
      "type": "function"
    }
  ],
  "transactionHash": "0xb08d6e223da960645d449d48b0de1e60b23542ef2d48bb13fbf9b2bfe6df1c5b",
  "args": [],
  "numDeployments": 1,
  "solcInputHash": "8d54b7ccf656d356eaa1331bf80029c5",
  "bytecode": "0x60806040526005805460ff1916600117905534801561001d57600080fd5b50612c548061002d6000396000f3fe608060405234801561001057600080fd5b50600436106102925760003560e01c806366d003ac116101605780639a7b5f11116100d8578063d547741f1161008c578063df1a026211610071578063df1a026214610772578063e2cfcfee1461077b578063fb3008841461078e57600080fd5b8063d547741f1461074c578063de03b9c61461075f57600080fd5b8063a4182343116100bd578063a4182343146106fd578063b911135f14610710578063d4c353f61461073957600080fd5b80639a7b5f1114610677578063a217fddf146106f557600080fd5b806375b238fc1161012f5780638716c5ff116101145780638716c5ff1461061857806391d148541461062b57806392c2bcb41461066457600080fd5b806375b238fc146105c85780637fc46ba8146105ef57600080fd5b806366d003ac1461057c578063696d62831461058f57806370480275146105a257806375829def146105b557600080fd5b80632f2ff15d1161020e57806352351e85116101c257806358081362116101a757806358081362146104535780635b5491821461055c57806363a8fd891461056f57600080fd5b806352351e8514610418578063550d01a31461043057600080fd5b806336568abe116101f357806336568abe146103b157806350d2a276146103c457806351e8152a1461040557600080fd5b80632f2ff15d1461038b57806335b9ac661461039e57600080fd5b806321c0b3421161026557806323d572551161024a57806323d5725514610342578063248a9ca31461035557806324d7806c1461037857600080fd5b806321c0b342146102fa578063229852461461030d57600080fd5b806301ffc9a7146102975780631785f53c146102bf57806317bc6a72146102d45780631e8948c3146102e7575b600080fd5b6102aa6102a53660046126df565b610869565b60405190151581526020015b60405180910390f35b6102d26102cd366004612725565b6108a0565b005b6102d26102e23660046127e5565b610932565b6102d26102f53660046128db565b611055565b6102d26103083660046128db565b61122f565b6103347ffb5864e8ff833c3cb2d2d08505e82ff02a43554c74a35d4f5a64e8526127831181565b6040519081526020016102b6565b6103346103503660046128db565b6114c1565b61033461036336600461290e565b60009081526004602052604090206001015490565b6102aa610386366004612725565b6114d4565b6102d2610399366004612927565b611514565b6102d26103ac3660046128db565b61153e565b6102d26103bf366004612927565b6116f2565b6103ed6103d23660046126df565b6003602052600090815260409020546001600160a01b031681565b6040516001600160a01b0390911681526020016102b6565b6102aa6104133660046128db565b61177e565b6005546103ed9061010090046001600160a01b031681565b6102aa61043e366004612725565b60026020526000908152604090205460ff1681565b61054f6104613660046128db565b6040805161012081018252600080825260208201819052918101829052606081018290526080810182905260a0810182905260c0810182905260e08101829052610100810191909152506001600160a01b039182166000908152600a602090815260408083209385168352928152908290208251610120810184528154909416845260018101549184019190915260028101549183019190915260038101546060830152600481015460808301526005015463ffffffff80821660a08401526401000000008204811660c0840152600160401b8204811660e0840152600160601b9091041661010082015290565b6040516102b6919061294a565b6008546103ed906001600160a01b031681565b6000546102aa9060ff1681565b6009546103ed906001600160a01b031681565b6103ed61059d3660046129df565b6117b6565b6102d26105b0366004612725565b611809565b6102d26105c3366004612725565b611893565b6103347fdf8b4c520ffe197c5343c6f5aec59570151ef9a492f2c624fd45ddde6135ec4281565b6103ed6105fd366004612725565b6006602052600090815260409020546001600160a01b031681565b6103ed610626366004612a22565b6119f5565b6102aa610639366004612927565b60009182526004602090815260408084206001600160a01b0393909316845291905290205460ff1690565b6102d2610672366004612725565b611ad9565b6106ca610685366004612725565b600b60205260009081526040902080546001909101546001600160a01b039182169181169074010000000000000000000000000000000000000000900462ffffff1683565b604080516001600160a01b03948516815293909216602084015262ffffff16908201526060016102b6565b610334600081565b6102d261070b366004612725565b611ba1565b6103ed61071e36600461290e565b6001602052600090815260409020546001600160a01b031681565b6103346107473660046128db565b611cbe565b6102d261075a366004612927565b611cca565b6102d261076d36600461290e565b611cef565b61033460075481565b6102d2610789366004612725565b611d8e565b61080c61079c3660046128db565b600a6020908152600092835260408084209091529082529020805460018201546002830154600384015460048501546005909501546001600160a01b039094169492939192909163ffffffff808216916401000000008104821691600160401b8204811691600160601b90041689565b604080516001600160a01b03909a168a5260208a0198909852968801959095526060870193909352608086019190915263ffffffff90811660a086015290811660c085015290811660e084015216610100820152610120016102b6565b60006001600160e01b03198216637965db0b60e01b148061089a57506301ffc9a760e01b6001600160e01b03198316145b92915050565b6108a9336114d4565b6109055760405162461bcd60e51b815260206004820152602260248201527f41636365737369626c653a2043616c6c6572206973206e6f7420616e2061646d60448201526134b760f11b60648201526084015b60405180910390fd5b61092f7fdf8b4c520ffe197c5343c6f5aec59570151ef9a492f2c624fd45ddde6135ec42826116f2565b50565b600554839061010090046001600160a01b031633148061098f57506001600160a01b03818116600090815260066020526040902054161580159061098f57506001600160a01b038181166000908152600660205260409020541633145b610a015760405162461bcd60e51b815260206004820152602c60248201527f63616c6c6572206973206e6f742061207661756c7441646d696e206f7220507260448201527f6f6a6563744d616e61676572000000000000000000000000000000000000000060648201526084016108fc565b43826080015163ffffffff1611610a5a5760405162461bcd60e51b815260206004820152601760248201527f666972737420636c61696d2074696d652070617373656400000000000000000060448201526064016108fc565b602082015115801590610a705750604082015115155b8015610a85575060c082015163ffffffff1615155b610ad15760405162461bcd60e51b815260206004820152600b60248201527f77726f6e672076616c756500000000000000000000000000000000000000000060448201526064016108fc565b600182604001511115610b4157816080015163ffffffff168260a0015163ffffffff1611610b415760405162461bcd60e51b815260206004820152601b60248201527f77726f6e6720746865207365636f6e6420636c61696d2074696d65000000000060448201526064016108fc565b8160600151826020015111610b985760405162461bcd60e51b815260206004820152601c60248201527f77726f6e672074686520666972737420636c61696d20616d6f756e740000000060448201526064016108fc565b6000610bb18460000151856020015186604001516117b6565b6001600160a01b038087166000908152600a602090815260408083208486168452825291829020825161012081018452815490941684526001810154918401829052600281015492840192909252600382015460608401526004820154608084015260059091015463ffffffff80821660a08501526401000000008204811660c0850152600160401b8204811660e0850152600160601b909104166101008301529192509015610ca35760405162461bcd60e51b815260206004820152601360248201527f616c726561647920696e697469616c697a65640000000000000000000000000060448201526064016108fc565b6020850151855186916001600160a01b0390811691161115610cda576020808701516001600160a01b039081168352875116908201525b80600b6000856001600160a01b03166001600160a01b0316815260200190815260200160002060008201518160000160006101000a8154816001600160a01b0302191690836001600160a01b0316021790555060208201518160010160006101000a8154816001600160a01b0302191690836001600160a01b0316021790555060408201518160010160146101000a81548162ffffff021916908362ffffff160217905550905050600060405180610120016040528087600001516001600160a01b0316815260200187602001518152602001876040015181526020016000815260200187606001518152602001876080015163ffffffff1681526020018760a0015163ffffffff1681526020018760c0015163ffffffff168152602001600063ffffffff16815250905080600a60008a6001600160a01b03166001600160a01b031681526020019081526020016000206000866001600160a01b03166001600160a01b0316815260200190815260200160002060008201518160000160006101000a8154816001600160a01b0302191690836001600160a01b031602179055506020820151816001015560408201518160020155606082015181600301556080820151816004015560a08201518160050160006101000a81548163ffffffff021916908363ffffffff16021790555060c08201518160050160046101000a81548163ffffffff021916908363ffffffff16021790555060e08201518160050160086101000a81548163ffffffff021916908363ffffffff16021790555061010082015181600501600c6101000a81548163ffffffff021916908363ffffffff160217905550905050610f7c600560019054906101000a90046001600160a01b03163088602001518b6001600160a01b0316611e93909392919063ffffffff16565b7f3e0f1f8a92a71cfd434170048e2567157a5a7c70b06b04ba1f05bc575e331424888888604051611043939291906000610160820190506001600160a01b03808616835280855116602084015280602086015116604084015262ffffff604086015116606084015280845116608084015250602083015160a0830152604083015160c0830152606083015160e0830152608083015163ffffffff8082166101008501528060a0860151166101208501528060c0860151166101408501525050949350505050565b60405180910390a15050505050505050565b816001600160a01b0381166110915760405162461bcd60e51b81526020600482015260026024820152612d1960f11b60448201526064016108fc565b816001600160a01b0381166110cd5760405162461bcd60e51b81526020600482015260026024820152612d1960f11b60448201526064016108fc565b6001600160a01b038085166000908152600660205260409020548591161580159061111157506001600160a01b038181166000908152600660205260409020541633145b61116b5760405162461bcd60e51b815260206004820152602560248201527f63616c6c6572206973206e6f742061207661756c7441646d696e204f66206c326044820152642a37b5b2b760d91b60648201526084016108fc565b6001600160a01b038581166000908152600660205260409020548186169116036111c05760405162461bcd60e51b81526004016108fc9060208082526004908201526373616d6560e01b604082015260600190565b6001600160a01b0385811660008181526006602090815260409182902080546001600160a01b031916948916948517905581519283528201929092527fb00bb4c229aff6156cc8e2c767c571665e1927c09fe083ec055956a5a402619391015b60405180910390a15050505050565b816001600160a01b03811661126b5760405162461bcd60e51b81526020600482015260026024820152612d1960f11b60448201526064016108fc565b816001600160a01b0381166112a75760405162461bcd60e51b81526020600482015260026024820152612d1960f11b60448201526064016108fc565b6009546001600160a01b03166112ff5760405162461bcd60e51b815260206004820152600e60248201527f7a65726f20726563697069656e7400000000000000000000000000000000000060448201526064016108fc565b600061130b8585611fb7565b90508060000361135d5760405162461bcd60e51b815260206004820152601360248201527f6e6f20636c61696d61626c6520616d6f756e740000000000000000000000000060448201526064016108fc565b6040516370a0823160e01b81523060048201526001600160a01b038616906370a0823190602401602060405180830381865afa1580156113a1573d6000803e3d6000fd5b505050506040513d601f19601f820116820180604052508101906113c59190612a76565b8111156114145760405162461bcd60e51b815260206004820152601460248201527f696e73756666696369656e742062616c616e636500000000000000000000000060448201526064016108fc565b6001600160a01b038086166000908152600a602090815260408083209388168352929052908120600301805483929061144e908490612aa5565b909155505060095461146d906001600160a01b03878116911683612124565b600954604080516001600160a01b038089168252808816602083015290921690820152606081018290527ffa057f6b08b5176e23c6ef9a28291857d66f15bbabda1c320ac8c2e4d5de1ff190608001611220565b60006114cd838361223f565b9392505050565b6001600160a01b03811660009081527f2fb794d17134dfdec181ddbac1babb5ab1eb140204ef4d982f294e7fc8b69022602052604081205460ff1661089a565b60008281526004602052604090206001015461152f81612380565b611539838361238a565b505050565b816001600160a01b03811661157a5760405162461bcd60e51b81526020600482015260026024820152612d1960f11b60448201526064016108fc565b816001600160a01b0381166115b65760405162461bcd60e51b81526020600482015260026024820152612d1960f11b60448201526064016108fc565b60055461010090046001600160a01b0316158015906115e4575060055461010090046001600160a01b031633145b6116305760405162461bcd60e51b815260206004820152601e60248201527f63616c6c6572206973206e6f74206c3250726f6a6563744d616e61676572000060448201526064016108fc565b6001600160a01b038481166000908152600660205260409020548185169116036116855760405162461bcd60e51b81526004016108fc9060208082526004908201526373616d6560e01b604082015260600190565b6001600160a01b0384811660008181526006602090815260409182902080546001600160a01b031916948816948517905581519283528201929092527fb00bb4c229aff6156cc8e2c767c571665e1927c09fe083ec055956a5a4026193910160405180910390a150505050565b6001600160a01b03811633146117705760405162461bcd60e51b815260206004820152602f60248201527f416363657373436f6e74726f6c3a2063616e206f6e6c792072656e6f756e636560448201527f20726f6c657320666f722073656c66000000000000000000000000000000000060648201526084016108fc565b61177a828261242c565b5050565b60006001600160a01b038216158015906114cd5750506001600160a01b03918216600090815260066020526040902054821691161490565b6000826001600160a01b0316846001600160a01b031610156117f1576008546117ea906001600160a01b03168585856119f5565b90506114cd565b6008546117ea906001600160a01b03168486856119f5565b611812336114d4565b6118695760405162461bcd60e51b815260206004820152602260248201527f41636365737369626c653a2043616c6c6572206973206e6f7420616e2061646d60448201526134b760f11b60648201526084016108fc565b61092f7fdf8b4c520ffe197c5343c6f5aec59570151ef9a492f2c624fd45ddde6135ec4282611514565b61189c336114d4565b6118f35760405162461bcd60e51b815260206004820152602260248201527f41636365737369626c653a2043616c6c6572206973206e6f7420616e2061646d60448201526134b760f11b60648201526084016108fc565b6001600160a01b0381166119495760405162461bcd60e51b815260206004820152601860248201527f41636365737369626c653a207a65726f2061646472657373000000000000000060448201526064016108fc565b6001600160a01b03811633036119a15760405162461bcd60e51b815260206004820152601660248201527f41636365737369626c653a2073616d652061646d696e0000000000000000000060448201526064016108fc565b6119cb7fdf8b4c520ffe197c5343c6f5aec59570151ef9a492f2c624fd45ddde6135ec4282611514565b61092f7fdf8b4c520ffe197c5343c6f5aec59570151ef9a492f2c624fd45ddde6135ec42336116f2565b6000826001600160a01b0316846001600160a01b031610611a1557600080fd5b604080516001600160a01b03808716602083015285169181019190915262ffffff83166060820152859060800160405160208183030381529060405280519060200120600754604051602001611ab8939291907fff00000000000000000000000000000000000000000000000000000000000000815260609390931b6bffffffffffffffffffffffff191660018401526015830191909152603582015260550190565b60408051601f19818403018152919052805160209091012095945050505050565b611ae2336114d4565b611b395760405162461bcd60e51b815260206004820152602260248201527f41636365737369626c653a2043616c6c6572206973206e6f7420616e2061646d60448201526134b760f11b60648201526084016108fc565b6009546001600160a01b03808316911603611b7f5760405162461bcd60e51b81526004016108fc9060208082526004908201526373616d6560e01b604082015260600190565b600980546001600160a01b0319166001600160a01b0392909216919091179055565b806001600160a01b038116611bdd5760405162461bcd60e51b81526020600482015260026024820152612d1960f11b60448201526064016108fc565b611be6336114d4565b611c3d5760405162461bcd60e51b815260206004820152602260248201527f41636365737369626c653a2043616c6c6572206973206e6f7420616e2061646d60448201526134b760f11b60648201526084016108fc565b6005546001600160a01b038084166101009092041603611c885760405162461bcd60e51b81526004016108fc9060208082526004908201526373616d6560e01b604082015260600190565b50600580546001600160a01b039092166101000274ffffffffffffffffffffffffffffffffffffffff0019909216919091179055565b60006114cd8383611fb7565b600082815260046020526040902060010154611ce581612380565b611539838361242c565b611cf8336114d4565b611d4f5760405162461bcd60e51b815260206004820152602260248201527f41636365737369626c653a2043616c6c6572206973206e6f7420616e2061646d60448201526134b760f11b60648201526084016108fc565b8060075403611d895760405162461bcd60e51b81526004016108fc9060208082526004908201526373616d6560e01b604082015260600190565b600755565b806001600160a01b038116611dca5760405162461bcd60e51b81526020600482015260026024820152612d1960f11b60448201526064016108fc565b611dd3336114d4565b611e2a5760405162461bcd60e51b815260206004820152602260248201527f41636365737369626c653a2043616c6c6572206973206e6f7420616e2061646d60448201526134b760f11b60648201526084016108fc565b6008546001600160a01b03808416911603611e705760405162461bcd60e51b81526004016108fc9060208082526004908201526373616d6560e01b604082015260600190565b50600880546001600160a01b0319166001600160a01b0392909216919091179055565b604080516001600160a01b0385811660248301528481166044830152606480830185905283518084039091018152608490920183526020820180516001600160e01b03166323b872dd60e01b1790529151600092839290881691611ef79190612adc565b6000604051808303816000865af19150503d8060008114611f34576040519150601f19603f3d011682016040523d82523d6000602084013e611f39565b606091505b5091509150818015611f63575080511580611f63575080806020019051810190611f639190612af8565b611faf5760405162461bcd60e51b815260206004820152601460248201527f5452414e534645525f46524f4d5f4641494c454400000000000000000000000060448201526064016108fc565b505050505050565b6001600160a01b038083166000908152600a60209081526040808320858516845282528083208151610120810183528154909516855260018101549285019290925260028201549084015260038101546060840152600481015460808401526005015463ffffffff80821660a08501526401000000008204811660c0850152600160401b8204811660e0850152600160601b90910416610100830152908161205f858561223f565b90508082610100015163ffffffff16101561211c578060010361209757816060015182608001516120909190612b1a565b925061211c565b81604001518110156121055760608201516120b3600183612b1a565b600184604001516120c49190612b1a565b846080015185602001516120d89190612b1a565b6120e29190612b2d565b6120ec9190612b4f565b83608001516120fb9190612aa5565b6120909190612b1a565b816060015182602001516121199190612b1a565b92505b505092915050565b604080516001600160a01b038481166024830152604480830185905283518084039091018152606490920183526020820180516001600160e01b031663a9059cbb60e01b17905291516000928392908716916121809190612adc565b6000604051808303816000865af19150503d80600081146121bd576040519150601f19603f3d011682016040523d82523d6000602084013e6121c2565b606091505b50915091508180156121ec5750805115806121ec5750808060200190518101906121ec9190612af8565b6122385760405162461bcd60e51b815260206004820152600f60248201527f5452414e534645525f4641494c4544000000000000000000000000000000000060448201526064016108fc565b5050505050565b6001600160a01b038083166000908152600a60209081526040808320858516845282528083208151610120810183528154909516855260018101549285019290925260028201549084015260038101546060840152600481015460808401526005015463ffffffff80821660a085018190526401000000008304821660c0860152600160401b8304821660e0860152600160601b90920416610100840152909190158015906122f85750428160a0015163ffffffff1611155b801561230d57508060c0015163ffffffff1642105b1561231b5760019150612365565b428160c0015163ffffffff1611612365578060e0015163ffffffff168160c0015163ffffffff164261234d9190612b1a565b6123579190612b2d565b612362906002612aa5565b91505b806040015182111561237957806040015191505b5092915050565b61092f81336124af565b60008281526004602090815260408083206001600160a01b038516845290915290205460ff1661177a5760008281526004602090815260408083206001600160a01b03851684529091529020805460ff191660011790556123e83390565b6001600160a01b0316816001600160a01b0316837f2f8788117e7eff1d82e926ec794901d17c78024a50270940304540a733656f0d60405160405180910390a45050565b60008281526004602090815260408083206001600160a01b038516845290915290205460ff161561177a5760008281526004602090815260408083206001600160a01b0385168085529252808320805460ff1916905551339285917ff6391f5c32d9c69d2a47ea670b442974b53935d1edc7fd64eb21e047a839171b9190a45050565b60008281526004602090815260408083206001600160a01b038516845290915290205460ff1661177a576124e281612524565b6124ed836020612536565b6040516020016124fe929190612b66565b60408051601f198184030181529082905262461bcd60e51b82526108fc91600401612be7565b606061089a6001600160a01b03831660145b60606000612545836002612b4f565b612550906002612aa5565b67ffffffffffffffff81111561256857612568612740565b6040519080825280601f01601f191660200182016040528015612592576020820181803683370190505b509050600360fc1b816000815181106125ad576125ad612c1a565b60200101906001600160f81b031916908160001a905350600f60fb1b816001815181106125dc576125dc612c1a565b60200101906001600160f81b031916908160001a9053506000612600846002612b4f565b61260b906001612aa5565b90505b6001811115612690577f303132333435363738396162636465660000000000000000000000000000000085600f166010811061264c5761264c612c1a565b1a60f81b82828151811061266257612662612c1a565b60200101906001600160f81b031916908160001a90535060049490941c9361268981612c30565b905061260e565b5083156114cd5760405162461bcd60e51b815260206004820181905260248201527f537472696e67733a20686578206c656e67746820696e73756666696369656e7460448201526064016108fc565b6000602082840312156126f157600080fd5b81356001600160e01b0319811681146114cd57600080fd5b80356001600160a01b038116811461272057600080fd5b919050565b60006020828403121561273757600080fd5b6114cd82612709565b634e487b7160e01b600052604160045260246000fd5b6040516060810167ffffffffffffffff8111828210171561278757634e487b7160e01b600052604160045260246000fd5b60405290565b60405160e0810167ffffffffffffffff8111828210171561278757634e487b7160e01b600052604160045260246000fd5b803562ffffff8116811461272057600080fd5b803563ffffffff8116811461272057600080fd5b60008060008385036101608112156127fc57600080fd5b61280585612709565b93506060601f198201121561281957600080fd5b612821612756565b61282d60208701612709565b815261283b60408701612709565b602082015261284c606087016127be565b6040820152925060e0607f198201121561286557600080fd5b5061286e61278d565b61287a60808601612709565b815260a0850135602082015260c0850135604082015260e085013560608201526128a761010086016127d1565b60808201526128b961012086016127d1565b60a08201526128cb61014086016127d1565b60c0820152809150509250925092565b600080604083850312156128ee57600080fd5b6128f783612709565b915061290560208401612709565b90509250929050565b60006020828403121561292057600080fd5b5035919050565b6000806040838503121561293a57600080fd5b8235915061290560208401612709565b6000610120820190506001600160a01b0383511682526020830151602083015260408301516040830152606083015160608301526080830151608083015263ffffffff60a08401511660a083015260c08301516129af60c084018263ffffffff169052565b5060e08301516129c760e084018263ffffffff169052565b506101008381015163ffffffff81168483015261211c565b6000806000606084860312156129f457600080fd5b6129fd84612709565b9250612a0b60208501612709565b9150612a19604085016127be565b90509250925092565b60008060008060808587031215612a3857600080fd5b612a4185612709565b9350612a4f60208601612709565b9250612a5d60408601612709565b9150612a6b606086016127be565b905092959194509250565b600060208284031215612a8857600080fd5b5051919050565b634e487b7160e01b600052601160045260246000fd5b8082018082111561089a5761089a612a8f565b60005b83811015612ad3578181015183820152602001612abb565b50506000910152565b60008251612aee818460208701612ab8565b9190910192915050565b600060208284031215612b0a57600080fd5b815180151581146114cd57600080fd5b8181038181111561089a5761089a612a8f565b600082612b4a57634e487b7160e01b600052601260045260246000fd5b500490565b808202811582820484141761089a5761089a612a8f565b7f416363657373436f6e74726f6c3a206163636f756e7420000000000000000000815260008351612b9e816017850160208801612ab8565b7f206973206d697373696e6720726f6c65200000000000000000000000000000006017918401918201528351612bdb816028840160208801612ab8565b01602801949350505050565b6020815260008251806020840152612c06816040850160208701612ab8565b601f01601f19169190910160400192915050565b634e487b7160e01b600052603260045260246000fd5b600081612c3f57612c3f612a8f565b50600019019056fea164736f6c6343000812000a",
  "devdoc": {
    "details": "Vaults that anybody claim according to a schedule",
    "events": {
      "RoleAdminChanged(bytes32,bytes32,bytes32)": {
        "details": "Emitted when `newAdminRole` is set as ``role``'s admin role, replacing `previousAdminRole` `DEFAULT_ADMIN_ROLE` is the starting admin for all roles, despite {RoleAdminChanged} not being emitted signaling this. _Available since v3.1._"
      },
      "RoleGranted(bytes32,address,address)": {
        "details": "Emitted when `account` is granted `role`. `sender` is the account that originated the contract call, an admin role bearer except when using {AccessControl-_setupRole}."
      },
      "RoleRevoked(bytes32,address,address)": {
        "details": "Emitted when `account` is revoked `role`. `sender` is the account that originated the contract call:   - if using `revokeRole`, it is the admin role bearer   - if using `renounceRole`, it is the role bearer (i.e. `account`)"
      }
    },
    "kind": "dev",
    "methods": {
      "addAdmin(address)": {
        "details": "add admin",
        "params": {
          "account": "address to add"
        }
      },
      "getRoleAdmin(bytes32)": {
        "details": "Returns the admin role that controls `role`. See {grantRole} and {revokeRole}. To change a role's admin, use {_setRoleAdmin}."
      },
      "grantRole(bytes32,address)": {
        "details": "Grants `role` to `account`. If `account` had not been already granted `role`, emits a {RoleGranted} event. Requirements: - the caller must have ``role``'s admin role. May emit a {RoleGranted} event."
      },
      "hasRole(bytes32,address)": {
        "details": "Returns `true` if `account` has been granted `role`."
      },
      "isAdmin(address)": {
        "details": "whether admin",
        "params": {
          "account": "address to check"
        }
      },
      "removeAdmin(address)": {
        "details": "remove admin",
        "params": {
          "account": "address to remove"
        }
      },
      "renounceRole(bytes32,address)": {
        "details": "Revokes `role` from the calling account. Roles are often managed via {grantRole} and {revokeRole}: this function's purpose is to provide a mechanism for accounts to lose their privileges if they are compromised (such as when a trusted device is misplaced). If the calling account had been revoked `role`, emits a {RoleRevoked} event. Requirements: - the caller must be `account`. May emit a {RoleRevoked} event."
      },
      "revokeRole(bytes32,address)": {
        "details": "Revokes `role` from `account`. If `account` had been granted `role`, emits a {RoleRevoked} event. Requirements: - the caller must have ``role``'s admin role. May emit a {RoleRevoked} event."
      },
      "supportsInterface(bytes4)": {
        "details": "See {IERC165-supportsInterface}."
      },
      "transferAdmin(address)": {
        "details": "transfer admin",
        "params": {
          "newAdmin": "new admin address"
        }
      }
    },
    "title": "L2LpRewardVault",
    "version": 1
  },
  "userdoc": {
    "kind": "user",
    "methods": {},
    "version": 1
  },
  "storageLayout": {
    "storage": [
      {
        "astId": 13268,
        "contract": "contracts/L2/vaults/L2LpRewardVault.sol:L2LpRewardVault",
        "label": "pauseProxy",
        "offset": 0,
        "slot": "0",
        "type": "t_bool"
      },
      {
        "astId": 13272,
        "contract": "contracts/L2/vaults/L2LpRewardVault.sol:L2LpRewardVault",
        "label": "proxyImplementation",
        "offset": 0,
        "slot": "1",
        "type": "t_mapping(t_uint256,t_address)"
      },
      {
        "astId": 13276,
        "contract": "contracts/L2/vaults/L2LpRewardVault.sol:L2LpRewardVault",
        "label": "aliveImplementation",
        "offset": 0,
        "slot": "2",
        "type": "t_mapping(t_address,t_bool)"
      },
      {
        "astId": 13280,
        "contract": "contracts/L2/vaults/L2LpRewardVault.sol:L2LpRewardVault",
        "label": "selectorImplementation",
        "offset": 0,
        "slot": "3",
        "type": "t_mapping(t_bytes4,t_address)"
      },
      {
        "astId": 24,
        "contract": "contracts/L2/vaults/L2LpRewardVault.sol:L2LpRewardVault",
        "label": "_roles",
        "offset": 0,
        "slot": "4",
        "type": "t_mapping(t_bytes32,t_struct(RoleData)19_storage)"
      },
      {
        "astId": 8566,
        "contract": "contracts/L2/vaults/L2LpRewardVault.sol:L2LpRewardVault",
        "label": "free",
        "offset": 0,
        "slot": "5",
        "type": "t_bool"
      },
      {
        "astId": 8568,
        "contract": "contracts/L2/vaults/L2LpRewardVault.sol:L2LpRewardVault",
        "label": "l2ProjectManager",
        "offset": 1,
        "slot": "5",
        "type": "t_address"
      },
      {
        "astId": 8572,
        "contract": "contracts/L2/vaults/L2LpRewardVault.sol:L2LpRewardVault",
        "label": "vaultAdminOfToken",
        "offset": 0,
        "slot": "6",
        "type": "t_mapping(t_address,t_address)"
      },
      {
        "astId": 10880,
        "contract": "contracts/L2/vaults/L2LpRewardVault.sol:L2LpRewardVault",
        "label": "pool_init_code_hash",
        "offset": 0,
        "slot": "7",
        "type": "t_bytes32"
      },
      {
        "astId": 10882,
        "contract": "contracts/L2/vaults/L2LpRewardVault.sol:L2LpRewardVault",
        "label": "uniswapV3Factory",
        "offset": 0,
        "slot": "8",
        "type": "t_address"
      },
      {
        "astId": 10884,
        "contract": "contracts/L2/vaults/L2LpRewardVault.sol:L2LpRewardVault",
        "label": "recipient",
        "offset": 0,
        "slot": "9",
        "type": "t_address"
      },
      {
        "astId": 10891,
        "contract": "contracts/L2/vaults/L2LpRewardVault.sol:L2LpRewardVault",
        "label": "vaultInfo",
        "offset": 0,
        "slot": "10",
        "type": "t_mapping(t_address,t_mapping(t_address,t_struct(VaultInfo)12723_storage))"
      },
      {
        "astId": 10896,
        "contract": "contracts/L2/vaults/L2LpRewardVault.sol:L2LpRewardVault",
        "label": "poolInfo",
        "offset": 0,
        "slot": "11",
        "type": "t_mapping(t_address,t_struct(PoolInfo)12211_storage)"
      }
    ],
    "types": {
      "t_address": {
        "encoding": "inplace",
        "label": "address",
        "numberOfBytes": "20"
      },
      "t_bool": {
        "encoding": "inplace",
        "label": "bool",
        "numberOfBytes": "1"
      },
      "t_bytes32": {
        "encoding": "inplace",
        "label": "bytes32",
        "numberOfBytes": "32"
      },
      "t_bytes4": {
        "encoding": "inplace",
        "label": "bytes4",
        "numberOfBytes": "4"
      },
      "t_mapping(t_address,t_address)": {
        "encoding": "mapping",
        "key": "t_address",
        "label": "mapping(address => address)",
        "numberOfBytes": "32",
        "value": "t_address"
      },
      "t_mapping(t_address,t_bool)": {
        "encoding": "mapping",
        "key": "t_address",
        "label": "mapping(address => bool)",
        "numberOfBytes": "32",
        "value": "t_bool"
      },
      "t_mapping(t_address,t_mapping(t_address,t_struct(VaultInfo)12723_storage))": {
        "encoding": "mapping",
        "key": "t_address",
        "label": "mapping(address => mapping(address => struct LibScheduleVault.VaultInfo))",
        "numberOfBytes": "32",
        "value": "t_mapping(t_address,t_struct(VaultInfo)12723_storage)"
      },
      "t_mapping(t_address,t_struct(PoolInfo)12211_storage)": {
        "encoding": "mapping",
        "key": "t_address",
        "label": "mapping(address => struct LibPool.PoolInfo)",
        "numberOfBytes": "32",
        "value": "t_struct(PoolInfo)12211_storage"
      },
      "t_mapping(t_address,t_struct(VaultInfo)12723_storage)": {
        "encoding": "mapping",
        "key": "t_address",
        "label": "mapping(address => struct LibScheduleVault.VaultInfo)",
        "numberOfBytes": "32",
        "value": "t_struct(VaultInfo)12723_storage"
      },
      "t_mapping(t_bytes32,t_struct(RoleData)19_storage)": {
        "encoding": "mapping",
        "key": "t_bytes32",
        "label": "mapping(bytes32 => struct AccessControl.RoleData)",
        "numberOfBytes": "32",
        "value": "t_struct(RoleData)19_storage"
      },
      "t_mapping(t_bytes4,t_address)": {
        "encoding": "mapping",
        "key": "t_bytes4",
        "label": "mapping(bytes4 => address)",
        "numberOfBytes": "32",
        "value": "t_address"
      },
      "t_mapping(t_uint256,t_address)": {
        "encoding": "mapping",
        "key": "t_uint256",
        "label": "mapping(uint256 => address)",
        "numberOfBytes": "32",
        "value": "t_address"
      },
      "t_struct(PoolInfo)12211_storage": {
        "encoding": "inplace",
        "label": "struct LibPool.PoolInfo",
        "members": [
          {
            "astId": 12206,
            "contract": "contracts/L2/vaults/L2LpRewardVault.sol:L2LpRewardVault",
            "label": "token0",
            "offset": 0,
            "slot": "0",
            "type": "t_address"
          },
          {
            "astId": 12208,
            "contract": "contracts/L2/vaults/L2LpRewardVault.sol:L2LpRewardVault",
            "label": "token1",
            "offset": 0,
            "slot": "1",
            "type": "t_address"
          },
          {
            "astId": 12210,
            "contract": "contracts/L2/vaults/L2LpRewardVault.sol:L2LpRewardVault",
            "label": "fee",
            "offset": 20,
            "slot": "1",
            "type": "t_uint24"
          }
        ],
        "numberOfBytes": "64"
      },
      "t_struct(RoleData)19_storage": {
        "encoding": "inplace",
        "label": "struct AccessControl.RoleData",
        "members": [
          {
            "astId": 16,
            "contract": "contracts/L2/vaults/L2LpRewardVault.sol:L2LpRewardVault",
            "label": "members",
            "offset": 0,
            "slot": "0",
            "type": "t_mapping(t_address,t_bool)"
          },
          {
            "astId": 18,
            "contract": "contracts/L2/vaults/L2LpRewardVault.sol:L2LpRewardVault",
            "label": "adminRole",
            "offset": 0,
            "slot": "1",
            "type": "t_bytes32"
          }
        ],
        "numberOfBytes": "64"
      },
      "t_struct(VaultInfo)12723_storage": {
        "encoding": "inplace",
        "label": "struct LibScheduleVault.VaultInfo",
        "members": [
          {
            "astId": 12706,
            "contract": "contracts/L2/vaults/L2LpRewardVault.sol:L2LpRewardVault",
            "label": "claimer",
            "offset": 0,
            "slot": "0",
            "type": "t_address"
          },
          {
            "astId": 12708,
            "contract": "contracts/L2/vaults/L2LpRewardVault.sol:L2LpRewardVault",
            "label": "totalAllocatedAmount",
            "offset": 0,
            "slot": "1",
            "type": "t_uint256"
          },
          {
            "astId": 12710,
            "contract": "contracts/L2/vaults/L2LpRewardVault.sol:L2LpRewardVault",
            "label": "totalClaimCount",
            "offset": 0,
            "slot": "2",
            "type": "t_uint256"
          },
          {
            "astId": 12712,
            "contract": "contracts/L2/vaults/L2LpRewardVault.sol:L2LpRewardVault",
            "label": "totalClaimedAmount",
            "offset": 0,
            "slot": "3",
            "type": "t_uint256"
          },
          {
            "astId": 12714,
            "contract": "contracts/L2/vaults/L2LpRewardVault.sol:L2LpRewardVault",
            "label": "firstClaimAmount",
            "offset": 0,
            "slot": "4",
            "type": "t_uint256"
          },
          {
            "astId": 12716,
            "contract": "contracts/L2/vaults/L2LpRewardVault.sol:L2LpRewardVault",
            "label": "firstClaimTime",
            "offset": 0,
            "slot": "5",
            "type": "t_uint32"
          },
          {
            "astId": 12718,
            "contract": "contracts/L2/vaults/L2LpRewardVault.sol:L2LpRewardVault",
            "label": "secondClaimTime",
            "offset": 4,
            "slot": "5",
            "type": "t_uint32"
          },
          {
            "astId": 12720,
            "contract": "contracts/L2/vaults/L2LpRewardVault.sol:L2LpRewardVault",
            "label": "roundInterval",
            "offset": 8,
            "slot": "5",
            "type": "t_uint32"
          },
          {
            "astId": 12722,
            "contract": "contracts/L2/vaults/L2LpRewardVault.sol:L2LpRewardVault",
            "label": "latestClaimedRound",
            "offset": 12,
            "slot": "5",
            "type": "t_uint32"
          }
        ],
        "numberOfBytes": "192"
      },
      "t_uint24": {
        "encoding": "inplace",
        "label": "uint24",
        "numberOfBytes": "3"
      },
      "t_uint256": {
        "encoding": "inplace",
        "label": "uint256",
        "numberOfBytes": "32"
      },
      "t_uint32": {
        "encoding": "inplace",
        "label": "uint32",
        "numberOfBytes": "4"
      }
    }
  }
}