{
  "address": "0x191864367707CaE5bA218D6779d4883Eed078Dd2",
  "abi": [
    {
      "anonymous": false,
      "inputs": [
        {
          "indexed": false,
          "internalType": "address",
          "name": "l2Token",
          "type": "address"
        },
        {
          "indexed": false,
          "internalType": "string",
          "name": "name",
          "type": "string"
        },
        {
          "indexed": false,
          "internalType": "address",
          "name": "newClaimer",
          "type": "address"
        }
      ],
      "name": "ChangedClaimer",
      "type": "event"
    },
    {
      "anonymous": false,
      "inputs": [
        {
          "indexed": false,
          "internalType": "address",
          "name": "l2Token",
          "type": "address"
        },
        {
          "indexed": false,
          "internalType": "string",
          "name": "name",
          "type": "string"
        },
        {
          "indexed": false,
          "internalType": "address",
          "name": "to",
          "type": "address"
        },
        {
          "indexed": false,
          "internalType": "uint256",
          "name": "amount",
          "type": "uint256"
        }
      ],
      "name": "ClaimedInVault",
      "type": "event"
    },
    {
      "anonymous": false,
      "inputs": [
        {
          "indexed": false,
          "internalType": "address",
          "name": "l2Token",
          "type": "address"
        },
        {
          "indexed": false,
          "internalType": "string",
          "name": "name",
          "type": "string"
        },
        {
          "indexed": false,
          "internalType": "address",
          "name": "claimer",
          "type": "address"
        },
        {
          "indexed": false,
          "internalType": "uint256",
          "name": "totalAllocatedAmount",
          "type": "uint256"
        }
      ],
      "name": "InitializedL2NonScheduleVault",
      "type": "event"
    },
    {
      "anonymous": false,
      "inputs": [
        {
          "indexed": true,
          "internalType": "bytes32",
          "name": "role",
          "type": "bytes32"
        },
        {
          "indexed": true,
          "internalType": "bytes32",
          "name": "previousAdminRole",
          "type": "bytes32"
        },
        {
          "indexed": true,
          "internalType": "bytes32",
          "name": "newAdminRole",
          "type": "bytes32"
        }
      ],
      "name": "RoleAdminChanged",
      "type": "event"
    },
    {
      "anonymous": false,
      "inputs": [
        {
          "indexed": true,
          "internalType": "bytes32",
          "name": "role",
          "type": "bytes32"
        },
        {
          "indexed": true,
          "internalType": "address",
          "name": "account",
          "type": "address"
        },
        {
          "indexed": true,
          "internalType": "address",
          "name": "sender",
          "type": "address"
        }
      ],
      "name": "RoleGranted",
      "type": "event"
    },
    {
      "anonymous": false,
      "inputs": [
        {
          "indexed": true,
          "internalType": "bytes32",
          "name": "role",
          "type": "bytes32"
        },
        {
          "indexed": true,
          "internalType": "address",
          "name": "account",
          "type": "address"
        },
        {
          "indexed": true,
          "internalType": "address",
          "name": "sender",
          "type": "address"
        }
      ],
      "name": "RoleRevoked",
      "type": "event"
    },
    {
      "anonymous": false,
      "inputs": [
        {
          "indexed": false,
          "internalType": "address",
          "name": "l2Token",
          "type": "address"
        },
        {
          "indexed": false,
          "internalType": "address",
          "name": "newAdmin",
          "type": "address"
        }
      ],
      "name": "SetVaultAdmin",
      "type": "event"
    },
    {
      "inputs": [],
      "name": "ADMIN_ROLE",
      "outputs": [
        {
          "internalType": "bytes32",
          "name": "",
          "type": "bytes32"
        }
      ],
      "stateMutability": "view",
      "type": "function"
    },
    {
      "inputs": [],
      "name": "DEFAULT_ADMIN_ROLE",
      "outputs": [
        {
          "internalType": "bytes32",
          "name": "",
          "type": "bytes32"
        }
      ],
      "stateMutability": "view",
      "type": "function"
    },
    {
      "inputs": [],
      "name": "POLICY_ROLE",
      "outputs": [
        {
          "internalType": "bytes32",
          "name": "",
          "type": "bytes32"
        }
      ],
      "stateMutability": "view",
      "type": "function"
    },
    {
      "inputs": [
        {
          "internalType": "address",
          "name": "account",
          "type": "address"
        }
      ],
      "name": "addAdmin",
      "outputs": [],
      "stateMutability": "nonpayable",
      "type": "function"
    },
    {
      "inputs": [
        {
          "internalType": "address",
          "name": "",
          "type": "address"
        }
      ],
      "name": "aliveImplementation",
      "outputs": [
        {
          "internalType": "bool",
          "name": "",
          "type": "bool"
        }
      ],
      "stateMutability": "view",
      "type": "function"
    },
    {
      "inputs": [
        {
          "internalType": "address",
          "name": "l2Token",
          "type": "address"
        },
        {
          "internalType": "string",
          "name": "vaultName",
          "type": "string"
        },
        {
          "internalType": "address",
          "name": "_newClaimer",
          "type": "address"
        }
      ],
      "name": "changeClaimer",
      "outputs": [],
      "stateMutability": "nonpayable",
      "type": "function"
    },
    {
      "inputs": [
        {
          "internalType": "address",
          "name": "l2Token",
          "type": "address"
        },
        {
          "internalType": "string",
          "name": "vaultName",
          "type": "string"
        },
        {
          "internalType": "uint256",
          "name": "amount",
          "type": "uint256"
        }
      ],
      "name": "claim",
      "outputs": [],
      "stateMutability": "nonpayable",
      "type": "function"
    },
    {
      "inputs": [
        {
          "internalType": "bytes32",
          "name": "role",
          "type": "bytes32"
        }
      ],
      "name": "getRoleAdmin",
      "outputs": [
        {
          "internalType": "bytes32",
          "name": "",
          "type": "bytes32"
        }
      ],
      "stateMutability": "view",
      "type": "function"
    },
    {
      "inputs": [
        {
          "internalType": "bytes32",
          "name": "role",
          "type": "bytes32"
        },
        {
          "internalType": "address",
          "name": "account",
          "type": "address"
        }
      ],
      "name": "grantRole",
      "outputs": [],
      "stateMutability": "nonpayable",
      "type": "function"
    },
    {
      "inputs": [
        {
          "internalType": "bytes32",
          "name": "role",
          "type": "bytes32"
        },
        {
          "internalType": "address",
          "name": "account",
          "type": "address"
        }
      ],
      "name": "hasRole",
      "outputs": [
        {
          "internalType": "bool",
          "name": "",
          "type": "bool"
        }
      ],
      "stateMutability": "view",
      "type": "function"
    },
    {
      "inputs": [
        {
          "internalType": "address",
          "name": "l2Token",
          "type": "address"
        },
        {
          "internalType": "string",
          "name": "vaultName",
          "type": "string"
        },
        {
          "internalType": "address",
          "name": "claimer",
          "type": "address"
        },
        {
          "internalType": "uint256",
          "name": "_totalAllocatedAmount",
          "type": "uint256"
        }
      ],
      "name": "initialize",
      "outputs": [],
      "stateMutability": "nonpayable",
      "type": "function"
    },
    {
      "inputs": [
        {
          "internalType": "address",
          "name": "account",
          "type": "address"
        }
      ],
      "name": "isAdmin",
      "outputs": [
        {
          "internalType": "bool",
          "name": "",
          "type": "bool"
        }
      ],
      "stateMutability": "view",
      "type": "function"
    },
    {
      "inputs": [
        {
          "internalType": "address",
          "name": "l2Token",
          "type": "address"
        },
        {
          "internalType": "address",
          "name": "account",
          "type": "address"
        }
      ],
      "name": "isVaultAdmin",
      "outputs": [
        {
          "internalType": "bool",
          "name": "",
          "type": "bool"
        }
      ],
      "stateMutability": "view",
      "type": "function"
    },
    {
      "inputs": [],
      "name": "l2ProjectManager",
      "outputs": [
        {
          "internalType": "address",
          "name": "",
          "type": "address"
        }
      ],
      "stateMutability": "view",
      "type": "function"
    },
    {
      "inputs": [],
      "name": "pauseProxy",
      "outputs": [
        {
          "internalType": "bool",
          "name": "",
          "type": "bool"
        }
      ],
      "stateMutability": "view",
      "type": "function"
    },
    {
      "inputs": [
        {
          "internalType": "uint256",
          "name": "",
          "type": "uint256"
        }
      ],
      "name": "proxyImplementation",
      "outputs": [
        {
          "internalType": "address",
          "name": "",
          "type": "address"
        }
      ],
      "stateMutability": "view",
      "type": "function"
    },
    {
      "inputs": [
        {
          "internalType": "address",
          "name": "account",
          "type": "address"
        }
      ],
      "name": "removeAdmin",
      "outputs": [],
      "stateMutability": "nonpayable",
      "type": "function"
    },
    {
      "inputs": [
        {
          "internalType": "bytes32",
          "name": "role",
          "type": "bytes32"
        },
        {
          "internalType": "address",
          "name": "account",
          "type": "address"
        }
      ],
      "name": "renounceRole",
      "outputs": [],
      "stateMutability": "nonpayable",
      "type": "function"
    },
    {
      "inputs": [
        {
          "internalType": "bytes32",
          "name": "role",
          "type": "bytes32"
        },
        {
          "internalType": "address",
          "name": "account",
          "type": "address"
        }
      ],
      "name": "revokeRole",
      "outputs": [],
      "stateMutability": "nonpayable",
      "type": "function"
    },
    {
      "inputs": [
        {
          "internalType": "bytes4",
          "name": "",
          "type": "bytes4"
        }
      ],
      "name": "selectorImplementation",
      "outputs": [
        {
          "internalType": "address",
          "name": "",
          "type": "address"
        }
      ],
      "stateMutability": "view",
      "type": "function"
    },
    {
      "inputs": [
        {
          "internalType": "address",
          "name": "_l2ProjectManager",
          "type": "address"
        }
      ],
      "name": "setL2ProjectManager",
      "outputs": [],
      "stateMutability": "nonpayable",
      "type": "function"
    },
    {
      "inputs": [
        {
          "internalType": "address",
          "name": "l2Token",
          "type": "address"
        },
        {
          "internalType": "address",
          "name": "_newAdmin",
          "type": "address"
        }
      ],
      "name": "setVaultAdmin",
      "outputs": [],
      "stateMutability": "nonpayable",
      "type": "function"
    },
    {
      "inputs": [
        {
          "internalType": "bytes4",
          "name": "interfaceId",
          "type": "bytes4"
        }
      ],
      "name": "supportsInterface",
      "outputs": [
        {
          "internalType": "bool",
          "name": "",
          "type": "bool"
        }
      ],
      "stateMutability": "view",
      "type": "function"
    },
    {
      "inputs": [
        {
          "internalType": "address",
          "name": "newAdmin",
          "type": "address"
        }
      ],
      "name": "transferAdmin",
      "outputs": [],
      "stateMutability": "nonpayable",
      "type": "function"
    },
    {
      "inputs": [
        {
          "internalType": "address",
          "name": "l2Token",
          "type": "address"
        },
        {
          "internalType": "address",
          "name": "_newAdmin",
          "type": "address"
        }
      ],
      "name": "transferVaultAdmin",
      "outputs": [],
      "stateMutability": "nonpayable",
      "type": "function"
    },
    {
      "inputs": [
        {
          "internalType": "address",
          "name": "",
          "type": "address"
        }
      ],
      "name": "vaultAdminOfToken",
      "outputs": [
        {
          "internalType": "address",
          "name": "",
          "type": "address"
        }
      ],
      "stateMutability": "view",
      "type": "function"
    },
    {
      "inputs": [
        {
          "internalType": "address",
          "name": "",
          "type": "address"
        },
        {
          "internalType": "bytes32",
          "name": "",
          "type": "bytes32"
        }
      ],
      "name": "vaultInfo",
      "outputs": [
        {
          "internalType": "address",
          "name": "claimer",
          "type": "address"
        },
        {
          "internalType": "uint256",
          "name": "totalAllocatedAmount",
          "type": "uint256"
        },
        {
          "internalType": "uint256",
          "name": "totalClaimedAmount",
          "type": "uint256"
        }
      ],
      "stateMutability": "view",
      "type": "function"
    },
    {
      "inputs": [
        {
          "internalType": "address",
          "name": "l2Token",
          "type": "address"
        },
        {
          "internalType": "string",
          "name": "vaultName",
          "type": "string"
        }
      ],
      "name": "viewVaultInfo",
      "outputs": [
        {
          "components": [
            {
              "internalType": "address",
              "name": "claimer",
              "type": "address"
            },
            {
              "internalType": "uint256",
              "name": "totalAllocatedAmount",
              "type": "uint256"
            },
            {
              "internalType": "uint256",
              "name": "totalClaimedAmount",
              "type": "uint256"
            }
          ],
          "internalType": "struct LibNonScheduleVault.VaultInfo",
          "name": "",
          "type": "tuple"
        }
      ],
      "stateMutability": "view",
      "type": "function"
    }
  ],
  "transactionHash": "0xd6f6fd386019c984f7e9f35e9068730a674da97a15c4d7f6e3ade63354a3c3f2",
  "args": [],
  "numDeployments": 1,
  "solcInputHash": "a3d458828a1932a50e4175124b65d2fd",
  "bytecode": "0x60806040526005805460ff1916600117905534801561001d57600080fd5b506121268061002d6000396000f3fe608060405234801561001057600080fd5b50600436106101c45760003560e01c8063550d01a3116100f957806391d1485411610097578063b40d735011610071578063b40d735014610487578063b911135f146104f0578063d547741f14610519578063d8f1ef241461052c57600080fd5b806391d1485414610433578063a217fddf1461046c578063a41823431461047457600080fd5b806375829def116100d357806375829def146103bd57806375b238fc146103d05780637d601b92146103f75780637fc46ba81461040a57600080fd5b8063550d01a31461037a57806363a8fd891461039d57806370480275146103aa57600080fd5b806324d7806c1161016657806336568abe1161014057806336568abe146102fb57806350d2a2761461030e57806351e8152a1461034f57806352351e851461036257600080fd5b806324d7806c146102c25780632f2ff15d146102d557806335b9ac66146102e857600080fd5b80631785f53c116101a25780631785f53c146102445780631e8948c314610257578063229852461461026a578063248a9ca31461029f57600080fd5b806301ffc9a7146101c9578063021a4405146101f15780630eb76bd314610206575b600080fd5b6101dc6101d7366004611bed565b61053f565b60405190151581526020015b60405180910390f35b6102046101ff366004611cd6565b610576565b005b610219610214366004611d3c565b6107bf565b6040805182516001600160a01b031681526020808401519082015291810151908201526060016101e8565b610204610252366004611d8a565b610840565b610204610265366004611da5565b6108cd565b6102917ffb5864e8ff833c3cb2d2d08505e82ff02a43554c74a35d4f5a64e8526127831181565b6040519081526020016101e8565b6102916102ad366004611dd8565b60009081526004602052604090206001015490565b6101dc6102d0366004611d8a565b610aa6565b6102046102e3366004611df1565b610ae6565b6102046102f6366004611da5565b610b10565b610204610309366004611df1565b610cc4565b61033761031c366004611bed565b6003602052600090815260409020546001600160a01b031681565b6040516001600160a01b0390911681526020016101e8565b6101dc61035d366004611da5565b610d50565b6005546103379061010090046001600160a01b031681565b6101dc610388366004611d8a565b60026020526000908152604090205460ff1681565b6000546101dc9060ff1681565b6102046103b8366004611d8a565b610d8d565b6102046103cb366004611d8a565b610e17565b6102917fdf8b4c520ffe197c5343c6f5aec59570151ef9a492f2c624fd45ddde6135ec4281565b610204610405366004611e14565b610f79565b610337610418366004611d8a565b6006602052600090815260409020546001600160a01b031681565b6101dc610441366004611df1565b60009182526004602090815260408084206001600160a01b0393909316845291905290205460ff1690565b610291600081565b610204610482366004611d8a565b611213565b6104cb610495366004611e72565b60076020908152600092835260408084209091529082529020805460018201546002909201546001600160a01b03909116919083565b604080516001600160a01b0390941684526020840192909252908201526060016101e8565b6103376104fe366004611dd8565b6001602052600090815260409020546001600160a01b031681565b610204610527366004611df1565b611330565b61020461053a366004611e9c565b611355565b60006001600160e01b03198216637965db0b60e01b148061057057506301ffc9a760e01b6001600160e01b03198316145b92915050565b600554849061010090046001600160a01b03163314806105d357506001600160a01b0381811660009081526006602052604090205416158015906105d357506001600160a01b038181166000908152600660205260409020541633145b6106395760405162461bcd60e51b815260206004820152602c60248201527f63616c6c6572206973206e6f742061207661756c7441646d696e206f7220507260448201526b37b532b1ba26b0b730b3b2b960a11b60648201526084015b60405180910390fd5b83516020850120821580159061065757506001600160a01b03841615155b6106905760405162461bcd60e51b815260206004820152600a6024820152697a65726f2076616c756560b01b6044820152606401610630565b6001600160a01b03808716600090815260076020908152604080832085845282529182902082516060810184528154909416845260018101549184018290526002015491830191909152156107275760405162461bcd60e51b815260206004820152601360248201527f616c726561647920696e697469616c697a6564000000000000000000000000006044820152606401610630565b6001600160a01b03878116600081815260076020908152604080832087845290915290206001810187905580546001600160a01b0319168884161790556005546107799261010090910416308761164f565b7fd9b8784b343080b1912ed7647b9c5a961bcc1769d71a89569c1ee0249b540cfa878787876040516107ae9493929190611f43565b60405180910390a150505050505050565b6107ec604051806060016040528060006001600160a01b0316815260200160008152602001600081525090565b506001600160a01b0380831660009081526007602090815260408083208551868401208452825291829020825160608101845281549094168452600181015491840191909152600201549082015292915050565b61084933610aa6565b6108a05760405162461bcd60e51b815260206004820152602260248201527f41636365737369626c653a2043616c6c6572206973206e6f7420616e2061646d60448201526134b760f11b6064820152608401610630565b6108ca7fdf8b4c520ffe197c5343c6f5aec59570151ef9a492f2c624fd45ddde6135ec4282610cc4565b50565b816001600160a01b0381166109095760405162461bcd60e51b81526020600482015260026024820152612d1960f11b6044820152606401610630565b816001600160a01b0381166109455760405162461bcd60e51b81526020600482015260026024820152612d1960f11b6044820152606401610630565b6001600160a01b038085166000908152600660205260409020548591161580159061098957506001600160a01b038181166000908152600660205260409020541633145b6109e35760405162461bcd60e51b815260206004820152602560248201527f63616c6c6572206973206e6f742061207661756c7441646d696e204f66206c326044820152642a37b5b2b760d91b6064820152608401610630565b6001600160a01b03858116600090815260066020526040902054818616911603610a385760405162461bcd60e51b81526004016106309060208082526004908201526373616d6560e01b604082015260600190565b6001600160a01b0385811660008181526006602090815260409182902080546001600160a01b031916948916948517905581519283528201929092527fb00bb4c229aff6156cc8e2c767c571665e1927c09fe083ec055956a5a4026193910160405180910390a15050505050565b6001600160a01b03811660009081527f2fb794d17134dfdec181ddbac1babb5ab1eb140204ef4d982f294e7fc8b69022602052604081205460ff16610570565b600082815260046020526040902060010154610b0181611773565b610b0b838361177d565b505050565b816001600160a01b038116610b4c5760405162461bcd60e51b81526020600482015260026024820152612d1960f11b6044820152606401610630565b816001600160a01b038116610b885760405162461bcd60e51b81526020600482015260026024820152612d1960f11b6044820152606401610630565b60055461010090046001600160a01b031615801590610bb6575060055461010090046001600160a01b031633145b610c025760405162461bcd60e51b815260206004820152601e60248201527f63616c6c6572206973206e6f74206c3250726f6a6563744d616e6167657200006044820152606401610630565b6001600160a01b03848116600090815260066020526040902054818516911603610c575760405162461bcd60e51b81526004016106309060208082526004908201526373616d6560e01b604082015260600190565b6001600160a01b0384811660008181526006602090815260409182902080546001600160a01b031916948816948517905581519283528201929092527fb00bb4c229aff6156cc8e2c767c571665e1927c09fe083ec055956a5a4026193910160405180910390a150505050565b6001600160a01b0381163314610d425760405162461bcd60e51b815260206004820152602f60248201527f416363657373436f6e74726f6c3a2063616e206f6e6c792072656e6f756e636560448201527f20726f6c657320666f722073656c6600000000000000000000000000000000006064820152608401610630565b610d4c828261181f565b5050565b60006001600160a01b03821615801590610d8657506001600160a01b038381166000908152600660205260409020548116908316145b9392505050565b610d9633610aa6565b610ded5760405162461bcd60e51b815260206004820152602260248201527f41636365737369626c653a2043616c6c6572206973206e6f7420616e2061646d60448201526134b760f11b6064820152608401610630565b6108ca7fdf8b4c520ffe197c5343c6f5aec59570151ef9a492f2c624fd45ddde6135ec4282610ae6565b610e2033610aa6565b610e775760405162461bcd60e51b815260206004820152602260248201527f41636365737369626c653a2043616c6c6572206973206e6f7420616e2061646d60448201526134b760f11b6064820152608401610630565b6001600160a01b038116610ecd5760405162461bcd60e51b815260206004820152601860248201527f41636365737369626c653a207a65726f206164647265737300000000000000006044820152606401610630565b6001600160a01b0381163303610f255760405162461bcd60e51b815260206004820152601660248201527f41636365737369626c653a2073616d652061646d696e000000000000000000006044820152606401610630565b610f4f7fdf8b4c520ffe197c5343c6f5aec59570151ef9a492f2c624fd45ddde6135ec4282610ae6565b6108ca7fdf8b4c520ffe197c5343c6f5aec59570151ef9a492f2c624fd45ddde6135ec4233610cc4565b600554839061010090046001600160a01b0316331480610fd657506001600160a01b038181166000908152600660205260409020541615801590610fd657506001600160a01b038181166000908152600660205260409020541633145b6110375760405162461bcd60e51b815260206004820152602c60248201527f63616c6c6572206973206e6f742061207661756c7441646d696e206f7220507260448201526b37b532b1ba26b0b730b3b2b960a11b6064820152608401610630565b836001600160a01b0381166110735760405162461bcd60e51b81526020600482015260026024820152612d1960f11b6044820152606401610630565b826001600160a01b0381166110af5760405162461bcd60e51b81526020600482015260026024820152612d1960f11b6044820152606401610630565b84516020808701919091206001600160a01b038089166000908152600784526040808220848352855280822081516060810183528154909416845260018101549584018690526002015490830152919290910361114e5760405162461bcd60e51b815260206004820152600f60248201527f6e6f7420696e697469616c697a656400000000000000000000000000000000006044820152606401610630565b80516001600160a01b038088169116036111935760405162461bcd60e51b81526004016106309060208082526004908201526373616d6560e01b604082015260600190565b6001600160a01b0388811660009081526007602090815260408083208684529091529081902080546001600160a01b03191692891692909217909155517fca06a665ab96328b2df1007b733fb1aa10ae76d39bea810da47a66f7a8c2dee090611201908a908a908a90611f78565b60405180910390a15050505050505050565b806001600160a01b03811661124f5760405162461bcd60e51b81526020600482015260026024820152612d1960f11b6044820152606401610630565b61125833610aa6565b6112af5760405162461bcd60e51b815260206004820152602260248201527f41636365737369626c653a2043616c6c6572206973206e6f7420616e2061646d60448201526134b760f11b6064820152608401610630565b6005546001600160a01b0380841661010090920416036112fa5760405162461bcd60e51b81526004016106309060208082526004908201526373616d6560e01b604082015260600190565b50600580546001600160a01b039092166101000274ffffffffffffffffffffffffffffffffffffffff0019909216919091179055565b60008281526004602052604090206001015461134b81611773565b610b0b838361181f565b6001600160a01b038084166000908152600660205260409020548491161580159061139957506001600160a01b038181166000908152600660205260409020541633145b6113f35760405162461bcd60e51b815260206004820152602560248201527f63616c6c6572206973206e6f742061207661756c7441646d696e204f66206c326044820152642a37b5b2b760d91b6064820152608401610630565b836001600160a01b03811661142f5760405162461bcd60e51b81526020600482015260026024820152612d1960f11b6044820152606401610630565b82806000036114655760405162461bcd60e51b81526020600482015260026024820152615a3160f01b6044820152606401610630565b84516020808701919091206001600160a01b03808916600090815260078452604080822084835285529081902081516060810183528154909316808452600182015495840195909552600201549082015290916114f15760405162461bcd60e51b815260206004820152600a60248201526937379031b630b4b6b2b960b11b6044820152606401610630565b806040015181602001516115059190611fc4565b861115801561157b57506040516370a0823160e01b81523060048201526001600160a01b038916906370a0823190602401602060405180830381865afa158015611553573d6000803e3d6000fd5b505050506040513d601f19601f820116820180604052508101906115779190611fd7565b8611155b6115c75760405162461bcd60e51b815260206004820152601460248201527f696e73756666696369656e742062616c616e63650000000000000000000000006044820152606401610630565b6001600160a01b0388166000908152600760209081526040808320858452909152812060020180548892906115fd908490611ff0565b90915550508051611619906001600160a01b038a1690886118a2565b80516040517fca22eeecfd9befea639efcc7bc0f6d548698260714f080f97a29487ca7362de891611201918b918b918b90611f43565b604080516001600160a01b0385811660248301528481166044830152606480830185905283518084039091018152608490920183526020820180516001600160e01b03166323b872dd60e01b17905291516000928392908816916116b39190612003565b6000604051808303816000865af19150503d80600081146116f0576040519150601f19603f3d011682016040523d82523d6000602084013e6116f5565b606091505b509150915081801561171f57508051158061171f57508080602001905181019061171f919061201f565b61176b5760405162461bcd60e51b815260206004820152601460248201527f5452414e534645525f46524f4d5f4641494c45440000000000000000000000006044820152606401610630565b505050505050565b6108ca81336119bd565b60008281526004602090815260408083206001600160a01b038516845290915290205460ff16610d4c5760008281526004602090815260408083206001600160a01b03851684529091529020805460ff191660011790556117db3390565b6001600160a01b0316816001600160a01b0316837f2f8788117e7eff1d82e926ec794901d17c78024a50270940304540a733656f0d60405160405180910390a45050565b60008281526004602090815260408083206001600160a01b038516845290915290205460ff1615610d4c5760008281526004602090815260408083206001600160a01b0385168085529252808320805460ff1916905551339285917ff6391f5c32d9c69d2a47ea670b442974b53935d1edc7fd64eb21e047a839171b9190a45050565b604080516001600160a01b038481166024830152604480830185905283518084039091018152606490920183526020820180516001600160e01b031663a9059cbb60e01b17905291516000928392908716916118fe9190612003565b6000604051808303816000865af19150503d806000811461193b576040519150601f19603f3d011682016040523d82523d6000602084013e611940565b606091505b509150915081801561196a57508051158061196a57508080602001905181019061196a919061201f565b6119b65760405162461bcd60e51b815260206004820152600f60248201527f5452414e534645525f4641494c454400000000000000000000000000000000006044820152606401610630565b5050505050565b60008281526004602090815260408083206001600160a01b038516845290915290205460ff16610d4c576119f081611a32565b6119fb836020611a44565b604051602001611a0c929190612041565b60408051601f198184030181529082905262461bcd60e51b8252610630916004016120c2565b60606105706001600160a01b03831660145b60606000611a538360026120d5565b611a5e906002611ff0565b67ffffffffffffffff811115611a7657611a76611c33565b6040519080825280601f01601f191660200182016040528015611aa0576020820181803683370190505b509050600360fc1b81600081518110611abb57611abb6120ec565b60200101906001600160f81b031916908160001a905350600f60fb1b81600181518110611aea57611aea6120ec565b60200101906001600160f81b031916908160001a9053506000611b0e8460026120d5565b611b19906001611ff0565b90505b6001811115611b9e577f303132333435363738396162636465660000000000000000000000000000000085600f1660108110611b5a57611b5a6120ec565b1a60f81b828281518110611b7057611b706120ec565b60200101906001600160f81b031916908160001a90535060049490941c93611b9781612102565b9050611b1c565b508315610d865760405162461bcd60e51b815260206004820181905260248201527f537472696e67733a20686578206c656e67746820696e73756666696369656e746044820152606401610630565b600060208284031215611bff57600080fd5b81356001600160e01b031981168114610d8657600080fd5b80356001600160a01b0381168114611c2e57600080fd5b919050565b634e487b7160e01b600052604160045260246000fd5b600082601f830112611c5a57600080fd5b813567ffffffffffffffff80821115611c7557611c75611c33565b604051601f8301601f19908116603f01168101908282118183101715611c9d57611c9d611c33565b81604052838152866020858801011115611cb657600080fd5b836020870160208301376000602085830101528094505050505092915050565b60008060008060808587031215611cec57600080fd5b611cf585611c17565b9350602085013567ffffffffffffffff811115611d1157600080fd5b611d1d87828801611c49565b935050611d2c60408601611c17565b9396929550929360600135925050565b60008060408385031215611d4f57600080fd5b611d5883611c17565b9150602083013567ffffffffffffffff811115611d7457600080fd5b611d8085828601611c49565b9150509250929050565b600060208284031215611d9c57600080fd5b610d8682611c17565b60008060408385031215611db857600080fd5b611dc183611c17565b9150611dcf60208401611c17565b90509250929050565b600060208284031215611dea57600080fd5b5035919050565b60008060408385031215611e0457600080fd5b82359150611dcf60208401611c17565b600080600060608486031215611e2957600080fd5b611e3284611c17565b9250602084013567ffffffffffffffff811115611e4e57600080fd5b611e5a86828701611c49565b925050611e6960408501611c17565b90509250925092565b60008060408385031215611e8557600080fd5b611e8e83611c17565b946020939093013593505050565b600080600060608486031215611eb157600080fd5b611eba84611c17565b9250602084013567ffffffffffffffff811115611ed657600080fd5b611ee286828701611c49565b925050604084013590509250925092565b60005b83811015611f0e578181015183820152602001611ef6565b50506000910152565b60008151808452611f2f816020860160208601611ef3565b601f01601f19169290920160200192915050565b60006001600160a01b03808716835260806020840152611f666080840187611f17565b94166040830152506060015292915050565b60006001600160a01b03808616835260606020840152611f9b6060840186611f17565b9150808416604084015250949350505050565b634e487b7160e01b600052601160045260246000fd5b8181038181111561057057610570611fae565b600060208284031215611fe957600080fd5b5051919050565b8082018082111561057057610570611fae565b60008251612015818460208701611ef3565b9190910192915050565b60006020828403121561203157600080fd5b81518015158114610d8657600080fd5b7f416363657373436f6e74726f6c3a206163636f756e7420000000000000000000815260008351612079816017850160208801611ef3565b7f206973206d697373696e6720726f6c652000000000000000000000000000000060179184019182015283516120b6816028840160208801611ef3565b01602801949350505050565b602081526000610d866020830184611f17565b808202811582820484141761057057610570611fae565b634e487b7160e01b600052603260045260246000fd5b60008161211157612111611fae565b50600019019056fea164736f6c6343000812000a",
  "devdoc": {
    "details": "Vault that claims when the Vault admin wants it",
    "events": {
      "RoleAdminChanged(bytes32,bytes32,bytes32)": {
        "details": "Emitted when `newAdminRole` is set as ``role``'s admin role, replacing `previousAdminRole` `DEFAULT_ADMIN_ROLE` is the starting admin for all roles, despite {RoleAdminChanged} not being emitted signaling this. _Available since v3.1._"
      },
      "RoleGranted(bytes32,address,address)": {
        "details": "Emitted when `account` is granted `role`. `sender` is the account that originated the contract call, an admin role bearer except when using {AccessControl-_setupRole}."
      },
      "RoleRevoked(bytes32,address,address)": {
        "details": "Emitted when `account` is revoked `role`. `sender` is the account that originated the contract call:   - if using `revokeRole`, it is the admin role bearer   - if using `renounceRole`, it is the role bearer (i.e. `account`)"
      }
    },
    "kind": "dev",
    "methods": {
      "addAdmin(address)": {
        "details": "add admin",
        "params": {
          "account": "address to add"
        }
      },
      "getRoleAdmin(bytes32)": {
        "details": "Returns the admin role that controls `role`. See {grantRole} and {revokeRole}. To change a role's admin, use {_setRoleAdmin}."
      },
      "grantRole(bytes32,address)": {
        "details": "Grants `role` to `account`. If `account` had not been already granted `role`, emits a {RoleGranted} event. Requirements: - the caller must have ``role``'s admin role. May emit a {RoleGranted} event."
      },
      "hasRole(bytes32,address)": {
        "details": "Returns `true` if `account` has been granted `role`."
      },
      "isAdmin(address)": {
        "details": "whether admin",
        "params": {
          "account": "address to check"
        }
      },
      "removeAdmin(address)": {
        "details": "remove admin",
        "params": {
          "account": "address to remove"
        }
      },
      "renounceRole(bytes32,address)": {
        "details": "Revokes `role` from the calling account. Roles are often managed via {grantRole} and {revokeRole}: this function's purpose is to provide a mechanism for accounts to lose their privileges if they are compromised (such as when a trusted device is misplaced). If the calling account had been revoked `role`, emits a {RoleRevoked} event. Requirements: - the caller must be `account`. May emit a {RoleRevoked} event."
      },
      "revokeRole(bytes32,address)": {
        "details": "Revokes `role` from `account`. If `account` had been granted `role`, emits a {RoleRevoked} event. Requirements: - the caller must have ``role``'s admin role. May emit a {RoleRevoked} event."
      },
      "supportsInterface(bytes4)": {
        "details": "See {IERC165-supportsInterface}."
      },
      "transferAdmin(address)": {
        "details": "transfer admin",
        "params": {
          "newAdmin": "new admin address"
        }
      }
    },
    "title": "L2NonScheduleVault",
    "version": 1
  },
  "userdoc": {
    "kind": "user",
    "methods": {},
    "version": 1
  },
  "storageLayout": {
    "storage": [
      {
        "astId": 8669,
        "contract": "contracts/L2/vaults/L2NonScheduleVault.sol:L2NonScheduleVault",
        "label": "pauseProxy",
        "offset": 0,
        "slot": "0",
        "type": "t_bool"
      },
      {
        "astId": 8673,
        "contract": "contracts/L2/vaults/L2NonScheduleVault.sol:L2NonScheduleVault",
        "label": "proxyImplementation",
        "offset": 0,
        "slot": "1",
        "type": "t_mapping(t_uint256,t_address)"
      },
      {
        "astId": 8677,
        "contract": "contracts/L2/vaults/L2NonScheduleVault.sol:L2NonScheduleVault",
        "label": "aliveImplementation",
        "offset": 0,
        "slot": "2",
        "type": "t_mapping(t_address,t_bool)"
      },
      {
        "astId": 8681,
        "contract": "contracts/L2/vaults/L2NonScheduleVault.sol:L2NonScheduleVault",
        "label": "selectorImplementation",
        "offset": 0,
        "slot": "3",
        "type": "t_mapping(t_bytes4,t_address)"
      },
      {
        "astId": 24,
        "contract": "contracts/L2/vaults/L2NonScheduleVault.sol:L2NonScheduleVault",
        "label": "_roles",
        "offset": 0,
        "slot": "4",
        "type": "t_mapping(t_bytes32,t_struct(RoleData)19_storage)"
      },
      {
        "astId": 5165,
        "contract": "contracts/L2/vaults/L2NonScheduleVault.sol:L2NonScheduleVault",
        "label": "free",
        "offset": 0,
        "slot": "5",
        "type": "t_bool"
      },
      {
        "astId": 5167,
        "contract": "contracts/L2/vaults/L2NonScheduleVault.sol:L2NonScheduleVault",
        "label": "l2ProjectManager",
        "offset": 1,
        "slot": "5",
        "type": "t_address"
      },
      {
        "astId": 5171,
        "contract": "contracts/L2/vaults/L2NonScheduleVault.sol:L2NonScheduleVault",
        "label": "vaultAdminOfToken",
        "offset": 0,
        "slot": "6",
        "type": "t_mapping(t_address,t_address)"
      },
      {
        "astId": 7145,
        "contract": "contracts/L2/vaults/L2NonScheduleVault.sol:L2NonScheduleVault",
        "label": "vaultInfo",
        "offset": 0,
        "slot": "7",
        "type": "t_mapping(t_address,t_mapping(t_bytes32,t_struct(VaultInfo)7981_storage))"
      }
    ],
    "types": {
      "t_address": {
        "encoding": "inplace",
        "label": "address",
        "numberOfBytes": "20"
      },
      "t_bool": {
        "encoding": "inplace",
        "label": "bool",
        "numberOfBytes": "1"
      },
      "t_bytes32": {
        "encoding": "inplace",
        "label": "bytes32",
        "numberOfBytes": "32"
      },
      "t_bytes4": {
        "encoding": "inplace",
        "label": "bytes4",
        "numberOfBytes": "4"
      },
      "t_mapping(t_address,t_address)": {
        "encoding": "mapping",
        "key": "t_address",
        "label": "mapping(address => address)",
        "numberOfBytes": "32",
        "value": "t_address"
      },
      "t_mapping(t_address,t_bool)": {
        "encoding": "mapping",
        "key": "t_address",
        "label": "mapping(address => bool)",
        "numberOfBytes": "32",
        "value": "t_bool"
      },
      "t_mapping(t_address,t_mapping(t_bytes32,t_struct(VaultInfo)7981_storage))": {
        "encoding": "mapping",
        "key": "t_address",
        "label": "mapping(address => mapping(bytes32 => struct LibNonScheduleVault.VaultInfo))",
        "numberOfBytes": "32",
        "value": "t_mapping(t_bytes32,t_struct(VaultInfo)7981_storage)"
      },
      "t_mapping(t_bytes32,t_struct(RoleData)19_storage)": {
        "encoding": "mapping",
        "key": "t_bytes32",
        "label": "mapping(bytes32 => struct AccessControl.RoleData)",
        "numberOfBytes": "32",
        "value": "t_struct(RoleData)19_storage"
      },
      "t_mapping(t_bytes32,t_struct(VaultInfo)7981_storage)": {
        "encoding": "mapping",
        "key": "t_bytes32",
        "label": "mapping(bytes32 => struct LibNonScheduleVault.VaultInfo)",
        "numberOfBytes": "32",
        "value": "t_struct(VaultInfo)7981_storage"
      },
      "t_mapping(t_bytes4,t_address)": {
        "encoding": "mapping",
        "key": "t_bytes4",
        "label": "mapping(bytes4 => address)",
        "numberOfBytes": "32",
        "value": "t_address"
      },
      "t_mapping(t_uint256,t_address)": {
        "encoding": "mapping",
        "key": "t_uint256",
        "label": "mapping(uint256 => address)",
        "numberOfBytes": "32",
        "value": "t_address"
      },
      "t_struct(RoleData)19_storage": {
        "encoding": "inplace",
        "label": "struct AccessControl.RoleData",
        "members": [
          {
            "astId": 16,
            "contract": "contracts/L2/vaults/L2NonScheduleVault.sol:L2NonScheduleVault",
            "label": "members",
            "offset": 0,
            "slot": "0",
            "type": "t_mapping(t_address,t_bool)"
          },
          {
            "astId": 18,
            "contract": "contracts/L2/vaults/L2NonScheduleVault.sol:L2NonScheduleVault",
            "label": "adminRole",
            "offset": 0,
            "slot": "1",
            "type": "t_bytes32"
          }
        ],
        "numberOfBytes": "64"
      },
      "t_struct(VaultInfo)7981_storage": {
        "encoding": "inplace",
        "label": "struct LibNonScheduleVault.VaultInfo",
        "members": [
          {
            "astId": 7976,
            "contract": "contracts/L2/vaults/L2NonScheduleVault.sol:L2NonScheduleVault",
            "label": "claimer",
            "offset": 0,
            "slot": "0",
            "type": "t_address"
          },
          {
            "astId": 7978,
            "contract": "contracts/L2/vaults/L2NonScheduleVault.sol:L2NonScheduleVault",
            "label": "totalAllocatedAmount",
            "offset": 0,
            "slot": "1",
            "type": "t_uint256"
          },
          {
            "astId": 7980,
            "contract": "contracts/L2/vaults/L2NonScheduleVault.sol:L2NonScheduleVault",
            "label": "totalClaimedAmount",
            "offset": 0,
            "slot": "2",
            "type": "t_uint256"
          }
        ],
        "numberOfBytes": "96"
      },
      "t_uint256": {
        "encoding": "inplace",
        "label": "uint256",
        "numberOfBytes": "32"
      }
    }
  }
}