{
  "address": "0xf30eB9f0D6B152f09DEcbED5e46D3f25314ecb7e",
  "abi": [
    {
      "inputs": [],
      "stateMutability": "nonpayable",
      "type": "constructor"
    },
    {
      "anonymous": false,
      "inputs": [
        {
          "indexed": true,
          "internalType": "address",
          "name": "l1Token",
          "type": "address"
        },
        {
          "indexed": true,
          "internalType": "address",
          "name": "l2Token",
          "type": "address"
        },
        {
          "indexed": false,
          "internalType": "address",
          "name": "projectOwner",
          "type": "address"
        },
        {
          "indexed": false,
          "internalType": "string",
          "name": "projectName",
          "type": "string"
        }
      ],
      "name": "CreatedL2Project",
      "type": "event"
    },
    {
      "anonymous": false,
      "inputs": [
        {
          "indexed": false,
          "internalType": "address",
          "name": "l1Token",
          "type": "address"
        },
        {
          "indexed": false,
          "internalType": "address",
          "name": "l2Token",
          "type": "address"
        },
        {
          "indexed": false,
          "internalType": "uint256",
          "name": "projectId",
          "type": "uint256"
        },
        {
          "indexed": false,
          "internalType": "uint256",
          "name": "totalAmount",
          "type": "uint256"
        }
      ],
      "name": "DistributedL2Token",
      "type": "event"
    },
    {
      "anonymous": false,
      "inputs": [
        {
          "indexed": true,
          "internalType": "bytes32",
          "name": "role",
          "type": "bytes32"
        },
        {
          "indexed": true,
          "internalType": "bytes32",
          "name": "previousAdminRole",
          "type": "bytes32"
        },
        {
          "indexed": true,
          "internalType": "bytes32",
          "name": "newAdminRole",
          "type": "bytes32"
        }
      ],
      "name": "RoleAdminChanged",
      "type": "event"
    },
    {
      "anonymous": false,
      "inputs": [
        {
          "indexed": true,
          "internalType": "bytes32",
          "name": "role",
          "type": "bytes32"
        },
        {
          "indexed": true,
          "internalType": "address",
          "name": "account",
          "type": "address"
        },
        {
          "indexed": true,
          "internalType": "address",
          "name": "sender",
          "type": "address"
        }
      ],
      "name": "RoleGranted",
      "type": "event"
    },
    {
      "anonymous": false,
      "inputs": [
        {
          "indexed": true,
          "internalType": "bytes32",
          "name": "role",
          "type": "bytes32"
        },
        {
          "indexed": true,
          "internalType": "address",
          "name": "account",
          "type": "address"
        },
        {
          "indexed": true,
          "internalType": "address",
          "name": "sender",
          "type": "address"
        }
      ],
      "name": "RoleRevoked",
      "type": "event"
    },
    {
      "inputs": [],
      "name": "ADMIN_ROLE",
      "outputs": [
        {
          "internalType": "bytes32",
          "name": "",
          "type": "bytes32"
        }
      ],
      "stateMutability": "view",
      "type": "function"
    },
    {
      "inputs": [],
      "name": "DEFAULT_ADMIN_ROLE",
      "outputs": [
        {
          "internalType": "bytes32",
          "name": "",
          "type": "bytes32"
        }
      ],
      "stateMutability": "view",
      "type": "function"
    },
    {
      "inputs": [],
      "name": "POLICY_ROLE",
      "outputs": [
        {
          "internalType": "bytes32",
          "name": "",
          "type": "bytes32"
        }
      ],
      "stateMutability": "view",
      "type": "function"
    },
    {
      "inputs": [
        {
          "internalType": "address",
          "name": "account",
          "type": "address"
        }
      ],
      "name": "addAdmin",
      "outputs": [],
      "stateMutability": "nonpayable",
      "type": "function"
    },
    {
      "inputs": [
        {
          "internalType": "address",
          "name": "",
          "type": "address"
        }
      ],
      "name": "aliveImplementation",
      "outputs": [
        {
          "internalType": "bool",
          "name": "",
          "type": "bool"
        }
      ],
      "stateMutability": "view",
      "type": "function"
    },
    {
      "inputs": [
        {
          "internalType": "address",
          "name": "projectOwner",
          "type": "address"
        },
        {
          "internalType": "address",
          "name": "l1Token",
          "type": "address"
        },
        {
          "internalType": "address",
          "name": "l2Token",
          "type": "address"
        },
        {
          "internalType": "string",
          "name": "projectName",
          "type": "string"
        }
      ],
      "name": "createL2Project",
      "outputs": [],
      "stateMutability": "nonpayable",
      "type": "function"
    },
    {
      "inputs": [
        {
          "internalType": "address",
          "name": "l1Token",
          "type": "address"
        },
        {
          "internalType": "address",
          "name": "l2Token",
          "type": "address"
        },
        {
          "internalType": "uint256",
          "name": "projectId",
          "type": "uint256"
        },
        {
          "internalType": "uint256",
          "name": "totalAmount",
          "type": "uint256"
        },
        {
          "components": [
            {
              "components": [
                {
                  "components": [
                    {
                      "internalType": "uint256",
                      "name": "stosTier1",
                      "type": "uint256"
                    },
                    {
                      "internalType": "uint256",
                      "name": "stosTier2",
                      "type": "uint256"
                    },
                    {
                      "internalType": "uint256",
                      "name": "stosTier3",
                      "type": "uint256"
                    },
                    {
                      "internalType": "uint256",
                      "name": "stosTier4",
                      "type": "uint256"
                    },
                    {
                      "internalType": "uint256",
                      "name": "tier1Percents",
                      "type": "uint256"
                    },
                    {
                      "internalType": "uint256",
                      "name": "tier2Percents",
                      "type": "uint256"
                    },
                    {
                      "internalType": "uint256",
                      "name": "tier3Percents",
                      "type": "uint256"
                    },
                    {
                      "internalType": "uint256",
                      "name": "tier4Percents",
                      "type": "uint256"
                    },
                    {
                      "internalType": "uint256",
                      "name": "total1roundSaleAmount",
                      "type": "uint256"
                    },
                    {
                      "internalType": "uint256",
                      "name": "total2roundSaleAmount",
                      "type": "uint256"
                    },
                    {
                      "internalType": "uint256",
                      "name": "saleTokenPrice",
                      "type": "uint256"
                    },
                    {
                      "internalType": "uint256",
                      "name": "payTokenPrice",
                      "type": "uint256"
                    },
                    {
                      "internalType": "uint256",
                      "name": "hardcapAmount",
                      "type": "uint256"
                    },
                    {
                      "internalType": "uint256",
                      "name": "changeTOSPercent",
                      "type": "uint256"
                    },
                    {
                      "internalType": "uint256",
                      "name": "startWhiteTime",
                      "type": "uint256"
                    },
                    {
                      "internalType": "uint256",
                      "name": "endWhiteTime",
                      "type": "uint256"
                    },
                    {
                      "internalType": "uint256",
                      "name": "start1roundTime",
                      "type": "uint256"
                    },
                    {
                      "internalType": "uint256",
                      "name": "end1roundTime",
                      "type": "uint256"
                    },
                    {
                      "internalType": "uint256",
                      "name": "snapshotTime",
                      "type": "uint256"
                    },
                    {
                      "internalType": "uint256",
                      "name": "start2roundTime",
                      "type": "uint256"
                    },
                    {
                      "internalType": "uint256",
                      "name": "end2roundTime",
                      "type": "uint256"
                    },
                    {
                      "internalType": "uint256",
                      "name": "claimCounts",
                      "type": "uint256"
                    }
                  ],
                  "internalType": "struct LibProject.InitalParameterPublicSaleVault",
                  "name": "vaultParams",
                  "type": "tuple"
                },
                {
                  "components": [
                    {
                      "internalType": "uint256[]",
                      "name": "claimTimes",
                      "type": "uint256[]"
                    },
                    {
                      "internalType": "uint256[]",
                      "name": "claimPercents",
                      "type": "uint256[]"
                    }
                  ],
                  "internalType": "struct LibProject.InitalParameterPublicSaleClaim",
                  "name": "claimParams",
                  "type": "tuple"
                }
              ],
              "internalType": "struct LibProject.InitalParameterPublicSale",
              "name": "publicSaleParams",
              "type": "tuple"
            },
            {
              "components": [
                {
                  "internalType": "uint256",
                  "name": "totalAllocatedAmount",
                  "type": "uint256"
                },
                {
                  "internalType": "uint256",
                  "name": "tosPrice",
                  "type": "uint256"
                },
                {
                  "internalType": "uint256",
                  "name": "tokenPrice",
                  "type": "uint256"
                },
                {
                  "internalType": "uint256",
                  "name": "initSqrtPrice",
                  "type": "uint256"
                },
                {
                  "internalType": "uint32",
                  "name": "startTime",
                  "type": "uint32"
                },
                {
                  "internalType": "uint16",
                  "name": "fee",
                  "type": "uint16"
                }
              ],
              "internalType": "struct LibProject.InitalParameterInitialLiquidityVault",
              "name": "initialVaultParams",
              "type": "tuple"
            },
            {
              "components": [
                {
                  "components": [
                    {
                      "internalType": "address",
                      "name": "token0",
                      "type": "address"
                    },
                    {
                      "internalType": "address",
                      "name": "token1",
                      "type": "address"
                    },
                    {
                      "internalType": "uint24",
                      "name": "fee",
                      "type": "uint24"
                    }
                  ],
                  "internalType": "struct LibPool.PoolInfo",
                  "name": "poolParams",
                  "type": "tuple"
                },
                {
                  "components": [
                    {
                      "internalType": "address",
                      "name": "claimer",
                      "type": "address"
                    },
                    {
                      "internalType": "uint256",
                      "name": "totalAllocatedAmount",
                      "type": "uint256"
                    },
                    {
                      "internalType": "uint256",
                      "name": "totalClaimCount",
                      "type": "uint256"
                    },
                    {
                      "internalType": "uint256",
                      "name": "firstClaimAmount",
                      "type": "uint256"
                    },
                    {
                      "internalType": "uint32",
                      "name": "firstClaimTime",
                      "type": "uint32"
                    },
                    {
                      "internalType": "uint32",
                      "name": "secondClaimTime",
                      "type": "uint32"
                    },
                    {
                      "internalType": "uint32",
                      "name": "roundIntervalTime",
                      "type": "uint32"
                    }
                  ],
                  "internalType": "struct LibProject.InitalParameterScheduleVault",
                  "name": "params",
                  "type": "tuple"
                }
              ],
              "internalType": "struct LibProject.InitalParameterLiquidityRewardVault",
              "name": "rewardTonTosPoolParams",
              "type": "tuple"
            },
            {
              "components": [
                {
                  "components": [
                    {
                      "internalType": "address",
                      "name": "token0",
                      "type": "address"
                    },
                    {
                      "internalType": "address",
                      "name": "token1",
                      "type": "address"
                    },
                    {
                      "internalType": "uint24",
                      "name": "fee",
                      "type": "uint24"
                    }
                  ],
                  "internalType": "struct LibPool.PoolInfo",
                  "name": "poolParams",
                  "type": "tuple"
                },
                {
                  "components": [
                    {
                      "internalType": "address",
                      "name": "claimer",
                      "type": "address"
                    },
                    {
                      "internalType": "uint256",
                      "name": "totalAllocatedAmount",
                      "type": "uint256"
                    },
                    {
                      "internalType": "uint256",
                      "name": "totalClaimCount",
                      "type": "uint256"
                    },
                    {
                      "internalType": "uint256",
                      "name": "firstClaimAmount",
                      "type": "uint256"
                    },
                    {
                      "internalType": "uint32",
                      "name": "firstClaimTime",
                      "type": "uint32"
                    },
                    {
                      "internalType": "uint32",
                      "name": "secondClaimTime",
                      "type": "uint32"
                    },
                    {
                      "internalType": "uint32",
                      "name": "roundIntervalTime",
                      "type": "uint32"
                    }
                  ],
                  "internalType": "struct LibProject.InitalParameterScheduleVault",
                  "name": "params",
                  "type": "tuple"
                }
              ],
              "internalType": "struct LibProject.InitalParameterLiquidityRewardVault",
              "name": "rewardProjectTosPoolParams",
              "type": "tuple"
            },
            {
              "components": [
                {
                  "internalType": "address",
                  "name": "claimer",
                  "type": "address"
                },
                {
                  "internalType": "uint256",
                  "name": "totalAllocatedAmount",
                  "type": "uint256"
                },
                {
                  "internalType": "uint256",
                  "name": "totalClaimCount",
                  "type": "uint256"
                },
                {
                  "internalType": "uint256",
                  "name": "firstClaimAmount",
                  "type": "uint256"
                },
                {
                  "internalType": "uint32",
                  "name": "firstClaimTime",
                  "type": "uint32"
                },
                {
                  "internalType": "uint32",
                  "name": "secondClaimTime",
                  "type": "uint32"
                },
                {
                  "internalType": "uint32",
                  "name": "roundIntervalTime",
                  "type": "uint32"
                }
              ],
              "internalType": "struct LibProject.InitalParameterScheduleVault",
              "name": "tosAirdropParams",
              "type": "tuple"
            },
            {
              "components": [
                {
                  "internalType": "address",
                  "name": "claimer",
                  "type": "address"
                },
                {
                  "internalType": "uint256",
                  "name": "totalAllocatedAmount",
                  "type": "uint256"
                },
                {
                  "internalType": "uint256",
                  "name": "totalClaimCount",
                  "type": "uint256"
                },
                {
                  "internalType": "uint256",
                  "name": "firstClaimAmount",
                  "type": "uint256"
                },
                {
                  "internalType": "uint32",
                  "name": "firstClaimTime",
                  "type": "uint32"
                },
                {
                  "internalType": "uint32",
                  "name": "secondClaimTime",
                  "type": "uint32"
                },
                {
                  "internalType": "uint32",
                  "name": "roundIntervalTime",
                  "type": "uint32"
                }
              ],
              "internalType": "struct LibProject.InitalParameterScheduleVault",
              "name": "tonAirdropParams",
              "type": "tuple"
            }
          ],
          "internalType": "struct LibProject.TokamakVaults",
          "name": "tokamakVaults",
          "type": "tuple"
        },
        {
          "components": [
            {
              "internalType": "string",
              "name": "vaultName",
              "type": "string"
            },
            {
              "components": [
                {
                  "internalType": "address",
                  "name": "claimer",
                  "type": "address"
                },
                {
                  "internalType": "uint256",
                  "name": "totalAllocatedAmount",
                  "type": "uint256"
                },
                {
                  "internalType": "uint256",
                  "name": "totalClaimCount",
                  "type": "uint256"
                },
                {
                  "internalType": "uint256",
                  "name": "firstClaimAmount",
                  "type": "uint256"
                },
                {
                  "internalType": "uint32",
                  "name": "firstClaimTime",
                  "type": "uint32"
                },
                {
                  "internalType": "uint32",
                  "name": "secondClaimTime",
                  "type": "uint32"
                },
                {
                  "internalType": "uint32",
                  "name": "roundIntervalTime",
                  "type": "uint32"
                }
              ],
              "internalType": "struct LibProject.InitalParameterScheduleVault",
              "name": "params",
              "type": "tuple"
            }
          ],
          "internalType": "struct LibProject.InitalParameterSchedule[]",
          "name": "customScheduleVaults",
          "type": "tuple[]"
        },
        {
          "components": [
            {
              "internalType": "string",
              "name": "vaultName",
              "type": "string"
            },
            {
              "internalType": "address",
              "name": "claimer",
              "type": "address"
            },
            {
              "internalType": "uint256",
              "name": "totalAllocatedAmount",
              "type": "uint256"
            }
          ],
          "internalType": "struct LibProject.InitalParameterNonScheduleVault[]",
          "name": "customNonScheduleVaults",
          "type": "tuple[]"
        }
      ],
      "name": "distributesL2Token",
      "outputs": [],
      "stateMutability": "nonpayable",
      "type": "function"
    },
    {
      "inputs": [
        {
          "internalType": "address",
          "name": "l1Token",
          "type": "address"
        },
        {
          "internalType": "address",
          "name": "l2Token",
          "type": "address"
        },
        {
          "internalType": "uint256",
          "name": "projectId",
          "type": "uint256"
        },
        {
          "internalType": "uint256",
          "name": "totalAmount",
          "type": "uint256"
        },
        {
          "components": [
            {
              "components": [
                {
                  "components": [
                    {
                      "internalType": "uint256",
                      "name": "stosTier1",
                      "type": "uint256"
                    },
                    {
                      "internalType": "uint256",
                      "name": "stosTier2",
                      "type": "uint256"
                    },
                    {
                      "internalType": "uint256",
                      "name": "stosTier3",
                      "type": "uint256"
                    },
                    {
                      "internalType": "uint256",
                      "name": "stosTier4",
                      "type": "uint256"
                    },
                    {
                      "internalType": "uint256",
                      "name": "tier1Percents",
                      "type": "uint256"
                    },
                    {
                      "internalType": "uint256",
                      "name": "tier2Percents",
                      "type": "uint256"
                    },
                    {
                      "internalType": "uint256",
                      "name": "tier3Percents",
                      "type": "uint256"
                    },
                    {
                      "internalType": "uint256",
                      "name": "tier4Percents",
                      "type": "uint256"
                    },
                    {
                      "internalType": "uint256",
                      "name": "total1roundSaleAmount",
                      "type": "uint256"
                    },
                    {
                      "internalType": "uint256",
                      "name": "total2roundSaleAmount",
                      "type": "uint256"
                    },
                    {
                      "internalType": "uint256",
                      "name": "saleTokenPrice",
                      "type": "uint256"
                    },
                    {
                      "internalType": "uint256",
                      "name": "payTokenPrice",
                      "type": "uint256"
                    },
                    {
                      "internalType": "uint256",
                      "name": "hardcapAmount",
                      "type": "uint256"
                    },
                    {
                      "internalType": "uint256",
                      "name": "changeTOSPercent",
                      "type": "uint256"
                    },
                    {
                      "internalType": "uint256",
                      "name": "startWhiteTime",
                      "type": "uint256"
                    },
                    {
                      "internalType": "uint256",
                      "name": "endWhiteTime",
                      "type": "uint256"
                    },
                    {
                      "internalType": "uint256",
                      "name": "start1roundTime",
                      "type": "uint256"
                    },
                    {
                      "internalType": "uint256",
                      "name": "end1roundTime",
                      "type": "uint256"
                    },
                    {
                      "internalType": "uint256",
                      "name": "snapshotTime",
                      "type": "uint256"
                    },
                    {
                      "internalType": "uint256",
                      "name": "start2roundTime",
                      "type": "uint256"
                    },
                    {
                      "internalType": "uint256",
                      "name": "end2roundTime",
                      "type": "uint256"
                    },
                    {
                      "internalType": "uint256",
                      "name": "claimCounts",
                      "type": "uint256"
                    }
                  ],
                  "internalType": "struct LibProject.InitalParameterPublicSaleVault",
                  "name": "vaultParams",
                  "type": "tuple"
                },
                {
                  "components": [
                    {
                      "internalType": "uint256[]",
                      "name": "claimTimes",
                      "type": "uint256[]"
                    },
                    {
                      "internalType": "uint256[]",
                      "name": "claimPercents",
                      "type": "uint256[]"
                    }
                  ],
                  "internalType": "struct LibProject.InitalParameterPublicSaleClaim",
                  "name": "claimParams",
                  "type": "tuple"
                }
              ],
              "internalType": "struct LibProject.InitalParameterPublicSale",
              "name": "publicSaleParams",
              "type": "tuple"
            },
            {
              "components": [
                {
                  "internalType": "uint256",
                  "name": "totalAllocatedAmount",
                  "type": "uint256"
                },
                {
                  "internalType": "uint256",
                  "name": "tosPrice",
                  "type": "uint256"
                },
                {
                  "internalType": "uint256",
                  "name": "tokenPrice",
                  "type": "uint256"
                },
                {
                  "internalType": "uint256",
                  "name": "initSqrtPrice",
                  "type": "uint256"
                },
                {
                  "internalType": "uint32",
                  "name": "startTime",
                  "type": "uint32"
                },
                {
                  "internalType": "uint16",
                  "name": "fee",
                  "type": "uint16"
                }
              ],
              "internalType": "struct LibProject.InitalParameterInitialLiquidityVault",
              "name": "initialVaultParams",
              "type": "tuple"
            },
            {
              "components": [
                {
                  "components": [
                    {
                      "internalType": "address",
                      "name": "token0",
                      "type": "address"
                    },
                    {
                      "internalType": "address",
                      "name": "token1",
                      "type": "address"
                    },
                    {
                      "internalType": "uint24",
                      "name": "fee",
                      "type": "uint24"
                    }
                  ],
                  "internalType": "struct LibPool.PoolInfo",
                  "name": "poolParams",
                  "type": "tuple"
                },
                {
                  "components": [
                    {
                      "internalType": "address",
                      "name": "claimer",
                      "type": "address"
                    },
                    {
                      "internalType": "uint256",
                      "name": "totalAllocatedAmount",
                      "type": "uint256"
                    },
                    {
                      "internalType": "uint256",
                      "name": "totalClaimCount",
                      "type": "uint256"
                    },
                    {
                      "internalType": "uint256",
                      "name": "firstClaimAmount",
                      "type": "uint256"
                    },
                    {
                      "internalType": "uint32",
                      "name": "firstClaimTime",
                      "type": "uint32"
                    },
                    {
                      "internalType": "uint32",
                      "name": "secondClaimTime",
                      "type": "uint32"
                    },
                    {
                      "internalType": "uint32",
                      "name": "roundIntervalTime",
                      "type": "uint32"
                    }
                  ],
                  "internalType": "struct LibProject.InitalParameterScheduleVault",
                  "name": "params",
                  "type": "tuple"
                }
              ],
              "internalType": "struct LibProject.InitalParameterLiquidityRewardVault",
              "name": "rewardTonTosPoolParams",
              "type": "tuple"
            },
            {
              "components": [
                {
                  "components": [
                    {
                      "internalType": "address",
                      "name": "token0",
                      "type": "address"
                    },
                    {
                      "internalType": "address",
                      "name": "token1",
                      "type": "address"
                    },
                    {
                      "internalType": "uint24",
                      "name": "fee",
                      "type": "uint24"
                    }
                  ],
                  "internalType": "struct LibPool.PoolInfo",
                  "name": "poolParams",
                  "type": "tuple"
                },
                {
                  "components": [
                    {
                      "internalType": "address",
                      "name": "claimer",
                      "type": "address"
                    },
                    {
                      "internalType": "uint256",
                      "name": "totalAllocatedAmount",
                      "type": "uint256"
                    },
                    {
                      "internalType": "uint256",
                      "name": "totalClaimCount",
                      "type": "uint256"
                    },
                    {
                      "internalType": "uint256",
                      "name": "firstClaimAmount",
                      "type": "uint256"
                    },
                    {
                      "internalType": "uint32",
                      "name": "firstClaimTime",
                      "type": "uint32"
                    },
                    {
                      "internalType": "uint32",
                      "name": "secondClaimTime",
                      "type": "uint32"
                    },
                    {
                      "internalType": "uint32",
                      "name": "roundIntervalTime",
                      "type": "uint32"
                    }
                  ],
                  "internalType": "struct LibProject.InitalParameterScheduleVault",
                  "name": "params",
                  "type": "tuple"
                }
              ],
              "internalType": "struct LibProject.InitalParameterLiquidityRewardVault",
              "name": "rewardProjectTosPoolParams",
              "type": "tuple"
            },
            {
              "components": [
                {
                  "internalType": "address",
                  "name": "claimer",
                  "type": "address"
                },
                {
                  "internalType": "uint256",
                  "name": "totalAllocatedAmount",
                  "type": "uint256"
                },
                {
                  "internalType": "uint256",
                  "name": "totalClaimCount",
                  "type": "uint256"
                },
                {
                  "internalType": "uint256",
                  "name": "firstClaimAmount",
                  "type": "uint256"
                },
                {
                  "internalType": "uint32",
                  "name": "firstClaimTime",
                  "type": "uint32"
                },
                {
                  "internalType": "uint32",
                  "name": "secondClaimTime",
                  "type": "uint32"
                },
                {
                  "internalType": "uint32",
                  "name": "roundIntervalTime",
                  "type": "uint32"
                }
              ],
              "internalType": "struct LibProject.InitalParameterScheduleVault",
              "name": "tosAirdropParams",
              "type": "tuple"
            },
            {
              "components": [
                {
                  "internalType": "address",
                  "name": "claimer",
                  "type": "address"
                },
                {
                  "internalType": "uint256",
                  "name": "totalAllocatedAmount",
                  "type": "uint256"
                },
                {
                  "internalType": "uint256",
                  "name": "totalClaimCount",
                  "type": "uint256"
                },
                {
                  "internalType": "uint256",
                  "name": "firstClaimAmount",
                  "type": "uint256"
                },
                {
                  "internalType": "uint32",
                  "name": "firstClaimTime",
                  "type": "uint32"
                },
                {
                  "internalType": "uint32",
                  "name": "secondClaimTime",
                  "type": "uint32"
                },
                {
                  "internalType": "uint32",
                  "name": "roundIntervalTime",
                  "type": "uint32"
                }
              ],
              "internalType": "struct LibProject.InitalParameterScheduleVault",
              "name": "tonAirdropParams",
              "type": "tuple"
            }
          ],
          "internalType": "struct LibProject.TokamakVaults",
          "name": "tokamakVaults",
          "type": "tuple"
        },
        {
          "components": [
            {
              "internalType": "string",
              "name": "vaultName",
              "type": "string"
            },
            {
              "components": [
                {
                  "internalType": "address",
                  "name": "claimer",
                  "type": "address"
                },
                {
                  "internalType": "uint256",
                  "name": "totalAllocatedAmount",
                  "type": "uint256"
                },
                {
                  "internalType": "uint256",
                  "name": "totalClaimCount",
                  "type": "uint256"
                },
                {
                  "internalType": "uint256",
                  "name": "firstClaimAmount",
                  "type": "uint256"
                },
                {
                  "internalType": "uint32",
                  "name": "firstClaimTime",
                  "type": "uint32"
                },
                {
                  "internalType": "uint32",
                  "name": "secondClaimTime",
                  "type": "uint32"
                },
                {
                  "internalType": "uint32",
                  "name": "roundIntervalTime",
                  "type": "uint32"
                }
              ],
              "internalType": "struct LibProject.InitalParameterScheduleVault",
              "name": "params",
              "type": "tuple"
            }
          ],
          "internalType": "struct LibProject.InitalParameterSchedule[]",
          "name": "customScheduleVaults",
          "type": "tuple[]"
        },
        {
          "components": [
            {
              "internalType": "string",
              "name": "vaultName",
              "type": "string"
            },
            {
              "internalType": "address",
              "name": "claimer",
              "type": "address"
            },
            {
              "internalType": "uint256",
              "name": "totalAllocatedAmount",
              "type": "uint256"
            }
          ],
          "internalType": "struct LibProject.InitalParameterNonScheduleVault[]",
          "name": "customNonScheduleVaults",
          "type": "tuple[]"
        }
      ],
      "name": "distributesL2TokenOwner",
      "outputs": [],
      "stateMutability": "nonpayable",
      "type": "function"
    },
    {
      "inputs": [
        {
          "internalType": "bytes32",
          "name": "role",
          "type": "bytes32"
        }
      ],
      "name": "getRoleAdmin",
      "outputs": [
        {
          "internalType": "bytes32",
          "name": "",
          "type": "bytes32"
        }
      ],
      "stateMutability": "view",
      "type": "function"
    },
    {
      "inputs": [
        {
          "internalType": "bytes32",
          "name": "role",
          "type": "bytes32"
        },
        {
          "internalType": "address",
          "name": "account",
          "type": "address"
        }
      ],
      "name": "grantRole",
      "outputs": [],
      "stateMutability": "nonpayable",
      "type": "function"
    },
    {
      "inputs": [
        {
          "internalType": "bytes32",
          "name": "role",
          "type": "bytes32"
        },
        {
          "internalType": "address",
          "name": "account",
          "type": "address"
        }
      ],
      "name": "hasRole",
      "outputs": [
        {
          "internalType": "bool",
          "name": "",
          "type": "bool"
        }
      ],
      "stateMutability": "view",
      "type": "function"
    },
    {
      "inputs": [],
      "name": "initialLiquidityVault",
      "outputs": [
        {
          "internalType": "address",
          "name": "",
          "type": "address"
        }
      ],
      "stateMutability": "view",
      "type": "function"
    },
    {
      "inputs": [
        {
          "internalType": "address",
          "name": "account",
          "type": "address"
        }
      ],
      "name": "isAdmin",
      "outputs": [
        {
          "internalType": "bool",
          "name": "",
          "type": "bool"
        }
      ],
      "stateMutability": "view",
      "type": "function"
    },
    {
      "inputs": [],
      "name": "l1ProjectManager",
      "outputs": [
        {
          "internalType": "address",
          "name": "",
          "type": "address"
        }
      ],
      "stateMutability": "view",
      "type": "function"
    },
    {
      "inputs": [],
      "name": "l2CrossDomainMessenger",
      "outputs": [
        {
          "internalType": "address",
          "name": "",
          "type": "address"
        }
      ],
      "stateMutability": "view",
      "type": "function"
    },
    {
      "inputs": [],
      "name": "l2TokenFactory",
      "outputs": [
        {
          "internalType": "address",
          "name": "",
          "type": "address"
        }
      ],
      "stateMutability": "view",
      "type": "function"
    },
    {
      "inputs": [],
      "name": "liquidityRewardVault",
      "outputs": [
        {
          "internalType": "address",
          "name": "",
          "type": "address"
        }
      ],
      "stateMutability": "view",
      "type": "function"
    },
    {
      "inputs": [],
      "name": "nonScheduleVault",
      "outputs": [
        {
          "internalType": "address",
          "name": "",
          "type": "address"
        }
      ],
      "stateMutability": "view",
      "type": "function"
    },
    {
      "inputs": [],
      "name": "pauseProxy",
      "outputs": [
        {
          "internalType": "bool",
          "name": "",
          "type": "bool"
        }
      ],
      "stateMutability": "view",
      "type": "function"
    },
    {
      "inputs": [
        {
          "internalType": "address",
          "name": "",
          "type": "address"
        }
      ],
      "name": "projects",
      "outputs": [
        {
          "internalType": "uint256",
          "name": "projectId",
          "type": "uint256"
        },
        {
          "internalType": "address",
          "name": "projectOwner",
          "type": "address"
        },
        {
          "internalType": "address",
          "name": "l1Token",
          "type": "address"
        },
        {
          "internalType": "address",
          "name": "l2Token",
          "type": "address"
        },
        {
          "internalType": "string",
          "name": "projectName",
          "type": "string"
        }
      ],
      "stateMutability": "view",
      "type": "function"
    },
    {
      "inputs": [
        {
          "internalType": "uint256",
          "name": "",
          "type": "uint256"
        }
      ],
      "name": "proxyImplementation",
      "outputs": [
        {
          "internalType": "address",
          "name": "",
          "type": "address"
        }
      ],
      "stateMutability": "view",
      "type": "function"
    },
    {
      "inputs": [],
      "name": "publicSaleVault",
      "outputs": [
        {
          "internalType": "address",
          "name": "",
          "type": "address"
        }
      ],
      "stateMutability": "view",
      "type": "function"
    },
    {
      "inputs": [
        {
          "internalType": "address",
          "name": "account",
          "type": "address"
        }
      ],
      "name": "removeAdmin",
      "outputs": [],
      "stateMutability": "nonpayable",
      "type": "function"
    },
    {
      "inputs": [
        {
          "internalType": "bytes32",
          "name": "role",
          "type": "bytes32"
        },
        {
          "internalType": "address",
          "name": "account",
          "type": "address"
        }
      ],
      "name": "renounceRole",
      "outputs": [],
      "stateMutability": "nonpayable",
      "type": "function"
    },
    {
      "inputs": [
        {
          "internalType": "bytes32",
          "name": "role",
          "type": "bytes32"
        },
        {
          "internalType": "address",
          "name": "account",
          "type": "address"
        }
      ],
      "name": "revokeRole",
      "outputs": [],
      "stateMutability": "nonpayable",
      "type": "function"
    },
    {
      "inputs": [],
      "name": "scheduleVault",
      "outputs": [
        {
          "internalType": "address",
          "name": "",
          "type": "address"
        }
      ],
      "stateMutability": "view",
      "type": "function"
    },
    {
      "inputs": [
        {
          "internalType": "bytes4",
          "name": "",
          "type": "bytes4"
        }
      ],
      "name": "selectorImplementation",
      "outputs": [
        {
          "internalType": "address",
          "name": "",
          "type": "address"
        }
      ],
      "stateMutability": "view",
      "type": "function"
    },
    {
      "inputs": [
        {
          "internalType": "address",
          "name": "_l1ProjectManager",
          "type": "address"
        }
      ],
      "name": "setL1ProjectManager",
      "outputs": [],
      "stateMutability": "nonpayable",
      "type": "function"
    },
    {
      "inputs": [
        {
          "internalType": "address",
          "name": "_l2CrossDomainMessenger",
          "type": "address"
        }
      ],
      "name": "setL2CrossDomainMessenger",
      "outputs": [],
      "stateMutability": "nonpayable",
      "type": "function"
    },
    {
      "inputs": [
        {
          "internalType": "address",
          "name": "_l2TokenFactory",
          "type": "address"
        }
      ],
      "name": "setL2TokenFactory",
      "outputs": [],
      "stateMutability": "nonpayable",
      "type": "function"
    },
    {
      "inputs": [
        {
          "internalType": "address",
          "name": "publicSale",
          "type": "address"
        },
        {
          "internalType": "address",
          "name": "initialLiquidity",
          "type": "address"
        },
        {
          "internalType": "address",
          "name": "liquidityReward",
          "type": "address"
        },
        {
          "internalType": "address",
          "name": "tonAirdrop",
          "type": "address"
        },
        {
          "internalType": "address",
          "name": "tosAirdrop",
          "type": "address"
        },
        {
          "internalType": "address",
          "name": "_scheduleVault",
          "type": "address"
        },
        {
          "internalType": "address",
          "name": "_nonScheduleVault",
          "type": "address"
        }
      ],
      "name": "setTokamakVaults",
      "outputs": [],
      "stateMutability": "nonpayable",
      "type": "function"
    },
    {
      "inputs": [
        {
          "internalType": "bytes4",
          "name": "interfaceId",
          "type": "bytes4"
        }
      ],
      "name": "supportsInterface",
      "outputs": [
        {
          "internalType": "bool",
          "name": "",
          "type": "bool"
        }
      ],
      "stateMutability": "view",
      "type": "function"
    },
    {
      "inputs": [
        {
          "internalType": "address",
          "name": "",
          "type": "address"
        }
      ],
      "name": "tokenMaps",
      "outputs": [
        {
          "internalType": "address",
          "name": "",
          "type": "address"
        }
      ],
      "stateMutability": "view",
      "type": "function"
    },
    {
      "inputs": [],
      "name": "tonAirdropVault",
      "outputs": [
        {
          "internalType": "address",
          "name": "",
          "type": "address"
        }
      ],
      "stateMutability": "view",
      "type": "function"
    },
    {
      "inputs": [],
      "name": "tosAirdropVault",
      "outputs": [
        {
          "internalType": "address",
          "name": "",
          "type": "address"
        }
      ],
      "stateMutability": "view",
      "type": "function"
    },
    {
      "inputs": [
        {
          "internalType": "address",
          "name": "newAdmin",
          "type": "address"
        }
      ],
      "name": "transferAdmin",
      "outputs": [],
      "stateMutability": "nonpayable",
      "type": "function"
    },
    {
      "inputs": [
        {
          "internalType": "address",
          "name": "l2token",
          "type": "address"
        }
      ],
      "name": "viewProject",
      "outputs": [
        {
          "components": [
            {
              "internalType": "uint256",
              "name": "projectId",
              "type": "uint256"
            },
            {
              "internalType": "address",
              "name": "projectOwner",
              "type": "address"
            },
            {
              "internalType": "address",
              "name": "l1Token",
              "type": "address"
            },
            {
              "internalType": "address",
              "name": "l2Token",
              "type": "address"
            },
            {
              "internalType": "string",
              "name": "projectName",
              "type": "string"
            }
          ],
          "internalType": "struct LibProject.L2ProjectInfo",
          "name": "",
          "type": "tuple"
        }
      ],
      "stateMutability": "view",
      "type": "function"
    }
  ],
  "transactionHash": "0x8aa23f5a638476066ee06bb6e05e447ef389cdd6f08e71fe9c18c83cd39e6cee",
  "args": [],
  "numDeployments": 9,
  "solcInputHash": "8d54b7ccf656d356eaa1331bf80029c5",
  "bytecode": "0x60806040526005805460ff191660011790553480156200001e57600080fd5b506200003a60008051602062004047833981519152806200005b565b620000556000805160206200404783398151915233620000a6565b6200015a565b600082815260046020526040808220600101805490849055905190918391839186917fbd79b86ffe0ab8e8776151514217cd7cacd52c909f66475c3af44e129f0b00ff9190a4505050565b620000b28282620000b6565b5050565b60008281526004602090815260408083206001600160a01b038516845290915290205460ff16620000b25760008281526004602090815260408083206001600160a01b03851684529091529020805460ff19166001179055620001163390565b6001600160a01b0316816001600160a01b0316837f2f8788117e7eff1d82e926ec794901d17c78024a50270940304540a733656f0d60405160405180910390a45050565b613edd806200016a6000396000f3fe608060405234801561001057600080fd5b50600436106102775760003560e01c806374a9f5c111610160578063c519eeac116100d8578063e748849b1161008c578063eddd5e8211610071578063eddd5e8214610601578063f1a6cc6314610614578063fbef005a1461062757600080fd5b8063e748849b146105ce578063eca7b836146105ee57600080fd5b8063c5b53e68116100bd578063c5b53e681461057f578063d547741f146105a8578063dfb28354146105bb57600080fd5b8063c519eeac14610559578063c51c773a1461056c57600080fd5b80638d96ff301161012f578063a217fddf11610114578063a217fddf14610515578063b911135f1461051d578063bb3f397a1461054657600080fd5b80638d96ff30146104c957806391d14854146104dc57600080fd5b806374a9f5c11461045357806375829def1461046b57806375b238fc1461047e578063840e78fd146104a557600080fd5b8063425d7058116101f35780635f214430116101c25780636e53f427116101a75780636e53f4271461041a5780636e6e85731461042d578063704802751461044057600080fd5b80635f214430146103fa57806363a8fd891461040d57600080fd5b8063425d7058146103885780634bc4447b1461039b57806350d2a276146103ae578063550d01a3146103d757600080fd5b806324d7806c1161024a5780632c8917c81161022f5780632c8917c81461034f5780632f2ff15d1461036257806336568abe1461037557600080fd5b806324d7806c146103115780632966c4dd1461032457600080fd5b806301ffc9a71461027c5780631785f53c146102a457806322985246146102b9578063248a9ca3146102ee575b600080fd5b61028f61028a366004612d50565b61063a565b60405190151581526020015b60405180910390f35b6102b76102b2366004612d8f565b610671565b005b6102e07ffb5864e8ff833c3cb2d2d08505e82ff02a43554c74a35d4f5a64e8526127831181565b60405190815260200161029b565b6102e06102fc366004612dac565b60009081526004602052604090206001015490565b61028f61031f366004612d8f565b610703565b600a54610337906001600160a01b031681565b6040516001600160a01b03909116815260200161029b565b600854610337906001600160a01b031681565b6102b7610370366004612dc5565b610743565b6102b7610383366004612dc5565b61076d565b6102b7610396366004612df5565b6107f9565b6102b76103a9366004612d8f565b610a8d565b6103376103bc366004612d50565b6003602052600090815260409020546001600160a01b031681565b61028f6103e5366004612d8f565b60026020526000908152604090205460ff1681565b6102b7610408366004612d8f565b610b92565b60005461028f9060ff1681565b600b54610337906001600160a01b031681565b600e54610337906001600160a01b031681565b6102b761044e366004612d8f565b610caf565b6005546103379061010090046001600160a01b031681565b6102b7610479366004612d8f565b610d39565b6102e07fdf8b4c520ffe197c5343c6f5aec59570151ef9a492f2c624fd45ddde6135ec4281565b6104b86104b3366004612d8f565b610e9b565b60405161029b959493929190612eed565b6102b76104d73660046136a0565b610f62565b61028f6104ea366004612dc5565b60009182526004602090815260408084206001600160a01b0393909316845291905290205460ff1690565b6102e0600081565b61033761052b366004612dac565b6001602052600090815260409020546001600160a01b031681565b6102b7610554366004612d8f565b611154565b600d54610337906001600160a01b031681565b600954610337906001600160a01b031681565b61033761058d366004612d8f565b6010602052600090815260409020546001600160a01b031681565b6102b76105b6366004612dc5565b611259565b6102b76105c9366004613761565b61127e565b6105e16105dc366004612d8f565b6114cb565b60405161029b91906137f7565b600c54610337906001600160a01b031681565b600654610337906001600160a01b031681565b6102b76106223660046136a0565b611608565b600754610337906001600160a01b031681565b60006001600160e01b03198216637965db0b60e01b148061066b57506301ffc9a760e01b6001600160e01b03198316145b92915050565b61067a33610703565b6106d65760405162461bcd60e51b815260206004820152602260248201527f41636365737369626c653a2043616c6c6572206973206e6f7420616e2061646d60448201526134b760f11b60648201526084015b60405180910390fd5b6107007fdf8b4c520ffe197c5343c6f5aec59570151ef9a492f2c624fd45ddde6135ec428261076d565b50565b6001600160a01b03811660009081527f2fb794d17134dfdec181ddbac1babb5ab1eb140204ef4d982f294e7fc8b69022602052604081205460ff1661066b565b60008281526004602052604090206001015461075e81611758565b6107688383611762565b505050565b6001600160a01b03811633146107eb5760405162461bcd60e51b815260206004820152602f60248201527f416363657373436f6e74726f6c3a2063616e206f6e6c792072656e6f756e636560448201527f20726f6c657320666f722073656c66000000000000000000000000000000000060648201526084016106cd565b6107f58282611804565b5050565b6006546001600160a01b03161580159061081d57506006546001600160a01b031633145b6108695760405162461bcd60e51b815260206004820152601c60248201527f63616c6c6572206973206e6f74206c32546f6b656e466163746f72790000000060448201526064016106cd565b60008190036108ba5760405162461bcd60e51b815260206004820152601360248201527f70726f6a6563744e616d65206973206e756c6c0000000000000000000000000060448201526064016106cd565b6001600160a01b038381166000908152600f602052604090206002015416156109255760405162461bcd60e51b815260206004820152600d60248201527f616c72656164792061646465640000000000000000000000000000000000000060448201526064016106cd565b6040518060a0016040528060008152602001866001600160a01b03168152602001856001600160a01b03168152602001846001600160a01b0316815260200183838080601f01602080910402602001604051908101604052809392919081815260200183838082843760009201829052509390945250506001600160a01b038087168252600f602090815260409283902085518155908501516001820180549184166001600160a01b031992831617905592850151600282018054918416918516919091179055606085015160038201805491909316931692909217905560808301519091506004820190610a1a90826138db565b5050506001600160a01b038481166000818152601060205260409081902080546001600160a01b0319169387169384179055517f665c02e22efe28364a081a633646b8db53de75e45491bbd51cb302f6e1ab3a2190610a7e9089908790879061399b565b60405180910390a35050505050565b806001600160a01b038116610ac95760405162461bcd60e51b81526020600482015260026024820152612d1960f11b60448201526064016106cd565b610ad233610703565b610b295760405162461bcd60e51b815260206004820152602260248201527f41636365737369626c653a2043616c6c6572206973206e6f7420616e2061646d60448201526134b760f11b60648201526084016106cd565b6007546001600160a01b03808416911603610b6f5760405162461bcd60e51b81526004016106cd9060208082526004908201526373616d6560e01b604082015260600190565b50600780546001600160a01b0319166001600160a01b0392909216919091179055565b806001600160a01b038116610bce5760405162461bcd60e51b81526020600482015260026024820152612d1960f11b60448201526064016106cd565b610bd733610703565b610c2e5760405162461bcd60e51b815260206004820152602260248201527f41636365737369626c653a2043616c6c6572206973206e6f7420616e2061646d60448201526134b760f11b60648201526084016106cd565b6005546001600160a01b038084166101009092041603610c795760405162461bcd60e51b81526004016106cd9060208082526004908201526373616d6560e01b604082015260600190565b50600580546001600160a01b039092166101000274ffffffffffffffffffffffffffffffffffffffff0019909216919091179055565b610cb833610703565b610d0f5760405162461bcd60e51b815260206004820152602260248201527f41636365737369626c653a2043616c6c6572206973206e6f7420616e2061646d60448201526134b760f11b60648201526084016106cd565b6107007fdf8b4c520ffe197c5343c6f5aec59570151ef9a492f2c624fd45ddde6135ec4282610743565b610d4233610703565b610d995760405162461bcd60e51b815260206004820152602260248201527f41636365737369626c653a2043616c6c6572206973206e6f7420616e2061646d60448201526134b760f11b60648201526084016106cd565b6001600160a01b038116610def5760405162461bcd60e51b815260206004820152601860248201527f41636365737369626c653a207a65726f2061646472657373000000000000000060448201526064016106cd565b6001600160a01b0381163303610e475760405162461bcd60e51b815260206004820152601660248201527f41636365737369626c653a2073616d652061646d696e0000000000000000000060448201526064016106cd565b610e717fdf8b4c520ffe197c5343c6f5aec59570151ef9a492f2c624fd45ddde6135ec4282610743565b6107007fdf8b4c520ffe197c5343c6f5aec59570151ef9a492f2c624fd45ddde6135ec423361076d565b600f602052600090815260409020805460018201546002830154600384015460048501805494956001600160a01b03948516959385169490921692610edf90613853565b80601f0160208091040260200160405190810160405280929190818152602001828054610f0b90613853565b8015610f585780601f10610f2d57610100808354040283529160200191610f58565b820191906000526020600020905b815481529060010190602001808311610f3b57829003601f168201915b5050505050905085565b6007546001600160a01b031633148015610ffc575060055460075460408051636e296e4560e01b815290516101009093046001600160a01b0390811693921691636e296e45916004808201926020929091908290030181865afa158015610fcd573d6000803e3d6000fd5b505050506040513d601f19601f82011682018060405250810190610ff191906139da565b6001600160a01b0316145b6110545760405162461bcd60e51b8152602060048201526024808201527f6e6f74206f6e6c794d657373656e676572416e644c3150726f6a6563744d616e60448201526330b3b2b960e11b60648201526084016106cd565b866001600160a01b0381166110905760405162461bcd60e51b81526020600482015260026024820152612d1960f11b60448201526064016106cd565b866001600160a01b0381166110cc5760405162461bcd60e51b81526020600482015260026024820152612d1960f11b60448201526064016106cd565b86806000036111025760405162461bcd60e51b81526020600482015260026024820152615a3160f01b60448201526064016106cd565b86806000036111385760405162461bcd60e51b81526020600482015260026024820152615a3160f01b60448201526064016106cd565b6111478b8b8b8b8b8b8b611887565b5050505050505050505050565b806001600160a01b0381166111905760405162461bcd60e51b81526020600482015260026024820152612d1960f11b60448201526064016106cd565b61119933610703565b6111f05760405162461bcd60e51b815260206004820152602260248201527f41636365737369626c653a2043616c6c6572206973206e6f7420616e2061646d60448201526134b760f11b60648201526084016106cd565b6006546001600160a01b038084169116036112365760405162461bcd60e51b81526004016106cd9060208082526004908201526373616d6560e01b604082015260600190565b50600680546001600160a01b0319166001600160a01b0392909216919091179055565b60008281526004602052604090206001015461127481611758565b6107688383611804565b61128733610703565b6112de5760405162461bcd60e51b815260206004820152602260248201527f41636365737369626c653a2043616c6c6572206973206e6f7420616e2061646d60448201526134b760f11b60648201526084016106cd565b856001600160a01b03811661131a5760405162461bcd60e51b81526020600482015260026024820152612d1960f11b60448201526064016106cd565b856001600160a01b0381166113565760405162461bcd60e51b81526020600482015260026024820152612d1960f11b60448201526064016106cd565b846001600160a01b0381166113925760405162461bcd60e51b81526020600482015260026024820152612d1960f11b60448201526064016106cd565b866001600160a01b0381166113ce5760405162461bcd60e51b81526020600482015260026024820152612d1960f11b60448201526064016106cd565b856001600160a01b03811661140a5760405162461bcd60e51b81526020600482015260026024820152612d1960f11b60448201526064016106cd565b856001600160a01b0381166114465760405162461bcd60e51b81526020600482015260026024820152612d1960f11b60448201526064016106cd565b5050600880546001600160a01b03199081166001600160a01b039d8e16179091556009805482169b8d169b909b17909a555050600a80548916978a169790971790965550600b8054871694881694909417909355600c8054861692871692909217909155600d80548516918616919091179055600e8054909316931692909217905550565b6115186040518060a001604052806000815260200160006001600160a01b0316815260200160006001600160a01b0316815260200160006001600160a01b03168152602001606081525090565b6001600160a01b038083166000908152600f6020908152604091829020825160a08101845281548152600182015485169281019290925260028101548416928201929092526003820154909216606083015260048101805460808401919061157f90613853565b80601f01602080910402602001604051908101604052809291908181526020018280546115ab90613853565b80156115f85780601f106115cd576101008083540402835291602001916115f8565b820191906000526020600020905b8154815290600101906020018083116115db57829003601f168201915b5050505050815250509050919050565b866001600160a01b0381166116445760405162461bcd60e51b81526020600482015260026024820152612d1960f11b60448201526064016106cd565b866001600160a01b0381166116805760405162461bcd60e51b81526020600482015260026024820152612d1960f11b60448201526064016106cd565b86806000036116b65760405162461bcd60e51b81526020600482015260026024820152615a3160f01b60448201526064016106cd565b86806000036116ec5760405162461bcd60e51b81526020600482015260026024820152615a3160f01b60448201526064016106cd565b6001600160a01b038a81166000908152600f60205260409020600101541633146111385760405162461bcd60e51b815260206004820152601060248201527f6e6f742070726f6a6563744f776e65720000000000000000000000000000000060448201526064016106cd565b6107008133612a08565b60008281526004602090815260408083206001600160a01b038516845290915290205460ff166107f55760008281526004602090815260408083206001600160a01b03851684529091529020805460ff191660011790556117c03390565b6001600160a01b0316816001600160a01b0316837f2f8788117e7eff1d82e926ec794901d17c78024a50270940304540a733656f0d60405160405180910390a45050565b60008281526004602090815260408083206001600160a01b038516845290915290205460ff16156107f55760008281526004602090815260408083206001600160a01b0385168085529252808320805460ff1916905551339285917ff6391f5c32d9c69d2a47ea670b442974b53935d1edc7fd64eb21e047a839171b9190a45050565b6001600160a01b038087166000908152600f60209081526040808320815160a081018352815481526001820154861693810193909352600281015485169183019190915260038101549093166060820152600483018054929391926080840191906118f190613853565b80601f016020809104026020016040519081016040528092919081815260200182805461191d90613853565b801561196a5780601f1061193f5761010080835404028352916020019161196a565b820191906000526020600020905b81548152906001019060200180831161194d57829003601f168201915b5050505050815250509050876001600160a01b031681604001516001600160a01b0316146119da5760405162461bcd60e51b815260206004820152601360248201527f6e6f74206d617463686564206c31546f6b656e0000000000000000000000000060448201526064016106cd565b866001600160a01b031681606001516001600160a01b031614611a3f5760405162461bcd60e51b815260206004820152601360248201527f6e6f74206d617463686564206c32546f6b656e0000000000000000000000000060448201526064016106cd565b83515161012081015161010090910151600091611a5b91613a0d565b905060008560a0015160200151866080015160200151876060015160200151602001518860400151602001516020015189602001516000015186611a9f9190613a0d565b611aa99190613a0d565b611ab39190613a0d565b611abd9190613a0d565b611ac79190613a0d565b905060008060005b8751811015611b1957878181518110611aea57611aea613a20565b6020026020010151602001516020015183611b059190613a0d565b925080611b1181613a36565b915050611acf565b5060005b8651811015611b6357868181518110611b3857611b38613a20565b60200260200101516040015182611b4f9190613a0d565b915080611b5b81613a36565b915050611b1d565b50611b6e8183613a0d565b611b789084613a0d565b9250888314611bc95760405162461bcd60e51b815260206004820152601760248201527f6e6f74206d61746368656420746f74616c416d6f756e7400000000000000000060448201526064016106cd565b6040516370a0823160e01b81523060048201526001600160a01b038c16906370a0823190602401602060405180830381865afa158015611c0d573d6000803e3d6000fd5b505050506040513d601f19601f82011682018060405250810190611c319190613a4f565b891115611c805760405162461bcd60e51b815260206004820152601460248201527f696e73756666696369656e742062616c616e636500000000000000000000000060448201526064016106cd565b6060850180516001600160a01b039081166000908152600f602052604090208c90559051600854611cb2921686612a7d565b606085015160095460208a015151611cd492916001600160a01b031690612a7d565b606080860151600a54918a015160209081015181015160408c015182015190910151611d12936001600160a01b031691611d0d91613a0d565b612a7d565b6060850151600b5460a08a015160200151611d3792916001600160a01b031690612a7d565b6060850151600c5460808a015160200151611d5c92916001600160a01b031690612a7d565b8315611e425760085460608601516020870151604051631adcd63360e11b81526001600160a01b03928316600482015290821660248201529116906335b9ac6690604401600060405180830381600087803b158015611dba57600080fd5b505af1158015611dce573d6000803e3d6000fd5b505060085460608801518b5180516020909101516040516352bc80bd60e01b81526001600160a01b0390941695506352bc80bd9450611e0f93600401613ada565b600060405180830381600087803b158015611e2957600080fd5b505af1158015611e3d573d6000803e3d6000fd5b505050505b60208801515115611fee57600954606086015160208701516040516328f40a9560e11b81526001600160a01b03928316600482015290821660248201529116906351e8152a90604401602060405180830381865afa158015611ea8573d6000803e3d6000fd5b505050506040513d601f19601f82011682018060405250810190611ecc9190613c1c565b611f415760095460608601516020870151604051631adcd63360e11b81526001600160a01b03928316600482015290821660248201529116906335b9ac6690604401600060405180830381600087803b158015611f2857600080fd5b505af1158015611f3c573d6000803e3d6000fd5b505050505b60095460608681015160208b81015160408051632215f6f360e11b81526001600160a01b039485166004820152825160248201529282015160448401528101516064830152928301516084820152608083015163ffffffff1660a482015260a09092015161ffff1660c48301529091169063442bede69060e401600060405180830381600087803b158015611fd557600080fd5b505af1158015611fe9573d6000803e3d6000fd5b505050505b8760400151602001516020015160001461218057600a54606086015160208701516040516328f40a9560e11b81526001600160a01b03928316600482015290821660248201529116906351e8152a90604401602060405180830381865afa15801561205d573d6000803e3d6000fd5b505050506040513d601f19601f820116820180604052508101906120819190613c1c565b6120f657600a5460608601516020870151604051631adcd63360e11b81526001600160a01b03928316600482015290821660248201529116906335b9ac6690604401600060405180830381600087803b1580156120dd57600080fd5b505af11580156120f1573d6000803e3d6000fd5b505050505b600088604001519050600a60009054906101000a90046001600160a01b03166001600160a01b03166317bc6a728d836000015184602001516040518463ffffffff1660e01b815260040161214c93929190613c3e565b600060405180830381600087803b15801561216657600080fd5b505af115801561217a573d6000803e3d6000fd5b50505050505b8760600151602001516020015160001461231257600a54606086015160208701516040516328f40a9560e11b81526001600160a01b03928316600482015290821660248201529116906351e8152a90604401602060405180830381865afa1580156121ef573d6000803e3d6000fd5b505050506040513d601f19601f820116820180604052508101906122139190613c1c565b61228857600a5460608601516020870151604051631adcd63360e11b81526001600160a01b03928316600482015290821660248201529116906335b9ac6690604401600060405180830381600087803b15801561226f57600080fd5b505af1158015612283573d6000803e3d6000fd5b505050505b600088606001519050600a60009054906101000a90046001600160a01b03166001600160a01b03166317bc6a728d836000015184602001516040518463ffffffff1660e01b81526004016122de93929190613c3e565b600060405180830381600087803b1580156122f857600080fd5b505af115801561230c573d6000803e3d6000fd5b50505050505b6080880151602001511561248157600c54606086015160208701516040516328f40a9560e11b81526001600160a01b03928316600482015290821660248201529116906351e8152a90604401602060405180830381865afa15801561237b573d6000803e3d6000fd5b505050506040513d601f19601f8201168201806040525081019061239f9190613c1c565b61241457600c5460608601516020870151604051631adcd63360e11b81526001600160a01b03928316600482015290821660248201529116906335b9ac6690604401600060405180830381600087803b1580156123fb57600080fd5b505af115801561240f573d6000803e3d6000fd5b505050505b600c54606086015160808a01516040516356a6192d60e11b81526001600160a01b039093169263ad4c325a9261244e929091600401613cdc565b600060405180830381600087803b15801561246857600080fd5b505af115801561247c573d6000803e3d6000fd5b505050505b60a088015160200151156125f057600b54606086015160208701516040516328f40a9560e11b81526001600160a01b03928316600482015290821660248201529116906351e8152a90604401602060405180830381865afa1580156124ea573d6000803e3d6000fd5b505050506040513d601f19601f8201168201806040525081019061250e9190613c1c565b61258357600b5460608601516020870151604051631adcd63360e11b81526001600160a01b03928316600482015290821660248201529116906335b9ac6690604401600060405180830381600087803b15801561256a57600080fd5b505af115801561257e573d6000803e3d6000fd5b505050505b600b54606086015160a08a01516040516356a6192d60e11b81526001600160a01b039093169263ad4c325a926125bd929091600401613cdc565b600060405180830381600087803b1580156125d757600080fd5b505af11580156125eb573d6000803e3d6000fd5b505050505b8982156127c757600d54606087015160208801516040516328f40a9560e11b81526001600160a01b03928316600482015290821660248201529116906351e8152a90604401602060405180830381865afa158015612652573d6000803e3d6000fd5b505050506040513d601f19601f820116820180604052508101906126769190613c1c565b6126eb57600d5460608701516020880151604051631adcd63360e11b81526001600160a01b03928316600482015290821660248201529116906335b9ac6690604401600060405180830381600087803b1580156126d257600080fd5b505af11580156126e6573d6000803e3d6000fd5b505050505b60005b88518110156127c557600089828151811061270b5761270b613a20565b602002602001015190506127418860600151600d60009054906101000a90046001600160a01b0316836020015160200151612a7d565b600d5460608901518251602084015160405163baf6ce1f60e01b81526001600160a01b039094169363baf6ce1f9361277f9390929091600401613d50565b600060405180830381600087803b15801561279957600080fd5b505af11580156127ad573d6000803e3d6000fd5b505050505080806127bd90613a36565b9150506126ee565b505b81156129a057600e54606087015160208801516040516328f40a9560e11b81526001600160a01b03928316600482015290821660248201529116906351e8152a90604401602060405180830381865afa158015612828573d6000803e3d6000fd5b505050506040513d601f19601f8201168201806040525081019061284c9190613c1c565b6128c157600e5460608701516020880151604051631adcd63360e11b81526001600160a01b03928316600482015290821660248201529116906335b9ac6690604401600060405180830381600087803b1580156128a857600080fd5b505af11580156128bc573d6000803e3d6000fd5b505050505b60005b875181101561299e5760008882815181106128e1576128e1613a20565b602002602001015190506129138860600151600e60009054906101000a90046001600160a01b03168360400151612a7d565b600e54606089015182516020840151604080860151905163021a440560e01b81526001600160a01b039095169463021a44059461295894909390929091600401613dd9565b600060405180830381600087803b15801561297257600080fd5b505af1158015612986573d6000803e3d6000fd5b5050505050808061299690613a36565b9150506128c4565b505b60408681015160608089015183516001600160a01b03938416815292166020830152818301849052810186905290517fc09fbebfef0054b64085d21310e8621dd22206fc0a44cedfa0a2f0fa5b97f7199181900360800190a150505050505050505050505050565b60008281526004602090815260408083206001600160a01b038516845290915290205460ff166107f557612a3b81612b8e565b612a46836020612ba0565b604051602001612a57929190613e0e565b60408051601f198184030181529082905262461bcd60e51b82526106cd91600401613e8f565b6001600160a01b03821615801590612a9457508015155b8015612b105750604051636eb1769f60e11b81523060048201526001600160a01b03838116602483015282919085169063dd62ed3e90604401602060405180830381865afa158015612aea573d6000803e3d6000fd5b505050506040513d601f19601f82011682018060405250810190612b0e9190613a4f565b105b156107685760405163095ea7b360e01b81526001600160a01b0383811660048301526024820183905284169063095ea7b3906044016020604051808303816000875af1158015612b64573d6000803e3d6000fd5b505050506040513d601f19601f82011682018060405250810190612b889190613c1c565b50505050565b606061066b6001600160a01b03831660145b60606000612baf836002613ea2565b612bba906002613a0d565b67ffffffffffffffff811115612bd257612bd2612f32565b6040519080825280601f01601f191660200182016040528015612bfc576020820181803683370190505b509050600360fc1b81600081518110612c1757612c17613a20565b60200101906001600160f81b031916908160001a905350600f60fb1b81600181518110612c4657612c46613a20565b60200101906001600160f81b031916908160001a9053506000612c6a846002613ea2565b612c75906001613a0d565b90505b6001811115612cfa577f303132333435363738396162636465660000000000000000000000000000000085600f1660108110612cb657612cb6613a20565b1a60f81b828281518110612ccc57612ccc613a20565b60200101906001600160f81b031916908160001a90535060049490941c93612cf381613eb9565b9050612c78565b508315612d495760405162461bcd60e51b815260206004820181905260248201527f537472696e67733a20686578206c656e67746820696e73756666696369656e7460448201526064016106cd565b9392505050565b600060208284031215612d6257600080fd5b81356001600160e01b031981168114612d4957600080fd5b6001600160a01b038116811461070057600080fd5b600060208284031215612da157600080fd5b8135612d4981612d7a565b600060208284031215612dbe57600080fd5b5035919050565b60008060408385031215612dd857600080fd5b823591506020830135612dea81612d7a565b809150509250929050565b600080600080600060808688031215612e0d57600080fd5b8535612e1881612d7a565b94506020860135612e2881612d7a565b93506040860135612e3881612d7a565b9250606086013567ffffffffffffffff80821115612e5557600080fd5b818801915088601f830112612e6957600080fd5b813581811115612e7857600080fd5b896020828501011115612e8a57600080fd5b9699959850939650602001949392505050565b60005b83811015612eb8578181015183820152602001612ea0565b50506000910152565b60008151808452612ed9816020860160208601612e9d565b601f01601f19169290920160200192915050565b85815260006001600160a01b038087166020840152808616604084015280851660608401525060a06080830152612f2760a0830184612ec1565b979650505050505050565b634e487b7160e01b600052604160045260246000fd5b6040805190810167ffffffffffffffff81118282101715612f6b57612f6b612f32565b60405290565b6040516102c0810167ffffffffffffffff81118282101715612f6b57612f6b612f32565b60405160c0810167ffffffffffffffff81118282101715612f6b57612f6b612f32565b6040516060810167ffffffffffffffff81118282101715612f6b57612f6b612f32565b604051601f8201601f1916810167ffffffffffffffff8111828210171561300457613004612f32565b604052919050565b600067ffffffffffffffff82111561302657613026612f32565b5060051b60200190565b600082601f83011261304157600080fd5b813560206130566130518361300c565b612fdb565b82815260059290921b8401810191818101908684111561307557600080fd5b8286015b848110156130905780358352918301918301613079565b509695505050505050565b6000604082840312156130ad57600080fd5b6130b5612f48565b9050813567ffffffffffffffff808211156130cf57600080fd5b6130db85838601613030565b835260208401359150808211156130f157600080fd5b506130fe84828501613030565b60208301525092915050565b803563ffffffff8116811461311e57600080fd5b919050565b600060c0828403121561313557600080fd5b61313d612f95565b90508135815260208201356020820152604082013560408201526060820135606082015261316d6080830161310a565b608082015260a082013561ffff8116811461318757600080fd5b60a082015292915050565b600060e082840312156131a457600080fd5b60405160e0810181811067ffffffffffffffff821117156131c7576131c7612f32565b60405290508082356131d881612d7a565b808252506020830135602082015260408301356040820152606083013560608201526132066080840161310a565b608082015261321760a0840161310a565b60a082015261322860c0840161310a565b60c08201525092915050565b600081830361014081121561324857600080fd5b613250612f48565b9150606081121561326057600080fd5b50613269612fb8565b823561327481612d7a565b8152602083013561328481612d7a565b6020820152604083013562ffffff8116811461329f57600080fd5b604082015281526132b38360608401613192565b602082015292915050565b600061052082840312156132d157600080fd5b6132d9612f95565b9050813567ffffffffffffffff808211156132f357600080fd5b908301908185036102e081121561330957600080fd5b613311612f48565b6102c08083121561332157600080fd5b613329612f71565b853581526020808701359082015260408087013590820152606080870135908201526080808701359082015260a0808701359082015260c0808701359082015260e08087013590820152610100808701359082015261012080870135908201526101408087013590820152610160808701359082015261018080870135908201526101a080870135908201526101c080870135908201526101e08087013590820152610200808701359082015261022080870135818301526102408088013590830152610260808801359083015261028080880135908301526102a080880135908301529083528186013593508484111561342357600080fd5b61342f8985880161309b565b60208401528287526134448960208a01613123565b60208801526134568960e08a01613234565b604088015261346789828a01613234565b6060880152505050505050613480836103608401613192565b6080820152613187836104408401613192565b600082601f8301126134a457600080fd5b813567ffffffffffffffff8111156134be576134be612f32565b6134d1601f8201601f1916602001612fdb565b8181528460208386010111156134e657600080fd5b816020850160208301376000918101602001919091529392505050565b600082601f83011261351457600080fd5b813560206135246130518361300c565b82815260059290921b8401810191818101908684111561354357600080fd5b8286015b8481101561309057803567ffffffffffffffff808211156135685760008081fd5b90880190610100828b03601f190112156135825760008081fd5b61358a612f48565b868301358281111561359c5760008081fd5b6135aa8c8983870101613493565b8252506135ba8b60408501613192565b8188015285525050918301918301613547565b600082601f8301126135de57600080fd5b813560206135ee6130518361300c565b82815260059290921b8401810191818101908684111561360d57600080fd5b8286015b8481101561309057803567ffffffffffffffff808211156136325760008081fd5b908801906060828b03601f190181131561364c5760008081fd5b613654612fb8565b87840135838111156136665760008081fd5b6136748d8a83880101613493565b825250604092508284013561368881612d7a565b81890152920135908201528352918301918301613611565b600080600080600080600060e0888a0312156136bb57600080fd5b87356136c681612d7a565b965060208801356136d681612d7a565b95506040880135945060608801359350608088013567ffffffffffffffff8082111561370157600080fd5b61370d8b838c016132be565b945060a08a013591508082111561372357600080fd5b61372f8b838c01613503565b935060c08a013591508082111561374557600080fd5b506137528a828b016135cd565b91505092959891949750929550565b600080600080600080600060e0888a03121561377c57600080fd5b873561378781612d7a565b9650602088013561379781612d7a565b955060408801356137a781612d7a565b945060608801356137b781612d7a565b935060808801356137c781612d7a565b925060a08801356137d781612d7a565b915060c08801356137e781612d7a565b8091505092959891949750929550565b6020815281516020820152600060208301516001600160a01b0380821660408501528060408601511660608501528060608601511660808501525050608083015160a08084015261384b60c0840182612ec1565b949350505050565b600181811c9082168061386757607f821691505b60208210810361388757634e487b7160e01b600052602260045260246000fd5b50919050565b601f82111561076857600081815260208120601f850160051c810160208610156138b45750805b601f850160051c820191505b818110156138d3578281556001016138c0565b505050505050565b815167ffffffffffffffff8111156138f5576138f5612f32565b613909816139038454613853565b8461388d565b602080601f83116001811461393e57600084156139265750858301515b600019600386901b1c1916600185901b1785556138d3565b600085815260208120601f198616915b8281101561396d5788860151825594840194600190910190840161394e565b508582101561398b5787850151600019600388901b60f8161c191681555b5050505050600190811b01905550565b6001600160a01b038416815260406020820152816040820152818360608301376000818301606090810191909152601f909201601f1916010192915050565b6000602082840312156139ec57600080fd5b8151612d4981612d7a565b634e487b7160e01b600052601160045260246000fd5b8082018082111561066b5761066b6139f7565b634e487b7160e01b600052603260045260246000fd5b600060018201613a4857613a486139f7565b5060010190565b600060208284031215613a6157600080fd5b5051919050565b600081518084526020808501945080840160005b83811015613a9857815187529582019590820190600101613a7c565b509495945050505050565b6000815160408452613ab86040850182613a68565b905060208301518482036020860152613ad18282613a68565b95945050505050565b6001600160a01b0384168152825160208083019190915283015160408083019190915283015160608083019190915283015160808083019190915283015160a08083019190915283015160c08083019190915283015160e08083019190915283015161010080830191909152830151610120808301919091528301516101408083019190915283015161016080830191909152830151610180808301919091528301516101a0808301919091528301516101c0808301919091528301516101e08083019190915283015161020080830191909152830151610220808301919091528301516102408083019190915283015161026080830191909152830151610280808301919091528301516102a0808301919091528301516102c08201526103006102e08201819052600090613c1283820185613aa3565b9695505050505050565b600060208284031215613c2e57600080fd5b81518015158114612d4957600080fd5b6000610160820190506001600160a01b0380861683528085511660208401528060208601511660408401525062ffffff604085015116606083015261384b60808301846001600160a01b038151168252602081015160208301526040810151604083015260608101516060830152608081015163ffffffff80821660808501528060a08401511660a08501528060c08401511660c085015250505050565b6001600160a01b03831681526101008101612d4960208301846001600160a01b038151168252602081015160208301526040810151604083015260608101516060830152608081015163ffffffff80821660808501528060a08401511660a08501528060c08401511660c085015250505050565b60006101206001600160a01b0386168352806020840152613d7381840186612ec1565b91505061384b60408301846001600160a01b038151168252602081015160208301526040810151604083015260608101516060830152608081015163ffffffff80821660808501528060a08401511660a08501528060c08401511660c085015250505050565b60006001600160a01b03808716835260806020840152613dfc6080840187612ec1565b94166040830152506060015292915050565b7f416363657373436f6e74726f6c3a206163636f756e7420000000000000000000815260008351613e46816017850160208801612e9d565b7f206973206d697373696e6720726f6c65200000000000000000000000000000006017918401918201528351613e83816028840160208801612e9d565b01602801949350505050565b602081526000612d496020830184612ec1565b808202811582820484141761066b5761066b6139f7565b600081613ec857613ec86139f7565b50600019019056fea164736f6c6343000812000adf8b4c520ffe197c5343c6f5aec59570151ef9a492f2c624fd45ddde6135ec42",
  "devdoc": {
    "events": {
      "RoleAdminChanged(bytes32,bytes32,bytes32)": {
        "details": "Emitted when `newAdminRole` is set as ``role``'s admin role, replacing `previousAdminRole` `DEFAULT_ADMIN_ROLE` is the starting admin for all roles, despite {RoleAdminChanged} not being emitted signaling this. _Available since v3.1._"
      },
      "RoleGranted(bytes32,address,address)": {
        "details": "Emitted when `account` is granted `role`. `sender` is the account that originated the contract call, an admin role bearer except when using {AccessControl-_setupRole}."
      },
      "RoleRevoked(bytes32,address,address)": {
        "details": "Emitted when `account` is revoked `role`. `sender` is the account that originated the contract call:   - if using `revokeRole`, it is the admin role bearer   - if using `renounceRole`, it is the role bearer (i.e. `account`)"
      }
    },
    "kind": "dev",
    "methods": {
      "addAdmin(address)": {
        "details": "add admin",
        "params": {
          "account": "address to add"
        }
      },
      "createL2Project(address,address,address,string)": {
        "details": " "
      },
      "getRoleAdmin(bytes32)": {
        "details": "Returns the admin role that controls `role`. See {grantRole} and {revokeRole}. To change a role's admin, use {_setRoleAdmin}."
      },
      "grantRole(bytes32,address)": {
        "details": "Grants `role` to `account`. If `account` had not been already granted `role`, emits a {RoleGranted} event. Requirements: - the caller must have ``role``'s admin role. May emit a {RoleGranted} event."
      },
      "hasRole(bytes32,address)": {
        "details": "Returns `true` if `account` has been granted `role`."
      },
      "isAdmin(address)": {
        "details": "whether admin",
        "params": {
          "account": "address to check"
        }
      },
      "removeAdmin(address)": {
        "details": "remove admin",
        "params": {
          "account": "address to remove"
        }
      },
      "renounceRole(bytes32,address)": {
        "details": "Revokes `role` from the calling account. Roles are often managed via {grantRole} and {revokeRole}: this function's purpose is to provide a mechanism for accounts to lose their privileges if they are compromised (such as when a trusted device is misplaced). If the calling account had been revoked `role`, emits a {RoleRevoked} event. Requirements: - the caller must be `account`. May emit a {RoleRevoked} event."
      },
      "revokeRole(bytes32,address)": {
        "details": "Revokes `role` from `account`. If `account` had been granted `role`, emits a {RoleRevoked} event. Requirements: - the caller must have ``role``'s admin role. May emit a {RoleRevoked} event."
      },
      "setL1ProjectManager(address)": {
        "details": "l1ProjectManager  "
      },
      "setL2CrossDomainMessenger(address)": {
        "details": "l2CrossDomainMessenger  "
      },
      "setL2TokenFactory(address)": {
        "details": "l2TokenFactory  "
      },
      "supportsInterface(bytes4)": {
        "details": "See {IERC165-supportsInterface}."
      },
      "transferAdmin(address)": {
        "details": "transfer admin",
        "params": {
          "newAdmin": "new admin address"
        }
      }
    },
    "title": "L2ProjectManager",
    "version": 1
  },
  "userdoc": {
    "kind": "user",
    "methods": {},
    "version": 1
  },
  "storageLayout": {
    "storage": [
      {
        "astId": 13268,
        "contract": "contracts/L2/L2ProjectManager.sol:L2ProjectManager",
        "label": "pauseProxy",
        "offset": 0,
        "slot": "0",
        "type": "t_bool"
      },
      {
        "astId": 13272,
        "contract": "contracts/L2/L2ProjectManager.sol:L2ProjectManager",
        "label": "proxyImplementation",
        "offset": 0,
        "slot": "1",
        "type": "t_mapping(t_uint256,t_address)"
      },
      {
        "astId": 13276,
        "contract": "contracts/L2/L2ProjectManager.sol:L2ProjectManager",
        "label": "aliveImplementation",
        "offset": 0,
        "slot": "2",
        "type": "t_mapping(t_address,t_bool)"
      },
      {
        "astId": 13280,
        "contract": "contracts/L2/L2ProjectManager.sol:L2ProjectManager",
        "label": "selectorImplementation",
        "offset": 0,
        "slot": "3",
        "type": "t_mapping(t_bytes4,t_address)"
      },
      {
        "astId": 24,
        "contract": "contracts/L2/L2ProjectManager.sol:L2ProjectManager",
        "label": "_roles",
        "offset": 0,
        "slot": "4",
        "type": "t_mapping(t_bytes32,t_struct(RoleData)19_storage)"
      },
      {
        "astId": 6069,
        "contract": "contracts/L2/L2ProjectManager.sol:L2ProjectManager",
        "label": "free",
        "offset": 0,
        "slot": "5",
        "type": "t_bool"
      },
      {
        "astId": 6071,
        "contract": "contracts/L2/L2ProjectManager.sol:L2ProjectManager",
        "label": "l1ProjectManager",
        "offset": 1,
        "slot": "5",
        "type": "t_address"
      },
      {
        "astId": 6073,
        "contract": "contracts/L2/L2ProjectManager.sol:L2ProjectManager",
        "label": "l2TokenFactory",
        "offset": 0,
        "slot": "6",
        "type": "t_address"
      },
      {
        "astId": 6075,
        "contract": "contracts/L2/L2ProjectManager.sol:L2ProjectManager",
        "label": "l2CrossDomainMessenger",
        "offset": 0,
        "slot": "7",
        "type": "t_address"
      },
      {
        "astId": 6077,
        "contract": "contracts/L2/L2ProjectManager.sol:L2ProjectManager",
        "label": "publicSaleVault",
        "offset": 0,
        "slot": "8",
        "type": "t_address"
      },
      {
        "astId": 6079,
        "contract": "contracts/L2/L2ProjectManager.sol:L2ProjectManager",
        "label": "initialLiquidityVault",
        "offset": 0,
        "slot": "9",
        "type": "t_address"
      },
      {
        "astId": 6081,
        "contract": "contracts/L2/L2ProjectManager.sol:L2ProjectManager",
        "label": "liquidityRewardVault",
        "offset": 0,
        "slot": "10",
        "type": "t_address"
      },
      {
        "astId": 6083,
        "contract": "contracts/L2/L2ProjectManager.sol:L2ProjectManager",
        "label": "tonAirdropVault",
        "offset": 0,
        "slot": "11",
        "type": "t_address"
      },
      {
        "astId": 6085,
        "contract": "contracts/L2/L2ProjectManager.sol:L2ProjectManager",
        "label": "tosAirdropVault",
        "offset": 0,
        "slot": "12",
        "type": "t_address"
      },
      {
        "astId": 6087,
        "contract": "contracts/L2/L2ProjectManager.sol:L2ProjectManager",
        "label": "scheduleVault",
        "offset": 0,
        "slot": "13",
        "type": "t_address"
      },
      {
        "astId": 6089,
        "contract": "contracts/L2/L2ProjectManager.sol:L2ProjectManager",
        "label": "nonScheduleVault",
        "offset": 0,
        "slot": "14",
        "type": "t_address"
      },
      {
        "astId": 6094,
        "contract": "contracts/L2/L2ProjectManager.sol:L2ProjectManager",
        "label": "projects",
        "offset": 0,
        "slot": "15",
        "type": "t_mapping(t_address,t_struct(L2ProjectInfo)12273_storage)"
      },
      {
        "astId": 6098,
        "contract": "contracts/L2/L2ProjectManager.sol:L2ProjectManager",
        "label": "tokenMaps",
        "offset": 0,
        "slot": "16",
        "type": "t_mapping(t_address,t_address)"
      }
    ],
    "types": {
      "t_address": {
        "encoding": "inplace",
        "label": "address",
        "numberOfBytes": "20"
      },
      "t_bool": {
        "encoding": "inplace",
        "label": "bool",
        "numberOfBytes": "1"
      },
      "t_bytes32": {
        "encoding": "inplace",
        "label": "bytes32",
        "numberOfBytes": "32"
      },
      "t_bytes4": {
        "encoding": "inplace",
        "label": "bytes4",
        "numberOfBytes": "4"
      },
      "t_mapping(t_address,t_address)": {
        "encoding": "mapping",
        "key": "t_address",
        "label": "mapping(address => address)",
        "numberOfBytes": "32",
        "value": "t_address"
      },
      "t_mapping(t_address,t_bool)": {
        "encoding": "mapping",
        "key": "t_address",
        "label": "mapping(address => bool)",
        "numberOfBytes": "32",
        "value": "t_bool"
      },
      "t_mapping(t_address,t_struct(L2ProjectInfo)12273_storage)": {
        "encoding": "mapping",
        "key": "t_address",
        "label": "mapping(address => struct LibProject.L2ProjectInfo)",
        "numberOfBytes": "32",
        "value": "t_struct(L2ProjectInfo)12273_storage"
      },
      "t_mapping(t_bytes32,t_struct(RoleData)19_storage)": {
        "encoding": "mapping",
        "key": "t_bytes32",
        "label": "mapping(bytes32 => struct AccessControl.RoleData)",
        "numberOfBytes": "32",
        "value": "t_struct(RoleData)19_storage"
      },
      "t_mapping(t_bytes4,t_address)": {
        "encoding": "mapping",
        "key": "t_bytes4",
        "label": "mapping(bytes4 => address)",
        "numberOfBytes": "32",
        "value": "t_address"
      },
      "t_mapping(t_uint256,t_address)": {
        "encoding": "mapping",
        "key": "t_uint256",
        "label": "mapping(uint256 => address)",
        "numberOfBytes": "32",
        "value": "t_address"
      },
      "t_string_storage": {
        "encoding": "bytes",
        "label": "string",
        "numberOfBytes": "32"
      },
      "t_struct(L2ProjectInfo)12273_storage": {
        "encoding": "inplace",
        "label": "struct LibProject.L2ProjectInfo",
        "members": [
          {
            "astId": 12264,
            "contract": "contracts/L2/L2ProjectManager.sol:L2ProjectManager",
            "label": "projectId",
            "offset": 0,
            "slot": "0",
            "type": "t_uint256"
          },
          {
            "astId": 12266,
            "contract": "contracts/L2/L2ProjectManager.sol:L2ProjectManager",
            "label": "projectOwner",
            "offset": 0,
            "slot": "1",
            "type": "t_address"
          },
          {
            "astId": 12268,
            "contract": "contracts/L2/L2ProjectManager.sol:L2ProjectManager",
            "label": "l1Token",
            "offset": 0,
            "slot": "2",
            "type": "t_address"
          },
          {
            "astId": 12270,
            "contract": "contracts/L2/L2ProjectManager.sol:L2ProjectManager",
            "label": "l2Token",
            "offset": 0,
            "slot": "3",
            "type": "t_address"
          },
          {
            "astId": 12272,
            "contract": "contracts/L2/L2ProjectManager.sol:L2ProjectManager",
            "label": "projectName",
            "offset": 0,
            "slot": "4",
            "type": "t_string_storage"
          }
        ],
        "numberOfBytes": "160"
      },
      "t_struct(RoleData)19_storage": {
        "encoding": "inplace",
        "label": "struct AccessControl.RoleData",
        "members": [
          {
            "astId": 16,
            "contract": "contracts/L2/L2ProjectManager.sol:L2ProjectManager",
            "label": "members",
            "offset": 0,
            "slot": "0",
            "type": "t_mapping(t_address,t_bool)"
          },
          {
            "astId": 18,
            "contract": "contracts/L2/L2ProjectManager.sol:L2ProjectManager",
            "label": "adminRole",
            "offset": 0,
            "slot": "1",
            "type": "t_bytes32"
          }
        ],
        "numberOfBytes": "64"
      },
      "t_uint256": {
        "encoding": "inplace",
        "label": "uint256",
        "numberOfBytes": "32"
      }
    }
  }
}