{
  "address": "0x643512d2205E15a723ee2fe9B2871a75699Db37d",
  "abi": [
    {
      "anonymous": false,
      "inputs": [
        {
          "indexed": true,
          "internalType": "bytes32",
          "name": "role",
          "type": "bytes32"
        },
        {
          "indexed": true,
          "internalType": "bytes32",
          "name": "previousAdminRole",
          "type": "bytes32"
        },
        {
          "indexed": true,
          "internalType": "bytes32",
          "name": "newAdminRole",
          "type": "bytes32"
        }
      ],
      "name": "RoleAdminChanged",
      "type": "event"
    },
    {
      "anonymous": false,
      "inputs": [
        {
          "indexed": true,
          "internalType": "bytes32",
          "name": "role",
          "type": "bytes32"
        },
        {
          "indexed": true,
          "internalType": "address",
          "name": "account",
          "type": "address"
        },
        {
          "indexed": true,
          "internalType": "address",
          "name": "sender",
          "type": "address"
        }
      ],
      "name": "RoleGranted",
      "type": "event"
    },
    {
      "anonymous": false,
      "inputs": [
        {
          "indexed": true,
          "internalType": "bytes32",
          "name": "role",
          "type": "bytes32"
        },
        {
          "indexed": true,
          "internalType": "address",
          "name": "account",
          "type": "address"
        },
        {
          "indexed": true,
          "internalType": "address",
          "name": "sender",
          "type": "address"
        }
      ],
      "name": "RoleRevoked",
      "type": "event"
    },
    {
      "anonymous": false,
      "inputs": [
        {
          "indexed": true,
          "internalType": "address",
          "name": "impl",
          "type": "address"
        },
        {
          "indexed": false,
          "internalType": "bool",
          "name": "alive",
          "type": "bool"
        }
      ],
      "name": "SetAliveImplementation",
      "type": "event"
    },
    {
      "anonymous": false,
      "inputs": [
        {
          "indexed": true,
          "internalType": "bytes4",
          "name": "selector",
          "type": "bytes4"
        },
        {
          "indexed": true,
          "internalType": "address",
          "name": "impl",
          "type": "address"
        }
      ],
      "name": "SetSelectorImplementation",
      "type": "event"
    },
    {
      "anonymous": false,
      "inputs": [
        {
          "indexed": false,
          "internalType": "address",
          "name": "l2Token",
          "type": "address"
        },
        {
          "indexed": false,
          "internalType": "address",
          "name": "newAdmin",
          "type": "address"
        }
      ],
      "name": "SetVaultAdmin",
      "type": "event"
    },
    {
      "anonymous": false,
      "inputs": [
        {
          "indexed": true,
          "internalType": "address",
          "name": "implementation",
          "type": "address"
        }
      ],
      "name": "Upgraded",
      "type": "event"
    },
    {
      "stateMutability": "payable",
      "type": "fallback"
    },
    {
      "inputs": [],
      "name": "ADMIN_ROLE",
      "outputs": [
        {
          "internalType": "bytes32",
          "name": "",
          "type": "bytes32"
        }
      ],
      "stateMutability": "view",
      "type": "function"
    },
    {
      "inputs": [],
      "name": "DEFAULT_ADMIN_ROLE",
      "outputs": [
        {
          "internalType": "bytes32",
          "name": "",
          "type": "bytes32"
        }
      ],
      "stateMutability": "view",
      "type": "function"
    },
    {
      "inputs": [],
      "name": "POLICY_ROLE",
      "outputs": [
        {
          "internalType": "bytes32",
          "name": "",
          "type": "bytes32"
        }
      ],
      "stateMutability": "view",
      "type": "function"
    },
    {
      "inputs": [
        {
          "internalType": "address",
          "name": "account",
          "type": "address"
        }
      ],
      "name": "addAdmin",
      "outputs": [],
      "stateMutability": "nonpayable",
      "type": "function"
    },
    {
      "inputs": [
        {
          "internalType": "address",
          "name": "",
          "type": "address"
        }
      ],
      "name": "aliveImplementation",
      "outputs": [
        {
          "internalType": "bool",
          "name": "",
          "type": "bool"
        }
      ],
      "stateMutability": "view",
      "type": "function"
    },
    {
      "inputs": [
        {
          "internalType": "bytes32",
          "name": "role",
          "type": "bytes32"
        }
      ],
      "name": "getRoleAdmin",
      "outputs": [
        {
          "internalType": "bytes32",
          "name": "",
          "type": "bytes32"
        }
      ],
      "stateMutability": "view",
      "type": "function"
    },
    {
      "inputs": [
        {
          "internalType": "bytes4",
          "name": "_selector",
          "type": "bytes4"
        }
      ],
      "name": "getSelectorImplementation2",
      "outputs": [
        {
          "internalType": "address",
          "name": "impl",
          "type": "address"
        }
      ],
      "stateMutability": "view",
      "type": "function"
    },
    {
      "inputs": [
        {
          "internalType": "bytes32",
          "name": "role",
          "type": "bytes32"
        },
        {
          "internalType": "address",
          "name": "account",
          "type": "address"
        }
      ],
      "name": "grantRole",
      "outputs": [],
      "stateMutability": "nonpayable",
      "type": "function"
    },
    {
      "inputs": [
        {
          "internalType": "bytes32",
          "name": "role",
          "type": "bytes32"
        },
        {
          "internalType": "address",
          "name": "account",
          "type": "address"
        }
      ],
      "name": "hasRole",
      "outputs": [
        {
          "internalType": "bool",
          "name": "",
          "type": "bool"
        }
      ],
      "stateMutability": "view",
      "type": "function"
    },
    {
      "inputs": [],
      "name": "implementation",
      "outputs": [
        {
          "internalType": "address",
          "name": "",
          "type": "address"
        }
      ],
      "stateMutability": "view",
      "type": "function"
    },
    {
      "inputs": [
        {
          "internalType": "uint256",
          "name": "_index",
          "type": "uint256"
        }
      ],
      "name": "implementation2",
      "outputs": [
        {
          "internalType": "address",
          "name": "",
          "type": "address"
        }
      ],
      "stateMutability": "view",
      "type": "function"
    },
    {
      "inputs": [
        {
          "internalType": "address",
          "name": "account",
          "type": "address"
        }
      ],
      "name": "isAdmin",
      "outputs": [
        {
          "internalType": "bool",
          "name": "",
          "type": "bool"
        }
      ],
      "stateMutability": "view",
      "type": "function"
    },
    {
      "inputs": [],
      "name": "l2ProjectManager",
      "outputs": [
        {
          "internalType": "address",
          "name": "",
          "type": "address"
        }
      ],
      "stateMutability": "view",
      "type": "function"
    },
    {
      "inputs": [],
      "name": "pauseProxy",
      "outputs": [
        {
          "internalType": "bool",
          "name": "",
          "type": "bool"
        }
      ],
      "stateMutability": "view",
      "type": "function"
    },
    {
      "inputs": [
        {
          "internalType": "uint256",
          "name": "",
          "type": "uint256"
        }
      ],
      "name": "proxyImplementation",
      "outputs": [
        {
          "internalType": "address",
          "name": "",
          "type": "address"
        }
      ],
      "stateMutability": "view",
      "type": "function"
    },
    {
      "inputs": [
        {
          "internalType": "address",
          "name": "account",
          "type": "address"
        }
      ],
      "name": "removeAdmin",
      "outputs": [],
      "stateMutability": "nonpayable",
      "type": "function"
    },
    {
      "inputs": [
        {
          "internalType": "bytes32",
          "name": "role",
          "type": "bytes32"
        },
        {
          "internalType": "address",
          "name": "account",
          "type": "address"
        }
      ],
      "name": "renounceRole",
      "outputs": [],
      "stateMutability": "nonpayable",
      "type": "function"
    },
    {
      "inputs": [
        {
          "internalType": "bytes32",
          "name": "role",
          "type": "bytes32"
        },
        {
          "internalType": "address",
          "name": "account",
          "type": "address"
        }
      ],
      "name": "revokeRole",
      "outputs": [],
      "stateMutability": "nonpayable",
      "type": "function"
    },
    {
      "inputs": [
        {
          "internalType": "bytes4",
          "name": "",
          "type": "bytes4"
        }
      ],
      "name": "selectorImplementation",
      "outputs": [
        {
          "internalType": "address",
          "name": "",
          "type": "address"
        }
      ],
      "stateMutability": "view",
      "type": "function"
    },
    {
      "inputs": [
        {
          "internalType": "address",
          "name": "newImplementation",
          "type": "address"
        },
        {
          "internalType": "bool",
          "name": "_alive",
          "type": "bool"
        }
      ],
      "name": "setAliveImplementation2",
      "outputs": [],
      "stateMutability": "nonpayable",
      "type": "function"
    },
    {
      "inputs": [
        {
          "internalType": "address",
          "name": "newImplementation",
          "type": "address"
        },
        {
          "internalType": "uint256",
          "name": "_index",
          "type": "uint256"
        },
        {
          "internalType": "bool",
          "name": "_alive",
          "type": "bool"
        }
      ],
      "name": "setImplementation2",
      "outputs": [],
      "stateMutability": "nonpayable",
      "type": "function"
    },
    {
      "inputs": [
        {
          "internalType": "bool",
          "name": "_pause",
          "type": "bool"
        }
      ],
      "name": "setProxyPause",
      "outputs": [],
      "stateMutability": "nonpayable",
      "type": "function"
    },
    {
      "inputs": [
        {
          "internalType": "bytes4[]",
          "name": "_selectors",
          "type": "bytes4[]"
        },
        {
          "internalType": "address",
          "name": "_imp",
          "type": "address"
        }
      ],
      "name": "setSelectorImplementations2",
      "outputs": [],
      "stateMutability": "nonpayable",
      "type": "function"
    },
    {
      "inputs": [
        {
          "internalType": "bytes4",
          "name": "interfaceId",
          "type": "bytes4"
        }
      ],
      "name": "supportsInterface",
      "outputs": [
        {
          "internalType": "bool",
          "name": "",
          "type": "bool"
        }
      ],
      "stateMutability": "view",
      "type": "function"
    },
    {
      "inputs": [
        {
          "internalType": "address",
          "name": "newAdmin",
          "type": "address"
        }
      ],
      "name": "transferAdmin",
      "outputs": [],
      "stateMutability": "nonpayable",
      "type": "function"
    },
    {
      "inputs": [
        {
          "internalType": "address",
          "name": "impl",
          "type": "address"
        }
      ],
      "name": "upgradeTo",
      "outputs": [],
      "stateMutability": "nonpayable",
      "type": "function"
    },
    {
      "inputs": [
        {
          "internalType": "address",
          "name": "",
          "type": "address"
        }
      ],
      "name": "vaultAdminOfToken",
      "outputs": [
        {
          "internalType": "address",
          "name": "",
          "type": "address"
        }
      ],
      "stateMutability": "view",
      "type": "function"
    },
    {
      "inputs": [
        {
          "internalType": "address",
          "name": "",
          "type": "address"
        },
        {
          "internalType": "bytes32",
          "name": "",
          "type": "bytes32"
        }
      ],
      "name": "vaultInfo",
      "outputs": [
        {
          "internalType": "address",
          "name": "claimer",
          "type": "address"
        },
        {
          "internalType": "uint256",
          "name": "totalAllocatedAmount",
          "type": "uint256"
        },
        {
          "internalType": "uint256",
          "name": "totalClaimCount",
          "type": "uint256"
        },
        {
          "internalType": "uint256",
          "name": "totalClaimedAmount",
          "type": "uint256"
        },
        {
          "internalType": "uint256",
          "name": "firstClaimAmount",
          "type": "uint256"
        },
        {
          "internalType": "uint32",
          "name": "firstClaimTime",
          "type": "uint32"
        },
        {
          "internalType": "uint32",
          "name": "secondClaimTime",
          "type": "uint32"
        },
        {
          "internalType": "uint32",
          "name": "roundInterval",
          "type": "uint32"
        },
        {
          "internalType": "uint32",
          "name": "latestClaimedRound",
          "type": "uint32"
        }
      ],
      "stateMutability": "view",
      "type": "function"
    },
    {
      "stateMutability": "payable",
      "type": "receive"
    }
  ],
  "transactionHash": "0x001a71bb3fc4e5c66f0e6521fbc439e6ee562e35d2ab4dd82d86a7bb7dd860b7",
  "args": [],
  "numDeployments": 1,
  "solcInputHash": "1ed1c592115e49eafa413f74ea8d056d",
  "bytecode": "0x60806040526005805460ff191660011790553480156200001e57600080fd5b506200003a60008051602062001b1b833981519152806200005b565b6200005560008051602062001b1b83398151915233620000a6565b6200015a565b600082815260046020526040808220600101805490849055905190918391839186917fbd79b86ffe0ab8e8776151514217cd7cacd52c909f66475c3af44e129f0b00ff9190a4505050565b620000b28282620000b6565b5050565b60008281526004602090815260408083206001600160a01b038516845290915290205460ff16620000b25760008281526004602090815260408083206001600160a01b03851684529091529020805460ff19166001179055620001163390565b6001600160a01b0316816001600160a01b0316837f2f8788117e7eff1d82e926ec794901d17c78024a50270940304540a733656f0d60405160405180910390a45050565b6119b1806200016a6000396000f3fe6080604052600436106101bb5760003560e01c806363a8fd89116100ec5780638b8f4a651161008a578063a217fddf11610064578063a217fddf14610611578063b40d735014610626578063b911135f1461071c578063d547741f146107525761020d565b80638b8f4a651461058b5780638d4fdb40146105ab57806391d14854146105cb5761020d565b806375b238fc116100c657806375b238fc146104e15780637cb00d25146105155780637cd5f663146105355780637fc46ba8146105555761020d565b806363a8fd891461048757806370480275146104a157806375829def146104c15761020d565b80633659cfe61161015957806352351e851161013357806352351e85146103cc578063550d01a3146103f15780635c60da1b146104215780635cc797d8146104675761020d565b80633659cfe61461033e5780634a5df50f1461035e57806350d2a2761461037e5761020d565b8063248a9ca311610195578063248a9ca3146102ae57806324d7806c146102de5780632f2ff15d146102fe57806336568abe1461031e5761020d565b806301ffc9a7146102175780631785f53c1461024c578063229852461461026c5761020d565b3661020d5760405162461bcd60e51b815260206004820152601460248201527f63616e6e6f74207265636569766520457468657200000000000000000000000060448201526064015b60405180910390fd5b610215610772565b005b34801561022357600080fd5b50610237610232366004611639565b61081b565b60405190151581526020015b60405180910390f35b34801561025857600080fd5b5061021561026736600461167a565b610852565b34801561027857600080fd5b506102a07ffb5864e8ff833c3cb2d2d08505e82ff02a43554c74a35d4f5a64e8526127831181565b604051908152602001610243565b3480156102ba57600080fd5b506102a06102c9366004611695565b60009081526004602052604090206001015490565b3480156102ea57600080fd5b506102376102f936600461167a565b6108cd565b34801561030a57600080fd5b506102156103193660046116ae565b61090d565b34801561032a57600080fd5b506102156103393660046116ae565b610932565b34801561034a57600080fd5b5061021561035936600461167a565b6109be565b34801561036a57600080fd5b506102156103793660046116da565b610b17565b34801561038a57600080fd5b506103b4610399366004611639565b6003602052600090815260409020546001600160a01b031681565b6040516001600160a01b039091168152602001610243565b3480156103d857600080fd5b506005546103b49061010090046001600160a01b031681565b3480156103fd57600080fd5b5061023761040c36600461167a565b60026020526000908152604090205460ff1681565b34801561042d57600080fd5b506000805260016020527fa6eef7e35abe7026729641147f7915573c7e97b47efa546f5f6e3230263bcb49546001600160a01b03166103b4565b34801561047357600080fd5b5061021561048236600461176e565b610dc4565b34801561049357600080fd5b506000546102379060ff1681565b3480156104ad57600080fd5b506102156104bc36600461167a565b610e1c565b3480156104cd57600080fd5b506102156104dc36600461167a565b610e94565b3480156104ed57600080fd5b506102a07fdf8b4c520ffe197c5343c6f5aec59570151ef9a492f2c624fd45ddde6135ec4281565b34801561052157600080fd5b50610215610530366004611798565b610fe4565b34801561054157600080fd5b506102156105503660046117b3565b611045565b34801561056157600080fd5b506103b461057036600461167a565b6006602052600090815260409020546001600160a01b031681565b34801561059757600080fd5b506103b46105a6366004611695565b61109e565b3480156105b757600080fd5b506103b46105c6366004611639565b6110bb565b3480156105d757600080fd5b506102376105e63660046116ae565b60009182526004602090815260408084206001600160a01b0393909316845291905290205460ff1690565b34801561061d57600080fd5b506102a0600081565b34801561063257600080fd5b506106bf6106413660046117e6565b60076020908152600092835260408084209091529082529020805460018201546002830154600384015460048501546005909501546001600160a01b039094169492939192909163ffffffff8082169164010000000081048216916801000000000000000082048116916c0100000000000000000000000090041689565b604080516001600160a01b03909a168a5260208a0198909852968801959095526060870193909352608086019190915263ffffffff90811660a086015290811660c085015290811660e08401521661010082015261012001610243565b34801561072857600080fd5b506103b4610737366004611695565b6001602052600090815260409020546001600160a01b031681565b34801561075e57600080fd5b5061021561076d3660046116ae565b6111b7565b60006107896000356001600160e01b0319166110bb565b90506001600160a01b038116158015906107a6575060005460ff16155b6107f25760405162461bcd60e51b815260206004820152601d60248201527f50726f78793a20696d706c204f522070726f78792069732066616c73650000006044820152606401610204565b3660008037600080366000845af43d6000803e808015610811573d6000f35b3d6000fd5b505050565b60006001600160e01b03198216637965db0b60e01b148061084c57506301ffc9a760e01b6001600160e01b03198316145b92915050565b61085b336108cd565b6108a05760405162461bcd60e51b8152602060048201526022602482015260008051602061198583398151915260448201526134b760f11b6064820152608401610204565b6108ca7fdf8b4c520ffe197c5343c6f5aec59570151ef9a492f2c624fd45ddde6135ec4282610932565b50565b6001600160a01b03811660009081527f2fb794d17134dfdec181ddbac1babb5ab1eb140204ef4d982f294e7fc8b69022602052604081205460ff1661084c565b600082815260046020526040902060010154610928816111dc565b61081683836111e6565b6001600160a01b03811633146109b05760405162461bcd60e51b815260206004820152602f60248201527f416363657373436f6e74726f6c3a2063616e206f6e6c792072656e6f756e636560448201527f20726f6c657320666f722073656c6600000000000000000000000000000000006064820152608401610204565b6109ba8282611288565b5050565b6109c7336108cd565b610a0c5760405162461bcd60e51b8152602060048201526022602482015260008051602061198583398151915260448201526134b760f11b6064820152608401610204565b6001600160a01b038116610a625760405162461bcd60e51b815260206004820152600d60248201527f696e707574206973207a65726f000000000000000000000000000000000000006044820152606401610204565b6000805260016020527fa6eef7e35abe7026729641147f7915573c7e97b47efa546f5f6e3230263bcb49546001600160a01b03828116911603610ad35760405162461bcd60e51b815260206004820152600960248201526839b0b6b29030b2323960b91b6044820152606401610204565b610ae0816000600161130b565b6040516001600160a01b038216907fbc7cd75a20ee27fd9adebab32041f755214dbc6bffa90cc0225b39da2e5c2d3b90600090a250565b610b20336108cd565b610b655760405162461bcd60e51b8152602060048201526022602482015260008051602061198583398151915260448201526134b760f11b6064820152608401610204565b81610bb25760405162461bcd60e51b815260206004820181905260248201527f50726f78793a205f73656c6563746f727327732073697a65206973207a65726f6044820152606401610204565b6001600160a01b03811660009081526002602052604090205460ff16610c1a5760405162461bcd60e51b815260206004820152601860248201527f50726f78793a205f696d70206973206e6f7420616c69766500000000000000006044820152606401610204565b60005b82811015610dbe57816001600160a01b031660036000868685818110610c4557610c45611810565b9050602002016020810190610c5a9190611639565b6001600160e01b03191681526020810191909152604001600020546001600160a01b031603610ccb5760405162461bcd60e51b815260206004820152601d60248201527f4c69717569646974795661756c7450726f78793a2073616d6520696d700000006044820152606401610204565b8160036000868685818110610ce257610ce2611810565b9050602002016020810190610cf79190611639565b6001600160e01b03191681526020810191909152604001600020805473ffffffffffffffffffffffffffffffffffffffff19166001600160a01b039283161790558216848483818110610d4c57610d4c611810565b9050602002016020810190610d619190611639565b7bffffffffffffffffffffffffffffffffffffffffffffffffffffffff19167f14ebc1c32aa68f4d766e89f3e546cee249f7df25183fc10ab1568d91c2ce9b7b60405160405180910390a380610db68161183c565b915050610c1d565b50505050565b610dcd336108cd565b610e125760405162461bcd60e51b8152602060048201526022602482015260008051602061198583398151915260448201526134b760f11b6064820152608401610204565b6109ba82826113a3565b610e25336108cd565b610e6a5760405162461bcd60e51b8152602060048201526022602482015260008051602061198583398151915260448201526134b760f11b6064820152608401610204565b6108ca7fdf8b4c520ffe197c5343c6f5aec59570151ef9a492f2c624fd45ddde6135ec428261090d565b610e9d336108cd565b610ee25760405162461bcd60e51b8152602060048201526022602482015260008051602061198583398151915260448201526134b760f11b6064820152608401610204565b6001600160a01b038116610f385760405162461bcd60e51b815260206004820152601860248201527f41636365737369626c653a207a65726f206164647265737300000000000000006044820152606401610204565b6001600160a01b0381163303610f905760405162461bcd60e51b815260206004820152601660248201527f41636365737369626c653a2073616d652061646d696e000000000000000000006044820152606401610204565b610fba7fdf8b4c520ffe197c5343c6f5aec59570151ef9a492f2c624fd45ddde6135ec428261090d565b6108ca7fdf8b4c520ffe197c5343c6f5aec59570151ef9a492f2c624fd45ddde6135ec4233610932565b610fed336108cd565b6110325760405162461bcd60e51b8152602060048201526022602482015260008051602061198583398151915260448201526134b760f11b6064820152608401610204565b6000805460ff1916911515919091179055565b61104e336108cd565b6110935760405162461bcd60e51b8152602060048201526022602482015260008051602061198583398151915260448201526134b760f11b6064820152608401610204565b61081683838361130b565b6000818152600160205260408120546001600160a01b031661084c565b6001600160e01b031981166000908152600360205260408120546001600160a01b031661111b5750506000805260016020527fa6eef7e35abe7026729641147f7915573c7e97b47efa546f5f6e3230263bcb49546001600160a01b031690565b6001600160e01b031982166000908152600360209081526040808320546001600160a01b03168352600290915290205460ff161561117957506001600160e01b0319166000908152600360205260409020546001600160a01b031690565b50506000805260016020527fa6eef7e35abe7026729641147f7915573c7e97b47efa546f5f6e3230263bcb49546001600160a01b031690565b919050565b6000828152600460205260409020600101546111d2816111dc565b6108168383611288565b6108ca8133611402565b60008281526004602090815260408083206001600160a01b038516845290915290205460ff166109ba5760008281526004602090815260408083206001600160a01b03851684529091529020805460ff191660011790556112443390565b6001600160a01b0316816001600160a01b0316837f2f8788117e7eff1d82e926ec794901d17c78024a50270940304540a733656f0d60405160405180910390a45050565b60008281526004602090815260408083206001600160a01b038516845290915290205460ff16156109ba5760008281526004602090815260408083206001600160a01b0385168085529252808320805460ff1916905551339285917ff6391f5c32d9c69d2a47ea670b442974b53935d1edc7fd64eb21e047a839171b9190a45050565b6001600160a01b0383163b6113625760405162461bcd60e51b815260206004820152601b60248201527f50726f78793a206e6f7420636f6e7472616374206164647265737300000000006044820152606401610204565b801561139d576000828152600160205260409020805473ffffffffffffffffffffffffffffffffffffffff19166001600160a01b0385161790555b61081683825b6001600160a01b038216600081815260026020908152604091829020805460ff191685151590811790915591519182527f72558d9bfba4210f9ef095c782589484151f6d90f7a81bb3cb9b33efc695d324910160405180910390a25050565b60008281526004602090815260408083206001600160a01b038516845290915290205460ff166109ba5761143581611477565b611440836020611489565b604051602001611451929190611879565b60408051601f198184030181529082905262461bcd60e51b8252610204916004016118fa565b606061084c6001600160a01b03831660145b6060600061149883600261192d565b6114a3906002611944565b67ffffffffffffffff8111156114bb576114bb611957565b6040519080825280601f01601f1916602001820160405280156114e5576020820181803683370190505b509050600360fc1b8160008151811061150057611500611810565b60200101906001600160f81b031916908160001a905350600f60fb1b8160018151811061152f5761152f611810565b60200101906001600160f81b031916908160001a905350600061155384600261192d565b61155e906001611944565b90505b60018111156115e3577f303132333435363738396162636465660000000000000000000000000000000085600f166010811061159f5761159f611810565b1a60f81b8282815181106115b5576115b5611810565b60200101906001600160f81b031916908160001a90535060049490941c936115dc8161196d565b9050611561565b5083156116325760405162461bcd60e51b815260206004820181905260248201527f537472696e67733a20686578206c656e67746820696e73756666696369656e746044820152606401610204565b9392505050565b60006020828403121561164b57600080fd5b81356001600160e01b03198116811461163257600080fd5b80356001600160a01b03811681146111b257600080fd5b60006020828403121561168c57600080fd5b61163282611663565b6000602082840312156116a757600080fd5b5035919050565b600080604083850312156116c157600080fd5b823591506116d160208401611663565b90509250929050565b6000806000604084860312156116ef57600080fd5b833567ffffffffffffffff8082111561170757600080fd5b818601915086601f83011261171b57600080fd5b81358181111561172a57600080fd5b8760208260051b850101111561173f57600080fd5b6020928301955093506117559186019050611663565b90509250925092565b803580151581146111b257600080fd5b6000806040838503121561178157600080fd5b61178a83611663565b91506116d16020840161175e565b6000602082840312156117aa57600080fd5b6116328261175e565b6000806000606084860312156117c857600080fd5b6117d184611663565b9250602084013591506117556040850161175e565b600080604083850312156117f957600080fd5b61180283611663565b946020939093013593505050565b634e487b7160e01b600052603260045260246000fd5b634e487b7160e01b600052601160045260246000fd5b60006001820161184e5761184e611826565b5060010190565b60005b83811015611870578181015183820152602001611858565b50506000910152565b7f416363657373436f6e74726f6c3a206163636f756e74200000000000000000008152600083516118b1816017850160208801611855565b7f206973206d697373696e6720726f6c652000000000000000000000000000000060179184019182015283516118ee816028840160208801611855565b01602801949350505050565b6020815260008251806020840152611919816040850160208701611855565b601f01601f19169190910160400192915050565b808202811582820484141761084c5761084c611826565b8082018082111561084c5761084c611826565b634e487b7160e01b600052604160045260246000fd5b60008161197c5761197c611826565b50600019019056fe41636365737369626c653a2043616c6c6572206973206e6f7420616e2061646da164736f6c6343000812000adf8b4c520ffe197c5343c6f5aec59570151ef9a492f2c624fd45ddde6135ec42",
  "devdoc": {
    "details": "Vaults that Vault Admins claim according to a schedule",
    "events": {
      "RoleAdminChanged(bytes32,bytes32,bytes32)": {
        "details": "Emitted when `newAdminRole` is set as ``role``'s admin role, replacing `previousAdminRole` `DEFAULT_ADMIN_ROLE` is the starting admin for all roles, despite {RoleAdminChanged} not being emitted signaling this. _Available since v3.1._"
      },
      "RoleGranted(bytes32,address,address)": {
        "details": "Emitted when `account` is granted `role`. `sender` is the account that originated the contract call, an admin role bearer except when using {AccessControl-_setupRole}."
      },
      "RoleRevoked(bytes32,address,address)": {
        "details": "Emitted when `account` is revoked `role`. `sender` is the account that originated the contract call:   - if using `revokeRole`, it is the admin role bearer   - if using `renounceRole`, it is the role bearer (i.e. `account`)"
      }
    },
    "kind": "dev",
    "methods": {
      "addAdmin(address)": {
        "details": "add admin",
        "params": {
          "account": "address to add"
        }
      },
      "getRoleAdmin(bytes32)": {
        "details": "Returns the admin role that controls `role`. See {grantRole} and {revokeRole}. To change a role's admin, use {_setRoleAdmin}."
      },
      "getSelectorImplementation2(bytes4)": {
        "details": "view implementation address of selector of function",
        "params": {
          "_selector": "selector of function"
        },
        "returns": {
          "impl": "address of the implementation"
        }
      },
      "grantRole(bytes32,address)": {
        "details": "Grants `role` to `account`. If `account` had not been already granted `role`, emits a {RoleGranted} event. Requirements: - the caller must have ``role``'s admin role. May emit a {RoleGranted} event."
      },
      "hasRole(bytes32,address)": {
        "details": "Returns `true` if `account` has been granted `role`."
      },
      "implementation()": {
        "details": "returns the implementation"
      },
      "implementation2(uint256)": {
        "details": "view implementation address of the proxy[index]",
        "params": {
          "_index": "index of proxy"
        },
        "returns": {
          "_0": "address of the implementation"
        }
      },
      "isAdmin(address)": {
        "details": "whether admin",
        "params": {
          "account": "address to check"
        }
      },
      "removeAdmin(address)": {
        "details": "remove admin",
        "params": {
          "account": "address to remove"
        }
      },
      "renounceRole(bytes32,address)": {
        "details": "Revokes `role` from the calling account. Roles are often managed via {grantRole} and {revokeRole}: this function's purpose is to provide a mechanism for accounts to lose their privileges if they are compromised (such as when a trusted device is misplaced). If the calling account had been revoked `role`, emits a {RoleRevoked} event. Requirements: - the caller must be `account`. May emit a {RoleRevoked} event."
      },
      "revokeRole(bytes32,address)": {
        "details": "Revokes `role` from `account`. If `account` had been granted `role`, emits a {RoleRevoked} event. Requirements: - the caller must have ``role``'s admin role. May emit a {RoleRevoked} event."
      },
      "setAliveImplementation2(address,bool)": {
        "details": "set alive status of implementation",
        "params": {
          "_alive": "alive status",
          "newImplementation": "Address of the new implementation."
        }
      },
      "setImplementation2(address,uint256,bool)": {
        "details": "set the implementation address and status of the proxy[index]",
        "params": {
          "_alive": "_alive",
          "_index": "index",
          "newImplementation": "Address of the new implementation."
        }
      },
      "setProxyPause(bool)": {
        "params": {
          "_pause": "true:pause or false:resume"
        }
      },
      "setSelectorImplementations2(bytes4[],address)": {
        "details": "set selectors of Implementation",
        "params": {
          "_imp": "implementation address",
          "_selectors": "being added selectors"
        }
      },
      "supportsInterface(bytes4)": {
        "details": "See {IERC165-supportsInterface}."
      },
      "transferAdmin(address)": {
        "details": "transfer admin",
        "params": {
          "newAdmin": "new admin address"
        }
      },
      "upgradeTo(address)": {
        "params": {
          "impl": "New implementation contract address"
        }
      }
    },
    "title": "L2ScheduleVaultProxy",
    "version": 1
  },
  "userdoc": {
    "kind": "user",
    "methods": {
      "setProxyPause(bool)": {
        "notice": "Set pause state"
      },
      "upgradeTo(address)": {
        "notice": "Set implementation contract"
      }
    },
    "version": 1
  },
  "storageLayout": {
    "storage": [
      {
        "astId": 7441,
        "contract": "contracts/L2/vaults/L2ScheduleVaultProxy.sol:L2ScheduleVaultProxy",
        "label": "pauseProxy",
        "offset": 0,
        "slot": "0",
        "type": "t_bool"
      },
      {
        "astId": 7445,
        "contract": "contracts/L2/vaults/L2ScheduleVaultProxy.sol:L2ScheduleVaultProxy",
        "label": "proxyImplementation",
        "offset": 0,
        "slot": "1",
        "type": "t_mapping(t_uint256,t_address)"
      },
      {
        "astId": 7449,
        "contract": "contracts/L2/vaults/L2ScheduleVaultProxy.sol:L2ScheduleVaultProxy",
        "label": "aliveImplementation",
        "offset": 0,
        "slot": "2",
        "type": "t_mapping(t_address,t_bool)"
      },
      {
        "astId": 7453,
        "contract": "contracts/L2/vaults/L2ScheduleVaultProxy.sol:L2ScheduleVaultProxy",
        "label": "selectorImplementation",
        "offset": 0,
        "slot": "3",
        "type": "t_mapping(t_bytes4,t_address)"
      },
      {
        "astId": 24,
        "contract": "contracts/L2/vaults/L2ScheduleVaultProxy.sol:L2ScheduleVaultProxy",
        "label": "_roles",
        "offset": 0,
        "slot": "4",
        "type": "t_mapping(t_bytes32,t_struct(RoleData)19_storage)"
      },
      {
        "astId": 3479,
        "contract": "contracts/L2/vaults/L2ScheduleVaultProxy.sol:L2ScheduleVaultProxy",
        "label": "free",
        "offset": 0,
        "slot": "5",
        "type": "t_bool"
      },
      {
        "astId": 3481,
        "contract": "contracts/L2/vaults/L2ScheduleVaultProxy.sol:L2ScheduleVaultProxy",
        "label": "l2ProjectManager",
        "offset": 1,
        "slot": "5",
        "type": "t_address"
      },
      {
        "astId": 3485,
        "contract": "contracts/L2/vaults/L2ScheduleVaultProxy.sol:L2ScheduleVaultProxy",
        "label": "vaultAdminOfToken",
        "offset": 0,
        "slot": "6",
        "type": "t_mapping(t_address,t_address)"
      },
      {
        "astId": 6086,
        "contract": "contracts/L2/vaults/L2ScheduleVaultProxy.sol:L2ScheduleVaultProxy",
        "label": "vaultInfo",
        "offset": 0,
        "slot": "7",
        "type": "t_mapping(t_address,t_mapping(t_bytes32,t_struct(VaultInfo)6896_storage))"
      }
    ],
    "types": {
      "t_address": {
        "encoding": "inplace",
        "label": "address",
        "numberOfBytes": "20"
      },
      "t_bool": {
        "encoding": "inplace",
        "label": "bool",
        "numberOfBytes": "1"
      },
      "t_bytes32": {
        "encoding": "inplace",
        "label": "bytes32",
        "numberOfBytes": "32"
      },
      "t_bytes4": {
        "encoding": "inplace",
        "label": "bytes4",
        "numberOfBytes": "4"
      },
      "t_mapping(t_address,t_address)": {
        "encoding": "mapping",
        "key": "t_address",
        "label": "mapping(address => address)",
        "numberOfBytes": "32",
        "value": "t_address"
      },
      "t_mapping(t_address,t_bool)": {
        "encoding": "mapping",
        "key": "t_address",
        "label": "mapping(address => bool)",
        "numberOfBytes": "32",
        "value": "t_bool"
      },
      "t_mapping(t_address,t_mapping(t_bytes32,t_struct(VaultInfo)6896_storage))": {
        "encoding": "mapping",
        "key": "t_address",
        "label": "mapping(address => mapping(bytes32 => struct LibScheduleVault.VaultInfo))",
        "numberOfBytes": "32",
        "value": "t_mapping(t_bytes32,t_struct(VaultInfo)6896_storage)"
      },
      "t_mapping(t_bytes32,t_struct(RoleData)19_storage)": {
        "encoding": "mapping",
        "key": "t_bytes32",
        "label": "mapping(bytes32 => struct AccessControl.RoleData)",
        "numberOfBytes": "32",
        "value": "t_struct(RoleData)19_storage"
      },
      "t_mapping(t_bytes32,t_struct(VaultInfo)6896_storage)": {
        "encoding": "mapping",
        "key": "t_bytes32",
        "label": "mapping(bytes32 => struct LibScheduleVault.VaultInfo)",
        "numberOfBytes": "32",
        "value": "t_struct(VaultInfo)6896_storage"
      },
      "t_mapping(t_bytes4,t_address)": {
        "encoding": "mapping",
        "key": "t_bytes4",
        "label": "mapping(bytes4 => address)",
        "numberOfBytes": "32",
        "value": "t_address"
      },
      "t_mapping(t_uint256,t_address)": {
        "encoding": "mapping",
        "key": "t_uint256",
        "label": "mapping(uint256 => address)",
        "numberOfBytes": "32",
        "value": "t_address"
      },
      "t_struct(RoleData)19_storage": {
        "encoding": "inplace",
        "label": "struct AccessControl.RoleData",
        "members": [
          {
            "astId": 16,
            "contract": "contracts/L2/vaults/L2ScheduleVaultProxy.sol:L2ScheduleVaultProxy",
            "label": "members",
            "offset": 0,
            "slot": "0",
            "type": "t_mapping(t_address,t_bool)"
          },
          {
            "astId": 18,
            "contract": "contracts/L2/vaults/L2ScheduleVaultProxy.sol:L2ScheduleVaultProxy",
            "label": "adminRole",
            "offset": 0,
            "slot": "1",
            "type": "t_bytes32"
          }
        ],
        "numberOfBytes": "64"
      },
      "t_struct(VaultInfo)6896_storage": {
        "encoding": "inplace",
        "label": "struct LibScheduleVault.VaultInfo",
        "members": [
          {
            "astId": 6879,
            "contract": "contracts/L2/vaults/L2ScheduleVaultProxy.sol:L2ScheduleVaultProxy",
            "label": "claimer",
            "offset": 0,
            "slot": "0",
            "type": "t_address"
          },
          {
            "astId": 6881,
            "contract": "contracts/L2/vaults/L2ScheduleVaultProxy.sol:L2ScheduleVaultProxy",
            "label": "totalAllocatedAmount",
            "offset": 0,
            "slot": "1",
            "type": "t_uint256"
          },
          {
            "astId": 6883,
            "contract": "contracts/L2/vaults/L2ScheduleVaultProxy.sol:L2ScheduleVaultProxy",
            "label": "totalClaimCount",
            "offset": 0,
            "slot": "2",
            "type": "t_uint256"
          },
          {
            "astId": 6885,
            "contract": "contracts/L2/vaults/L2ScheduleVaultProxy.sol:L2ScheduleVaultProxy",
            "label": "totalClaimedAmount",
            "offset": 0,
            "slot": "3",
            "type": "t_uint256"
          },
          {
            "astId": 6887,
            "contract": "contracts/L2/vaults/L2ScheduleVaultProxy.sol:L2ScheduleVaultProxy",
            "label": "firstClaimAmount",
            "offset": 0,
            "slot": "4",
            "type": "t_uint256"
          },
          {
            "astId": 6889,
            "contract": "contracts/L2/vaults/L2ScheduleVaultProxy.sol:L2ScheduleVaultProxy",
            "label": "firstClaimTime",
            "offset": 0,
            "slot": "5",
            "type": "t_uint32"
          },
          {
            "astId": 6891,
            "contract": "contracts/L2/vaults/L2ScheduleVaultProxy.sol:L2ScheduleVaultProxy",
            "label": "secondClaimTime",
            "offset": 4,
            "slot": "5",
            "type": "t_uint32"
          },
          {
            "astId": 6893,
            "contract": "contracts/L2/vaults/L2ScheduleVaultProxy.sol:L2ScheduleVaultProxy",
            "label": "roundInterval",
            "offset": 8,
            "slot": "5",
            "type": "t_uint32"
          },
          {
            "astId": 6895,
            "contract": "contracts/L2/vaults/L2ScheduleVaultProxy.sol:L2ScheduleVaultProxy",
            "label": "latestClaimedRound",
            "offset": 12,
            "slot": "5",
            "type": "t_uint32"
          }
        ],
        "numberOfBytes": "192"
      },
      "t_uint256": {
        "encoding": "inplace",
        "label": "uint256",
        "numberOfBytes": "32"
      },
      "t_uint32": {
        "encoding": "inplace",
        "label": "uint32",
        "numberOfBytes": "4"
      }
    }
  }
}