{
  "address": "0xF9d75D5814e1C3D734342bD5Ed0637b9c49c3f69",
  "abi": [
    {
      "anonymous": false,
      "inputs": [
        {
          "indexed": true,
          "internalType": "bytes32",
          "name": "role",
          "type": "bytes32"
        },
        {
          "indexed": true,
          "internalType": "bytes32",
          "name": "previousAdminRole",
          "type": "bytes32"
        },
        {
          "indexed": true,
          "internalType": "bytes32",
          "name": "newAdminRole",
          "type": "bytes32"
        }
      ],
      "name": "RoleAdminChanged",
      "type": "event"
    },
    {
      "anonymous": false,
      "inputs": [
        {
          "indexed": true,
          "internalType": "bytes32",
          "name": "role",
          "type": "bytes32"
        },
        {
          "indexed": true,
          "internalType": "address",
          "name": "account",
          "type": "address"
        },
        {
          "indexed": true,
          "internalType": "address",
          "name": "sender",
          "type": "address"
        }
      ],
      "name": "RoleGranted",
      "type": "event"
    },
    {
      "anonymous": false,
      "inputs": [
        {
          "indexed": true,
          "internalType": "bytes32",
          "name": "role",
          "type": "bytes32"
        },
        {
          "indexed": true,
          "internalType": "address",
          "name": "account",
          "type": "address"
        },
        {
          "indexed": true,
          "internalType": "address",
          "name": "sender",
          "type": "address"
        }
      ],
      "name": "RoleRevoked",
      "type": "event"
    },
    {
      "anonymous": false,
      "inputs": [
        {
          "indexed": false,
          "internalType": "address",
          "name": "_l2StakeV2",
          "type": "address"
        }
      ],
      "name": "SetL2StakeV2",
      "type": "event"
    },
    {
      "anonymous": false,
      "inputs": [
        {
          "indexed": false,
          "internalType": "address",
          "name": "_lockIdNftForRegister",
          "type": "address"
        }
      ],
      "name": "SetLockIdNftForRegister",
      "type": "event"
    },
    {
      "inputs": [],
      "name": "ADMIN_ROLE",
      "outputs": [
        {
          "internalType": "bytes32",
          "name": "",
          "type": "bytes32"
        }
      ],
      "stateMutability": "view",
      "type": "function"
    },
    {
      "inputs": [],
      "name": "DEFAULT_ADMIN_ROLE",
      "outputs": [
        {
          "internalType": "bytes32",
          "name": "",
          "type": "bytes32"
        }
      ],
      "stateMutability": "view",
      "type": "function"
    },
    {
      "inputs": [],
      "name": "POLICY_ROLE",
      "outputs": [
        {
          "internalType": "bytes32",
          "name": "",
          "type": "bytes32"
        }
      ],
      "stateMutability": "view",
      "type": "function"
    },
    {
      "inputs": [
        {
          "internalType": "address",
          "name": "account",
          "type": "address"
        }
      ],
      "name": "addAdmin",
      "outputs": [],
      "stateMutability": "nonpayable",
      "type": "function"
    },
    {
      "inputs": [
        {
          "internalType": "address",
          "name": "",
          "type": "address"
        }
      ],
      "name": "aliveImplementation",
      "outputs": [
        {
          "internalType": "bool",
          "name": "",
          "type": "bool"
        }
      ],
      "stateMutability": "view",
      "type": "function"
    },
    {
      "inputs": [
        {
          "internalType": "address",
          "name": "account",
          "type": "address"
        }
      ],
      "name": "balanceOf",
      "outputs": [
        {
          "internalType": "uint256",
          "name": "amount",
          "type": "uint256"
        }
      ],
      "stateMutability": "view",
      "type": "function"
    },
    {
      "inputs": [
        {
          "internalType": "address",
          "name": "account",
          "type": "address"
        },
        {
          "internalType": "uint256",
          "name": "timestamp",
          "type": "uint256"
        }
      ],
      "name": "balanceOfAt",
      "outputs": [
        {
          "internalType": "uint256",
          "name": "amount",
          "type": "uint256"
        }
      ],
      "stateMutability": "view",
      "type": "function"
    },
    {
      "inputs": [
        {
          "internalType": "bytes32",
          "name": "role",
          "type": "bytes32"
        }
      ],
      "name": "getRoleAdmin",
      "outputs": [
        {
          "internalType": "bytes32",
          "name": "",
          "type": "bytes32"
        }
      ],
      "stateMutability": "view",
      "type": "function"
    },
    {
      "inputs": [
        {
          "internalType": "bytes32",
          "name": "role",
          "type": "bytes32"
        },
        {
          "internalType": "address",
          "name": "account",
          "type": "address"
        }
      ],
      "name": "grantRole",
      "outputs": [],
      "stateMutability": "nonpayable",
      "type": "function"
    },
    {
      "inputs": [
        {
          "internalType": "bytes32",
          "name": "role",
          "type": "bytes32"
        },
        {
          "internalType": "address",
          "name": "account",
          "type": "address"
        }
      ],
      "name": "hasRole",
      "outputs": [
        {
          "internalType": "bool",
          "name": "",
          "type": "bool"
        }
      ],
      "stateMutability": "view",
      "type": "function"
    },
    {
      "inputs": [
        {
          "internalType": "address",
          "name": "account",
          "type": "address"
        }
      ],
      "name": "isAdmin",
      "outputs": [
        {
          "internalType": "bool",
          "name": "",
          "type": "bool"
        }
      ],
      "stateMutability": "view",
      "type": "function"
    },
    {
      "inputs": [],
      "name": "l2StakeV2",
      "outputs": [
        {
          "internalType": "address",
          "name": "",
          "type": "address"
        }
      ],
      "stateMutability": "view",
      "type": "function"
    },
    {
      "inputs": [],
      "name": "lockIdNftForRegister",
      "outputs": [
        {
          "internalType": "address",
          "name": "",
          "type": "address"
        }
      ],
      "stateMutability": "view",
      "type": "function"
    },
    {
      "inputs": [],
      "name": "pauseProxy",
      "outputs": [
        {
          "internalType": "bool",
          "name": "",
          "type": "bool"
        }
      ],
      "stateMutability": "view",
      "type": "function"
    },
    {
      "inputs": [
        {
          "internalType": "uint256",
          "name": "",
          "type": "uint256"
        }
      ],
      "name": "proxyImplementation",
      "outputs": [
        {
          "internalType": "address",
          "name": "",
          "type": "address"
        }
      ],
      "stateMutability": "view",
      "type": "function"
    },
    {
      "inputs": [
        {
          "internalType": "address",
          "name": "account",
          "type": "address"
        }
      ],
      "name": "removeAdmin",
      "outputs": [],
      "stateMutability": "nonpayable",
      "type": "function"
    },
    {
      "inputs": [
        {
          "internalType": "bytes32",
          "name": "role",
          "type": "bytes32"
        },
        {
          "internalType": "address",
          "name": "account",
          "type": "address"
        }
      ],
      "name": "renounceRole",
      "outputs": [],
      "stateMutability": "nonpayable",
      "type": "function"
    },
    {
      "inputs": [
        {
          "internalType": "bytes32",
          "name": "role",
          "type": "bytes32"
        },
        {
          "internalType": "address",
          "name": "account",
          "type": "address"
        }
      ],
      "name": "revokeRole",
      "outputs": [],
      "stateMutability": "nonpayable",
      "type": "function"
    },
    {
      "inputs": [
        {
          "internalType": "bytes4",
          "name": "",
          "type": "bytes4"
        }
      ],
      "name": "selectorImplementation",
      "outputs": [
        {
          "internalType": "address",
          "name": "",
          "type": "address"
        }
      ],
      "stateMutability": "view",
      "type": "function"
    },
    {
      "inputs": [
        {
          "internalType": "address",
          "name": "_l2StakeV2",
          "type": "address"
        }
      ],
      "name": "setL2Stakev2",
      "outputs": [],
      "stateMutability": "nonpayable",
      "type": "function"
    },
    {
      "inputs": [
        {
          "internalType": "address",
          "name": "_lockIdNftForRegister",
          "type": "address"
        }
      ],
      "name": "setLockIdNftForRegister",
      "outputs": [],
      "stateMutability": "nonpayable",
      "type": "function"
    },
    {
      "inputs": [
        {
          "internalType": "bytes4",
          "name": "interfaceId",
          "type": "bytes4"
        }
      ],
      "name": "supportsInterface",
      "outputs": [
        {
          "internalType": "bool",
          "name": "",
          "type": "bool"
        }
      ],
      "stateMutability": "view",
      "type": "function"
    },
    {
      "inputs": [],
      "name": "totalSupply",
      "outputs": [
        {
          "internalType": "uint256",
          "name": "amount",
          "type": "uint256"
        }
      ],
      "stateMutability": "view",
      "type": "function"
    },
    {
      "inputs": [
        {
          "internalType": "uint256",
          "name": "timestamp",
          "type": "uint256"
        }
      ],
      "name": "totalSupplyAt",
      "outputs": [
        {
          "internalType": "uint256",
          "name": "amount",
          "type": "uint256"
        }
      ],
      "stateMutability": "view",
      "type": "function"
    },
    {
      "inputs": [
        {
          "internalType": "address",
          "name": "newAdmin",
          "type": "address"
        }
      ],
      "name": "transferAdmin",
      "outputs": [],
      "stateMutability": "nonpayable",
      "type": "function"
    }
  ],
  "transactionHash": "0x72b3d81bd49f6c00c569e6dd3ad25a80d005907328b97b9374a14e025361d2d7",
  "args": [],
  "numDeployments": 1,
  "solcInputHash": "45d0672b273989ad93ec409a9a777d39",
  "bytecode": "0x608060405234801561001057600080fd5b506113f5806100206000396000f3fe608060405234801561001057600080fd5b50600436106101a35760003560e01c806363a8fd89116100ee57806391d1485411610097578063b911135f11610071578063b911135f146103dc578063c9ac89a414610405578063d547741f14610418578063e65be2d01461042b57600080fd5b806391d1485414610388578063981b24d0146103c1578063a217fddf146103d457600080fd5b806370a08231116100c857806370a082311461033b57806375829def1461034e57806375b238fc1461036157600080fd5b806363a8fd89146103085780636b765aa614610315578063704802751461032857600080fd5b80632f2ff15d116101505780634ee2cd7e1161012a5780634ee2cd7e1461029157806350d2a276146102a4578063550d01a3146102e557600080fd5b80632f2ff15d1461025857806336568abe1461026b5780634588f7ab1461027e57600080fd5b8063229852461161018157806322985246146101fb578063248a9ca31461022257806324d7806c1461024557600080fd5b806301ffc9a7146101a85780631785f53c146101d057806318160ddd146101e5575b600080fd5b6101bb6101b63660046111a9565b61043e565b60405190151581526020015b60405180910390f35b6101e36101de3660046111ea565b610475565b005b6101ed610507565b6040519081526020016101c7565b6101ed7ffb5864e8ff833c3cb2d2d08505e82ff02a43554c74a35d4f5a64e8526127831181565b6101ed610230366004611205565b60009081526004602052604090206001015490565b6101bb6102533660046111ea565b610637565b6101e361026636600461121e565b610677565b6101e361027936600461121e565b6106a1565b6101e361028c3660046111ea565b61072d565b6101ed61029f36600461124a565b610835565b6102cd6102b23660046111a9565b6003602052600090815260409020546001600160a01b031681565b6040516001600160a01b0390911681526020016101c7565b6101bb6102f33660046111ea565b60026020526000908152604090205460ff1681565b6000546101bb9060ff1681565b6006546102cd906001600160a01b031681565b6101e36103363660046111ea565b610967565b6101ed6103493660046111ea565b6109f1565b6101e361035c3660046111ea565b610b0f565b6101ed7fdf8b4c520ffe197c5343c6f5aec59570151ef9a492f2c624fd45ddde6135ec4281565b6101bb61039636600461121e565b60009182526004602090815260408084206001600160a01b0393909316845291905290205460ff1690565b6101ed6103cf366004611205565b610c71565b6101ed600081565b6102cd6103ea366004611205565b6001602052600090815260409020546001600160a01b031681565b6101e36104133660046111ea565b610d46565b6101e361042636600461121e565b610e25565b6005546102cd906001600160a01b031681565b60006001600160e01b03198216637965db0b60e01b148061046f57506301ffc9a760e01b6001600160e01b03198316145b92915050565b61047e33610637565b6104da5760405162461bcd60e51b815260206004820152602260248201527f41636365737369626c653a2043616c6c6572206973206e6f7420616e2061646d60448201526134b760f11b60648201526084015b60405180910390fd5b6105047fdf8b4c520ffe197c5343c6f5aec59570151ef9a492f2c624fd45ddde6135ec42826106a1565b50565b6005546000906001600160a01b03161561059f57600560009054906101000a90046001600160a01b03166001600160a01b0316637f4f24816040518163ffffffff1660e01b8152600401602060405180830381865afa15801561056e573d6000803e3d6000fd5b505050506040513d601f19601f820116820180604052508101906105929190611274565b61059c90826112a3565b90505b6006546001600160a01b03161561063457600660009054906101000a90046001600160a01b03166001600160a01b031663de6961806040518163ffffffff1660e01b8152600401602060405180830381865afa158015610603573d6000803e3d6000fd5b505050506040513d601f19601f820116820180604052508101906106279190611274565b61063190826112a3565b90505b90565b6001600160a01b03811660009081527f2fb794d17134dfdec181ddbac1babb5ab1eb140204ef4d982f294e7fc8b69022602052604081205460ff1661046f565b60008281526004602052604090206001015461069281610e4a565b61069c8383610e54565b505050565b6001600160a01b038116331461071f5760405162461bcd60e51b815260206004820152602f60248201527f416363657373436f6e74726f6c3a2063616e206f6e6c792072656e6f756e636560448201527f20726f6c657320666f722073656c66000000000000000000000000000000000060648201526084016104d1565b6107298282610ef6565b5050565b61073633610637565b61078d5760405162461bcd60e51b815260206004820152602260248201527f41636365737369626c653a2043616c6c6572206973206e6f7420616e2061646d60448201526134b760f11b60648201526084016104d1565b6006546001600160a01b038083169116036107d35760405162461bcd60e51b81526004016104d19060208082526004908201526373616d6560e01b604082015260600190565b6006805473ffffffffffffffffffffffffffffffffffffffff19166001600160a01b0383169081179091556040519081527f0a5d8c4f60693be445ac0cf65391b0feb45faccdca6babf2aee9a71b688b2e50906020015b60405180910390a150565b6005546000906001600160a01b0316156108cb576005546040516320b3455f60e11b81526001600160a01b03858116600483015260248201859052909116906341668abe90604401602060405180830381865afa15801561089a573d6000803e3d6000fd5b505050506040513d601f19601f820116820180604052508101906108be9190611274565b6108c890826112a3565b90505b6006546001600160a01b03161561046f57600654604051630346759360e01b81526001600160a01b03858116600483015263ffffffff8516602483015290911690630346759390604401602060405180830381865afa158015610932573d6000803e3d6000fd5b505050506040513d601f19601f820116820180604052508101906109569190611274565b61096090826112a3565b9392505050565b61097033610637565b6109c75760405162461bcd60e51b815260206004820152602260248201527f41636365737369626c653a2043616c6c6572206973206e6f7420616e2061646d60448201526134b760f11b60648201526084016104d1565b6105047fdf8b4c520ffe197c5343c6f5aec59570151ef9a492f2c624fd45ddde6135ec4282610677565b6005546000906001600160a01b031615610a8057600554604051633e47a4b160e01b81526001600160a01b03848116600483015290911690633e47a4b190602401602060405180830381865afa158015610a4f573d6000803e3d6000fd5b505050506040513d601f19601f82011682018060405250810190610a739190611274565b610a7d90826112a3565b90505b6006546001600160a01b031615610b0a57600654604051633e47a4b160e01b81526001600160a01b03848116600483015290911690633e47a4b1906024015b602060405180830381865afa158015610adc573d6000803e3d6000fd5b505050506040513d601f19601f82011682018060405250810190610b009190611274565b61046f90826112a3565b919050565b610b1833610637565b610b6f5760405162461bcd60e51b815260206004820152602260248201527f41636365737369626c653a2043616c6c6572206973206e6f7420616e2061646d60448201526134b760f11b60648201526084016104d1565b6001600160a01b038116610bc55760405162461bcd60e51b815260206004820152601860248201527f41636365737369626c653a207a65726f2061646472657373000000000000000060448201526064016104d1565b6001600160a01b0381163303610c1d5760405162461bcd60e51b815260206004820152601660248201527f41636365737369626c653a2073616d652061646d696e0000000000000000000060448201526064016104d1565b610c477fdf8b4c520ffe197c5343c6f5aec59570151ef9a492f2c624fd45ddde6135ec4282610677565b6105047fdf8b4c520ffe197c5343c6f5aec59570151ef9a492f2c624fd45ddde6135ec42336106a1565b6005546000906001600160a01b031615610cff5760055460405163ac3e9ccd60e01b8152600481018490526001600160a01b039091169063ac3e9ccd90602401602060405180830381865afa158015610cce573d6000803e3d6000fd5b505050506040513d601f19601f82011682018060405250810190610cf29190611274565b610cfc90826112a3565b90505b6006546001600160a01b031615610b0a5760065460405163a36c36e560e01b815263ffffffff841660048201526001600160a01b039091169063a36c36e590602401610abf565b610d4f33610637565b610da65760405162461bcd60e51b815260206004820152602260248201527f41636365737369626c653a2043616c6c6572206973206e6f7420616e2061646d60448201526134b760f11b60648201526084016104d1565b6005546001600160a01b03808316911603610dec5760405162461bcd60e51b81526004016104d19060208082526004908201526373616d6560e01b604082015260600190565b6040516001600160a01b03821681527f990c137f3faa15669a0ca573d438cda706ccc26009f24a92e914a7cc21ed97189060200161082a565b600082815260046020526040902060010154610e4081610e4a565b61069c8383610ef6565b6105048133610f79565b60008281526004602090815260408083206001600160a01b038516845290915290205460ff166107295760008281526004602090815260408083206001600160a01b03851684529091529020805460ff19166001179055610eb23390565b6001600160a01b0316816001600160a01b0316837f2f8788117e7eff1d82e926ec794901d17c78024a50270940304540a733656f0d60405160405180910390a45050565b60008281526004602090815260408083206001600160a01b038516845290915290205460ff16156107295760008281526004602090815260408083206001600160a01b0385168085529252808320805460ff1916905551339285917ff6391f5c32d9c69d2a47ea670b442974b53935d1edc7fd64eb21e047a839171b9190a45050565b60008281526004602090815260408083206001600160a01b038516845290915290205460ff1661072957610fac81610fee565b610fb7836020611000565b604051602001610fc89291906112da565b60408051601f198184030181529082905262461bcd60e51b82526104d19160040161135b565b606061046f6001600160a01b03831660145b6060600061100f83600261138e565b61101a9060026112a3565b67ffffffffffffffff811115611032576110326113a5565b6040519080825280601f01601f19166020018201604052801561105c576020820181803683370190505b509050600360fc1b81600081518110611077576110776113bb565b60200101906001600160f81b031916908160001a905350600f60fb1b816001815181106110a6576110a66113bb565b60200101906001600160f81b031916908160001a90535060006110ca84600261138e565b6110d59060016112a3565b90505b600181111561115a577f303132333435363738396162636465660000000000000000000000000000000085600f1660108110611116576111166113bb565b1a60f81b82828151811061112c5761112c6113bb565b60200101906001600160f81b031916908160001a90535060049490941c93611153816113d1565b90506110d8565b5083156109605760405162461bcd60e51b815260206004820181905260248201527f537472696e67733a20686578206c656e67746820696e73756666696369656e7460448201526064016104d1565b6000602082840312156111bb57600080fd5b81356001600160e01b03198116811461096057600080fd5b80356001600160a01b0381168114610b0a57600080fd5b6000602082840312156111fc57600080fd5b610960826111d3565b60006020828403121561121757600080fd5b5035919050565b6000806040838503121561123157600080fd5b82359150611241602084016111d3565b90509250929050565b6000806040838503121561125d57600080fd5b611266836111d3565b946020939093013593505050565b60006020828403121561128657600080fd5b5051919050565b634e487b7160e01b600052601160045260246000fd5b8082018082111561046f5761046f61128d565b60005b838110156112d15781810151838201526020016112b9565b50506000910152565b7f416363657373436f6e74726f6c3a206163636f756e74200000000000000000008152600083516113128160178501602088016112b6565b7f206973206d697373696e6720726f6c6520000000000000000000000000000000601791840191820152835161134f8160288401602088016112b6565b01602801949350505050565b602081526000825180602084015261137a8160408501602087016112b6565b601f01601f19169190910160400192915050565b808202811582820484141761046f5761046f61128d565b634e487b7160e01b600052604160045260246000fd5b634e487b7160e01b600052603260045260246000fd5b6000816113e0576113e061128d565b50600019019056fea164736f6c6343000812000a",
  "devdoc": {
    "events": {
      "RoleAdminChanged(bytes32,bytes32,bytes32)": {
        "details": "Emitted when `newAdminRole` is set as ``role``'s admin role, replacing `previousAdminRole` `DEFAULT_ADMIN_ROLE` is the starting admin for all roles, despite {RoleAdminChanged} not being emitted signaling this. _Available since v3.1._"
      },
      "RoleGranted(bytes32,address,address)": {
        "details": "Emitted when `account` is granted `role`. `sender` is the account that originated the contract call, an admin role bearer except when using {AccessControl-_setupRole}."
      },
      "RoleRevoked(bytes32,address,address)": {
        "details": "Emitted when `account` is revoked `role`. `sender` is the account that originated the contract call:   - if using `revokeRole`, it is the admin role bearer   - if using `renounceRole`, it is the role bearer (i.e. `account`)"
      }
    },
    "kind": "dev",
    "methods": {
      "addAdmin(address)": {
        "details": "add admin",
        "params": {
          "account": "address to add"
        }
      },
      "getRoleAdmin(bytes32)": {
        "details": "Returns the admin role that controls `role`. See {grantRole} and {revokeRole}. To change a role's admin, use {_setRoleAdmin}."
      },
      "grantRole(bytes32,address)": {
        "details": "Grants `role` to `account`. If `account` had not been already granted `role`, emits a {RoleGranted} event. Requirements: - the caller must have ``role``'s admin role. May emit a {RoleGranted} event."
      },
      "hasRole(bytes32,address)": {
        "details": "Returns `true` if `account` has been granted `role`."
      },
      "isAdmin(address)": {
        "details": "whether admin",
        "params": {
          "account": "address to check"
        }
      },
      "removeAdmin(address)": {
        "details": "remove admin",
        "params": {
          "account": "address to remove"
        }
      },
      "renounceRole(bytes32,address)": {
        "details": "Revokes `role` from the calling account. Roles are often managed via {grantRole} and {revokeRole}: this function's purpose is to provide a mechanism for accounts to lose their privileges if they are compromised (such as when a trusted device is misplaced). If the calling account had been revoked `role`, emits a {RoleRevoked} event. Requirements: - the caller must be `account`. May emit a {RoleRevoked} event."
      },
      "revokeRole(bytes32,address)": {
        "details": "Revokes `role` from `account`. If `account` had been granted `role`, emits a {RoleRevoked} event. Requirements: - the caller must have ``role``'s admin role. May emit a {RoleRevoked} event."
      },
      "supportsInterface(bytes4)": {
        "details": "See {IERC165-supportsInterface}."
      },
      "transferAdmin(address)": {
        "details": "transfer admin",
        "params": {
          "newAdmin": "new admin address"
        }
      }
    },
    "version": 1
  },
  "userdoc": {
    "kind": "user",
    "methods": {},
    "version": 1
  },
  "storageLayout": {
    "storage": [
      {
        "astId": 1928,
        "contract": "contracts/L2/stos/L2UniversalStos.sol:L2UniversalStos",
        "label": "pauseProxy",
        "offset": 0,
        "slot": "0",
        "type": "t_bool"
      },
      {
        "astId": 1932,
        "contract": "contracts/L2/stos/L2UniversalStos.sol:L2UniversalStos",
        "label": "proxyImplementation",
        "offset": 0,
        "slot": "1",
        "type": "t_mapping(t_uint256,t_address)"
      },
      {
        "astId": 1936,
        "contract": "contracts/L2/stos/L2UniversalStos.sol:L2UniversalStos",
        "label": "aliveImplementation",
        "offset": 0,
        "slot": "2",
        "type": "t_mapping(t_address,t_bool)"
      },
      {
        "astId": 1940,
        "contract": "contracts/L2/stos/L2UniversalStos.sol:L2UniversalStos",
        "label": "selectorImplementation",
        "offset": 0,
        "slot": "3",
        "type": "t_mapping(t_bytes4,t_address)"
      },
      {
        "astId": 24,
        "contract": "contracts/L2/stos/L2UniversalStos.sol:L2UniversalStos",
        "label": "_roles",
        "offset": 0,
        "slot": "4",
        "type": "t_mapping(t_bytes32,t_struct(RoleData)19_storage)"
      },
      {
        "astId": 1807,
        "contract": "contracts/L2/stos/L2UniversalStos.sol:L2UniversalStos",
        "label": "l2StakeV2",
        "offset": 0,
        "slot": "5",
        "type": "t_address"
      },
      {
        "astId": 1809,
        "contract": "contracts/L2/stos/L2UniversalStos.sol:L2UniversalStos",
        "label": "lockIdNftForRegister",
        "offset": 0,
        "slot": "6",
        "type": "t_address"
      }
    ],
    "types": {
      "t_address": {
        "encoding": "inplace",
        "label": "address",
        "numberOfBytes": "20"
      },
      "t_bool": {
        "encoding": "inplace",
        "label": "bool",
        "numberOfBytes": "1"
      },
      "t_bytes32": {
        "encoding": "inplace",
        "label": "bytes32",
        "numberOfBytes": "32"
      },
      "t_bytes4": {
        "encoding": "inplace",
        "label": "bytes4",
        "numberOfBytes": "4"
      },
      "t_mapping(t_address,t_bool)": {
        "encoding": "mapping",
        "key": "t_address",
        "label": "mapping(address => bool)",
        "numberOfBytes": "32",
        "value": "t_bool"
      },
      "t_mapping(t_bytes32,t_struct(RoleData)19_storage)": {
        "encoding": "mapping",
        "key": "t_bytes32",
        "label": "mapping(bytes32 => struct AccessControl.RoleData)",
        "numberOfBytes": "32",
        "value": "t_struct(RoleData)19_storage"
      },
      "t_mapping(t_bytes4,t_address)": {
        "encoding": "mapping",
        "key": "t_bytes4",
        "label": "mapping(bytes4 => address)",
        "numberOfBytes": "32",
        "value": "t_address"
      },
      "t_mapping(t_uint256,t_address)": {
        "encoding": "mapping",
        "key": "t_uint256",
        "label": "mapping(uint256 => address)",
        "numberOfBytes": "32",
        "value": "t_address"
      },
      "t_struct(RoleData)19_storage": {
        "encoding": "inplace",
        "label": "struct AccessControl.RoleData",
        "members": [
          {
            "astId": 16,
            "contract": "contracts/L2/stos/L2UniversalStos.sol:L2UniversalStos",
            "label": "members",
            "offset": 0,
            "slot": "0",
            "type": "t_mapping(t_address,t_bool)"
          },
          {
            "astId": 18,
            "contract": "contracts/L2/stos/L2UniversalStos.sol:L2UniversalStos",
            "label": "adminRole",
            "offset": 0,
            "slot": "1",
            "type": "t_bytes32"
          }
        ],
        "numberOfBytes": "64"
      },
      "t_uint256": {
        "encoding": "inplace",
        "label": "uint256",
        "numberOfBytes": "32"
      }
    }
  }
}